{
  "_format": "hh-sol-artifact-1",
  "contractName": "SnapshotV2",
  "sourceName": "contracts/SnapshotV2.sol",
  "abi": [
    {
      "inputs": [
        {
          "internalType": "address",
          "name": "oracle",
          "type": "address"
        },
        {
          "internalType": "contract IVerifier",
          "name": "_verifier",
          "type": "address"
        },
        {
          "internalType": "uint32",
          "name": "_merkleTreeHeight",
          "type": "uint32"
        },
        {
          "internalType": "address",
          "name": "_hasher",
          "type": "address"
        },
        {
          "internalType": "address",
          "name": "_subscriptionManager",
          "type": "address"
        },
        {
          "internalType": "uint64",
          "name": "_subscriptionId",
          "type": "uint64"
        },
        {
          "internalType": "uint32",
          "name": "_fulfillGasLimit",
          "type": "uint32"
        }
      ],
      "stateMutability": "nonpayable",
      "type": "constructor"
    },
    {
      "inputs": [],
      "name": "EmptyArgs",
      "type": "error"
    },
    {
      "inputs": [],
      "name": "EmptySecrets",
      "type": "error"
    },
    {
      "inputs": [],
      "name": "EmptySource",
      "type": "error"
    },
    {
      "inputs": [
        {
          "internalType": "string",
          "name": "message",
          "type": "string"
        }
      ],
      "name": "MerkleTree__TreeLevelsOutOfRange",
      "type": "error"
    },
    {
      "inputs": [],
      "name": "RequestIsAlreadyPending",
      "type": "error"
    },
    {
      "inputs": [],
      "name": "RequestIsNotPending",
      "type": "error"
    },
    {
      "inputs": [],
      "name": "SenderIsNotRegistry",
      "type": "error"
    },
    {
      "inputs": [
        {
          "internalType": "string",
          "name": "message",
          "type": "string"
        }
      ],
      "name": "SnapshotV2__CommitmentAlreadyUsed",
      "type": "error"
    },
    {
      "inputs": [
        {
          "internalType": "string",
          "name": "message",
          "type": "string"
        }
      ],
      "name": "SnapshotV2__InvalidProof",
      "type": "error"
    },
    {
      "inputs": [
        {
          "internalType": "string",
          "name": "message",
          "type": "string"
        }
      ],
      "name": "SnapshotV2__NullifierAlreadyUsed",
      "type": "error"
    },
    {
      "inputs": [
        {
          "internalType": "string",
          "name": "message",
          "type": "string"
        }
      ],
      "name": "SnapshotV2__RandomWordsNotUpdated",
      "type": "error"
    },
    {
      "inputs": [
        {
          "internalType": "string",
          "name": "message",
          "type": "string"
        }
      ],
      "name": "SnapshotV2__RootNotKnown",
      "type": "error"
    },
    {
      "inputs": [
        {
          "internalType": "string",
          "name": "message",
          "type": "string"
        }
      ],
      "name": "SnapshotV2__TimeInterval",
      "type": "error"
    },
    {
      "anonymous": false,
      "inputs": [
        {
          "indexed": false,
          "internalType": "bytes32",
          "name": "commitment",
          "type": "bytes32"
        },
        {
          "indexed": false,
          "internalType": "uint32",
          "name": "insertedIndex",
          "type": "uint32"
        },
        {
          "indexed": false,
          "internalType": "address",
          "name": "wallet",
          "type": "address"
        }
      ],
      "name": "Inserted",
      "type": "event"
    },
    {
      "anonymous": false,
      "inputs": [
        {
          "indexed": true,
          "internalType": "bytes32",
          "name": "requestId",
          "type": "bytes32"
        },
        {
          "indexed": false,
          "internalType": "bytes",
          "name": "result",
          "type": "bytes"
        },
        {
          "indexed": false,
          "internalType": "bytes",
          "name": "err",
          "type": "bytes"
        }
      ],
      "name": "OCRResponse",
      "type": "event"
    },
    {
      "anonymous": false,
      "inputs": [
        {
          "indexed": true,
          "internalType": "address",
          "name": "from",
          "type": "address"
        },
        {
          "indexed": true,
          "internalType": "address",
          "name": "to",
          "type": "address"
        }
      ],
      "name": "OwnershipTransferRequested",
      "type": "event"
    },
    {
      "anonymous": false,
      "inputs": [
        {
          "indexed": true,
          "internalType": "address",
          "name": "from",
          "type": "address"
        },
        {
          "indexed": true,
          "internalType": "address",
          "name": "to",
          "type": "address"
        }
      ],
      "name": "OwnershipTransferred",
      "type": "event"
    },
    {
      "anonymous": false,
      "inputs": [
        {
          "indexed": true,
          "internalType": "bytes32",
          "name": "id",
          "type": "bytes32"
        }
      ],
      "name": "RequestFulfilled",
      "type": "event"
    },
    {
      "anonymous": false,
      "inputs": [
        {
          "indexed": true,
          "internalType": "bytes32",
          "name": "id",
          "type": "bytes32"
        }
      ],
      "name": "RequestSent",
      "type": "event"
    },
    {
      "anonymous": false,
      "inputs": [
        {
          "indexed": false,
          "internalType": "string",
          "name": "message",
          "type": "string"
        },
        {
          "indexed": false,
          "internalType": "bytes32",
          "name": "nullifier",
          "type": "bytes32"
        }
      ],
      "name": "messagePosted",
      "type": "event"
    },
    {
      "anonymous": false,
      "inputs": [],
      "name": "messagesCleared",
      "type": "event"
    },
    {
      "inputs": [],
      "name": "FIELD_SIZE",
      "outputs": [
        {
          "internalType": "uint256",
          "name": "",
          "type": "uint256"
        }
      ],
      "stateMutability": "view",
      "type": "function"
    },
    {
      "inputs": [],
      "name": "ROOT_HISTORY_SIZE",
      "outputs": [
        {
          "internalType": "uint32",
          "name": "",
          "type": "uint32"
        }
      ],
      "stateMutability": "view",
      "type": "function"
    },
    {
      "inputs": [],
      "name": "ZERO_VALUE",
      "outputs": [
        {
          "internalType": "uint256",
          "name": "",
          "type": "uint256"
        }
      ],
      "stateMutability": "view",
      "type": "function"
    },
    {
      "inputs": [],
      "name": "acceptOwnership",
      "outputs": [],
      "stateMutability": "nonpayable",
      "type": "function"
    },
    {
      "inputs": [
        {
          "internalType": "bytes",
          "name": "",
          "type": "bytes"
        }
      ],
      "name": "checkUpkeep",
      "outputs": [
        {
          "internalType": "bool",
          "name": "upkeepNeeded",
          "type": "bool"
        },
        {
          "internalType": "bytes",
          "name": "",
          "type": "bytes"
        }
      ],
      "stateMutability": "view",
      "type": "function"
    },
    {
      "inputs": [],
      "name": "clearMessages",
      "outputs": [],
      "stateMutability": "nonpayable",
      "type": "function"
    },
    {
      "inputs": [
        {
          "internalType": "bytes32",
          "name": "",
          "type": "bytes32"
        }
      ],
      "name": "commitments",
      "outputs": [
        {
          "internalType": "bool",
          "name": "",
          "type": "bool"
        }
      ],
      "stateMutability": "view",
      "type": "function"
    },
    {
      "inputs": [],
      "name": "currentRootIndex",
      "outputs": [
        {
          "internalType": "uint32",
          "name": "",
          "type": "uint32"
        }
      ],
      "stateMutability": "view",
      "type": "function"
    },
    {
      "inputs": [
        {
          "components": [
            {
              "internalType": "enum Functions.Location",
              "name": "codeLocation",
              "type": "uint8"
            },
            {
              "internalType": "enum Functions.Location",
              "name": "secretsLocation",
              "type": "uint8"
            },
            {
              "internalType": "enum Functions.CodeLanguage",
              "name": "language",
              "type": "uint8"
            },
            {
              "internalType": "string",
              "name": "source",
              "type": "string"
            },
            {
              "internalType": "bytes",
              "name": "secrets",
              "type": "bytes"
            },
            {
              "internalType": "string[]",
              "name": "args",
              "type": "string[]"
            }
          ],
          "internalType": "struct Functions.Request",
          "name": "req",
          "type": "tuple"
        },
        {
          "internalType": "uint64",
          "name": "subscriptionId",
          "type": "uint64"
        },
        {
          "internalType": "uint32",
          "name": "gasLimit",
          "type": "uint32"
        },
        {
          "internalType": "uint256",
          "name": "gasPrice",
          "type": "uint256"
        }
      ],
      "name": "estimateCost",
      "outputs": [
        {
          "internalType": "uint96",
          "name": "",
          "type": "uint96"
        }
      ],
      "stateMutability": "view",
      "type": "function"
    },
    {
      "inputs": [
        {
          "internalType": "uint256",
          "name": "",
          "type": "uint256"
        }
      ],
      "name": "filledSubtrees",
      "outputs": [
        {
          "internalType": "bytes32",
          "name": "",
          "type": "bytes32"
        }
      ],
      "stateMutability": "view",
      "type": "function"
    },
    {
      "inputs": [],
      "name": "fulfillGasLimit",
      "outputs": [
        {
          "internalType": "uint32",
          "name": "",
          "type": "uint32"
        }
      ],
      "stateMutability": "view",
      "type": "function"
    },
    {
      "inputs": [
        {
          "internalType": "string",
          "name": "source",
          "type": "string"
        },
        {
          "internalType": "bytes",
          "name": "secrets",
          "type": "bytes"
        },
        {
          "internalType": "string[]",
          "name": "args",
          "type": "string[]"
        }
      ],
      "name": "generateRequest",
      "outputs": [
        {
          "internalType": "bytes",
          "name": "",
          "type": "bytes"
        }
      ],
      "stateMutability": "pure",
      "type": "function"
    },
    {
      "inputs": [],
      "name": "getDONPublicKey",
      "outputs": [
        {
          "internalType": "bytes",
          "name": "",
          "type": "bytes"
        }
      ],
      "stateMutability": "view",
      "type": "function"
    },
    {
      "inputs": [],
      "name": "getLastRoot",
      "outputs": [
        {
          "internalType": "bytes32",
          "name": "",
          "type": "bytes32"
        }
      ],
      "stateMutability": "view",
      "type": "function"
    },
    {
      "inputs": [],
      "name": "getMessages",
      "outputs": [
        {
          "internalType": "string[]",
          "name": "",
          "type": "string[]"
        }
      ],
      "stateMutability": "view",
      "type": "function"
    },
    {
      "inputs": [
        {
          "internalType": "bytes32",
          "name": "requestId",
          "type": "bytes32"
        },
        {
          "internalType": "bytes",
          "name": "response",
          "type": "bytes"
        },
        {
          "internalType": "bytes",
          "name": "err",
          "type": "bytes"
        }
      ],
      "name": "handleOracleFulfillment",
      "outputs": [],
      "stateMutability": "nonpayable",
      "type": "function"
    },
    {
      "inputs": [
        {
          "internalType": "bytes32",
          "name": "_left",
          "type": "bytes32"
        },
        {
          "internalType": "bytes32",
          "name": "_right",
          "type": "bytes32"
        }
      ],
      "name": "hashLeftRight",
      "outputs": [
        {
          "internalType": "bytes32",
          "name": "",
          "type": "bytes32"
        }
      ],
      "stateMutability": "view",
      "type": "function"
    },
    {
      "inputs": [],
      "name": "hasher",
      "outputs": [
        {
          "internalType": "contract IHasher",
          "name": "",
          "type": "address"
        }
      ],
      "stateMutability": "view",
      "type": "function"
    },
    {
      "inputs": [
        {
          "internalType": "bytes32",
          "name": "_commitment",
          "type": "bytes32"
        },
        {
          "internalType": "address",
          "name": "wallet",
          "type": "address"
        }
      ],
      "name": "insertIntoTree",
      "outputs": [],
      "stateMutability": "nonpayable",
      "type": "function"
    },
    {
      "inputs": [
        {
          "internalType": "bytes32",
          "name": "_root",
          "type": "bytes32"
        }
      ],
      "name": "isKnownRoot",
      "outputs": [
        {
          "internalType": "bool",
          "name": "",
          "type": "bool"
        }
      ],
      "stateMutability": "view",
      "type": "function"
    },
    {
      "inputs": [
        {
          "internalType": "bytes32",
          "name": "_nullifier",
          "type": "bytes32"
        }
      ],
      "name": "isNullifierUsed",
      "outputs": [
        {
          "internalType": "bool",
          "name": "",
          "type": "bool"
        }
      ],
      "stateMutability": "view",
      "type": "function"
    },
    {
      "inputs": [],
      "name": "lastUpkeepTimeStamp",
      "outputs": [
        {
          "internalType": "uint256",
          "name": "",
          "type": "uint256"
        }
      ],
      "stateMutability": "view",
      "type": "function"
    },
    {
      "inputs": [],
      "name": "latestError",
      "outputs": [
        {
          "internalType": "bytes",
          "name": "",
          "type": "bytes"
        }
      ],
      "stateMutability": "view",
      "type": "function"
    },
    {
      "inputs": [],
      "name": "latestRequestId",
      "outputs": [
        {
          "internalType": "bytes32",
          "name": "",
          "type": "bytes32"
        }
      ],
      "stateMutability": "view",
      "type": "function"
    },
    {
      "inputs": [],
      "name": "latestResponse",
      "outputs": [
        {
          "internalType": "bytes",
          "name": "",
          "type": "bytes"
        }
      ],
      "stateMutability": "view",
      "type": "function"
    },
    {
      "inputs": [],
      "name": "levels",
      "outputs": [
        {
          "internalType": "uint32",
          "name": "",
          "type": "uint32"
        }
      ],
      "stateMutability": "view",
      "type": "function"
    },
    {
      "inputs": [],
      "name": "nextIndex",
      "outputs": [
        {
          "internalType": "uint32",
          "name": "",
          "type": "uint32"
        }
      ],
      "stateMutability": "view",
      "type": "function"
    },
    {
      "inputs": [
        {
          "internalType": "bytes32",
          "name": "",
          "type": "bytes32"
        }
      ],
      "name": "nullifiers",
      "outputs": [
        {
          "internalType": "bool",
          "name": "",
          "type": "bool"
        }
      ],
      "stateMutability": "view",
      "type": "function"
    },
    {
      "inputs": [],
      "name": "owner",
      "outputs": [
        {
          "internalType": "address",
          "name": "",
          "type": "address"
        }
      ],
      "stateMutability": "view",
      "type": "function"
    },
    {
      "inputs": [
        {
          "internalType": "bytes",
          "name": "",
          "type": "bytes"
        }
      ],
      "name": "performUpkeep",
      "outputs": [],
      "stateMutability": "nonpayable",
      "type": "function"
    },
    {
      "inputs": [
        {
          "internalType": "string",
          "name": "_message",
          "type": "string"
        },
        {
          "internalType": "bytes32",
          "name": "_nullifierHash",
          "type": "bytes32"
        },
        {
          "internalType": "bytes32",
          "name": "_root",
          "type": "bytes32"
        },
        {
          "components": [
            {
              "internalType": "uint256[2]",
              "name": "a",
              "type": "uint256[2]"
            },
            {
              "internalType": "uint256[2][2]",
              "name": "b",
              "type": "uint256[2][2]"
            },
            {
              "internalType": "uint256[2]",
              "name": "c",
              "type": "uint256[2]"
            }
          ],
          "internalType": "struct Proof",
          "name": "_proof",
          "type": "tuple"
        }
      ],
      "name": "postMessageWithProof",
      "outputs": [],
      "stateMutability": "nonpayable",
      "type": "function"
    },
    {
      "inputs": [],
      "name": "requestCBOR",
      "outputs": [
        {
          "internalType": "bytes",
          "name": "",
          "type": "bytes"
        }
      ],
      "stateMutability": "view",
      "type": "function"
    },
    {
      "inputs": [],
      "name": "responseCounter",
      "outputs": [
        {
          "internalType": "uint256",
          "name": "",
          "type": "uint256"
        }
      ],
      "stateMutability": "view",
      "type": "function"
    },
    {
      "inputs": [
        {
          "internalType": "uint256",
          "name": "",
          "type": "uint256"
        }
      ],
      "name": "roots",
      "outputs": [
        {
          "internalType": "bytes32",
          "name": "",
          "type": "bytes32"
        }
      ],
      "stateMutability": "view",
      "type": "function"
    },
    {
      "inputs": [],
      "name": "subscriptionId",
      "outputs": [
        {
          "internalType": "uint64",
          "name": "",
          "type": "uint64"
        }
      ],
      "stateMutability": "view",
      "type": "function"
    },
    {
      "inputs": [],
      "name": "subscriptionManager",
      "outputs": [
        {
          "internalType": "contract IVRFv2SubscriptionManager",
          "name": "",
          "type": "address"
        }
      ],
      "stateMutability": "view",
      "type": "function"
    },
    {
      "inputs": [
        {
          "internalType": "address",
          "name": "to",
          "type": "address"
        }
      ],
      "name": "transferOwnership",
      "outputs": [],
      "stateMutability": "nonpayable",
      "type": "function"
    },
    {
      "inputs": [],
      "name": "updateInterval",
      "outputs": [
        {
          "internalType": "uint256",
          "name": "",
          "type": "uint256"
        }
      ],
      "stateMutability": "view",
      "type": "function"
    },
    {
      "inputs": [],
      "name": "upkeepCounter",
      "outputs": [
        {
          "internalType": "uint256",
          "name": "",
          "type": "uint256"
        }
      ],
      "stateMutability": "view",
      "type": "function"
    },
    {
      "inputs": [],
      "name": "verifier",
      "outputs": [
        {
          "internalType": "contract IVerifier",
          "name": "",
          "type": "address"
        }
      ],
      "stateMutability": "view",
      "type": "function"
    },
    {
      "inputs": [
        {
          "internalType": "uint256",
          "name": "",
          "type": "uint256"
        }
      ],
      "name": "zeros",
      "outputs": [
        {
          "internalType": "bytes32",
          "name": "",
          "type": "bytes32"
        }
      ],
      "stateMutability": "view",
      "type": "function"
    }
  ],
  "bytecode": "0x60a0604052600780546001600160401b03191690553480156200002157600080fd5b5060405162003abd38038062003abd83398101604081905262000044916200070a565b600080546001600160a01b0319166001600160a01b03891617815585908590339081906001600160a01b038216620000c35760405162461bcd60e51b815260206004820152601860248201527f43616e6e6f7420736574206f776e657220746f207a65726f000000000000000060448201526064015b60405180910390fd5b600280546001600160a01b0319166001600160a01b0384811691909117909155811615620000f657620000f68162000337565b505050602063ffffffff831611156200016257604051632d5d403760e01b815260206004820152602660248201527f54726565206c6576656c732073686f756c64206265206265747765656e20302060448201526530b73210199960d11b6064820152608401620000ba565b600480546001600160a01b0319166001600160a01b03831617905563ffffffff82166080526006805460018181019092557f2fe54c60d3acabf3343a35b6eba15db4821b340f76e741e2249685ed4899af6c60008051602062003a9d83398151915290910181905560058054808401825560009190915260008051602062003a7d83398151915201819055905b8363ffffffff168163ffffffff1610156200026757620002108280620003e4565b60068054600181810190925560008051602062003a9d8339815191520182905560058054918201815560005260008051602062003a7d833981519152018190559150806200025e81620007b7565b915050620001ef565b50620002748180620003e4565b60085550506001606c55506040805160008082526020820190925290620002ac565b6060815260200190600190039081620002965790505b508051620002c39160799160209091019062000571565b50607580546001600160a01b039788166001600160a01b0319918216179091556076805494909716931692909217909455606e805463ffffffff90921668010000000000000000026001600160601b03199092166001600160401b039095169490941717909255505042606f555062000874565b6001600160a01b038116331415620003925760405162461bcd60e51b815260206004820152601760248201527f43616e6e6f74207472616e7366657220746f2073656c660000000000000000006044820152606401620000ba565b600380546001600160a01b0319166001600160a01b03838116918217909255600254604051919216907fed8889f560326eb138920d842192f0eb3dd22b4f139c87a2c57538e05bae127890600090a350565b60007f30644e72e131a029b85045b68181585d2833e84879b9709143e1f593f00000018310620004575760405162461bcd60e51b815260206004820181905260248201527f5f6c6566742073686f756c6420626520696e7369646520746865206669656c646044820152606401620000ba565b7f30644e72e131a029b85045b68181585d2833e84879b9709143e1f593f00000018210620004d25760405162461bcd60e51b815260206004820152602160248201527f5f72696768742073686f756c6420626520696e7369646520746865206669656c6044820152601960fa1b6064820152608401620000ba565b6040805180820182528481526020810184905260048054925163014cf2b360e51b815291926001600160a01b03169163299e5660916200051591859101620007ea565b60206040518083038186803b1580156200052e57600080fd5b505afa15801562000543573d6000803e3d6000fd5b505050506040513d601f19601f820116820180604052508101906200056991906200081d565b949350505050565b828054828255906000526020600020908101928215620005c3579160200282015b82811115620005c35782518051620005b2918491602090910190620005d5565b509160200191906001019062000592565b50620005d192915062000660565b5090565b828054620005e39062000837565b90600052602060002090601f01602090048101928262000607576000855562000652565b82601f106200062257805160ff191683800117855562000652565b8280016001018555821562000652579182015b828111156200065257825182559160200191906001019062000635565b50620005d192915062000681565b80821115620005d157600062000677828262000698565b5060010162000660565b5b80821115620005d1576000815560010162000682565b508054620006a69062000837565b6000825580601f10620006b7575050565b601f016020900490600052602060002090810190620006d7919062000681565b50565b6001600160a01b0381168114620006d757600080fd5b805163ffffffff811681146200070557600080fd5b919050565b600080600080600080600060e0888a0312156200072657600080fd5b87516200073381620006da565b60208901519097506200074681620006da565b95506200075660408901620006f0565b945060608801516200076881620006da565b60808901519094506200077b81620006da565b60a08901519093506001600160401b03811681146200079957600080fd5b9150620007a960c08901620006f0565b905092959891949750929550565b600063ffffffff80831681811415620007e057634e487b7160e01b600052601160045260246000fd5b6001019392505050565b60408101818360005b600281101562000814578151835260209283019290910190600101620007f3565b50505092915050565b6000602082840312156200083057600080fd5b5051919050565b600181811c908216806200084c57607f821691505b602082108114156200086e57634e487b7160e01b600052602260045260246000fd5b50919050565b6080516131df6200089e600039600081816103d801528181611885015261192001526131df6000f3fe608060405234801561001057600080fd5b50600436106102535760003560e01c80638da5cb5b11610146578063df65850a116100c3578063f178e47c11610087578063f178e47c1461058b578063f2fde38b1461059e578063fc7e9c6f146105b1578063fd2c80ae146105c9578063fe083012146105d3578063fffeb84e146105e657600080fd5b8063df65850a14610523578063e82955881461052b578063ea2637a51461053e578063ec73295914610551578063ed33639f1461057857600080fd5b8063bf158fd21161010a578063bf158fd2146104bd578063c2b40ae4146104d0578063cd87a3b4146104e3578063d328a91e146104eb578063d4b39175146104f357600080fd5b80638da5cb5b1461048357806390eeb02b14610494578063a3d3c0d2146104a4578063ba70f757146104ad578063bef3a2f0146104b557600080fd5b806338bf282e116101d4578063688ecfd111610198578063688ecfd11461040f5780636d9833e3146104245780636e04ff0d1461043757806379ba509714610458578063839df9451461046057600080fd5b806338bf282e14610386578063414a37ba146103995780634585e33b146103c05780634ecf518b146103d35780635ff6cbf3146103fa57600080fd5b806322dc7b4c1161021b57806322dc7b4c146102d057806324b93e3e146103035780632997e86b1461032f5780632b7ac3f314610352578063381fc4b51461037d57600080fd5b8063089ea02e1461025857806309c1ba2e146102745780630ca761751461029f5780631aa46f59146102b4578063218fc350146102bd575b600080fd5b610261606f5481565b6040519081526020015b60405180910390f35b606e54610287906001600160401b031681565b6040516001600160401b03909116815260200161026b565b6102b26102ad366004612371565b6105ee565b005b61026160725481565b6102b26102cb36600461242d565b61067b565b6102f36102de36600461251a565b60009081526077602052604090205460ff1690565b604051901515815260200161026b565b606e5461031a90600160401b900463ffffffff1681565b60405163ffffffff909116815260200161026b565b6102f361033d36600461251a565b60776020526000908152604090205460ff1681565b607554610365906001600160a01b031681565b6040516001600160a01b03909116815260200161026b565b61026160715481565b610261610394366004612533565b6108a9565b6102617f30644e72e131a029b85045b68181585d2833e84879b9709143e1f593f000000181565b6102b26103ce36600461259d565b610a2e565b61031a7f000000000000000000000000000000000000000000000000000000000000000081565b610402610c2a565b60405161026b9190612636565b610417610d03565b60405161026b9190612698565b6102f361043236600461251a565b610d91565b61044a6104453660046126ab565b610e0f565b60405161026b9291906126df565b6102b2610e2d565b6102f361046e36600461251a565b60786020526000908152604090205460ff1681565b6002546001600160a01b0316610365565b60075461031a9063ffffffff1681565b61026160705481565b610261610edb565b610417610f01565b607654610365906001600160a01b031681565b6102616104de36600461251a565b610f0e565b61031a606481565b610417610f25565b6105066105013660046127fe565b610faa565b6040516bffffffffffffffffffffffff909116815260200161026b565b6102b2611042565b61026161053936600461251a565b6110ba565b6102b261054c366004612924565b6110db565b6102617f2fe54c60d3acabf3343a35b6eba15db4821b340f76e741e2249685ed4899af6c81565b600454610365906001600160a01b031681565b61026161059936600461251a565b6111d5565b6102b26105ac366004612954565b6111e5565b60075461031a90640100000000900463ffffffff1681565b6102616212750081565b6104176105e1366004612971565b6111f9565b6104176112f3565b60008381526001602052604090205483906001600160a01b031633146106275760405163a0c5ec6360e01b815260040160405180910390fd5b60008181526001602052604080822080546001600160a01b03191690555182917f85e1543bf2f84fe80c6badbce3648c8539ad1df4d2b3d822938ca0538be727e691a2610675848484611300565b50505050565b6106836115f6565b60008381526077602052604090205460ff16156106e1576040516337a51b3d60e21b8152602060048201526016602482015275139d5b1b1a599a595c88185b1c9958591e481d5cd95960521b60448201526064015b60405180910390fd5b6106ea82610d91565b6107285760405163a4305b1360e01b815260206004820152600e60248201526d2937b7ba103737ba1035b737bbb760911b60448201526064016106d8565b6040805180820182528381526020808201869052607554845191850151858501519451637ae4eb4f60e11b815293946001600160a01b039092169363f5c9d69e9361077a939092918790600401612a5c565b602060405180830381600087803b15801561079457600080fd5b505af11580156107a8573d6000803e3d6000fd5b505050506040513d601f19601f820116820180604052508101906107cc9190612ac3565b610809576040516309daa30960e21b815260206004820152600d60248201526c24b73b30b634b210383937b7b360991b60448201526064016106d8565b60008481526077602090815260408220805460ff191660019081179091556079805491820181559092528651610864927f957bbdc7fad0dec56e7c96af4a3ab63aa9daf934a52ffce891945b7fb622d79101918801906120db565b507f06b6c80bb5c4b26d73a7cf3586c1b2f17bd79f8f7fd3c3e14f9cd709265741208585604051610896929190612ae5565b60405180910390a1506106756001606c55565b60007f30644e72e131a029b85045b68181585d2833e84879b9709143e1f593f0000001831061091a5760405162461bcd60e51b815260206004820181905260248201527f5f6c6566742073686f756c6420626520696e7369646520746865206669656c6460448201526064016106d8565b7f30644e72e131a029b85045b68181585d2833e84879b9709143e1f593f000000182106109935760405162461bcd60e51b815260206004820152602160248201527f5f72696768742073686f756c6420626520696e7369646520746865206669656c6044820152601960fa1b60648201526084016106d8565b6040805180820182528481526020810184905260048054925163014cf2b360e51b815291926001600160a01b03169163299e5660916109d491859101612b07565b60206040518083038186803b1580156109ec57600080fd5b505afa158015610a00573d6000803e3d6000fd5b505050506040513d601f19601f82011682018060405250810190610a249190612b38565b9150505b92915050565b6000610a4860405180602001604052806000815250610e0f565b50905080610a9157604051632f0c8d4b60e21b8152602060048201526015602482015274151a5b59481a5b9d195c9d985b081b9bdd081b595d605a1b60448201526064016106d8565b42606f55607054610aa3906001612b67565b60705560008054606e54604051630a090ac160e21b81526001600160a01b03909216916328242b0491610af5916001600160401b03821691606d91600160401b90910463ffffffff1690600401612bb4565b602060405180830381600087803b158015610b0f57600080fd5b505af1158015610b23573d6000803e3d6000fd5b505050506040513d601f19601f82011682018060405250810190610b479190612b38565b905060008054906101000a90046001600160a01b03166001600160a01b0316635ab1bd536040518163ffffffff1660e01b815260040160206040518083038186803b158015610b9557600080fd5b505afa158015610ba9573d6000803e3d6000fd5b505050506040513d601f19601f82011682018060405250810190610bcd9190612c7a565b60008281526001602052604080822080546001600160a01b0319166001600160a01b039490941693909317909255905182917f1131472297a800fee664d1d89cfa8f7676ff07189ecc53f80bbb5f4969099db891a2607255505050565b60606079805480602002602001604051908101604052809291908181526020016000905b82821015610cfa578382906000526020600020018054610c6d90612b7f565b80601f0160208091040260200160405190810160405280929190818152602001828054610c9990612b7f565b8015610ce65780601f10610cbb57610100808354040283529160200191610ce6565b820191906000526020600020905b815481529060010190602001808311610cc957829003601f168201915b505050505081526020019060010190610c4e565b50505050905090565b606d8054610d1090612b7f565b80601f0160208091040260200160405190810160405280929190818152602001828054610d3c90612b7f565b8015610d895780601f10610d5e57610100808354040283529160200191610d89565b820191906000526020600020905b815481529060010190602001808311610d6c57829003601f168201915b505050505081565b600081610da057506000919050565b60075463ffffffff165b60088163ffffffff1660648110610dc357610dc3612c97565b0154831415610dd55750600192915050565b63ffffffff8116610de4575060645b80610dee81612cad565b60075490925063ffffffff808416911614159050610daa5750600092915050565b6000606062127500606f5442610e259190612ccd565b119150915091565b6003546001600160a01b03163314610e805760405162461bcd60e51b815260206004820152601660248201527526bab9ba10313290383937b837b9b2b21037bbb732b960511b60448201526064016106d8565b600280546001600160a01b0319808216339081179093556003805490911690556040516001600160a01b03909116919082907f8be0079c531659141344cd1fd0a4f28419497f9722a3daafe3b4186f6b6457e090600090a350565b60075460009060089063ffffffff1660648110610efa57610efa612c97565b0154905090565b60738054610d1090612b7f565b60088160648110610f1e57600080fd5b0154905081565b6000805460408051636994548f60e11b815290516060936001600160a01b039093169263d328a91e9260048082019391829003018186803b158015610f6957600080fd5b505afa158015610f7d573d6000803e3d6000fd5b505050506040513d6000823e601f3d908101601f19168201604052610fa59190810190612ce4565b905090565b600080546001600160a01b031663d227d24585610fc688611650565b86866040518563ffffffff1660e01b8152600401610fe79493929190612d51565b60206040518083038186803b158015610fff57600080fd5b505afa158015611013573d6000803e3d6000fd5b505050506040513d601f19601f820116820180604052508101906110379190612d8c565b90505b949350505050565b61104e6079600061215f565b6040805160008082526020820190925290611079565b60608152602001906001900390816110645790505b50805161108e9160799160209091019061217d565b506040517f84b7226822737d667aa57d064ceffa18dbf761c762c54d5b119bfbc3275bf18a90600090a1565b600681815481106110ca57600080fd5b600091825260209091200154905081565b6110e36115f6565b60008281526078602052604090205460ff161561114357604051632f40bf3560e01b815260206004820152601760248201527f436f6d6d69746d656e7420616c7265616479207573656400000000000000000060448201526064016106d8565b600061114e8361186c565b60008481526078602052604090819020805460ff19166001179055519091507f4b06a020eaa12a2d683a4c58434ae9611d1026df0943fb89f31e751cb777b5ad906111be9085908490869092835263ffffffff9190911660208301526001600160a01b0316604082015260600190565b60405180910390a1506111d16001606c55565b5050565b600581815481106110ca57600080fd5b6111ed611a89565b6111f681611ade565b50565b60606112356040805160c08101909152806000815260200160008152602001600081526020016060815260200160608152602001606081525090565b61127c6000808a8a8080601f01602080910402602001604051908101604052809392919081815260200183838082843760009201919091525087959493925050611b899050565b84156112c4576112c486868080601f0160208091040260200160405190810160405280939291908181526020018383808284376000920191909152508593925050611c049050565b82156112de576112de6112d78486612dba565b8290611c32565b6112e781611650565b98975050505050505050565b60748054610d1090612b7f565b81516113139060739060208501906120db565b5080516113279060749060208401906120db565b50827f7bab0ec163b5c132c72b8146ac4d6e067e82ed58f8b131150aa71c9258911562838360405161135a929190612dc7565b60405180910390a26076546040805163ce10b1fb60e01b815290516000926001600160a01b03169163ce10b1fb9160048083019286929190829003018186803b1580156113a657600080fd5b505afa1580156113ba573d6000803e3d6000fd5b505050506040513d6000823e601f3d908101601f191682016040526113e29190810190612dec565b6000815181106113f4576113f4612c97565b60200260200101519050607660009054906101000a90046001600160a01b03166001600160a01b031663e0c862896040518163ffffffff1660e01b8152600401600060405180830381600087803b15801561144e57600080fd5b505af1158015611462573d6000803e3d6000fd5b505050506000607660009054906101000a90046001600160a01b03166001600160a01b031663ce10b1fb6040518163ffffffff1660e01b815260040160006040518083038186803b1580156114b657600080fd5b505afa1580156114ca573d6000803e3d6000fd5b505050506040513d6000823e601f3d908101601f191682016040526114f29190810190612dec565b90508060008151811061150757611507612c97565b602002602001015182141561155f576040516350e417ad60e01b815260206004820152601860248201527f52616e646f6d20776f726473206e6f742075706461746564000000000000000060448201526064016106d8565b60005b81518110156115ee57600082828151811061157f5761157f612c97565b6020026020010151905060008160405160200161159e91815260200190565b6040516020818303038152906040528051906020012090506000878060200190518101906115cc9190612c7a565b90506115d882826110db565b50505080806115e690612e7c565b915050611562565b505050505050565b6002606c5414156116495760405162461bcd60e51b815260206004820152601f60248201527f5265656e7472616e637947756172643a207265656e7472616e742063616c6c0060448201526064016106d8565b6002606c55565b606061166f604051806040016040528060608152602001600081525090565b61167b81610100611c59565b5060408051808201909152600c81526b31b7b232a637b1b0ba34b7b760a11b60208201526116aa908290611cbe565b82516116c89060018111156116c1576116c1612e97565b8290611cda565b6040805180820190915260088152676c616e677561676560c01b60208201526116f2908290611cbe565b60408301516117099080156116c1576116c1612e97565b604080518082019091526006815265736f7572636560d01b6020820152611731908290611cbe565b6060830151611741908290611cbe565b60a083015151156117d7576040805180820190915260048152636172677360e01b6020820152611772908290611cbe565b61177b81611cff565b60005b8360a00151518110156117cd576117bb8460a0015182815181106117a4576117a4612c97565b602002602001015183611cbe90919063ffffffff16565b806117c581612e7c565b91505061177e565b506117d781611d0a565b608083015151156118655760408051808201909152600f81526e39b2b1b932ba39a637b1b0ba34b7b760891b6020820152611813908290611cbe565b61182c836020015160018111156116c1576116c1612e97565b6040805180820190915260078152667365637265747360c81b6020820152611855908290611cbe565b6080830151611865908290611d15565b5192915050565b600754600090640100000000900463ffffffff166118ab7f00000000000000000000000000000000000000000000000000000000000000006002613088565b63ffffffff168163ffffffff1614156118d357506007805467ffffffff000000001916905560005b6001600760048282829054906101000a900463ffffffff166118f5919061309d565b92506101000a81548163ffffffff021916908363ffffffff160217905550600083905060008060005b7f000000000000000000000000000000000000000000000000000000000000000063ffffffff168163ffffffff161015611a105761195d6002866130db565b63ffffffff166119bb5783925060068163ffffffff168154811061198357611983612c97565b906000526020600020015491508360058263ffffffff16815481106119aa576119aa612c97565b6000918252602090912001556119e5565b60058163ffffffff16815481106119d4576119d4612c97565b906000526020600020015492508391505b6119ef83836108a9565b93506119fc6002866130fe565b945080611a0881613121565b91505061191e565b50600754606490611a289063ffffffff16600161309d565b611a3291906130db565b6007805463ffffffff191663ffffffff929092169182179055839060089060648110611a6057611a60612c97565b0155600754611a7f90600190640100000000900463ffffffff16613145565b9695505050505050565b6002546001600160a01b03163314611adc5760405162461bcd60e51b815260206004820152601660248201527527b7363c9031b0b63630b1363290313c9037bbb732b960511b60448201526064016106d8565b565b6001600160a01b038116331415611b375760405162461bcd60e51b815260206004820152601760248201527f43616e6e6f74207472616e7366657220746f2073656c6600000000000000000060448201526064016106d8565b600380546001600160a01b0319166001600160a01b03838116918217909255600254604051919216907fed8889f560326eb138920d842192f0eb3dd22b4f139c87a2c57538e05bae127890600090a350565b8051611ba8576040516322ce3edd60e01b815260040160405180910390fd5b83836001811115611bbb57611bbb612e97565b90816001811115611bce57611bce612e97565b90525060408401828015611be457611be4612e97565b90818015611bf457611bf4612e97565b9052506060909301929092525050565b8051611c235760405163e889636f60e01b815260040160405180910390fd5b60016020830152608090910152565b8051611c515760405163fe936cb760e01b815260040160405180910390fd5b60a090910152565b604080518082019091526060815260006020820152611c7960208361316a565b15611ca157611c8960208361316a565b611c94906020612ccd565b611c9e9083612b67565b91505b506020828101829052604080518085526000815290920101905290565b611ccb8260038351611d1e565b611cd58282611e25565b505050565b6001600160401b03811115611cf3576111d18282611e53565b6111d182600083611d1e565b6111f6816004611e8a565b6111f6816007611e8a565b611ccb82600283515b6017816001600160401b031611611d42576106758360e0600585901b168317611e9b565b60ff816001600160401b031611611d7e57611d68836018611fe0600586901b1617611e9b565b50610675836001600160401b0383166001611ec0565b61ffff816001600160401b031611611dbb57611da5836019611fe0600586901b1617611e9b565b50610675836001600160401b0383166002611ec0565b63ffffffff816001600160401b031611611dfa57611de483601a611fe0600586901b1617611e9b565b50610675836001600160401b0383166004611ec0565b611e0f83601b611fe0600586901b1617611e9b565b50610675836001600160401b0383166008611ec0565b604080518082019091526060815260006020820152611e4c83846000015151848551611ee6565b9392505050565b611e5e8260c2611e9b565b506111d18282604051602001611e7691815260200190565b604051602081830303815290604052611d15565b611cd582601f611fe0600585901b16175b604080518082019091526060815260006020820152611e4c8384600001515184611fd0565b60408051808201909152606081526000602082015261103a84856000015151858561202c565b6040805180820190915260608152600060208201528251821115611f0957600080fd5b6020850151611f188386612b67565b1115611f4b57611f4b85611f3b87602001518786611f369190612b67565b6120ad565b611f4690600261317e565b6120c4565b600080865180518760208301019350808887011115611f6a5787860182525b505050602084015b60208410611faa5780518252611f89602083612b67565b9150611f96602082612b67565b9050611fa3602085612ccd565b9350611f72565b51815160001960208690036101000a019081169019919091161790525083949350505050565b60408051808201909152606081526000602082015283602001518310612005576120058485602001516002611f46919061317e565b835180516020858301018481535080851415612022576001810182525b5093949350505050565b60408051808201909152606081526000602082015260208501516120508584612b67565b11156120645761206485611f3b8685612b67565b600060016120748461010061319d565b61207e9190612ccd565b90508551838682010185831982511617815250805184870111156120a25783860181525b509495945050505050565b6000818311156120be575081610a28565b50919050565b81516120d08383611c59565b506106758382611e25565b8280546120e790612b7f565b90600052602060002090601f016020900481019282612109576000855561214f565b82601f1061212257805160ff191683800117855561214f565b8280016001018555821561214f579182015b8281111561214f578251825591602001919060010190612134565b5061215b9291506121d6565b5090565b50805460008255906000526020600020908101906111f691906121eb565b8280548282559060005260206000209081019282156121ca579160200282015b828111156121ca57825180516121ba9184916020909101906120db565b509160200191906001019061219d565b5061215b9291506121eb565b5b8082111561215b57600081556001016121d7565b8082111561215b5760006121ff8282612208565b506001016121eb565b50805461221490612b7f565b6000825580601f10612224575050565b601f0160209004906000526020600020908101906111f691906121d6565b634e487b7160e01b600052604160045260246000fd5b604051606081016001600160401b038111828210171561227a5761227a612242565b60405290565b60405160c081016001600160401b038111828210171561227a5761227a612242565b604080519081016001600160401b038111828210171561227a5761227a612242565b604051601f8201601f191681016001600160401b03811182821017156122ec576122ec612242565b604052919050565b60006001600160401b0382111561230d5761230d612242565b50601f01601f191660200190565b600082601f83011261232c57600080fd5b813561233f61233a826122f4565b6122c4565b81815284602083860101111561235457600080fd5b816020850160208301376000918101602001919091529392505050565b60008060006060848603121561238657600080fd5b8335925060208401356001600160401b03808211156123a457600080fd5b6123b08783880161231b565b935060408601359150808211156123c657600080fd5b506123d38682870161231b565b9150509250925092565b600082601f8301126123ee57600080fd5b6123f66122a2565b80604084018581111561240857600080fd5b845b8181101561242257803584526020938401930161240a565b509095945050505050565b60008060008084860361016081121561244557600080fd5b85356001600160401b0381111561245b57600080fd5b6124678882890161231b565b95505060208681013594506040808801359450610100605f198401121561248d57600080fd5b612495612258565b92506124a48960608a016123dd565b83528860bf8901126124b557600080fd5b6124bd6122a2565b806101208a018b8111156124d057600080fd5b60a08b015b818110156124f4576124e78d826123dd565b84529285019284016124d5565b5081858701526125048c826123dd565b8487015250505050508091505092959194509250565b60006020828403121561252c57600080fd5b5035919050565b6000806040838503121561254657600080fd5b50508035926020909101359150565b60008083601f84011261256757600080fd5b5081356001600160401b0381111561257e57600080fd5b60208301915083602082850101111561259657600080fd5b9250929050565b600080602083850312156125b057600080fd5b82356001600160401b038111156125c657600080fd5b6125d285828601612555565b90969095509350505050565b60005b838110156125f95781810151838201526020016125e1565b838111156106755750506000910152565b600081518084526126228160208601602086016125de565b601f01601f19169290920160200192915050565b6000602080830181845280855180835260408601915060408160051b870101925083870160005b8281101561268b57603f1988860301845261267985835161260a565b9450928501929085019060010161265d565b5092979650505050505050565b602081526000611e4c602083018461260a565b6000602082840312156126bd57600080fd5b81356001600160401b038111156126d357600080fd5b610a248482850161231b565b821515815260406020820152600061103a604083018461260a565b80356002811061270957600080fd5b919050565b80356001811061270957600080fd5b60006001600160401b0382111561273657612736612242565b5060051b60200190565b600061274e61233a8461271d565b8381529050602080820190600585901b84018681111561276d57600080fd5b845b818110156127a85780356001600160401b0381111561278e5760008081fd5b61279a8982890161231b565b85525092820192820161276f565b505050509392505050565b600082601f8301126127c457600080fd5b611e4c83833560208501612740565b80356001600160401b038116811461270957600080fd5b803563ffffffff8116811461270957600080fd5b6000806000806080858703121561281457600080fd5b84356001600160401b038082111561282b57600080fd5b9086019060c0828903121561283f57600080fd5b612847612280565b612850836126fa565b815261285e602084016126fa565b602082015261286f6040840161270e565b604082015260608301358281111561288657600080fd5b6128928a82860161231b565b6060830152506080830135828111156128aa57600080fd5b6128b68a82860161231b565b60808301525060a0830135828111156128ce57600080fd5b6128da8a8286016127b3565b60a08301525095506128f1915050602086016127d3565b92506128ff604086016127ea565b9396929550929360600135925050565b6001600160a01b03811681146111f657600080fd5b6000806040838503121561293757600080fd5b8235915060208301356129498161290f565b809150509250929050565b60006020828403121561296657600080fd5b8135611e4c8161290f565b6000806000806000806060878903121561298a57600080fd5b86356001600160401b03808211156129a157600080fd5b6129ad8a838b01612555565b909850965060208901359150808211156129c657600080fd5b6129d28a838b01612555565b909650945060408901359150808211156129eb57600080fd5b818901915089601f8301126129ff57600080fd5b813581811115612a0e57600080fd5b8a60208260051b8501011115612a2357600080fd5b6020830194508093505050509295509295509295565b8060005b6002811015610675578151845260209384019390910190600101612a3d565b6101408101612a6b8287612a39565b60408083018660005b6002811015612a9b57612a88838351612a39565b9183019160209190910190600101612a74565b50505050612aac60c0830185612a39565b612aba610100830184612a39565b95945050505050565b600060208284031215612ad557600080fd5b81518015158114611e4c57600080fd5b604081526000612af8604083018561260a565b90508260208301529392505050565b60408101818360005b6002811015612b2f578151835260209283019290910190600101612b10565b50505092915050565b600060208284031215612b4a57600080fd5b5051919050565b634e487b7160e01b600052601160045260246000fd5b60008219821115612b7a57612b7a612b51565b500190565b600181811c90821680612b9357607f821691505b602082108114156120be57634e487b7160e01b600052602260045260246000fd5b6001600160401b0384168152600060206060818401526000855481600182811c915080831680612be557607f831692505b858310811415612c0357634e487b7160e01b85526022600452602485fd5b6060880183905260808801818015612c225760018114612c3357612c5e565b60ff19861682528782019650612c5e565b60008c81526020902060005b86811015612c5857815484820152908501908901612c3f565b83019750505b50505063ffffffff881660408801525091935061103a92505050565b600060208284031215612c8c57600080fd5b8151611e4c8161290f565b634e487b7160e01b600052603260045260246000fd5b600063ffffffff821680612cc357612cc3612b51565b6000190192915050565b600082821015612cdf57612cdf612b51565b500390565b600060208284031215612cf657600080fd5b81516001600160401b03811115612d0c57600080fd5b8201601f81018413612d1d57600080fd5b8051612d2b61233a826122f4565b818152856020838501011115612d4057600080fd5b612aba8260208301602086016125de565b6001600160401b0385168152608060208201526000612d73608083018661260a565b63ffffffff949094166040830152506060015292915050565b600060208284031215612d9e57600080fd5b81516bffffffffffffffffffffffff81168114611e4c57600080fd5b6000611e4c368484612740565b604081526000612dda604083018561260a565b8281036020840152612aba818561260a565b60006020808385031215612dff57600080fd5b82516001600160401b03811115612e1557600080fd5b8301601f81018513612e2657600080fd5b8051612e3461233a8261271d565b81815260059190911b82018301908381019087831115612e5357600080fd5b928401925b82841015612e7157835182529284019290840190612e58565b979650505050505050565b6000600019821415612e9057612e90612b51565b5060010190565b634e487b7160e01b600052602160045260246000fd5b600181815b80851115612eea578163ffffffff04821115612ed057612ed0612b51565b80851615612edd57918102915b93841c9390800290612eb2565b509250929050565b600181815b80851115612eea578160001904821115612f1357612f13612b51565b80851615612f2057918102915b93841c9390800290612ef7565b600082612f3c57506001610a28565b81612f4957506000610a28565b8160018114612f5f5760028114612f6957612f9a565b6001915050610a28565b60ff841115612f7a57612f7a612b51565b6001841b915063ffffffff821115612f9457612f94612b51565b50610a28565b5060208310610133831016604e8410600b8410161715612fd1575081810a63ffffffff811115612fcc57612fcc612b51565b610a28565b612fdb8383612ead565b8063ffffffff04821115612ff157612ff1612b51565b029392505050565b60008261300857506001610a28565b8161301557506000610a28565b8160018114612f5f576002811461302b57613047565b60ff84111561303c5761303c612b51565b50506001821b610a28565b5060208310610133831016604e8410600b841016171561306a575081810a610a28565b6130748383612ef2565b8060001904821115612ff157612ff1612b51565b600063ffffffff610a24818516828516612f2d565b600063ffffffff8083168185168083038211156130bc576130bc612b51565b01949350505050565b634e487b7160e01b600052601260045260246000fd5b600063ffffffff808416806130f2576130f26130c5565b92169190910692915050565b600063ffffffff80841680613115576131156130c5565b92169190910492915050565b600063ffffffff8083168181141561313b5761313b612b51565b6001019392505050565b600063ffffffff8381169083168181101561316257613162612b51565b039392505050565b600082613179576131796130c5565b500690565b600081600019048311821515161561319857613198612b51565b500290565b6000611e4c8383612ff956fea2646970667358221220e818a49a2883e6e344a0d5e4aa04544d6140e22bc0488cd8520749f0554f35c264736f6c63430008090033036b6384b5eca791c62761152d0c79bb0604c104a5fb6f4eb0703f3154bb3db0f652222313e28459528d920b65115c16c04f3efc82aaedc97be59f3f377c0d3f",
  "linkReferences": {},
  "deployedLinkReferences": {}
}