{
  "_format": "hh-sol-artifact-1",
  "contractName": "SnapshotV2",
  "sourceName": "contracts/SnapshotV2.sol",
  "abi": [
    {
      "inputs": [
        {
          "internalType": "address",
          "name": "oracle",
          "type": "address"
        },
        {
          "internalType": "contract IVerifier",
          "name": "_verifier",
          "type": "address"
        },
        {
          "internalType": "uint32",
          "name": "_merkleTreeHeight",
          "type": "uint32"
        },
        {
          "internalType": "address",
          "name": "_hasher",
          "type": "address"
        },
        {
          "internalType": "uint64",
          "name": "_subscriptionId",
          "type": "uint64"
        },
        {
          "internalType": "uint32",
          "name": "_fulfillGasLimit",
          "type": "uint32"
        }
      ],
      "stateMutability": "nonpayable",
      "type": "constructor"
    },
    {
      "inputs": [],
      "name": "EmptyArgs",
      "type": "error"
    },
    {
      "inputs": [],
      "name": "EmptySecrets",
      "type": "error"
    },
    {
      "inputs": [],
      "name": "EmptySource",
      "type": "error"
    },
    {
      "inputs": [
        {
          "internalType": "string",
          "name": "message",
          "type": "string"
        }
      ],
      "name": "MerkleTree__IsFull",
      "type": "error"
    },
    {
      "inputs": [
        {
          "internalType": "string",
          "name": "message",
          "type": "string"
        }
      ],
      "name": "MerkleTree__TreeLevelsOutOfRange",
      "type": "error"
    },
    {
      "inputs": [],
      "name": "RequestIsAlreadyPending",
      "type": "error"
    },
    {
      "inputs": [],
      "name": "RequestIsNotPending",
      "type": "error"
    },
    {
      "inputs": [],
      "name": "SenderIsNotRegistry",
      "type": "error"
    },
    {
      "inputs": [
        {
          "internalType": "string",
          "name": "message",
          "type": "string"
        }
      ],
      "name": "SnapshotV2__CommitmentAlreadyUsed",
      "type": "error"
    },
    {
      "inputs": [
        {
          "internalType": "string",
          "name": "message",
          "type": "string"
        }
      ],
      "name": "SnapshotV2__InvalidProof",
      "type": "error"
    },
    {
      "inputs": [
        {
          "internalType": "string",
          "name": "message",
          "type": "string"
        }
      ],
      "name": "SnapshotV2__NullifierAlreadyUsed",
      "type": "error"
    },
    {
      "inputs": [
        {
          "internalType": "string",
          "name": "message",
          "type": "string"
        }
      ],
      "name": "SnapshotV2__RootNotKnown",
      "type": "error"
    },
    {
      "inputs": [
        {
          "internalType": "string",
          "name": "message",
          "type": "string"
        }
      ],
      "name": "SnapshotV2__TimeInterval",
      "type": "error"
    },
    {
      "anonymous": false,
      "inputs": [
        {
          "indexed": false,
          "internalType": "bytes32",
          "name": "commitment",
          "type": "bytes32"
        },
        {
          "indexed": false,
          "internalType": "uint32",
          "name": "insertedIndex",
          "type": "uint32"
        }
      ],
      "name": "Inserted",
      "type": "event"
    },
    {
      "anonymous": false,
      "inputs": [
        {
          "indexed": true,
          "internalType": "bytes32",
          "name": "requestId",
          "type": "bytes32"
        },
        {
          "indexed": false,
          "internalType": "bytes",
          "name": "result",
          "type": "bytes"
        },
        {
          "indexed": false,
          "internalType": "bytes",
          "name": "err",
          "type": "bytes"
        }
      ],
      "name": "OCRResponse",
      "type": "event"
    },
    {
      "anonymous": false,
      "inputs": [
        {
          "indexed": true,
          "internalType": "address",
          "name": "from",
          "type": "address"
        },
        {
          "indexed": true,
          "internalType": "address",
          "name": "to",
          "type": "address"
        }
      ],
      "name": "OwnershipTransferRequested",
      "type": "event"
    },
    {
      "anonymous": false,
      "inputs": [
        {
          "indexed": true,
          "internalType": "address",
          "name": "from",
          "type": "address"
        },
        {
          "indexed": true,
          "internalType": "address",
          "name": "to",
          "type": "address"
        }
      ],
      "name": "OwnershipTransferred",
      "type": "event"
    },
    {
      "anonymous": false,
      "inputs": [
        {
          "indexed": true,
          "internalType": "bytes32",
          "name": "id",
          "type": "bytes32"
        }
      ],
      "name": "RequestFulfilled",
      "type": "event"
    },
    {
      "anonymous": false,
      "inputs": [
        {
          "indexed": true,
          "internalType": "bytes32",
          "name": "id",
          "type": "bytes32"
        }
      ],
      "name": "RequestSent",
      "type": "event"
    },
    {
      "anonymous": false,
      "inputs": [
        {
          "indexed": false,
          "internalType": "string",
          "name": "message",
          "type": "string"
        },
        {
          "indexed": false,
          "internalType": "bytes32",
          "name": "nullifierHash",
          "type": "bytes32"
        }
      ],
      "name": "messagePosted",
      "type": "event"
    },
    {
      "anonymous": false,
      "inputs": [],
      "name": "messagesCleared",
      "type": "event"
    },
    {
      "inputs": [],
      "name": "FIELD_SIZE",
      "outputs": [
        {
          "internalType": "uint256",
          "name": "",
          "type": "uint256"
        }
      ],
      "stateMutability": "view",
      "type": "function"
    },
    {
      "inputs": [],
      "name": "ROOT_HISTORY_SIZE",
      "outputs": [
        {
          "internalType": "uint32",
          "name": "",
          "type": "uint32"
        }
      ],
      "stateMutability": "view",
      "type": "function"
    },
    {
      "inputs": [],
      "name": "ZERO_VALUE",
      "outputs": [
        {
          "internalType": "uint256",
          "name": "",
          "type": "uint256"
        }
      ],
      "stateMutability": "view",
      "type": "function"
    },
    {
      "inputs": [],
      "name": "acceptOwnership",
      "outputs": [],
      "stateMutability": "nonpayable",
      "type": "function"
    },
    {
      "inputs": [
        {
          "internalType": "string",
          "name": "_name",
          "type": "string"
        }
      ],
      "name": "addName",
      "outputs": [],
      "stateMutability": "nonpayable",
      "type": "function"
    },
    {
      "inputs": [
        {
          "internalType": "bytes",
          "name": "",
          "type": "bytes"
        }
      ],
      "name": "checkUpkeep",
      "outputs": [
        {
          "internalType": "bool",
          "name": "upkeepNeeded",
          "type": "bool"
        },
        {
          "internalType": "bytes",
          "name": "",
          "type": "bytes"
        }
      ],
      "stateMutability": "view",
      "type": "function"
    },
    {
      "inputs": [],
      "name": "clearMessages",
      "outputs": [],
      "stateMutability": "nonpayable",
      "type": "function"
    },
    {
      "inputs": [
        {
          "internalType": "bytes32",
          "name": "",
          "type": "bytes32"
        }
      ],
      "name": "commitments",
      "outputs": [
        {
          "internalType": "bool",
          "name": "",
          "type": "bool"
        }
      ],
      "stateMutability": "view",
      "type": "function"
    },
    {
      "inputs": [],
      "name": "currentRootIndex",
      "outputs": [
        {
          "internalType": "uint32",
          "name": "",
          "type": "uint32"
        }
      ],
      "stateMutability": "view",
      "type": "function"
    },
    {
      "inputs": [
        {
          "components": [
            {
              "internalType": "enum Functions.Location",
              "name": "codeLocation",
              "type": "uint8"
            },
            {
              "internalType": "enum Functions.Location",
              "name": "secretsLocation",
              "type": "uint8"
            },
            {
              "internalType": "enum Functions.CodeLanguage",
              "name": "language",
              "type": "uint8"
            },
            {
              "internalType": "string",
              "name": "source",
              "type": "string"
            },
            {
              "internalType": "bytes",
              "name": "secrets",
              "type": "bytes"
            },
            {
              "internalType": "string[]",
              "name": "args",
              "type": "string[]"
            }
          ],
          "internalType": "struct Functions.Request",
          "name": "req",
          "type": "tuple"
        },
        {
          "internalType": "uint64",
          "name": "subscriptionId",
          "type": "uint64"
        },
        {
          "internalType": "uint32",
          "name": "gasLimit",
          "type": "uint32"
        },
        {
          "internalType": "uint256",
          "name": "gasPrice",
          "type": "uint256"
        }
      ],
      "name": "estimateCost",
      "outputs": [
        {
          "internalType": "uint96",
          "name": "",
          "type": "uint96"
        }
      ],
      "stateMutability": "view",
      "type": "function"
    },
    {
      "inputs": [
        {
          "internalType": "uint256",
          "name": "",
          "type": "uint256"
        }
      ],
      "name": "filledSubtrees",
      "outputs": [
        {
          "internalType": "bytes32",
          "name": "",
          "type": "bytes32"
        }
      ],
      "stateMutability": "view",
      "type": "function"
    },
    {
      "inputs": [],
      "name": "fulfillGasLimit",
      "outputs": [
        {
          "internalType": "uint32",
          "name": "",
          "type": "uint32"
        }
      ],
      "stateMutability": "view",
      "type": "function"
    },
    {
      "inputs": [
        {
          "internalType": "string",
          "name": "source",
          "type": "string"
        },
        {
          "internalType": "bytes",
          "name": "secrets",
          "type": "bytes"
        },
        {
          "internalType": "string[]",
          "name": "args",
          "type": "string[]"
        }
      ],
      "name": "generateRequest",
      "outputs": [
        {
          "internalType": "bytes",
          "name": "",
          "type": "bytes"
        }
      ],
      "stateMutability": "pure",
      "type": "function"
    },
    {
      "inputs": [],
      "name": "getDONPublicKey",
      "outputs": [
        {
          "internalType": "bytes",
          "name": "",
          "type": "bytes"
        }
      ],
      "stateMutability": "view",
      "type": "function"
    },
    {
      "inputs": [],
      "name": "getLastRoot",
      "outputs": [
        {
          "internalType": "bytes32",
          "name": "",
          "type": "bytes32"
        }
      ],
      "stateMutability": "view",
      "type": "function"
    },
    {
      "inputs": [
        {
          "internalType": "string",
          "name": "name",
          "type": "string"
        }
      ],
      "name": "getMessages",
      "outputs": [
        {
          "internalType": "string[]",
          "name": "",
          "type": "string[]"
        }
      ],
      "stateMutability": "view",
      "type": "function"
    },
    {
      "inputs": [
        {
          "internalType": "bytes32",
          "name": "requestId",
          "type": "bytes32"
        },
        {
          "internalType": "bytes",
          "name": "response",
          "type": "bytes"
        },
        {
          "internalType": "bytes",
          "name": "err",
          "type": "bytes"
        }
      ],
      "name": "handleOracleFulfillment",
      "outputs": [],
      "stateMutability": "nonpayable",
      "type": "function"
    },
    {
      "inputs": [
        {
          "internalType": "bytes32",
          "name": "_left",
          "type": "bytes32"
        },
        {
          "internalType": "bytes32",
          "name": "_right",
          "type": "bytes32"
        }
      ],
      "name": "hashLeftRight",
      "outputs": [
        {
          "internalType": "bytes32",
          "name": "",
          "type": "bytes32"
        }
      ],
      "stateMutability": "view",
      "type": "function"
    },
    {
      "inputs": [],
      "name": "hasher",
      "outputs": [
        {
          "internalType": "contract IHasher",
          "name": "",
          "type": "address"
        }
      ],
      "stateMutability": "view",
      "type": "function"
    },
    {
      "inputs": [
        {
          "internalType": "bytes32",
          "name": "_commitment",
          "type": "bytes32"
        }
      ],
      "name": "insertIntoTree",
      "outputs": [],
      "stateMutability": "nonpayable",
      "type": "function"
    },
    {
      "inputs": [
        {
          "internalType": "bytes32",
          "name": "_root",
          "type": "bytes32"
        }
      ],
      "name": "isKnownRoot",
      "outputs": [
        {
          "internalType": "bool",
          "name": "",
          "type": "bool"
        }
      ],
      "stateMutability": "view",
      "type": "function"
    },
    {
      "inputs": [
        {
          "internalType": "bytes32",
          "name": "_nullifier",
          "type": "bytes32"
        }
      ],
      "name": "isNullifierUsed",
      "outputs": [
        {
          "internalType": "bool",
          "name": "",
          "type": "bool"
        }
      ],
      "stateMutability": "view",
      "type": "function"
    },
    {
      "inputs": [],
      "name": "lastUpkeepTimeStamp",
      "outputs": [
        {
          "internalType": "uint256",
          "name": "",
          "type": "uint256"
        }
      ],
      "stateMutability": "view",
      "type": "function"
    },
    {
      "inputs": [],
      "name": "latestError",
      "outputs": [
        {
          "internalType": "bytes",
          "name": "",
          "type": "bytes"
        }
      ],
      "stateMutability": "view",
      "type": "function"
    },
    {
      "inputs": [],
      "name": "latestRequestId",
      "outputs": [
        {
          "internalType": "bytes32",
          "name": "",
          "type": "bytes32"
        }
      ],
      "stateMutability": "view",
      "type": "function"
    },
    {
      "inputs": [],
      "name": "latestResponse",
      "outputs": [
        {
          "internalType": "bytes",
          "name": "",
          "type": "bytes"
        }
      ],
      "stateMutability": "view",
      "type": "function"
    },
    {
      "inputs": [],
      "name": "levels",
      "outputs": [
        {
          "internalType": "uint32",
          "name": "",
          "type": "uint32"
        }
      ],
      "stateMutability": "view",
      "type": "function"
    },
    {
      "inputs": [
        {
          "internalType": "string",
          "name": "",
          "type": "string"
        },
        {
          "internalType": "uint256",
          "name": "",
          "type": "uint256"
        }
      ],
      "name": "messages",
      "outputs": [
        {
          "internalType": "string",
          "name": "",
          "type": "string"
        }
      ],
      "stateMutability": "view",
      "type": "function"
    },
    {
      "inputs": [
        {
          "internalType": "uint256",
          "name": "",
          "type": "uint256"
        }
      ],
      "name": "names",
      "outputs": [
        {
          "internalType": "string",
          "name": "",
          "type": "string"
        }
      ],
      "stateMutability": "view",
      "type": "function"
    },
    {
      "inputs": [],
      "name": "nextIndex",
      "outputs": [
        {
          "internalType": "uint32",
          "name": "",
          "type": "uint32"
        }
      ],
      "stateMutability": "view",
      "type": "function"
    },
    {
      "inputs": [
        {
          "internalType": "bytes32",
          "name": "",
          "type": "bytes32"
        }
      ],
      "name": "nullifiers",
      "outputs": [
        {
          "internalType": "bool",
          "name": "",
          "type": "bool"
        }
      ],
      "stateMutability": "view",
      "type": "function"
    },
    {
      "inputs": [],
      "name": "owner",
      "outputs": [
        {
          "internalType": "address",
          "name": "",
          "type": "address"
        }
      ],
      "stateMutability": "view",
      "type": "function"
    },
    {
      "inputs": [
        {
          "internalType": "bytes",
          "name": "",
          "type": "bytes"
        }
      ],
      "name": "performUpkeep",
      "outputs": [],
      "stateMutability": "nonpayable",
      "type": "function"
    },
    {
      "inputs": [
        {
          "internalType": "string",
          "name": "name",
          "type": "string"
        },
        {
          "internalType": "string",
          "name": "_message",
          "type": "string"
        },
        {
          "internalType": "bytes32",
          "name": "_nullifierHash",
          "type": "bytes32"
        },
        {
          "internalType": "bytes32",
          "name": "_root",
          "type": "bytes32"
        },
        {
          "components": [
            {
              "internalType": "uint256[2]",
              "name": "a",
              "type": "uint256[2]"
            },
            {
              "internalType": "uint256[2][2]",
              "name": "b",
              "type": "uint256[2][2]"
            },
            {
              "internalType": "uint256[2]",
              "name": "c",
              "type": "uint256[2]"
            }
          ],
          "internalType": "struct Proof",
          "name": "_proof",
          "type": "tuple"
        }
      ],
      "name": "postMessageWithProof",
      "outputs": [],
      "stateMutability": "nonpayable",
      "type": "function"
    },
    {
      "inputs": [],
      "name": "requestCBOR",
      "outputs": [
        {
          "internalType": "bytes",
          "name": "",
          "type": "bytes"
        }
      ],
      "stateMutability": "view",
      "type": "function"
    },
    {
      "inputs": [],
      "name": "responseCounter",
      "outputs": [
        {
          "internalType": "uint256",
          "name": "",
          "type": "uint256"
        }
      ],
      "stateMutability": "view",
      "type": "function"
    },
    {
      "inputs": [
        {
          "internalType": "uint256",
          "name": "",
          "type": "uint256"
        }
      ],
      "name": "roots",
      "outputs": [
        {
          "internalType": "bytes32",
          "name": "",
          "type": "bytes32"
        }
      ],
      "stateMutability": "view",
      "type": "function"
    },
    {
      "inputs": [
        {
          "internalType": "address",
          "name": "",
          "type": "address"
        }
      ],
      "name": "selectedAddresses",
      "outputs": [
        {
          "internalType": "bool",
          "name": "",
          "type": "bool"
        }
      ],
      "stateMutability": "view",
      "type": "function"
    },
    {
      "inputs": [],
      "name": "subscriptionId",
      "outputs": [
        {
          "internalType": "uint64",
          "name": "",
          "type": "uint64"
        }
      ],
      "stateMutability": "view",
      "type": "function"
    },
    {
      "inputs": [
        {
          "internalType": "address",
          "name": "to",
          "type": "address"
        }
      ],
      "name": "transferOwnership",
      "outputs": [],
      "stateMutability": "nonpayable",
      "type": "function"
    },
    {
      "inputs": [],
      "name": "updateInterval",
      "outputs": [
        {
          "internalType": "uint256",
          "name": "",
          "type": "uint256"
        }
      ],
      "stateMutability": "view",
      "type": "function"
    },
    {
      "inputs": [],
      "name": "upkeepCounter",
      "outputs": [
        {
          "internalType": "uint256",
          "name": "",
          "type": "uint256"
        }
      ],
      "stateMutability": "view",
      "type": "function"
    },
    {
      "inputs": [],
      "name": "verifier",
      "outputs": [
        {
          "internalType": "contract IVerifier",
          "name": "",
          "type": "address"
        }
      ],
      "stateMutability": "view",
      "type": "function"
    },
    {
      "inputs": [
        {
          "internalType": "uint256",
          "name": "",
          "type": "uint256"
        }
      ],
      "name": "zeros",
      "outputs": [
        {
          "internalType": "bytes32",
          "name": "",
          "type": "bytes32"
        }
      ],
      "stateMutability": "view",
      "type": "function"
    }
  ],
  "bytecode": "0x60a0604052600780546001600160401b03191690553480156200002157600080fd5b5060405162003ae338038062003ae38339810160408190526200004491620006ff565b600080546001600160a01b0319166001600160a01b03881617815584908490339081906001600160a01b038216620000c35760405162461bcd60e51b815260206004820152601860248201527f43616e6e6f7420736574206f776e657220746f207a65726f000000000000000060448201526064015b60405180910390fd5b600280546001600160a01b0319166001600160a01b0384811691909117909155811615620000f657620000f6816200032c565b505050602063ffffffff831611156200016257604051632d5d403760e01b815260206004820152602660248201527f54726565206c6576656c732073686f756c64206265206265747765656e20302060448201526530b73210199960d11b6064820152608401620000ba565b600480546001600160a01b0319166001600160a01b03831617905563ffffffff82166080526006805460018181019092557f2fe54c60d3acabf3343a35b6eba15db4821b340f76e741e2249685ed4899af6c60008051602062003ac383398151915290910181905560058054808401825560009190915260008051602062003aa383398151915201819055905b8363ffffffff168163ffffffff1610156200026757620002108280620003d9565b60068054600181810190925560008051602062003ac38339815191520182905560058054918201815560005260008051602062003aa3833981519152018190559150806200025e8162000795565b915050620001ef565b50620002748180620003d9565b60085550506001606c55506040805160008082526020820190925290620002ac565b6060815260200190600190039081620002965790505b508051620002c391607a9160209091019062000566565b50607580546001600160a01b039096166001600160a01b031990961695909517909455606e805463ffffffff90951668010000000000000000026001600160601b03199095166001600160401b039092169190911793909317909255505042606f555062000852565b6001600160a01b038116331415620003875760405162461bcd60e51b815260206004820152601760248201527f43616e6e6f74207472616e7366657220746f2073656c660000000000000000006044820152606401620000ba565b600380546001600160a01b0319166001600160a01b03838116918217909255600254604051919216907fed8889f560326eb138920d842192f0eb3dd22b4f139c87a2c57538e05bae127890600090a350565b60007f30644e72e131a029b85045b68181585d2833e84879b9709143e1f593f000000183106200044c5760405162461bcd60e51b815260206004820181905260248201527f5f6c6566742073686f756c6420626520696e7369646520746865206669656c646044820152606401620000ba565b7f30644e72e131a029b85045b68181585d2833e84879b9709143e1f593f00000018210620004c75760405162461bcd60e51b815260206004820152602160248201527f5f72696768742073686f756c6420626520696e7369646520746865206669656c6044820152601960fa1b6064820152608401620000ba565b6040805180820182528481526020810184905260048054925163014cf2b360e51b815291926001600160a01b03169163299e5660916200050a91859101620007c8565b60206040518083038186803b1580156200052357600080fd5b505afa15801562000538573d6000803e3d6000fd5b505050506040513d601f19601f820116820180604052508101906200055e9190620007fb565b949350505050565b828054828255906000526020600020908101928215620005b8579160200282015b82811115620005b85782518051620005a7918491602090910190620005ca565b509160200191906001019062000587565b50620005c692915062000655565b5090565b828054620005d89062000815565b90600052602060002090601f016020900481019282620005fc576000855562000647565b82601f106200061757805160ff191683800117855562000647565b8280016001018555821562000647579182015b82811115620006475782518255916020019190600101906200062a565b50620005c692915062000676565b80821115620005c65760006200066c82826200068d565b5060010162000655565b5b80821115620005c6576000815560010162000677565b5080546200069b9062000815565b6000825580601f10620006ac575050565b601f016020900490600052602060002090810190620006cc919062000676565b50565b6001600160a01b0381168114620006cc57600080fd5b805163ffffffff81168114620006fa57600080fd5b919050565b60008060008060008060c087890312156200071957600080fd5b86516200072681620006cf565b60208801519096506200073981620006cf565b94506200074960408801620006e5565b935060608701516200075b81620006cf565b60808801519093506001600160401b03811681146200077957600080fd5b91506200078960a08801620006e5565b90509295509295509295565b600063ffffffff80831681811415620007be57634e487b7160e01b600052601160045260246000fd5b6001019392505050565b60408101818360005b6002811015620007f2578151835260209283019290910190600101620007d1565b50505092915050565b6000602082840312156200080e57600080fd5b5051919050565b600181811c908216806200082a57607f821691505b602082108114156200084c57634e487b7160e01b600052602260045260246000fd5b50919050565b60805161322062000883600039600081816104190152818161159f0152818161167f0152611af501526132206000f3fe608060405234801561001057600080fd5b50600436106102745760003560e01c80638da5cb5b11610151578063df9084eb116100c3578063f178e47c11610087578063f178e47c14610600578063f2fde38b14610613578063fc7e9c6f14610626578063fd2c80ae1461063e578063fe08301214610648578063fffeb84e1461065b57600080fd5b8063df9084eb14610570578063e3cf998f14610590578063e8295588146105b3578063ec732959146105c6578063ed33639f146105ed57600080fd5b8063c2b40ae411610115578063c2b40ae414610502578063c8c586ae14610515578063cd87a3b414610528578063d328a91e14610530578063d4b3917514610538578063df65850a1461056857600080fd5b80638da5cb5b146104c857806390eeb02b146104d9578063a3d3c0d2146104e9578063ba70f757146104f2578063bef3a2f0146104fa57600080fd5b8063414a37ba116101ea578063688ecfd1116101ae578063688ecfd11461044e5780636d9833e3146104565780636e04ff0d1461046957806379ba50971461048a578063839df945146104925780638d82496e146104b557600080fd5b8063414a37ba146103ba5780634585e33b146103e15780634622ab03146103f45780634ecf518b1461041457806359360b551461043b57600080fd5b806322dc7b4c1161023c57806322dc7b4c146102f157806324b93e3e146103245780632997e86b146103505780632b7ac3f314610373578063381fc4b51461039e57806338bf282e146103a757600080fd5b8063089ea02e1461027957806309c1ba2e146102955780630ca76175146102c057806311456b47146102d55780631aa46f59146102e8575b600080fd5b610282606f5481565b6040519081526020015b60405180910390f35b606e546102a8906001600160401b031681565b6040516001600160401b03909116815260200161028c565b6102d36102ce36600461249a565b610663565b005b6102d36102e3366004612506565b6106f0565b61028260725481565b6103146102ff36600461253a565b60009081526076602052604090205460ff1690565b604051901515815260200161028c565b606e5461033b90600160401b900463ffffffff1681565b60405163ffffffff909116815260200161028c565b61031461035e36600461253a565b60766020526000908152604090205460ff1681565b607554610386906001600160a01b031681565b6040516001600160a01b03909116815260200161028c565b61028260715481565b6102826103b5366004612553565b610737565b6102827f30644e72e131a029b85045b68181585d2833e84879b9709143e1f593f000000181565b6102d36103ef3660046125bd565b6108c1565b61040761040236600461253a565b610abd565b60405161028c9190612656565b61033b7f000000000000000000000000000000000000000000000000000000000000000081565b6102d36104493660046126b9565b610b69565b610407610d9d565b61031461046436600461253a565b610daa565b61047c610477366004612506565b610e28565b60405161028c9291906127cd565b6102d3610e46565b6103146104a036600461253a565b60776020526000908152604090205460ff1681565b6102d36104c336600461253a565b610ef4565b6002546001600160a01b0316610386565b60075461033b9063ffffffff1681565b61028260705481565b610282611031565b610407611057565b61028261051036600461253a565b611064565b6104076105233660046127e8565b61107b565b61033b606481565b6104076110c2565b61054b61054636600461291e565b611147565b6040516bffffffffffffffffffffffff909116815260200161028c565b6102d36111df565b61058361057e3660046125bd565b61127a565b60405161028c9190612a2f565b61031461059e366004612aa6565b60796020526000908152604090205460ff1681565b6102826105c136600461253a565b611374565b6102827f2fe54c60d3acabf3343a35b6eba15db4821b340f76e741e2249685ed4899af6c81565b600454610386906001600160a01b031681565b61028261060e36600461253a565b611395565b6102d3610621366004612aa6565b6113a5565b60075461033b90640100000000900463ffffffff1681565b61028262093a8081565b610407610656366004612ac3565b6113b6565b6104076114b0565b60008381526001602052604090205483906001600160a01b0316331461069c5760405163a0c5ec6360e01b815260040160405180910390fd5b60008181526001602052604080822080546001600160a01b03191690555182917f85e1543bf2f84fe80c6badbce3648c8539ad1df4d2b3d822938ca0538be727e691a26106ea8484846114bd565b50505050565b607a80546001810182556000919091528151610733917ff0440771a29e57e18c66727944770b82cc77924aef333c927ce6bdd2cdb3ae0301906020840190612205565b5050565b60007f30644e72e131a029b85045b68181585d2833e84879b9709143e1f593f000000183106107ad5760405162461bcd60e51b815260206004820181905260248201527f5f6c6566742073686f756c6420626520696e7369646520746865206669656c6460448201526064015b60405180910390fd5b7f30644e72e131a029b85045b68181585d2833e84879b9709143e1f593f000000182106108265760405162461bcd60e51b815260206004820152602160248201527f5f72696768742073686f756c6420626520696e7369646520746865206669656c6044820152601960fa1b60648201526084016107a4565b6040805180820182528481526020810184905260048054925163014cf2b360e51b815291926001600160a01b03169163299e56609161086791859101612b8b565b60206040518083038186803b15801561087f57600080fd5b505afa158015610893573d6000803e3d6000fd5b505050506040513d601f19601f820116820180604052508101906108b79190612bbc565b9150505b92915050565b60006108db60405180602001604052806000815250610e28565b5090508061092457604051632f0c8d4b60e21b8152602060048201526015602482015274151a5b59481a5b9d195c9d985b081b9bdd081b595d605a1b60448201526064016107a4565b42606f55607054610936906001612beb565b60705560008054606e54604051630a090ac160e21b81526001600160a01b03909216916328242b0491610988916001600160401b03821691606d91600160401b90910463ffffffff1690600401612c38565b602060405180830381600087803b1580156109a257600080fd5b505af11580156109b6573d6000803e3d6000fd5b505050506040513d601f19601f820116820180604052508101906109da9190612bbc565b905060008054906101000a90046001600160a01b03166001600160a01b0316635ab1bd536040518163ffffffff1660e01b815260040160206040518083038186803b158015610a2857600080fd5b505afa158015610a3c573d6000803e3d6000fd5b505050506040513d601f19601f82011682018060405250810190610a609190612cd9565b60008281526001602052604080822080546001600160a01b0319166001600160a01b039490941693909317909255905182917f1131472297a800fee664d1d89cfa8f7676ff07189ecc53f80bbb5f4969099db891a2607255505050565b607a8181548110610acd57600080fd5b906000526020600020016000915090508054610ae890612c03565b80601f0160208091040260200160405190810160405280929190818152602001828054610b1490612c03565b8015610b615780601f10610b3657610100808354040283529160200191610b61565b820191906000526020600020905b815481529060010190602001808311610b4457829003601f168201915b505050505081565b610b7161152c565b60008381526076602052604090205460ff1615610bca576040516337a51b3d60e21b8152602060048201526016602482015275139d5b1b1a599a595c88185b1c9958591e481d5cd95960521b60448201526064016107a4565b610bd382610daa565b610c115760405163a4305b1360e01b815260206004820152600e60248201526d2937b7ba103737ba1035b737bbb760911b60448201526064016107a4565b6040805180820182528381526020808201869052607554845191850151858501519451637ae4eb4f60e11b815293946001600160a01b039092169363f5c9d69e93610c63939092918790600401612d19565b602060405180830381600087803b158015610c7d57600080fd5b505af1158015610c91573d6000803e3d6000fd5b505050506040513d601f19601f82011682018060405250810190610cb59190612d80565b610cf2576040516309daa30960e21b815260206004820152600d60248201526c24b73b30b634b210383937b7b360991b60448201526064016107a4565b60008481526076602052604090819020805460ff1916600117905551607890610d1c908890612da2565b9081526040516020918190038201902080546001810182556000918252908290208751610d5193919092019190880190612205565b507f06b6c80bb5c4b26d73a7cf3586c1b2f17bd79f8f7fd3c3e14f9cd709265741208585604051610d83929190612dbe565b60405180910390a150610d966001606c55565b5050505050565b606d8054610ae890612c03565b600081610db957506000919050565b60075463ffffffff165b60088163ffffffff1660648110610ddc57610ddc612de0565b0154831415610dee5750600192915050565b63ffffffff8116610dfd575060645b80610e0781612df6565b60075490925063ffffffff808416911614159050610dc35750600092915050565b6000606062093a80606f5442610e3e9190612e16565b119150915091565b6003546001600160a01b03163314610e995760405162461bcd60e51b815260206004820152601660248201527526bab9ba10313290383937b837b9b2b21037bbb732b960511b60448201526064016107a4565b600280546001600160a01b0319808216339081179093556003805490911690556040516001600160a01b03909116919082907f8be0079c531659141344cd1fd0a4f28419497f9722a3daafe3b4186f6b6457e090600090a350565b610efc61152c565b3360008181526079602052604090205460ff16610f525760405162461bcd60e51b81526020600482015260146024820152731059191c995cdcc81b9bdd081cd95b1958dd195960621b60448201526064016107a4565b60008281526077602052604090205460ff1615610fb257604051632f40bf3560e01b815260206004820152601760248201527f436f6d6d69746d656e7420616c7265616479207573656400000000000000000060448201526064016107a4565b6000610fbd83611586565b60008481526077602052604090819020805460ff19166001179055519091507fb78452bc487dc90d6a0a567cf87858dae69e144c5f299a43ed6964629c219e2a9061101a908590849091825263ffffffff16602082015260400190565b60405180910390a1505061102e6001606c55565b50565b60075460009060089063ffffffff166064811061105057611050612de0565b0154905090565b60738054610ae890612c03565b6008816064811061107457600080fd5b0154905081565b815160208184018101805160788252928201918501919091209190528054829081106110a657600080fd5b90600052602060002001600091509150508054610ae890612c03565b6000805460408051636994548f60e11b815290516060936001600160a01b039093169263d328a91e9260048082019391829003018186803b15801561110657600080fd5b505afa15801561111a573d6000803e3d6000fd5b505050506040513d6000823e601f3d908101601f191682016040526111429190810190612e2d565b905090565b600080546001600160a01b031663d227d24585611163886117e8565b86866040518563ffffffff1660e01b81526004016111849493929190612e9a565b60206040518083038186803b15801561119c57600080fd5b505afa1580156111b0573d6000803e3d6000fd5b505050506040513d601f19601f820116820180604052508101906111d49190612ed5565b90505b949350505050565b607a5460005b81811015611245576078607a828154811061120257611202612de0565b906000526020600020016040516112199190612f03565b908152602001604051809103902060006112339190612289565b8061123d81612f75565b9150506111e5565b5061124e611a04565b6040517f84b7226822737d667aa57d064ceffa18dbf761c762c54d5b119bfbc3275bf18a90600090a150565b60606078838360405161128e929190612f90565b9081526020016040518091039020805480602002602001604051908101604052809291908181526020016000905b828210156113685783829060005260206000200180546112db90612c03565b80601f016020809104026020016040519081016040528092919081815260200182805461130790612c03565b80156113545780601f1061132957610100808354040283529160200191611354565b820191906000526020600020905b81548152906001019060200180831161133757829003601f168201915b5050505050815260200190600101906112bc565b50505050905092915050565b6006818154811061138457600080fd5b600091825260209091200154905081565b6005818154811061138457600080fd5b6113ad611bb8565b61102e81611c0d565b60606113f26040805160c08101909152806000815260200160008152602001600081526020016060815260200160608152602001606081525090565b6114396000808a8a8080601f01602080910402602001604051908101604052809392919081815260200183838082843760009201919091525087959493925050611cb89050565b84156114815761148186868080601f0160208091040260200160405190810160405280939291908181526020018383808284376000920191909152508593925050611d339050565b821561149b5761149b6114948486612fa0565b8290611d61565b6114a4816117e8565b98975050505050505050565b60748054610ae890612c03565b81516114d0906073906020850190612205565b5080516114e4906074906020840190612205565b50827f7bab0ec163b5c132c72b8146ac4d6e067e82ed58f8b131150aa71c92589115628383604051611517929190612fad565b60405180910390a26115276111df565b505050565b6002606c54141561157f5760405162461bcd60e51b815260206004820152601f60248201527f5265656e7472616e637947756172643a207265656e7472616e742063616c6c0060448201526064016107a4565b6002606c55565b600754600090640100000000900463ffffffff166115c57f000000000000000000000000000000000000000000000000000000000000000060026130b6565b8163ffffffff16106116325760405163d7e8473f60e01b815260206004820152602f60248201527f4d65726b6c6520747265652069732066756c6c2e204e6f206d6f7265206c656160448201526e199cc818d85b881899481859191959608a1b60648201526084016107a4565b6001600760048282829054906101000a900463ffffffff1661165491906130c8565b92506101000a81548163ffffffff021916908363ffffffff160217905550600083905060008060005b7f000000000000000000000000000000000000000000000000000000000000000063ffffffff168163ffffffff16101561176f576116bc600286613106565b63ffffffff1661171a5783925060068163ffffffff16815481106116e2576116e2612de0565b906000526020600020015491508360058263ffffffff168154811061170957611709612de0565b600091825260209091200155611744565b60058163ffffffff168154811061173357611733612de0565b906000526020600020015492508391505b61174e8383610737565b935061175b600286613129565b9450806117678161314c565b91505061167d565b506007546064906117879063ffffffff1660016130c8565b6117919190613106565b6007805463ffffffff191663ffffffff9290921691821790558390600890606481106117bf576117bf612de0565b01556007546117de90600190640100000000900463ffffffff16613170565b9695505050505050565b6060611807604051806040016040528060608152602001600081525090565b61181381610100611d88565b5060408051808201909152600c81526b31b7b232a637b1b0ba34b7b760a11b6020820152611842908290611ded565b825161186090600181111561185957611859613195565b8290611e04565b6040805180820190915260088152676c616e677561676560c01b602082015261188a908290611ded565b60408301516118a190801561185957611859613195565b604080518082019091526006815265736f7572636560d01b60208201526118c9908290611ded565b60608301516118d9908290611ded565b60a0830151511561196f576040805180820190915260048152636172677360e01b602082015261190a908290611ded565b61191381611e29565b60005b8360a0015151811015611965576119538460a00151828151811061193c5761193c612de0565b602002602001015183611ded90919063ffffffff16565b8061195d81612f75565b915050611916565b5061196f81611e34565b608083015151156119fd5760408051808201909152600f81526e39b2b1b932ba39a637b1b0ba34b7b760891b60208201526119ab908290611ded565b6119c48360200151600181111561185957611859613195565b6040805180820190915260078152667365637265747360c81b60208201526119ed908290611ded565b60808301516119fd908290611e3f565b5192915050565b611a10600560006122a7565b611a1c600660006122a7565b6040805160008152602081019182905251611a39916005916122c5565b506040805160008152602081019182905251611a57916006916122c5565b506007805467ffffffffffffffff191690556006805460018181019092557f2fe54c60d3acabf3343a35b6eba15db4821b340f76e741e2249685ed4899af6c7ff652222313e28459528d920b65115c16c04f3efc82aaedc97be59f3f377c0d3f9091018190556005805480840182556000919091527f036b6384b5eca791c62761152d0c79bb0604c104a5fb6f4eb0703f3154bb3db001819055905b7f000000000000000000000000000000000000000000000000000000000000000063ffffffff168163ffffffff161015611ba757611b318283610737565b6006805460018181019092557ff652222313e28459528d920b65115c16c04f3efc82aaedc97be59f3f377c0d3f018290556005805491820181556000527f036b6384b5eca791c62761152d0c79bb0604c104a5fb6f4eb0703f3154bb3db001819055915080611b9f8161314c565b915050611af3565b50611bb28182610737565b60085550565b6002546001600160a01b03163314611c0b5760405162461bcd60e51b815260206004820152601660248201527527b7363c9031b0b63630b1363290313c9037bbb732b960511b60448201526064016107a4565b565b6001600160a01b038116331415611c665760405162461bcd60e51b815260206004820152601760248201527f43616e6e6f74207472616e7366657220746f2073656c6600000000000000000060448201526064016107a4565b600380546001600160a01b0319166001600160a01b03838116918217909255600254604051919216907fed8889f560326eb138920d842192f0eb3dd22b4f139c87a2c57538e05bae127890600090a350565b8051611cd7576040516322ce3edd60e01b815260040160405180910390fd5b83836001811115611cea57611cea613195565b90816001811115611cfd57611cfd613195565b90525060408401828015611d1357611d13613195565b90818015611d2357611d23613195565b9052506060909301929092525050565b8051611d525760405163e889636f60e01b815260040160405180910390fd5b60016020830152608090910152565b8051611d805760405163fe936cb760e01b815260040160405180910390fd5b60a090910152565b604080518082019091526060815260006020820152611da86020836131ab565b15611dd057611db86020836131ab565b611dc3906020612e16565b611dcd9083612beb565b91505b506020828101829052604080518085526000815290920101905290565b611dfa8260038351611e48565b6115278282611f4f565b6001600160401b03811115611e1d576107338282611f7d565b61073382600083611e48565b61102e816004611fb4565b61102e816007611fb4565b611dfa82600283515b6017816001600160401b031611611e6c576106ea8360e0600585901b168317611fc5565b60ff816001600160401b031611611ea857611e92836018611fe0600586901b1617611fc5565b506106ea836001600160401b0383166001611fea565b61ffff816001600160401b031611611ee557611ecf836019611fe0600586901b1617611fc5565b506106ea836001600160401b0383166002611fea565b63ffffffff816001600160401b031611611f2457611f0e83601a611fe0600586901b1617611fc5565b506106ea836001600160401b0383166004611fea565b611f3983601b611fe0600586901b1617611fc5565b506106ea836001600160401b0383166008611fea565b604080518082019091526060815260006020820152611f7683846000015151848551612010565b9392505050565b611f888260c2611fc5565b506107338282604051602001611fa091815260200190565b604051602081830303815290604052611e3f565b61152782601f611fe0600585901b16175b604080518082019091526060815260006020820152611f7683846000015151846120fa565b6040805180820190915260608152600060208201526111d7848560000151518585612156565b604080518082019091526060815260006020820152825182111561203357600080fd5b60208501516120428386612beb565b11156120755761207585612065876020015187866120609190612beb565b6121d7565b6120709060026131bf565b6121ee565b6000808651805187602083010193508088870111156120945787860182525b505050602084015b602084106120d457805182526120b3602083612beb565b91506120c0602082612beb565b90506120cd602085612e16565b935061209c565b51815160001960208690036101000a019081169019919091161790525083949350505050565b6040805180820190915260608152600060208201528360200151831061212f5761212f848560200151600261207091906131bf565b83518051602085830101848153508085141561214c576001810182525b5093949350505050565b604080518082019091526060815260006020820152602085015161217a8584612beb565b111561218e5761218e856120658685612beb565b6000600161219e846101006131de565b6121a89190612e16565b90508551838682010185831982511617815250805184870111156121cc5783860181525b509495945050505050565b6000818311156121e85750816108bb565b50919050565b81516121fa8383611d88565b506106ea8382611f4f565b82805461221190612c03565b90600052602060002090601f0160209004810192826122335760008555612279565b82601f1061224c57805160ff1916838001178555612279565b82800160010185558215612279579182015b8281111561227957825182559160200191906001019061225e565b506122859291506122ff565b5090565b508054600082559060005260206000209081019061102e9190612314565b508054600082559060005260206000209081019061102e91906122ff565b828054828255906000526020600020908101928215612279579160200282018281111561227957825182559160200191906001019061225e565b5b808211156122855760008155600101612300565b808211156122855760006123288282612331565b50600101612314565b50805461233d90612c03565b6000825580601f1061234d575050565b601f01602090049060005260206000209081019061102e91906122ff565b634e487b7160e01b600052604160045260246000fd5b604051606081016001600160401b03811182821017156123a3576123a361236b565b60405290565b60405160c081016001600160401b03811182821017156123a3576123a361236b565b604080519081016001600160401b03811182821017156123a3576123a361236b565b604051601f8201601f191681016001600160401b03811182821017156124155761241561236b565b604052919050565b60006001600160401b038211156124365761243661236b565b50601f01601f191660200190565b600082601f83011261245557600080fd5b81356124686124638261241d565b6123ed565b81815284602083860101111561247d57600080fd5b816020850160208301376000918101602001919091529392505050565b6000806000606084860312156124af57600080fd5b8335925060208401356001600160401b03808211156124cd57600080fd5b6124d987838801612444565b935060408601359150808211156124ef57600080fd5b506124fc86828701612444565b9150509250925092565b60006020828403121561251857600080fd5b81356001600160401b0381111561252e57600080fd5b6108b784828501612444565b60006020828403121561254c57600080fd5b5035919050565b6000806040838503121561256657600080fd5b50508035926020909101359150565b60008083601f84011261258757600080fd5b5081356001600160401b0381111561259e57600080fd5b6020830191508360208285010111156125b657600080fd5b9250929050565b600080602083850312156125d057600080fd5b82356001600160401b038111156125e657600080fd5b6125f285828601612575565b90969095509350505050565b60005b83811015612619578181015183820152602001612601565b838111156106ea5750506000910152565b600081518084526126428160208601602086016125fe565b601f01601f19169290920160200192915050565b602081526000611f76602083018461262a565b600082601f83011261267a57600080fd5b6126826123cb565b80604084018581111561269457600080fd5b845b818110156126ae578035845260209384019301612696565b509095945050505050565b60008060008060008587036101808112156126d357600080fd5b86356001600160401b03808211156126ea57600080fd5b6126f68a838b01612444565b975060209150818901358181111561270d57600080fd5b6127198b828c01612444565b97505050604088810135955060608901359450610100607f198401121561273f57600080fd5b612747612381565b92506127568a60808b01612669565b83528960df8a011261276757600080fd5b61276f6123cb565b806101408b018c81111561278257600080fd5b60c08c015b818110156127a6576127998e82612669565b8452928501928401612787565b5081858701526127b68d82612669565b848701525050505050809150509295509295909350565b82151581526040602082015260006111d7604083018461262a565b600080604083850312156127fb57600080fd5b82356001600160401b0381111561281157600080fd5b61281d85828601612444565b95602094909401359450505050565b80356002811061283b57600080fd5b919050565b80356001811061283b57600080fd5b60006001600160401b03808411156128695761286961236b565b8360051b602061287a8183016123ed565b8681529350908401908084018783111561289357600080fd5b855b838110156128c7578035858111156128ad5760008081fd5b6128b98a828a01612444565b835250908201908201612895565b50505050509392505050565b600082601f8301126128e457600080fd5b611f768383356020850161284f565b80356001600160401b038116811461283b57600080fd5b803563ffffffff8116811461283b57600080fd5b6000806000806080858703121561293457600080fd5b84356001600160401b038082111561294b57600080fd5b9086019060c0828903121561295f57600080fd5b6129676123a9565b6129708361282c565b815261297e6020840161282c565b602082015261298f60408401612840565b60408201526060830135828111156129a657600080fd5b6129b28a828601612444565b6060830152506080830135828111156129ca57600080fd5b6129d68a828601612444565b60808301525060a0830135828111156129ee57600080fd5b6129fa8a8286016128d3565b60a0830152509550612a11915050602086016128f3565b9250612a1f6040860161290a565b9396929550929360600135925050565b6000602080830181845280855180835260408601915060408160051b870101925083870160005b82811015612a8457603f19888603018452612a7285835161262a565b94509285019290850190600101612a56565b5092979650505050505050565b6001600160a01b038116811461102e57600080fd5b600060208284031215612ab857600080fd5b8135611f7681612a91565b60008060008060008060608789031215612adc57600080fd5b86356001600160401b0380821115612af357600080fd5b612aff8a838b01612575565b90985096506020890135915080821115612b1857600080fd5b612b248a838b01612575565b90965094506040890135915080821115612b3d57600080fd5b818901915089601f830112612b5157600080fd5b813581811115612b6057600080fd5b8a60208260051b8501011115612b7557600080fd5b6020830194508093505050509295509295509295565b60408101818360005b6002811015612bb3578151835260209283019290910190600101612b94565b50505092915050565b600060208284031215612bce57600080fd5b5051919050565b634e487b7160e01b600052601160045260246000fd5b60008219821115612bfe57612bfe612bd5565b500190565b600181811c90821680612c1757607f821691505b602082108114156121e857634e487b7160e01b600052602260045260246000fd5b6001600160401b03841681526000602060608184015260008554612c5b81612c03565b8060608701526080600180841660008114612c7d5760018114612c9157612cbf565b60ff1985168984015260a089019550612cbf565b8a6000528660002060005b85811015612cb75781548b8201860152908301908801612c9c565b8a0184019650505b5050505063ffffffff861660408601525091506111d79050565b600060208284031215612ceb57600080fd5b8151611f7681612a91565b8060005b60028110156106ea578151845260209384019390910190600101612cfa565b6101408101612d288287612cf6565b60408083018660005b6002811015612d5857612d45838351612cf6565b9183019160209190910190600101612d31565b50505050612d6960c0830185612cf6565b612d77610100830184612cf6565b95945050505050565b600060208284031215612d9257600080fd5b81518015158114611f7657600080fd5b60008251612db48184602087016125fe565b9190910192915050565b604081526000612dd1604083018561262a565b90508260208301529392505050565b634e487b7160e01b600052603260045260246000fd5b600063ffffffff821680612e0c57612e0c612bd5565b6000190192915050565b600082821015612e2857612e28612bd5565b500390565b600060208284031215612e3f57600080fd5b81516001600160401b03811115612e5557600080fd5b8201601f81018413612e6657600080fd5b8051612e746124638261241d565b818152856020838501011115612e8957600080fd5b612d778260208301602086016125fe565b6001600160401b0385168152608060208201526000612ebc608083018661262a565b63ffffffff949094166040830152506060015292915050565b600060208284031215612ee757600080fd5b81516bffffffffffffffffffffffff81168114611f7657600080fd5b6000808354612f1181612c03565b60018281168015612f295760018114612f3a57612f69565b60ff19841687528287019450612f69565b8760005260208060002060005b85811015612f605781548a820152908401908201612f47565b50505082870194505b50929695505050505050565b6000600019821415612f8957612f89612bd5565b5060010190565b8183823760009101908152919050565b6000611f7636848461284f565b604081526000612fc0604083018561262a565b8281036020840152612d77818561262a565b600181815b8085111561300d578160001904821115612ff357612ff3612bd5565b8085161561300057918102915b93841c9390800290612fd7565b509250929050565b600082613024575060016108bb565b81613031575060006108bb565b816001811461304757600281146130515761306d565b60019150506108bb565b60ff84111561306257613062612bd5565b50506001821b6108bb565b5060208310610133831016604e8410600b8410161715613090575081810a6108bb565b61309a8383612fd2565b80600019048211156130ae576130ae612bd5565b029392505050565b6000611f7663ffffffff841683613015565b600063ffffffff8083168185168083038211156130e7576130e7612bd5565b01949350505050565b634e487b7160e01b600052601260045260246000fd5b600063ffffffff8084168061311d5761311d6130f0565b92169190910692915050565b600063ffffffff80841680613140576131406130f0565b92169190910492915050565b600063ffffffff8083168181141561316657613166612bd5565b6001019392505050565b600063ffffffff8381169083168181101561318d5761318d612bd5565b039392505050565b634e487b7160e01b600052602160045260246000fd5b6000826131ba576131ba6130f0565b500690565b60008160001904831182151516156131d9576131d9612bd5565b500290565b6000611f76838361301556fea2646970667358221220f351cb92ba833ee51ecd7cf438489f49d97e7fa08dc3bff7153337f9681ccef864736f6c63430008090033036b6384b5eca791c62761152d0c79bb0604c104a5fb6f4eb0703f3154bb3db0f652222313e28459528d920b65115c16c04f3efc82aaedc97be59f3f377c0d3f",
  "linkReferences": {},
  "deployedLinkReferences": {}
}