{
  "_format": "hh-sol-artifact-1",
  "contractName": "SnapshotV2",
  "sourceName": "contracts/SnapshotV2.sol",
  "abi": [
    {
      "inputs": [
        {
          "internalType": "address",
          "name": "oracle",
          "type": "address"
        },
        {
          "internalType": "contract IVerifier",
          "name": "_verifier",
          "type": "address"
        },
        {
          "internalType": "uint32",
          "name": "_merkleTreeHeight",
          "type": "uint32"
        },
        {
          "internalType": "address",
          "name": "_hasher",
          "type": "address"
        },
        {
          "internalType": "address",
          "name": "_subscriptionManager",
          "type": "address"
        },
        {
          "internalType": "uint64",
          "name": "_subscriptionId",
          "type": "uint64"
        },
        {
          "internalType": "uint32",
          "name": "_fulfillGasLimit",
          "type": "uint32"
        }
      ],
      "stateMutability": "nonpayable",
      "type": "constructor"
    },
    {
      "inputs": [],
      "name": "EmptyArgs",
      "type": "error"
    },
    {
      "inputs": [],
      "name": "EmptySecrets",
      "type": "error"
    },
    {
      "inputs": [],
      "name": "EmptySource",
      "type": "error"
    },
    {
      "inputs": [
        {
          "internalType": "string",
          "name": "message",
          "type": "string"
        }
      ],
      "name": "MerkleTree__IsFull",
      "type": "error"
    },
    {
      "inputs": [
        {
          "internalType": "string",
          "name": "message",
          "type": "string"
        }
      ],
      "name": "MerkleTree__TreeLevelsOutOfRange",
      "type": "error"
    },
    {
      "inputs": [],
      "name": "RequestIsAlreadyPending",
      "type": "error"
    },
    {
      "inputs": [],
      "name": "RequestIsNotPending",
      "type": "error"
    },
    {
      "inputs": [],
      "name": "SenderIsNotRegistry",
      "type": "error"
    },
    {
      "inputs": [
        {
          "internalType": "string",
          "name": "message",
          "type": "string"
        }
      ],
      "name": "SnapshotV2__CommitmentAlreadyUsed",
      "type": "error"
    },
    {
      "inputs": [
        {
          "internalType": "string",
          "name": "message",
          "type": "string"
        }
      ],
      "name": "SnapshotV2__InvalidProof",
      "type": "error"
    },
    {
      "inputs": [
        {
          "internalType": "string",
          "name": "message",
          "type": "string"
        }
      ],
      "name": "SnapshotV2__NullifierAlreadyUsed",
      "type": "error"
    },
    {
      "inputs": [
        {
          "internalType": "string",
          "name": "message",
          "type": "string"
        }
      ],
      "name": "SnapshotV2__RandomWordsNotUpdated",
      "type": "error"
    },
    {
      "inputs": [
        {
          "internalType": "string",
          "name": "message",
          "type": "string"
        }
      ],
      "name": "SnapshotV2__RootNotKnown",
      "type": "error"
    },
    {
      "inputs": [
        {
          "internalType": "string",
          "name": "message",
          "type": "string"
        }
      ],
      "name": "SnapshotV2__TimeInterval",
      "type": "error"
    },
    {
      "anonymous": false,
      "inputs": [
        {
          "indexed": false,
          "internalType": "bytes32",
          "name": "commitment",
          "type": "bytes32"
        },
        {
          "indexed": false,
          "internalType": "uint32",
          "name": "insertedIndex",
          "type": "uint32"
        },
        {
          "indexed": false,
          "internalType": "address",
          "name": "wallet",
          "type": "address"
        }
      ],
      "name": "Inserted",
      "type": "event"
    },
    {
      "anonymous": false,
      "inputs": [
        {
          "indexed": true,
          "internalType": "bytes32",
          "name": "requestId",
          "type": "bytes32"
        },
        {
          "indexed": false,
          "internalType": "bytes",
          "name": "result",
          "type": "bytes"
        },
        {
          "indexed": false,
          "internalType": "bytes",
          "name": "err",
          "type": "bytes"
        }
      ],
      "name": "OCRResponse",
      "type": "event"
    },
    {
      "anonymous": false,
      "inputs": [
        {
          "indexed": true,
          "internalType": "address",
          "name": "from",
          "type": "address"
        },
        {
          "indexed": true,
          "internalType": "address",
          "name": "to",
          "type": "address"
        }
      ],
      "name": "OwnershipTransferRequested",
      "type": "event"
    },
    {
      "anonymous": false,
      "inputs": [
        {
          "indexed": true,
          "internalType": "address",
          "name": "from",
          "type": "address"
        },
        {
          "indexed": true,
          "internalType": "address",
          "name": "to",
          "type": "address"
        }
      ],
      "name": "OwnershipTransferred",
      "type": "event"
    },
    {
      "anonymous": false,
      "inputs": [
        {
          "indexed": true,
          "internalType": "bytes32",
          "name": "id",
          "type": "bytes32"
        }
      ],
      "name": "RequestFulfilled",
      "type": "event"
    },
    {
      "anonymous": false,
      "inputs": [
        {
          "indexed": true,
          "internalType": "bytes32",
          "name": "id",
          "type": "bytes32"
        }
      ],
      "name": "RequestSent",
      "type": "event"
    },
    {
      "anonymous": false,
      "inputs": [
        {
          "indexed": false,
          "internalType": "string",
          "name": "message",
          "type": "string"
        },
        {
          "indexed": false,
          "internalType": "bytes32",
          "name": "nullifier",
          "type": "bytes32"
        }
      ],
      "name": "messagePosted",
      "type": "event"
    },
    {
      "anonymous": false,
      "inputs": [],
      "name": "messagesCleared",
      "type": "event"
    },
    {
      "inputs": [],
      "name": "FIELD_SIZE",
      "outputs": [
        {
          "internalType": "uint256",
          "name": "",
          "type": "uint256"
        }
      ],
      "stateMutability": "view",
      "type": "function"
    },
    {
      "inputs": [],
      "name": "ROOT_HISTORY_SIZE",
      "outputs": [
        {
          "internalType": "uint32",
          "name": "",
          "type": "uint32"
        }
      ],
      "stateMutability": "view",
      "type": "function"
    },
    {
      "inputs": [],
      "name": "ZERO_VALUE",
      "outputs": [
        {
          "internalType": "uint256",
          "name": "",
          "type": "uint256"
        }
      ],
      "stateMutability": "view",
      "type": "function"
    },
    {
      "inputs": [],
      "name": "acceptOwnership",
      "outputs": [],
      "stateMutability": "nonpayable",
      "type": "function"
    },
    {
      "inputs": [
        {
          "internalType": "bytes",
          "name": "",
          "type": "bytes"
        }
      ],
      "name": "checkUpkeep",
      "outputs": [
        {
          "internalType": "bool",
          "name": "upkeepNeeded",
          "type": "bool"
        },
        {
          "internalType": "bytes",
          "name": "",
          "type": "bytes"
        }
      ],
      "stateMutability": "view",
      "type": "function"
    },
    {
      "inputs": [],
      "name": "clearMessages",
      "outputs": [],
      "stateMutability": "nonpayable",
      "type": "function"
    },
    {
      "inputs": [
        {
          "internalType": "bytes32",
          "name": "",
          "type": "bytes32"
        }
      ],
      "name": "commitments",
      "outputs": [
        {
          "internalType": "bool",
          "name": "",
          "type": "bool"
        }
      ],
      "stateMutability": "view",
      "type": "function"
    },
    {
      "inputs": [],
      "name": "currentRootIndex",
      "outputs": [
        {
          "internalType": "uint32",
          "name": "",
          "type": "uint32"
        }
      ],
      "stateMutability": "view",
      "type": "function"
    },
    {
      "inputs": [
        {
          "components": [
            {
              "internalType": "enum Functions.Location",
              "name": "codeLocation",
              "type": "uint8"
            },
            {
              "internalType": "enum Functions.Location",
              "name": "secretsLocation",
              "type": "uint8"
            },
            {
              "internalType": "enum Functions.CodeLanguage",
              "name": "language",
              "type": "uint8"
            },
            {
              "internalType": "string",
              "name": "source",
              "type": "string"
            },
            {
              "internalType": "bytes",
              "name": "secrets",
              "type": "bytes"
            },
            {
              "internalType": "string[]",
              "name": "args",
              "type": "string[]"
            }
          ],
          "internalType": "struct Functions.Request",
          "name": "req",
          "type": "tuple"
        },
        {
          "internalType": "uint64",
          "name": "subscriptionId",
          "type": "uint64"
        },
        {
          "internalType": "uint32",
          "name": "gasLimit",
          "type": "uint32"
        },
        {
          "internalType": "uint256",
          "name": "gasPrice",
          "type": "uint256"
        }
      ],
      "name": "estimateCost",
      "outputs": [
        {
          "internalType": "uint96",
          "name": "",
          "type": "uint96"
        }
      ],
      "stateMutability": "view",
      "type": "function"
    },
    {
      "inputs": [
        {
          "internalType": "uint256",
          "name": "",
          "type": "uint256"
        }
      ],
      "name": "filledSubtrees",
      "outputs": [
        {
          "internalType": "bytes32",
          "name": "",
          "type": "bytes32"
        }
      ],
      "stateMutability": "view",
      "type": "function"
    },
    {
      "inputs": [],
      "name": "fulfillGasLimit",
      "outputs": [
        {
          "internalType": "uint32",
          "name": "",
          "type": "uint32"
        }
      ],
      "stateMutability": "view",
      "type": "function"
    },
    {
      "inputs": [
        {
          "internalType": "string",
          "name": "source",
          "type": "string"
        },
        {
          "internalType": "bytes",
          "name": "secrets",
          "type": "bytes"
        },
        {
          "internalType": "string[]",
          "name": "args",
          "type": "string[]"
        }
      ],
      "name": "generateRequest",
      "outputs": [
        {
          "internalType": "bytes",
          "name": "",
          "type": "bytes"
        }
      ],
      "stateMutability": "pure",
      "type": "function"
    },
    {
      "inputs": [],
      "name": "getDONPublicKey",
      "outputs": [
        {
          "internalType": "bytes",
          "name": "",
          "type": "bytes"
        }
      ],
      "stateMutability": "view",
      "type": "function"
    },
    {
      "inputs": [],
      "name": "getLastRoot",
      "outputs": [
        {
          "internalType": "bytes32",
          "name": "",
          "type": "bytes32"
        }
      ],
      "stateMutability": "view",
      "type": "function"
    },
    {
      "inputs": [],
      "name": "getMessages",
      "outputs": [
        {
          "internalType": "string[]",
          "name": "",
          "type": "string[]"
        }
      ],
      "stateMutability": "view",
      "type": "function"
    },
    {
      "inputs": [
        {
          "internalType": "bytes32",
          "name": "requestId",
          "type": "bytes32"
        },
        {
          "internalType": "bytes",
          "name": "response",
          "type": "bytes"
        },
        {
          "internalType": "bytes",
          "name": "err",
          "type": "bytes"
        }
      ],
      "name": "handleOracleFulfillment",
      "outputs": [],
      "stateMutability": "nonpayable",
      "type": "function"
    },
    {
      "inputs": [
        {
          "internalType": "bytes32",
          "name": "_left",
          "type": "bytes32"
        },
        {
          "internalType": "bytes32",
          "name": "_right",
          "type": "bytes32"
        }
      ],
      "name": "hashLeftRight",
      "outputs": [
        {
          "internalType": "bytes32",
          "name": "",
          "type": "bytes32"
        }
      ],
      "stateMutability": "view",
      "type": "function"
    },
    {
      "inputs": [],
      "name": "hasher",
      "outputs": [
        {
          "internalType": "contract IHasher",
          "name": "",
          "type": "address"
        }
      ],
      "stateMutability": "view",
      "type": "function"
    },
    {
      "inputs": [
        {
          "internalType": "bytes32",
          "name": "_commitment",
          "type": "bytes32"
        },
        {
          "internalType": "address",
          "name": "wallet",
          "type": "address"
        }
      ],
      "name": "insertIntoTree",
      "outputs": [],
      "stateMutability": "nonpayable",
      "type": "function"
    },
    {
      "inputs": [
        {
          "internalType": "bytes32",
          "name": "_root",
          "type": "bytes32"
        }
      ],
      "name": "isKnownRoot",
      "outputs": [
        {
          "internalType": "bool",
          "name": "",
          "type": "bool"
        }
      ],
      "stateMutability": "view",
      "type": "function"
    },
    {
      "inputs": [
        {
          "internalType": "bytes32",
          "name": "_nullifier",
          "type": "bytes32"
        }
      ],
      "name": "isNullifierUsed",
      "outputs": [
        {
          "internalType": "bool",
          "name": "",
          "type": "bool"
        }
      ],
      "stateMutability": "view",
      "type": "function"
    },
    {
      "inputs": [],
      "name": "lastUpkeepTimeStamp",
      "outputs": [
        {
          "internalType": "uint256",
          "name": "",
          "type": "uint256"
        }
      ],
      "stateMutability": "view",
      "type": "function"
    },
    {
      "inputs": [],
      "name": "latestError",
      "outputs": [
        {
          "internalType": "bytes",
          "name": "",
          "type": "bytes"
        }
      ],
      "stateMutability": "view",
      "type": "function"
    },
    {
      "inputs": [],
      "name": "latestRequestId",
      "outputs": [
        {
          "internalType": "bytes32",
          "name": "",
          "type": "bytes32"
        }
      ],
      "stateMutability": "view",
      "type": "function"
    },
    {
      "inputs": [],
      "name": "latestResponse",
      "outputs": [
        {
          "internalType": "bytes",
          "name": "",
          "type": "bytes"
        }
      ],
      "stateMutability": "view",
      "type": "function"
    },
    {
      "inputs": [],
      "name": "levels",
      "outputs": [
        {
          "internalType": "uint32",
          "name": "",
          "type": "uint32"
        }
      ],
      "stateMutability": "view",
      "type": "function"
    },
    {
      "inputs": [],
      "name": "nextIndex",
      "outputs": [
        {
          "internalType": "uint32",
          "name": "",
          "type": "uint32"
        }
      ],
      "stateMutability": "view",
      "type": "function"
    },
    {
      "inputs": [
        {
          "internalType": "bytes32",
          "name": "",
          "type": "bytes32"
        }
      ],
      "name": "nullifiers",
      "outputs": [
        {
          "internalType": "bool",
          "name": "",
          "type": "bool"
        }
      ],
      "stateMutability": "view",
      "type": "function"
    },
    {
      "inputs": [],
      "name": "owner",
      "outputs": [
        {
          "internalType": "address",
          "name": "",
          "type": "address"
        }
      ],
      "stateMutability": "view",
      "type": "function"
    },
    {
      "inputs": [
        {
          "internalType": "bytes",
          "name": "",
          "type": "bytes"
        }
      ],
      "name": "performUpkeep",
      "outputs": [],
      "stateMutability": "nonpayable",
      "type": "function"
    },
    {
      "inputs": [
        {
          "internalType": "string",
          "name": "_message",
          "type": "string"
        },
        {
          "internalType": "bytes32",
          "name": "_nullifierHash",
          "type": "bytes32"
        },
        {
          "internalType": "bytes32",
          "name": "_root",
          "type": "bytes32"
        },
        {
          "components": [
            {
              "internalType": "uint256[2]",
              "name": "a",
              "type": "uint256[2]"
            },
            {
              "internalType": "uint256[2][2]",
              "name": "b",
              "type": "uint256[2][2]"
            },
            {
              "internalType": "uint256[2]",
              "name": "c",
              "type": "uint256[2]"
            }
          ],
          "internalType": "struct Proof",
          "name": "_proof",
          "type": "tuple"
        }
      ],
      "name": "postMessageWithProof",
      "outputs": [],
      "stateMutability": "nonpayable",
      "type": "function"
    },
    {
      "inputs": [],
      "name": "requestCBOR",
      "outputs": [
        {
          "internalType": "bytes",
          "name": "",
          "type": "bytes"
        }
      ],
      "stateMutability": "view",
      "type": "function"
    },
    {
      "inputs": [],
      "name": "responseCounter",
      "outputs": [
        {
          "internalType": "uint256",
          "name": "",
          "type": "uint256"
        }
      ],
      "stateMutability": "view",
      "type": "function"
    },
    {
      "inputs": [
        {
          "internalType": "uint256",
          "name": "",
          "type": "uint256"
        }
      ],
      "name": "roots",
      "outputs": [
        {
          "internalType": "bytes32",
          "name": "",
          "type": "bytes32"
        }
      ],
      "stateMutability": "view",
      "type": "function"
    },
    {
      "inputs": [],
      "name": "subscriptionId",
      "outputs": [
        {
          "internalType": "uint64",
          "name": "",
          "type": "uint64"
        }
      ],
      "stateMutability": "view",
      "type": "function"
    },
    {
      "inputs": [],
      "name": "subscriptionManager",
      "outputs": [
        {
          "internalType": "contract IVRFv2SubscriptionManager",
          "name": "",
          "type": "address"
        }
      ],
      "stateMutability": "view",
      "type": "function"
    },
    {
      "inputs": [
        {
          "internalType": "address",
          "name": "to",
          "type": "address"
        }
      ],
      "name": "transferOwnership",
      "outputs": [],
      "stateMutability": "nonpayable",
      "type": "function"
    },
    {
      "inputs": [],
      "name": "updateInterval",
      "outputs": [
        {
          "internalType": "uint256",
          "name": "",
          "type": "uint256"
        }
      ],
      "stateMutability": "view",
      "type": "function"
    },
    {
      "inputs": [],
      "name": "upkeepCounter",
      "outputs": [
        {
          "internalType": "uint256",
          "name": "",
          "type": "uint256"
        }
      ],
      "stateMutability": "view",
      "type": "function"
    },
    {
      "inputs": [],
      "name": "verifier",
      "outputs": [
        {
          "internalType": "contract IVerifier",
          "name": "",
          "type": "address"
        }
      ],
      "stateMutability": "view",
      "type": "function"
    },
    {
      "inputs": [
        {
          "internalType": "uint256",
          "name": "",
          "type": "uint256"
        }
      ],
      "name": "zeros",
      "outputs": [
        {
          "internalType": "bytes32",
          "name": "",
          "type": "bytes32"
        }
      ],
      "stateMutability": "view",
      "type": "function"
    }
  ],
  "bytecode": "0x60a0604052600780546001600160401b03191690553480156200002157600080fd5b5060405162003c2b38038062003c2b83398101604081905262000044916200070a565b600080546001600160a01b0319166001600160a01b03891617815585908590339081906001600160a01b038216620000c35760405162461bcd60e51b815260206004820152601860248201527f43616e6e6f7420736574206f776e657220746f207a65726f000000000000000060448201526064015b60405180910390fd5b600280546001600160a01b0319166001600160a01b0384811691909117909155811615620000f657620000f68162000337565b505050602063ffffffff831611156200016257604051632d5d403760e01b815260206004820152602660248201527f54726565206c6576656c732073686f756c64206265206265747765656e20302060448201526530b73210199960d11b6064820152608401620000ba565b600480546001600160a01b0319166001600160a01b03831617905563ffffffff82166080526006805460018181019092557f2fe54c60d3acabf3343a35b6eba15db4821b340f76e741e2249685ed4899af6c60008051602062003c0b83398151915290910181905560058054808401825560009190915260008051602062003beb83398151915201819055905b8363ffffffff168163ffffffff1610156200026757620002108280620003e4565b60068054600181810190925560008051602062003c0b8339815191520182905560058054918201815560005260008051602062003beb833981519152018190559150806200025e81620007b7565b915050620001ef565b50620002748180620003e4565b60085550506001606c55506040805160008082526020820190925290620002ac565b6060815260200190600190039081620002965790505b508051620002c39160799160209091019062000571565b50607580546001600160a01b039788166001600160a01b0319918216179091556076805494909716931692909217909455606e805463ffffffff90921668010000000000000000026001600160601b03199092166001600160401b039095169490941717909255505042606f555062000874565b6001600160a01b038116331415620003925760405162461bcd60e51b815260206004820152601760248201527f43616e6e6f74207472616e7366657220746f2073656c660000000000000000006044820152606401620000ba565b600380546001600160a01b0319166001600160a01b03838116918217909255600254604051919216907fed8889f560326eb138920d842192f0eb3dd22b4f139c87a2c57538e05bae127890600090a350565b60007f30644e72e131a029b85045b68181585d2833e84879b9709143e1f593f00000018310620004575760405162461bcd60e51b815260206004820181905260248201527f5f6c6566742073686f756c6420626520696e7369646520746865206669656c646044820152606401620000ba565b7f30644e72e131a029b85045b68181585d2833e84879b9709143e1f593f00000018210620004d25760405162461bcd60e51b815260206004820152602160248201527f5f72696768742073686f756c6420626520696e7369646520746865206669656c6044820152601960fa1b6064820152608401620000ba565b6040805180820182528481526020810184905260048054925163014cf2b360e51b815291926001600160a01b03169163299e5660916200051591859101620007ea565b60206040518083038186803b1580156200052e57600080fd5b505afa15801562000543573d6000803e3d6000fd5b505050506040513d601f19601f820116820180604052508101906200056991906200081d565b949350505050565b828054828255906000526020600020908101928215620005c3579160200282015b82811115620005c35782518051620005b2918491602090910190620005d5565b509160200191906001019062000592565b50620005d192915062000660565b5090565b828054620005e39062000837565b90600052602060002090601f01602090048101928262000607576000855562000652565b82601f106200062257805160ff191683800117855562000652565b8280016001018555821562000652579182015b828111156200065257825182559160200191906001019062000635565b50620005d192915062000681565b80821115620005d157600062000677828262000698565b5060010162000660565b5b80821115620005d1576000815560010162000682565b508054620006a69062000837565b6000825580601f10620006b7575050565b601f016020900490600052602060002090810190620006d7919062000681565b50565b6001600160a01b0381168114620006d757600080fd5b805163ffffffff811681146200070557600080fd5b919050565b600080600080600080600060e0888a0312156200072657600080fd5b87516200073381620006da565b60208901519097506200074681620006da565b95506200075660408901620006f0565b945060608801516200076881620006da565b60808901519094506200077b81620006da565b60a08901519093506001600160401b03811681146200079957600080fd5b9150620007a960c08901620006f0565b905092959891949750929550565b600063ffffffff80831681811415620007e057634e487b7160e01b600052601160045260246000fd5b6001019392505050565b60408101818360005b600281101562000814578151835260209283019290910190600101620007f3565b50505092915050565b6000602082840312156200083057600080fd5b5051919050565b600181811c908216806200084c57607f821691505b602082108114156200086e57634e487b7160e01b600052602260045260246000fd5b50919050565b608051613346620008a5600039600081816103d80152818161196d01528181611a490152611b2901526133466000f3fe608060405234801561001057600080fd5b50600436106102535760003560e01c80638da5cb5b11610146578063df65850a116100c3578063f178e47c11610087578063f178e47c1461058b578063f2fde38b1461059e578063fc7e9c6f146105b1578063fd2c80ae146105c9578063fe083012146105d3578063fffeb84e146105e657600080fd5b8063df65850a14610523578063e82955881461052b578063ea2637a51461053e578063ec73295914610551578063ed33639f1461057857600080fd5b8063bf158fd21161010a578063bf158fd2146104bd578063c2b40ae4146104d0578063cd87a3b4146104e3578063d328a91e146104eb578063d4b39175146104f357600080fd5b80638da5cb5b1461048357806390eeb02b14610494578063a3d3c0d2146104a4578063ba70f757146104ad578063bef3a2f0146104b557600080fd5b806338bf282e116101d4578063688ecfd111610198578063688ecfd11461040f5780636d9833e3146104245780636e04ff0d1461043757806379ba509714610458578063839df9451461046057600080fd5b806338bf282e14610386578063414a37ba146103995780634585e33b146103c05780634ecf518b146103d35780635ff6cbf3146103fa57600080fd5b806322dc7b4c1161021b57806322dc7b4c146102d057806324b93e3e146103035780632997e86b1461032f5780632b7ac3f314610352578063381fc4b51461037d57600080fd5b8063089ea02e1461025857806309c1ba2e146102745780630ca761751461029f5780631aa46f59146102b4578063218fc350146102bd575b600080fd5b610261606f5481565b6040519081526020015b60405180910390f35b606e54610287906001600160401b031681565b6040516001600160401b03909116815260200161026b565b6102b26102ad3660046125d2565b6105ee565b005b61026160725481565b6102b26102cb36600461268e565b61067b565b6102f36102de36600461277b565b60009081526077602052604090205460ff1690565b604051901515815260200161026b565b606e5461031a90600160401b900463ffffffff1681565b60405163ffffffff909116815260200161026b565b6102f361033d36600461277b565b60776020526000908152604090205460ff1681565b607554610365906001600160a01b031681565b6040516001600160a01b03909116815260200161026b565b61026160715481565b610261610394366004612794565b6108a9565b6102617f30644e72e131a029b85045b68181585d2833e84879b9709143e1f593f000000181565b6102b26103ce3660046127fe565b610a2e565b61031a7f000000000000000000000000000000000000000000000000000000000000000081565b610402610c2a565b60405161026b9190612897565b610417610d03565b60405161026b91906128f9565b6102f361043236600461277b565b610d91565b61044a61044536600461290c565b610e0f565b60405161026b929190612940565b6102b2610e2d565b6102f361046e36600461277b565b60786020526000908152604090205460ff1681565b6002546001600160a01b0316610365565b60075461031a9063ffffffff1681565b61026160705481565b610261610edb565b610417610f01565b607654610365906001600160a01b031681565b6102616104de36600461277b565b610f0e565b61031a606481565b610417610f25565b610506610501366004612a5f565b610faa565b6040516bffffffffffffffffffffffff909116815260200161026b565b6102b2611042565b61026161053936600461277b565b6110c2565b6102b261054c366004612b85565b6110e3565b6102617f2fe54c60d3acabf3343a35b6eba15db4821b340f76e741e2249685ed4899af6c81565b600454610365906001600160a01b031681565b61026161059936600461277b565b6111dd565b6102b26105ac366004612bb5565b6111ed565b60075461031a90640100000000900463ffffffff1681565b6102616212750081565b6104176105e1366004612bd2565b611201565b6104176112fb565b60008381526001602052604090205483906001600160a01b031633146106275760405163a0c5ec6360e01b815260040160405180910390fd5b60008181526001602052604080822080546001600160a01b03191690555182917f85e1543bf2f84fe80c6badbce3648c8539ad1df4d2b3d822938ca0538be727e691a2610675848484611308565b50505050565b610683611606565b60008381526077602052604090205460ff16156106e1576040516337a51b3d60e21b8152602060048201526016602482015275139d5b1b1a599a595c88185b1c9958591e481d5cd95960521b60448201526064015b60405180910390fd5b6106ea82610d91565b6107285760405163a4305b1360e01b815260206004820152600e60248201526d2937b7ba103737ba1035b737bbb760911b60448201526064016106d8565b6040805180820182528381526020808201869052607554845191850151858501519451637ae4eb4f60e11b815293946001600160a01b039092169363f5c9d69e9361077a939092918790600401612cbd565b602060405180830381600087803b15801561079457600080fd5b505af11580156107a8573d6000803e3d6000fd5b505050506040513d601f19601f820116820180604052508101906107cc9190612d24565b610809576040516309daa30960e21b815260206004820152600d60248201526c24b73b30b634b210383937b7b360991b60448201526064016106d8565b60008481526077602090815260408220805460ff191660019081179091556079805491820181559092528651610864927f957bbdc7fad0dec56e7c96af4a3ab63aa9daf934a52ffce891945b7fb622d79101918801906122e4565b507f06b6c80bb5c4b26d73a7cf3586c1b2f17bd79f8f7fd3c3e14f9cd709265741208585604051610896929190612d46565b60405180910390a1506106756001606c55565b60007f30644e72e131a029b85045b68181585d2833e84879b9709143e1f593f0000001831061091a5760405162461bcd60e51b815260206004820181905260248201527f5f6c6566742073686f756c6420626520696e7369646520746865206669656c6460448201526064016106d8565b7f30644e72e131a029b85045b68181585d2833e84879b9709143e1f593f000000182106109935760405162461bcd60e51b815260206004820152602160248201527f5f72696768742073686f756c6420626520696e7369646520746865206669656c6044820152601960fa1b60648201526084016106d8565b6040805180820182528481526020810184905260048054925163014cf2b360e51b815291926001600160a01b03169163299e5660916109d491859101612d68565b60206040518083038186803b1580156109ec57600080fd5b505afa158015610a00573d6000803e3d6000fd5b505050506040513d601f19601f82011682018060405250810190610a249190612d99565b9150505b92915050565b6000610a4860405180602001604052806000815250610e0f565b50905080610a9157604051632f0c8d4b60e21b8152602060048201526015602482015274151a5b59481a5b9d195c9d985b081b9bdd081b595d605a1b60448201526064016106d8565b42606f55607054610aa3906001612dc8565b60705560008054606e54604051630a090ac160e21b81526001600160a01b03909216916328242b0491610af5916001600160401b03821691606d91600160401b90910463ffffffff1690600401612e15565b602060405180830381600087803b158015610b0f57600080fd5b505af1158015610b23573d6000803e3d6000fd5b505050506040513d601f19601f82011682018060405250810190610b479190612d99565b905060008054906101000a90046001600160a01b03166001600160a01b0316635ab1bd536040518163ffffffff1660e01b815260040160206040518083038186803b158015610b9557600080fd5b505afa158015610ba9573d6000803e3d6000fd5b505050506040513d601f19601f82011682018060405250810190610bcd9190612edb565b60008281526001602052604080822080546001600160a01b0319166001600160a01b039490941693909317909255905182917f1131472297a800fee664d1d89cfa8f7676ff07189ecc53f80bbb5f4969099db891a2607255505050565b60606079805480602002602001604051908101604052809291908181526020016000905b82821015610cfa578382906000526020600020018054610c6d90612de0565b80601f0160208091040260200160405190810160405280929190818152602001828054610c9990612de0565b8015610ce65780601f10610cbb57610100808354040283529160200191610ce6565b820191906000526020600020905b815481529060010190602001808311610cc957829003601f168201915b505050505081526020019060010190610c4e565b50505050905090565b606d8054610d1090612de0565b80601f0160208091040260200160405190810160405280929190818152602001828054610d3c90612de0565b8015610d895780601f10610d5e57610100808354040283529160200191610d89565b820191906000526020600020905b815481529060010190602001808311610d6c57829003601f168201915b505050505081565b600081610da057506000919050565b60075463ffffffff165b60088163ffffffff1660648110610dc357610dc3612ef8565b0154831415610dd55750600192915050565b63ffffffff8116610de4575060645b80610dee81612f0e565b60075490925063ffffffff808416911614159050610daa5750600092915050565b6000606062127500606f5442610e259190612f2e565b119150915091565b6003546001600160a01b03163314610e805760405162461bcd60e51b815260206004820152601660248201527526bab9ba10313290383937b837b9b2b21037bbb732b960511b60448201526064016106d8565b600280546001600160a01b0319808216339081179093556003805490911690556040516001600160a01b03909116919082907f8be0079c531659141344cd1fd0a4f28419497f9722a3daafe3b4186f6b6457e090600090a350565b60075460009060089063ffffffff1660648110610efa57610efa612ef8565b0154905090565b60738054610d1090612de0565b60088160648110610f1e57600080fd5b0154905081565b6000805460408051636994548f60e11b815290516060936001600160a01b039093169263d328a91e9260048082019391829003018186803b158015610f6957600080fd5b505afa158015610f7d573d6000803e3d6000fd5b505050506040513d6000823e601f3d908101601f19168201604052610fa59190810190612f45565b905090565b600080546001600160a01b031663d227d24585610fc688611660565b86866040518563ffffffff1660e01b8152600401610fe79493929190612fb2565b60206040518083038186803b158015610fff57600080fd5b505afa158015611013573d6000803e3d6000fd5b505050506040513d601f19601f820116820180604052508101906110379190612fed565b90505b949350505050565b61104e60796000612368565b6040805160008082526020820190925290611079565b60608152602001906001900390816110645790505b50805161108e91607991602090910190612386565b5061109761187c565b6040517f84b7226822737d667aa57d064ceffa18dbf761c762c54d5b119bfbc3275bf18a90600090a1565b600681815481106110d257600080fd5b600091825260209091200154905081565b6110eb611606565b60008281526078602052604090205460ff161561114b57604051632f40bf3560e01b815260206004820152601760248201527f436f6d6d69746d656e7420616c7265616479207573656400000000000000000060448201526064016106d8565b600061115683611a30565b60008481526078602052604090819020805460ff19166001179055519091507f4b06a020eaa12a2d683a4c58434ae9611d1026df0943fb89f31e751cb777b5ad906111c69085908490869092835263ffffffff9190911660208301526001600160a01b0316604082015260600190565b60405180910390a1506111d96001606c55565b5050565b600581815481106110d257600080fd5b6111f5611c92565b6111fe81611ce7565b50565b606061123d6040805160c08101909152806000815260200160008152602001600081526020016060815260200160608152602001606081525090565b6112846000808a8a8080601f01602080910402602001604051908101604052809392919081815260200183838082843760009201919091525087959493925050611d929050565b84156112cc576112cc86868080601f0160208091040260200160405190810160405280939291908181526020018383808284376000920191909152508593925050611e0d9050565b82156112e6576112e66112df848661301b565b8290611e3b565b6112ef81611660565b98975050505050505050565b60748054610d1090612de0565b815161131b9060739060208501906122e4565b50805161132f9060749060208401906122e4565b50827f7bab0ec163b5c132c72b8146ac4d6e067e82ed58f8b131150aa71c92589115628383604051611362929190613028565b60405180910390a2611372611042565b6076546040805163ce10b1fb60e01b815290516000926001600160a01b03169163ce10b1fb9160048083019286929190829003018186803b1580156113b657600080fd5b505afa1580156113ca573d6000803e3d6000fd5b505050506040513d6000823e601f3d908101601f191682016040526113f2919081019061304d565b60008151811061140457611404612ef8565b60200260200101519050607660009054906101000a90046001600160a01b03166001600160a01b031663e0c862896040518163ffffffff1660e01b8152600401600060405180830381600087803b15801561145e57600080fd5b505af1158015611472573d6000803e3d6000fd5b505050506000607660009054906101000a90046001600160a01b03166001600160a01b031663ce10b1fb6040518163ffffffff1660e01b815260040160006040518083038186803b1580156114c657600080fd5b505afa1580156114da573d6000803e3d6000fd5b505050506040513d6000823e601f3d908101601f19168201604052611502919081019061304d565b90508060008151811061151757611517612ef8565b602002602001015182141561156f576040516350e417ad60e01b815260206004820152601860248201527f52616e646f6d20776f726473206e6f742075706461746564000000000000000060448201526064016106d8565b60005b81518110156115fe57600082828151811061158f5761158f612ef8565b602002602001015190506000816040516020016115ae91815260200190565b6040516020818303038152906040528051906020012090506000878060200190518101906115dc9190612edb565b90506115e882826110e3565b50505080806115f6906130dd565b915050611572565b505050505050565b6002606c5414156116595760405162461bcd60e51b815260206004820152601f60248201527f5265656e7472616e637947756172643a207265656e7472616e742063616c6c0060448201526064016106d8565b6002606c55565b606061167f604051806040016040528060608152602001600081525090565b61168b81610100611e62565b5060408051808201909152600c81526b31b7b232a637b1b0ba34b7b760a11b60208201526116ba908290611ec7565b82516116d89060018111156116d1576116d16130f8565b8290611ee3565b6040805180820190915260088152676c616e677561676560c01b6020820152611702908290611ec7565b60408301516117199080156116d1576116d16130f8565b604080518082019091526006815265736f7572636560d01b6020820152611741908290611ec7565b6060830151611751908290611ec7565b60a083015151156117e7576040805180820190915260048152636172677360e01b6020820152611782908290611ec7565b61178b81611f08565b60005b8360a00151518110156117dd576117cb8460a0015182815181106117b4576117b4612ef8565b602002602001015183611ec790919063ffffffff16565b806117d5816130dd565b91505061178e565b506117e781611f13565b608083015151156118755760408051808201909152600f81526e39b2b1b932ba39a637b1b0ba34b7b760891b6020820152611823908290611ec7565b61183c836020015160018111156116d1576116d16130f8565b6040805180820190915260078152667365637265747360c81b6020820152611865908290611ec7565b6080830151611875908290611f1e565b5192915050565b611888600560006123df565b611894600660006123df565b60408051600081526020810191829052516118b1916005916123fd565b5060408051600081526020810191829052516118cf916006916123fd565b506007805467ffffffffffffffff191690556006805460018181019092557f2fe54c60d3acabf3343a35b6eba15db4821b340f76e741e2249685ed4899af6c7ff652222313e28459528d920b65115c16c04f3efc82aaedc97be59f3f377c0d3f9091018190556005805480840182556000919091527f036b6384b5eca791c62761152d0c79bb0604c104a5fb6f4eb0703f3154bb3db001819055905b7f000000000000000000000000000000000000000000000000000000000000000063ffffffff168163ffffffff161015611a1f576119a982836108a9565b6006805460018181019092557ff652222313e28459528d920b65115c16c04f3efc82aaedc97be59f3f377c0d3f018290556005805491820181556000527f036b6384b5eca791c62761152d0c79bb0604c104a5fb6f4eb0703f3154bb3db001819055915080611a178161310e565b91505061196b565b50611a2a81826108a9565b60085550565b600754600090640100000000900463ffffffff16611a6f7f00000000000000000000000000000000000000000000000000000000000000006002613216565b8163ffffffff1610611adc5760405163d7e8473f60e01b815260206004820152602f60248201527f4d65726b6c6520747265652069732066756c6c2e204e6f206d6f7265206c656160448201526e199cc818d85b881899481859191959608a1b60648201526084016106d8565b6001600760048282829054906101000a900463ffffffff16611afe9190613228565b92506101000a81548163ffffffff021916908363ffffffff160217905550600083905060008060005b7f000000000000000000000000000000000000000000000000000000000000000063ffffffff168163ffffffff161015611c1957611b66600286613266565b63ffffffff16611bc45783925060068163ffffffff1681548110611b8c57611b8c612ef8565b906000526020600020015491508360058263ffffffff1681548110611bb357611bb3612ef8565b600091825260209091200155611bee565b60058163ffffffff1681548110611bdd57611bdd612ef8565b906000526020600020015492508391505b611bf883836108a9565b9350611c05600286613289565b945080611c118161310e565b915050611b27565b50600754606490611c319063ffffffff166001613228565b611c3b9190613266565b6007805463ffffffff191663ffffffff929092169182179055839060089060648110611c6957611c69612ef8565b0155600754611c8890600190640100000000900463ffffffff166132ac565b9695505050505050565b6002546001600160a01b03163314611ce55760405162461bcd60e51b815260206004820152601660248201527527b7363c9031b0b63630b1363290313c9037bbb732b960511b60448201526064016106d8565b565b6001600160a01b038116331415611d405760405162461bcd60e51b815260206004820152601760248201527f43616e6e6f74207472616e7366657220746f2073656c6600000000000000000060448201526064016106d8565b600380546001600160a01b0319166001600160a01b03838116918217909255600254604051919216907fed8889f560326eb138920d842192f0eb3dd22b4f139c87a2c57538e05bae127890600090a350565b8051611db1576040516322ce3edd60e01b815260040160405180910390fd5b83836001811115611dc457611dc46130f8565b90816001811115611dd757611dd76130f8565b90525060408401828015611ded57611ded6130f8565b90818015611dfd57611dfd6130f8565b9052506060909301929092525050565b8051611e2c5760405163e889636f60e01b815260040160405180910390fd5b60016020830152608090910152565b8051611e5a5760405163fe936cb760e01b815260040160405180910390fd5b60a090910152565b604080518082019091526060815260006020820152611e826020836132d1565b15611eaa57611e926020836132d1565b611e9d906020612f2e565b611ea79083612dc8565b91505b506020828101829052604080518085526000815290920101905290565b611ed48260038351611f27565b611ede828261202e565b505050565b6001600160401b03811115611efc576111d9828261205c565b6111d982600083611f27565b6111fe816004612093565b6111fe816007612093565b611ed482600283515b6017816001600160401b031611611f4b576106758360e0600585901b1683176120a4565b60ff816001600160401b031611611f8757611f71836018611fe0600586901b16176120a4565b50610675836001600160401b03831660016120c9565b61ffff816001600160401b031611611fc457611fae836019611fe0600586901b16176120a4565b50610675836001600160401b03831660026120c9565b63ffffffff816001600160401b03161161200357611fed83601a611fe0600586901b16176120a4565b50610675836001600160401b03831660046120c9565b61201883601b611fe0600586901b16176120a4565b50610675836001600160401b03831660086120c9565b604080518082019091526060815260006020820152612055838460000151518485516120ef565b9392505050565b6120678260c26120a4565b506111d9828260405160200161207f91815260200190565b604051602081830303815290604052611f1e565b611ede82601f611fe0600585901b16175b60408051808201909152606081526000602082015261205583846000015151846121d9565b60408051808201909152606081526000602082015261103a848560000151518585612235565b604080518082019091526060815260006020820152825182111561211257600080fd5b60208501516121218386612dc8565b111561215457612154856121448760200151878661213f9190612dc8565b6122b6565b61214f9060026132e5565b6122cd565b6000808651805187602083010193508088870111156121735787860182525b505050602084015b602084106121b35780518252612192602083612dc8565b915061219f602082612dc8565b90506121ac602085612f2e565b935061217b565b51815160001960208690036101000a019081169019919091161790525083949350505050565b6040805180820190915260608152600060208201528360200151831061220e5761220e848560200151600261214f91906132e5565b83518051602085830101848153508085141561222b576001810182525b5093949350505050565b60408051808201909152606081526000602082015260208501516122598584612dc8565b111561226d5761226d856121448685612dc8565b6000600161227d84610100613304565b6122879190612f2e565b90508551838682010185831982511617815250805184870111156122ab5783860181525b509495945050505050565b6000818311156122c7575081610a28565b50919050565b81516122d98383611e62565b50610675838261202e565b8280546122f090612de0565b90600052602060002090601f0160209004810192826123125760008555612358565b82601f1061232b57805160ff1916838001178555612358565b82800160010185558215612358579182015b8281111561235857825182559160200191906001019061233d565b50612364929150612437565b5090565b50805460008255906000526020600020908101906111fe919061244c565b8280548282559060005260206000209081019282156123d3579160200282015b828111156123d357825180516123c39184916020909101906122e4565b50916020019190600101906123a6565b5061236492915061244c565b50805460008255906000526020600020908101906111fe9190612437565b828054828255906000526020600020908101928215612358579160200282018281111561235857825182559160200191906001019061233d565b5b808211156123645760008155600101612438565b808211156123645760006124608282612469565b5060010161244c565b50805461247590612de0565b6000825580601f10612485575050565b601f0160209004906000526020600020908101906111fe9190612437565b634e487b7160e01b600052604160045260246000fd5b604051606081016001600160401b03811182821017156124db576124db6124a3565b60405290565b60405160c081016001600160401b03811182821017156124db576124db6124a3565b604080519081016001600160401b03811182821017156124db576124db6124a3565b604051601f8201601f191681016001600160401b038111828210171561254d5761254d6124a3565b604052919050565b60006001600160401b0382111561256e5761256e6124a3565b50601f01601f191660200190565b600082601f83011261258d57600080fd5b81356125a061259b82612555565b612525565b8181528460208386010111156125b557600080fd5b816020850160208301376000918101602001919091529392505050565b6000806000606084860312156125e757600080fd5b8335925060208401356001600160401b038082111561260557600080fd5b6126118783880161257c565b9350604086013591508082111561262757600080fd5b506126348682870161257c565b9150509250925092565b600082601f83011261264f57600080fd5b612657612503565b80604084018581111561266957600080fd5b845b8181101561268357803584526020938401930161266b565b509095945050505050565b6000806000808486036101608112156126a657600080fd5b85356001600160401b038111156126bc57600080fd5b6126c88882890161257c565b95505060208681013594506040808801359450610100605f19840112156126ee57600080fd5b6126f66124b9565b92506127058960608a0161263e565b83528860bf89011261271657600080fd5b61271e612503565b806101208a018b81111561273157600080fd5b60a08b015b81811015612755576127488d8261263e565b8452928501928401612736565b5081858701526127658c8261263e565b8487015250505050508091505092959194509250565b60006020828403121561278d57600080fd5b5035919050565b600080604083850312156127a757600080fd5b50508035926020909101359150565b60008083601f8401126127c857600080fd5b5081356001600160401b038111156127df57600080fd5b6020830191508360208285010111156127f757600080fd5b9250929050565b6000806020838503121561281157600080fd5b82356001600160401b0381111561282757600080fd5b612833858286016127b6565b90969095509350505050565b60005b8381101561285a578181015183820152602001612842565b838111156106755750506000910152565b6000815180845261288381602086016020860161283f565b601f01601f19169290920160200192915050565b6000602080830181845280855180835260408601915060408160051b870101925083870160005b828110156128ec57603f198886030184526128da85835161286b565b945092850192908501906001016128be565b5092979650505050505050565b602081526000612055602083018461286b565b60006020828403121561291e57600080fd5b81356001600160401b0381111561293457600080fd5b610a248482850161257c565b821515815260406020820152600061103a604083018461286b565b80356002811061296a57600080fd5b919050565b80356001811061296a57600080fd5b60006001600160401b03821115612997576129976124a3565b5060051b60200190565b60006129af61259b8461297e565b8381529050602080820190600585901b8401868111156129ce57600080fd5b845b81811015612a095780356001600160401b038111156129ef5760008081fd5b6129fb8982890161257c565b8552509282019282016129d0565b505050509392505050565b600082601f830112612a2557600080fd5b612055838335602085016129a1565b80356001600160401b038116811461296a57600080fd5b803563ffffffff8116811461296a57600080fd5b60008060008060808587031215612a7557600080fd5b84356001600160401b0380821115612a8c57600080fd5b9086019060c08289031215612aa057600080fd5b612aa86124e1565b612ab18361295b565b8152612abf6020840161295b565b6020820152612ad06040840161296f565b6040820152606083013582811115612ae757600080fd5b612af38a82860161257c565b606083015250608083013582811115612b0b57600080fd5b612b178a82860161257c565b60808301525060a083013582811115612b2f57600080fd5b612b3b8a828601612a14565b60a0830152509550612b5291505060208601612a34565b9250612b6060408601612a4b565b9396929550929360600135925050565b6001600160a01b03811681146111fe57600080fd5b60008060408385031215612b9857600080fd5b823591506020830135612baa81612b70565b809150509250929050565b600060208284031215612bc757600080fd5b813561205581612b70565b60008060008060008060608789031215612beb57600080fd5b86356001600160401b0380821115612c0257600080fd5b612c0e8a838b016127b6565b90985096506020890135915080821115612c2757600080fd5b612c338a838b016127b6565b90965094506040890135915080821115612c4c57600080fd5b818901915089601f830112612c6057600080fd5b813581811115612c6f57600080fd5b8a60208260051b8501011115612c8457600080fd5b6020830194508093505050509295509295509295565b8060005b6002811015610675578151845260209384019390910190600101612c9e565b6101408101612ccc8287612c9a565b60408083018660005b6002811015612cfc57612ce9838351612c9a565b9183019160209190910190600101612cd5565b50505050612d0d60c0830185612c9a565b612d1b610100830184612c9a565b95945050505050565b600060208284031215612d3657600080fd5b8151801515811461205557600080fd5b604081526000612d59604083018561286b565b90508260208301529392505050565b60408101818360005b6002811015612d90578151835260209283019290910190600101612d71565b50505092915050565b600060208284031215612dab57600080fd5b5051919050565b634e487b7160e01b600052601160045260246000fd5b60008219821115612ddb57612ddb612db2565b500190565b600181811c90821680612df457607f821691505b602082108114156122c757634e487b7160e01b600052602260045260246000fd5b6001600160401b0384168152600060206060818401526000855481600182811c915080831680612e4657607f831692505b858310811415612e6457634e487b7160e01b85526022600452602485fd5b6060880183905260808801818015612e835760018114612e9457612ebf565b60ff19861682528782019650612ebf565b60008c81526020902060005b86811015612eb957815484820152908501908901612ea0565b83019750505b50505063ffffffff881660408801525091935061103a92505050565b600060208284031215612eed57600080fd5b815161205581612b70565b634e487b7160e01b600052603260045260246000fd5b600063ffffffff821680612f2457612f24612db2565b6000190192915050565b600082821015612f4057612f40612db2565b500390565b600060208284031215612f5757600080fd5b81516001600160401b03811115612f6d57600080fd5b8201601f81018413612f7e57600080fd5b8051612f8c61259b82612555565b818152856020838501011115612fa157600080fd5b612d1b82602083016020860161283f565b6001600160401b0385168152608060208201526000612fd4608083018661286b565b63ffffffff949094166040830152506060015292915050565b600060208284031215612fff57600080fd5b81516bffffffffffffffffffffffff8116811461205557600080fd5b60006120553684846129a1565b60408152600061303b604083018561286b565b8281036020840152612d1b818561286b565b6000602080838503121561306057600080fd5b82516001600160401b0381111561307657600080fd5b8301601f8101851361308757600080fd5b805161309561259b8261297e565b81815260059190911b820183019083810190878311156130b457600080fd5b928401925b828410156130d2578351825292840192908401906130b9565b979650505050505050565b60006000198214156130f1576130f1612db2565b5060010190565b634e487b7160e01b600052602160045260246000fd5b600063ffffffff8083168181141561312857613128612db2565b6001019392505050565b600181815b8085111561316d57816000190482111561315357613153612db2565b8085161561316057918102915b93841c9390800290613137565b509250929050565b60008261318457506001610a28565b8161319157506000610a28565b81600181146131a757600281146131b1576131cd565b6001915050610a28565b60ff8411156131c2576131c2612db2565b50506001821b610a28565b5060208310610133831016604e8410600b84101617156131f0575081810a610a28565b6131fa8383613132565b806000190482111561320e5761320e612db2565b029392505050565b600061205563ffffffff841683613175565b600063ffffffff80831681851680830382111561324757613247612db2565b01949350505050565b634e487b7160e01b600052601260045260246000fd5b600063ffffffff8084168061327d5761327d613250565b92169190910692915050565b600063ffffffff808416806132a0576132a0613250565b92169190910492915050565b600063ffffffff838116908316818110156132c9576132c9612db2565b039392505050565b6000826132e0576132e0613250565b500690565b60008160001904831182151516156132ff576132ff612db2565b500290565b6000612055838361317556fea26469706673582212204025cc09c1081621cc958f977605f9fe3881d640abf402a15c84227c21786f2464736f6c63430008090033036b6384b5eca791c62761152d0c79bb0604c104a5fb6f4eb0703f3154bb3db0f652222313e28459528d920b65115c16c04f3efc82aaedc97be59f3f377c0d3f",
  "linkReferences": {},
  "deployedLinkReferences": {}
}