{"contracts/SnapshotV2.sol":{"SnapshotV2":{"abi":[{"inputs":[{"internalType":"address","name":"oracle","type":"address"},{"internalType":"contract IVerifier","name":"_verifier","type":"address"},{"internalType":"uint32","name":"_merkleTreeHeight","type":"uint32"},{"internalType":"address","name":"_hasher","type":"address"},{"internalType":"address","name":"_subscriptionManager","type":"address"}],"stateMutability":"nonpayable","type":"constructor"},{"inputs":[],"name":"EmptyArgs","type":"error"},{"inputs":[],"name":"EmptySecrets","type":"error"},{"inputs":[],"name":"EmptySource","type":"error"},{"inputs":[],"name":"RequestIsAlreadyPending","type":"error"},{"inputs":[],"name":"RequestIsNotPending","type":"error"},{"inputs":[],"name":"SenderIsNotRegistry","type":"error"},{"anonymous":false,"inputs":[{"indexed":false,"internalType":"bytes32","name":"commitment","type":"bytes32"},{"indexed":false,"internalType":"uint32","name":"insertedIndex","type":"uint32"},{"indexed":false,"internalType":"address","name":"wallet","type":"address"}],"name":"Inserted","type":"event"},{"anonymous":false,"inputs":[{"indexed":true,"internalType":"bytes32","name":"requestId","type":"bytes32"},{"indexed":false,"internalType":"bytes","name":"result","type":"bytes"},{"indexed":false,"internalType":"bytes","name":"err","type":"bytes"}],"name":"OCRResponse","type":"event"},{"anonymous":false,"inputs":[{"indexed":true,"internalType":"address","name":"from","type":"address"},{"indexed":true,"internalType":"address","name":"to","type":"address"}],"name":"OwnershipTransferRequested","type":"event"},{"anonymous":false,"inputs":[{"indexed":true,"internalType":"address","name":"from","type":"address"},{"indexed":true,"internalType":"address","name":"to","type":"address"}],"name":"OwnershipTransferred","type":"event"},{"anonymous":false,"inputs":[{"indexed":true,"internalType":"bytes32","name":"id","type":"bytes32"}],"name":"RequestFulfilled","type":"event"},{"anonymous":false,"inputs":[{"indexed":true,"internalType":"bytes32","name":"id","type":"bytes32"}],"name":"RequestSent","type":"event"},{"anonymous":false,"inputs":[{"indexed":false,"internalType":"string","name":"message","type":"string"},{"indexed":false,"internalType":"bytes32","name":"nullifier","type":"bytes32"}],"name":"messagePosted","type":"event"},{"anonymous":false,"inputs":[{"indexed":false,"internalType":"contract MerkleTree","name":"tree","type":"address"}],"name":"messagesCleared","type":"event"},{"inputs":[],"name":"FIELD_SIZE","outputs":[{"internalType":"uint256","name":"","type":"uint256"}],"stateMutability":"view","type":"function"},{"inputs":[],"name":"ROOT_HISTORY_SIZE","outputs":[{"internalType":"uint32","name":"","type":"uint32"}],"stateMutability":"view","type":"function"},{"inputs":[],"name":"ZERO_VALUE","outputs":[{"internalType":"uint256","name":"","type":"uint256"}],"stateMutability":"view","type":"function"},{"inputs":[],"name":"acceptOwnership","outputs":[],"stateMutability":"nonpayable","type":"function"},{"inputs":[],"name":"clearMessages","outputs":[],"stateMutability":"nonpayable","type":"function"},{"inputs":[{"internalType":"bytes32","name":"","type":"bytes32"}],"name":"commitments","outputs":[{"internalType":"bool","name":"","type":"bool"}],"stateMutability":"view","type":"function"},{"inputs":[],"name":"currentRootIndex","outputs":[{"internalType":"uint32","name":"","type":"uint32"}],"stateMutability":"view","type":"function"},{"inputs":[{"components":[{"internalType":"enum Functions.Location","name":"codeLocation","type":"uint8"},{"internalType":"enum Functions.Location","name":"secretsLocation","type":"uint8"},{"internalType":"enum Functions.CodeLanguage","name":"language","type":"uint8"},{"internalType":"string","name":"source","type":"string"},{"internalType":"bytes","name":"secrets","type":"bytes"},{"internalType":"string[]","name":"args","type":"string[]"}],"internalType":"struct Functions.Request","name":"req","type":"tuple"},{"internalType":"uint64","name":"subscriptionId","type":"uint64"},{"internalType":"uint32","name":"gasLimit","type":"uint32"},{"internalType":"uint256","name":"gasPrice","type":"uint256"}],"name":"estimateCost","outputs":[{"internalType":"uint96","name":"","type":"uint96"}],"stateMutability":"view","type":"function"},{"inputs":[{"internalType":"uint256","name":"","type":"uint256"}],"name":"filledSubtrees","outputs":[{"internalType":"bytes32","name":"","type":"bytes32"}],"stateMutability":"view","type":"function"},{"inputs":[],"name":"getDONPublicKey","outputs":[{"internalType":"bytes","name":"","type":"bytes"}],"stateMutability":"view","type":"function"},{"inputs":[],"name":"getLastRoot","outputs":[{"internalType":"bytes32","name":"","type":"bytes32"}],"stateMutability":"view","type":"function"},{"inputs":[],"name":"getMessages","outputs":[{"internalType":"string[]","name":"","type":"string[]"}],"stateMutability":"view","type":"function"},{"inputs":[{"internalType":"string","name":"source","type":"string"},{"internalType":"bytes","name":"secrets","type":"bytes"},{"internalType":"enum Functions.Location","name":"secretsLocation","type":"uint8"},{"internalType":"string[]","name":"args","type":"string[]"},{"internalType":"uint64","name":"subscriptionId","type":"uint64"},{"internalType":"uint32","name":"gasLimit","type":"uint32"}],"name":"getWallets","outputs":[{"internalType":"bytes32","name":"","type":"bytes32"}],"stateMutability":"nonpayable","type":"function"},{"inputs":[{"internalType":"bytes32","name":"requestId","type":"bytes32"},{"internalType":"bytes","name":"response","type":"bytes"},{"internalType":"bytes","name":"err","type":"bytes"}],"name":"handleOracleFulfillment","outputs":[],"stateMutability":"nonpayable","type":"function"},{"inputs":[{"internalType":"bytes32","name":"_left","type":"bytes32"},{"internalType":"bytes32","name":"_right","type":"bytes32"}],"name":"hashLeftRight","outputs":[{"internalType":"bytes32","name":"","type":"bytes32"}],"stateMutability":"view","type":"function"},{"inputs":[],"name":"hasher","outputs":[{"internalType":"contract Hasher","name":"","type":"address"}],"stateMutability":"view","type":"function"},{"inputs":[{"internalType":"bytes32","name":"_commitment","type":"bytes32"},{"internalType":"address","name":"wallet","type":"address"}],"name":"insertIntoTree","outputs":[],"stateMutability":"nonpayable","type":"function"},{"inputs":[{"internalType":"bytes32","name":"_root","type":"bytes32"}],"name":"isKnownRoot","outputs":[{"internalType":"bool","name":"","type":"bool"}],"stateMutability":"view","type":"function"},{"inputs":[{"internalType":"bytes32","name":"_nullifier","type":"bytes32"}],"name":"isNullifierUsed","outputs":[{"internalType":"bool","name":"","type":"bool"}],"stateMutability":"view","type":"function"},{"inputs":[],"name":"latestError","outputs":[{"internalType":"bytes","name":"","type":"bytes"}],"stateMutability":"view","type":"function"},{"inputs":[],"name":"latestRequestId","outputs":[{"internalType":"bytes32","name":"","type":"bytes32"}],"stateMutability":"view","type":"function"},{"inputs":[],"name":"latestResponse","outputs":[{"internalType":"bytes","name":"","type":"bytes"}],"stateMutability":"view","type":"function"},{"inputs":[],"name":"levels","outputs":[{"internalType":"uint32","name":"","type":"uint32"}],"stateMutability":"view","type":"function"},{"inputs":[],"name":"nextIndex","outputs":[{"internalType":"uint32","name":"","type":"uint32"}],"stateMutability":"view","type":"function"},{"inputs":[{"internalType":"bytes32","name":"","type":"bytes32"}],"name":"nullifiers","outputs":[{"internalType":"bool","name":"","type":"bool"}],"stateMutability":"view","type":"function"},{"inputs":[],"name":"owner","outputs":[{"internalType":"address","name":"","type":"address"}],"stateMutability":"view","type":"function"},{"inputs":[{"internalType":"string","name":"_message","type":"string"},{"internalType":"bytes32","name":"_nullifierHash","type":"bytes32"},{"internalType":"bytes32","name":"_root","type":"bytes32"},{"components":[{"internalType":"uint256[2]","name":"a","type":"uint256[2]"},{"internalType":"uint256[2][2]","name":"b","type":"uint256[2][2]"},{"internalType":"uint256[2]","name":"c","type":"uint256[2]"}],"internalType":"struct Proof","name":"_proof","type":"tuple"}],"name":"postMessageWithProof","outputs":[],"stateMutability":"nonpayable","type":"function"},{"inputs":[{"internalType":"uint256","name":"","type":"uint256"}],"name":"roots","outputs":[{"internalType":"bytes32","name":"","type":"bytes32"}],"stateMutability":"view","type":"function"},{"inputs":[],"name":"subscriptionManager","outputs":[{"internalType":"contract IVRFv2SubscriptionManager","name":"","type":"address"}],"stateMutability":"view","type":"function"},{"inputs":[{"internalType":"address","name":"to","type":"address"}],"name":"transferOwnership","outputs":[],"stateMutability":"nonpayable","type":"function"},{"inputs":[],"name":"verifier","outputs":[{"internalType":"contract IVerifier","name":"","type":"address"}],"stateMutability":"view","type":"function"},{"inputs":[{"internalType":"uint256","name":"","type":"uint256"}],"name":"zeros","outputs":[{"internalType":"bytes32","name":"","type":"bytes32"}],"stateMutability":"view","type":"function"}],"evm":{"bytecode":{"linkReferences":{},"object":"60a0604052600780546001600160401b03191690553480156200002157600080fd5b506040516200490338038062004903833981016040819052620000449162000716565b600080546001600160a01b0319166001600160a01b03871617815583908390339081906001600160a01b038216620000c35760405162461bcd60e51b815260206004820152601860248201527f43616e6e6f7420736574206f776e657220746f207a65726f000000000000000060448201526064015b60405180910390fd5b600280546001600160a01b0319166001600160a01b0384811691909117909155811615620000f657620000f6816200035d565b50505060008263ffffffff1611620001615760405162461bcd60e51b815260206004820152602760248201527f5f747265654c6576656c732073686f756c642062652067726561746572207468604482015266616e207a65726f60c81b6064820152608401620000ba565b60208263ffffffff1610620001c45760405162461bcd60e51b815260206004820152602260248201527f5f747265654c6576656c732073686f756c64206265206c657373207468616e20604482015261199960f11b6064820152608401620000ba565b600480546001600160a01b0319166001600160a01b03831617905563ffffffff82166080526006805460018181019092557f2fe54c60d3acabf3343a35b6eba15db4821b340f76e741e2249685ed4899af6c600080516020620048e3833981519152909101819055600580548084018255600091909152600080516020620048c383398151915201819055905b8363ffffffff168163ffffffff161015620002c9576200027282806200040a565b600680546001818101909255600080516020620048e383398151915201829055600580549182018155600052600080516020620048c383398151915201819055915080620002c0816200079e565b91505062000251565b50620002d681806200040a565b60085550506001606c555060408051600080825260208201909252906200030e565b6060815260200190600190039081620002f85790505b508051620003259160749160209091019062000597565b50607080546001600160a01b039586166001600160a01b0319918216179091556071805492909516911617909255506200085b915050565b6001600160a01b038116331415620003b85760405162461bcd60e51b815260206004820152601760248201527f43616e6e6f74207472616e7366657220746f2073656c660000000000000000006044820152606401620000ba565b600380546001600160a01b0319166001600160a01b03838116918217909255600254604051919216907fed8889f560326eb138920d842192f0eb3dd22b4f139c87a2c57538e05bae127890600090a350565b60007f30644e72e131a029b85045b68181585d2833e84879b9709143e1f593f000000183106200047d5760405162461bcd60e51b815260206004820181905260248201527f5f6c6566742073686f756c6420626520696e7369646520746865206669656c646044820152606401620000ba565b7f30644e72e131a029b85045b68181585d2833e84879b9709143e1f593f00000018210620004f85760405162461bcd60e51b815260206004820152602160248201527f5f72696768742073686f756c6420626520696e7369646520746865206669656c6044820152601960fa1b6064820152608401620000ba565b6040805180820182528481526020810184905260048054925163014cf2b360e51b815291926001600160a01b03169163299e5660916200053b91859101620007d1565b60206040518083038186803b1580156200055457600080fd5b505afa15801562000569573d6000803e3d6000fd5b505050506040513d601f19601f820116820180604052508101906200058f919062000804565b949350505050565b828054828255906000526020600020908101928215620005e9579160200282015b82811115620005e95782518051620005d8918491602090910190620005fb565b5091602001919060010190620005b8565b50620005f792915062000686565b5090565b82805462000609906200081e565b90600052602060002090601f0160209004810192826200062d576000855562000678565b82601f106200064857805160ff191683800117855562000678565b8280016001018555821562000678579182015b82811115620006785782518255916020019190600101906200065b565b50620005f7929150620006a7565b80821115620005f75760006200069d8282620006be565b5060010162000686565b5b80821115620005f75760008155600101620006a8565b508054620006cc906200081e565b6000825580601f10620006dd575050565b601f016020900490600052602060002090810190620006fd9190620006a7565b50565b6001600160a01b0381168114620006fd57600080fd5b600080600080600060a086880312156200072f57600080fd5b85516200073c8162000700565b60208701519095506200074f8162000700565b604087015190945063ffffffff811681146200076a57600080fd5b60608701519093506200077d8162000700565b6080870151909250620007908162000700565b809150509295509295909350565b600063ffffffff80831681811415620007c757634e487b7160e01b600052601160045260246000fd5b6001019392505050565b60408101818360005b6002811015620007fb578151835260209283019290910190600101620007da565b50505092915050565b6000602082840312156200081757600080fd5b5051919050565b600181811c908216806200083357607f821691505b602082108114156200085557634e487b7160e01b600052602260045260246000fd5b50919050565b6080516140376200088c6000396000818161035101528181610fb701528181611bfe0152611ce901526140376000f3fe60806040523480156200001157600080fd5b5060043610620002195760003560e01c8063ba70f7571162000125578063e829558811620000af578063f178e47c116200007a578063f178e47c1462000516578063f2fde38b146200052d578063fc7e9c6f1462000544578063fffeb84e146200055d57600080fd5b8063e829558814620004ac578063ea2637a514620004c3578063ec73295914620004da578063ed33639f146200050257600080fd5b8063cd87a3b411620000f0578063cd87a3b4146200045a578063d328a91e1462000463578063d4b39175146200046d578063df65850a14620004a257600080fd5b8063ba70f757146200040c578063bef3a2f01462000416578063bf158fd2146200042f578063c2b40ae4146200044357600080fd5b8063414a37ba11620001a757806379ba5097116200017257806379ba509714620003b9578063839df94514620003c35780638da5cb5b14620003e957806390eeb02b14620003fb57600080fd5b8063414a37ba14620003235780634ecf518b146200034b5780635ff6cbf314620003895780636d9833e314620003a257600080fd5b806322dc7b4c11620001e857806322dc7b4c14620002825780632997e86b14620002b95780632b7ac3f314620002df57806338bf282e146200030c57600080fd5b80630ca76175146200021e5780630d2a3a8814620002375780631aa46f591462000261578063218fc350146200026b575b600080fd5b620002356200022f3660046200273a565b62000567565b005b6200024e620002483660046200283a565b620005f7565b6040519081526020015b60405180910390f35b6200024e606d5481565b620002356200027c3660046200299e565b62000773565b620002a86200029336600462002a9e565b60009081526072602052604090205460ff1690565b604051901515815260200162000258565b620002a8620002ca36600462002a9e565b60726020526000908152604090205460ff1681565b607054620002f3906001600160a01b031681565b6040516001600160a01b03909116815260200162000258565b6200024e6200031d36600462002ab8565b620009b2565b6200024e7f30644e72e131a029b85045b68181585d2833e84879b9709143e1f593f000000181565b620003737f000000000000000000000000000000000000000000000000000000000000000081565b60405163ffffffff909116815260200162000258565b6200039362000b41565b60405162000258919062002b38565b620002a8620003b336600462002a9e565b62000c24565b6200023562000cab565b620002a8620003d436600462002a9e565b60736020526000908152604090205460ff1681565b6002546001600160a01b0316620002f3565b600754620003739063ffffffff1681565b6200024e62000d5b565b6200042062000d84565b60405162000258919062002b9e565b607154620002f3906001600160a01b031681565b6200024e6200045436600462002a9e565b62000e1a565b62000373606481565b6200042062000e32565b620004846200047e36600462002c88565b62000ebb565b6040516bffffffffffffffffffffffff909116815260200162000258565b6200023562000f59565b6200024e620004bd36600462002a9e565b62001069565b62000235620004d436600462002dc7565b6200108b565b6200024e7f2fe54c60d3acabf3343a35b6eba15db4821b340f76e741e2249685ed4899af6c81565b600454620002f3906001600160a01b031681565b6200024e6200052736600462002a9e565b6200118c565b620002356200053e36600462002dfa565b6200119d565b6007546200037390640100000000900463ffffffff1681565b62000420620011b5565b60008381526001602052604090205483906001600160a01b03163314620005a15760405163a0c5ec6360e01b815260040160405180910390fd5b60008181526001602052604080822080546001600160a01b03191690555182917f85e1543bf2f84fe80c6badbce3648c8539ad1df4d2b3d822938ca0538be727e691a2620005f1848484620011c4565b50505050565b6000620006346040805160c08101909152806000815260200160008152602001600081526020016060815260200160608152602001606081525090565b6200067d6000808d8d8080601f016020809104026020016040519081016040528093929190818152602001838380828437600092019190915250879594939250506200169b9050565b8715620007305760008760018111156200069b576200069b62002e1a565b1415620006ec57620006e689898080601f0160208091040260200160405190810160405280939291908181526020018383808284376000920191909152508593925050620017239050565b62000730565b6200073089898080601f01602080910402602001604051908101604052809392919081815260200183838082843760009201919091525085939250506200176b9050565b84156200074f576200074f62000747868862002e30565b829062001797565b60006200075e828686620017bf565b606d8190559c9b505050505050505050505050565b6200077d6200193d565b60008381526072602052604090205460ff1615620007db5760405162461bcd60e51b8152602060048201526016602482015275139d5b1b1a599a595c88185b1c9958591e481d5cd95960521b60448201526064015b60405180910390fd5b620007e68262000c24565b620008255760405162461bcd60e51b815260206004820152600e60248201526d2937b7ba103737ba1035b737bbb760911b6044820152606401620007d2565b6040805180820182528481526020808201859052607054845191850151858501519451637ae4eb4f60e11b815293946001600160a01b039092169363f5c9d69e936200087993909291879060040162002e64565b602060405180830381600087803b1580156200089457600080fd5b505af1158015620008a9573d6000803e3d6000fd5b505050506040513d601f19601f82011682018060405250810190620008cf919062002ecc565b6200090d5760405162461bcd60e51b815260206004820152600d60248201526c24b73b30b634b210383937b7b360991b6044820152606401620007d2565b60008481526072602090815260408220805460ff1916600190811790915560748054918201815590925286516200096a927f19a0b39aa25ac793b5f6e9a0534364cc0b3fd1ea9b651e79c7f50a59d48ef813019188019062002462565b507f06b6c80bb5c4b26d73a7cf3586c1b2f17bd79f8f7fd3c3e14f9cd7092657412085856040516200099e92919062002ef0565b60405180910390a150620005f16001606c55565b60007f30644e72e131a029b85045b68181585d2833e84879b9709143e1f593f0000001831062000a255760405162461bcd60e51b815260206004820181905260248201527f5f6c6566742073686f756c6420626520696e7369646520746865206669656c646044820152606401620007d2565b7f30644e72e131a029b85045b68181585d2833e84879b9709143e1f593f0000001821062000aa05760405162461bcd60e51b815260206004820152602160248201527f5f72696768742073686f756c6420626520696e7369646520746865206669656c6044820152601960fa1b6064820152608401620007d2565b6040805180820182528481526020810184905260048054925163014cf2b360e51b815291926001600160a01b03169163299e56609162000ae39185910162002f14565b60206040518083038186803b15801562000afc57600080fd5b505afa15801562000b11573d6000803e3d6000fd5b505050506040513d601f19601f8201168201806040525081019062000b37919062002f47565b9150505b92915050565b60606074805480602002602001604051908101604052809291908181526020016000905b8282101562000c1b57838290600052602060002001805462000b879062002f61565b80601f016020809104026020016040519081016040528092919081815260200182805462000bb59062002f61565b801562000c065780601f1062000bda5761010080835404028352916020019162000c06565b820191906000526020600020905b81548152906001019060200180831162000be857829003601f168201915b50505050508152602001906001019062000b65565b50505050905090565b60008162000c3457506000919050565b60075463ffffffff165b60088163ffffffff166064811062000c5a5762000c5a62002f98565b015483141562000c6d5750600192915050565b63ffffffff811662000c7d575060645b8062000c898162002fc4565b60075490925063ffffffff80841691161415905062000c3e5750600092915050565b6003546001600160a01b0316331462000d005760405162461bcd60e51b815260206004820152601660248201527526bab9ba10313290383937b837b9b2b21037bbb732b960511b6044820152606401620007d2565b600280546001600160a01b0319808216339081179093556003805490911690556040516001600160a01b03909116919082907f8be0079c531659141344cd1fd0a4f28419497f9722a3daafe3b4186f6b6457e090600090a350565b60075460009060089063ffffffff166064811062000d7d5762000d7d62002f98565b0154905090565b606e805462000d939062002f61565b80601f016020809104026020016040519081016040528092919081815260200182805462000dc19062002f61565b801562000e125780601f1062000de65761010080835404028352916020019162000e12565b820191906000526020600020905b81548152906001019060200180831162000df457829003601f168201915b505050505081565b6008816064811062000e2b57600080fd5b0154905081565b6000805460408051636994548f60e11b815290516060936001600160a01b039093169263d328a91e9260048082019391829003018186803b15801562000e7757600080fd5b505afa15801562000e8c573d6000803e3d6000fd5b505050506040513d6000823e601f3d908101601f1916820160405262000eb6919081019062002fe7565b905090565b600080546001600160a01b031663d227d2458562000ed98862001999565b86866040518563ffffffff1660e01b815260040162000efc94939291906200305d565b60206040518083038186803b15801562000f1557600080fd5b505afa15801562000f2a573d6000803e3d6000fd5b505050506040513d601f19601f8201168201806040525081019062000f5091906200309a565b95945050505050565b62000f6760746000620024f1565b604080516000808252602082019092529062000f94565b606081526020019060019003908162000f7e5790505b50805162000fab9160749160209091019062002511565b506004546040516000917f0000000000000000000000000000000000000000000000000000000000000000916001600160a01b039091169062000fee9062002571565b63ffffffff90921682526001600160a01b03166020820152604001604051809103906000f08015801562001026573d6000803e3d6000fd5b506040516001600160a01b03821681529091507f0765db991984a89c27e19f67d91432136b71039b4232e172528f603c60bd9f9b9060200160405180910390a150565b600681815481106200107a57600080fd5b600091825260209091200154905081565b620010956200193d565b60008281526073602052604090205460ff1615620010f65760405162461bcd60e51b815260206004820152601760248201527f436f6d6d69746d656e7420616c726561647920757365640000000000000000006044820152606401620007d2565b6000620011038362001be4565b60008481526073602052604090819020805460ff19166001179055519091507f4b06a020eaa12a2d683a4c58434ae9611d1026df0943fb89f31e751cb777b5ad90620011749085908490869092835263ffffffff9190911660208301526001600160a01b0316604082015260600190565b60405180910390a150620011886001606c55565b5050565b600581815481106200107a57600080fd5b620011a762001e70565b620011b28162001ec7565b50565b606f805462000d939062002f61565b8151620011d990606e90602085019062002462565b508051620011ef90606f90602084019062002462565b506071546040805163ce10b1fb60e01b815290516000926001600160a01b03169163ce10b1fb9160048083019286929190829003018186803b1580156200123557600080fd5b505afa1580156200124a573d6000803e3d6000fd5b505050506040513d6000823e601f3d908101601f19168201604052620012749190810190620030ca565b5111620012c45760405162461bcd60e51b815260206004820152601b60248201527f4572726f72206665746368696e672072616e646f6d20776f72647300000000006044820152606401620007d2565b6071546040805163ce10b1fb60e01b815290516000926001600160a01b03169163ce10b1fb9160048083019286929190829003018186803b1580156200130957600080fd5b505afa1580156200131e573d6000803e3d6000fd5b505050506040513d6000823e601f3d908101601f19168201604052620013489190810190620030ca565b6000815181106200135d576200135d62002f98565b60200260200101519050607160009054906101000a90046001600160a01b03166001600160a01b031663e0c862896040518163ffffffff1660e01b8152600401600060405180830381600087803b158015620013b857600080fd5b505af1158015620013cd573d6000803e3d6000fd5b50505050607160009054906101000a90046001600160a01b03166001600160a01b031663ce10b1fb6040518163ffffffff1660e01b815260040160006040518083038186803b1580156200142057600080fd5b505afa15801562001435573d6000803e3d6000fd5b505050506040513d6000823e601f3d908101601f191682016040526200145f9190810190620030ca565b60008151811062001474576200147462002f98565b6020026020010151811415620014cd5760405162461bcd60e51b815260206004820152601860248201527f52616e646f6d20776f726473206e6f74207570646174656400000000000000006044820152606401620007d2565b6071546040805163ce10b1fb60e01b815290516000926001600160a01b03169163ce10b1fb9160048083019286929190829003018186803b1580156200151257600080fd5b505afa15801562001527573d6000803e3d6000fd5b505050506040513d6000823e601f3d908101601f19168201604052620015519190810190620030ca565b51905060005b8181101562001657576071546040805163ce10b1fb60e01b815290516000926001600160a01b03169163ce10b1fb9160048083019286929190829003018186803b158015620015a557600080fd5b505afa158015620015ba573d6000803e3d6000fd5b505050506040513d6000823e601f3d908101601f19168201604052620015e49190810190620030ca565b8281518110620015f857620015f862002f98565b602002602001015190506000816040516020016200161891815260200190565b60405160208183030381529060405280519060200120905060006200163e82826200108b565b50505080806200164e9062003163565b91505062001557565b50847f7bab0ec163b5c132c72b8146ac4d6e067e82ed58f8b131150aa71c925891156285856040516200168c92919062003181565b60405180910390a25050505050565b8051620016bb576040516322ce3edd60e01b815260040160405180910390fd5b83836001811115620016d157620016d162002e1a565b90816001811115620016e757620016e762002e1a565b9052506040840182801562001700576200170062002e1a565b9081801562001713576200171362002e1a565b9052506060909301929092525050565b8051620017435760405163e889636f60e01b815260040160405180910390fd5b6020820160005b9081600181111562001760576200176062002e1a565b905250608090910152565b80516200178b5760405163e889636f60e01b815260040160405180910390fd5b6020820160016200174a565b8051620017b75760405163fe936cb760e01b815260040160405180910390fd5b60a090910152565b6000805481906001600160a01b03166328242b0485620017df8862001999565b866040518463ffffffff1660e01b81526004016200180093929190620031aa565b602060405180830381600087803b1580156200181b57600080fd5b505af115801562001830573d6000803e3d6000fd5b505050506040513d601f19601f8201168201806040525081019062001856919062002f47565b905060008054906101000a90046001600160a01b03166001600160a01b0316635ab1bd536040518163ffffffff1660e01b815260040160206040518083038186803b158015620018a557600080fd5b505afa158015620018ba573d6000803e3d6000fd5b505050506040513d601f19601f82011682018060405250810190620018e09190620031e4565b60008281526001602052604080822080546001600160a01b0319166001600160a01b039490941693909317909255905182917f1131472297a800fee664d1d89cfa8f7676ff07189ecc53f80bbb5f4969099db891a2949350505050565b6002606c541415620019925760405162461bcd60e51b815260206004820152601f60248201527f5265656e7472616e637947756172643a207265656e7472616e742063616c6c006044820152606401620007d2565b6002606c55565b6060620019b9604051806040016040528060608152602001600081525090565b620019c78161010062001f74565b5060408051808201909152600c81526b31b7b232a637b1b0ba34b7b760a11b6020820152620019f890829062001fe2565b825162001a1b90600181111562001a135762001a1362002e1a565b829062002002565b6040805180820190915260088152676c616e677561676560c01b602082015262001a4790829062001fe2565b604083015162001a6290801562001a135762001a1362002e1a565b604080518082019091526006815265736f7572636560d01b602082015262001a8c90829062001fe2565b606083015162001a9e90829062001fe2565b60a0830151511562001b44576040805180820190915260048152636172677360e01b602082015262001ad290829062001fe2565b62001add816200202c565b60005b8360a001515181101562001b385762001b238460a00151828151811062001b0b5762001b0b62002f98565b60200260200101518362001fe290919063ffffffff16565b8062001b2f8162003163565b91505062001ae0565b5062001b448162002039565b6080830151511562001bdd5760408051808201909152600f81526e39b2b1b932ba39a637b1b0ba34b7b760891b602082015262001b8390829062001fe2565b62001ba08360200151600181111562001a135762001a1362002e1a565b6040805180820190915260078152667365637265747360c81b602082015262001bcb90829062001fe2565b608083015162001bdd90829062002046565b5192915050565b600754600090640100000000900463ffffffff1662001c257f0000000000000000000000000000000000000000000000000000000000000000600262003416565b63ffffffff168163ffffffff16141562001c9a5760405162461bcd60e51b815260206004820152602f60248201527f4d65726b6c6520747265652069732066756c6c2e204e6f206d6f7265206c656160448201526e199cc818d85b881899481859191959608a1b6064820152608401620007d2565b6001600760048282829054906101000a900463ffffffff1662001cbe91906200342d565b92506101000a81548163ffffffff021916908363ffffffff160217905550600083905060008060005b7f000000000000000000000000000000000000000000000000000000000000000063ffffffff168163ffffffff16101562001dee5762001d296002866200346e565b63ffffffff1662001d8f5783925060068163ffffffff168154811062001d535762001d5362002f98565b906000526020600020015491508360058263ffffffff168154811062001d7d5762001d7d62002f98565b60009182526020909120015562001dbc565b60058163ffffffff168154811062001dab5762001dab62002f98565b906000526020600020015492508391505b62001dc88383620009b2565b935062001dd760028662003494565b94508062001de581620034ba565b91505062001ce7565b5060075460649062001e089063ffffffff1660016200342d565b62001e1491906200346e565b6007805463ffffffff191663ffffffff92909216918217905583906008906064811062001e455762001e4562002f98565b015560075462001e6690600190640100000000900463ffffffff16620034e1565b9695505050505050565b6002546001600160a01b0316331462001ec55760405162461bcd60e51b815260206004820152601660248201527527b7363c9031b0b63630b1363290313c9037bbb732b960511b6044820152606401620007d2565b565b6001600160a01b03811633141562001f225760405162461bcd60e51b815260206004820152601760248201527f43616e6e6f74207472616e7366657220746f2073656c660000000000000000006044820152606401620007d2565b600380546001600160a01b0319166001600160a01b03838116918217909255600254604051919216907fed8889f560326eb138920d842192f0eb3dd22b4f139c87a2c57538e05bae127890600090a350565b60408051808201909152606081526000602082015262001f9660208362003509565b1562001fc55762001fa960208362003509565b62001fb690602062003520565b62001fc290836200353a565b91505b506020828101829052604080518085526000815290920101905290565b62001ff1826003835162002050565b62001ffd82826200216d565b505050565b6001600160401b038111156200201e576200118882826200219d565b620011888260008362002050565b620011b2816004620021d9565b620011b2816007620021d9565b62001ff182600283515b6017816001600160401b0316116200207757620005f18360e0600585901b168317620021eb565b60ff816001600160401b031611620020b857620020a0836018611fe0600586901b1617620021eb565b50620005f1836001600160401b038316600162002212565b61ffff816001600160401b031611620020fa57620020e2836019611fe0600586901b1617620021eb565b50620005f1836001600160401b038316600262002212565b63ffffffff816001600160401b0316116200213e576200212683601a611fe0600586901b1617620021eb565b50620005f1836001600160401b038316600462002212565b6200215583601b611fe0600586901b1617620021eb565b50620005f1836001600160401b038316600862002212565b604080518082019091526060815260006020820152620021968384600001515184855162002242565b9392505050565b620021aa8260c2620021eb565b50620011888282604051602001620021c491815260200190565b60405160208183030381529060405262002046565b62001ffd82601f611fe0600585901b16175b60408051808201909152606081526000602082015262002196838460000151518462002341565b6040805180820190915260608152600060208201526200223a848560000151518585620023a2565b949350505050565b60408051808201909152606081526000602082015282518211156200226657600080fd5b60208501516200227783866200353a565b1115620022b357620022b385620022a0876020015187866200229a91906200353a565b6200242e565b620022ad90600262003555565b62002447565b600080865180518760208301019350808887011115620022d35787860182525b505050602084015b602084106200231b5780518252620022f56020836200353a565b9150620023046020826200353a565b90506200231360208562003520565b9350620022db565b51815160001960208690036101000a019081169019919091161790525083949350505050565b604080518082019091526060815260006020820152836020015183106200237a576200237a8485602001516002620022ad919062003555565b83518051602085830101848153508085141562002398576001810182525b5093949350505050565b6040805180820190915260608152600060208201526020850151620023c885846200353a565b1115620023e057620023e085620022a086856200353a565b60006001620023f28461010062003577565b620023fe919062003520565b9050855183868201018583198251161781525080518487011115620024235783860181525b509495945050505050565b6000818311156200244157508162000b3b565b50919050565b815162002455838362001f74565b50620005f183826200216d565b828054620024709062002f61565b90600052602060002090601f016020900481019282620024945760008555620024df565b82601f10620024af57805160ff1916838001178555620024df565b82800160010185558215620024df579182015b82811115620024df578251825591602001919060010190620024c2565b50620024ed9291506200257f565b5090565b5080546000825590600052602060002090810190620011b2919062002596565b82805482825590600052602060002090810192821562002563579160200282015b828111156200256357825180516200255291849160209091019062002462565b509160200191906001019062002532565b50620024ed92915062002596565b610a7c806200358683390190565b5b80821115620024ed576000815560010162002580565b80821115620024ed576000620025ad8282620025b7565b5060010162002596565b508054620025c59062002f61565b6000825580601f10620025d6575050565b601f016020900490600052602060002090810190620011b291906200257f565b634e487b7160e01b600052604160045260246000fd5b604051606081016001600160401b0381118282101715620026315762002631620025f6565b60405290565b60405160c081016001600160401b0381118282101715620026315762002631620025f6565b604080519081016001600160401b0381118282101715620026315762002631620025f6565b604051601f8201601f191681016001600160401b0381118282101715620026ac57620026ac620025f6565b604052919050565b60006001600160401b03821115620026d057620026d0620025f6565b50601f01601f191660200190565b600082601f830112620026f057600080fd5b8135620027076200270182620026b4565b62002681565b8181528460208386010111156200271d57600080fd5b816020850160208301376000918101602001919091529392505050565b6000806000606084860312156200275057600080fd5b8335925060208401356001600160401b03808211156200276f57600080fd5b6200277d87838801620026de565b935060408601359150808211156200279457600080fd5b50620027a386828701620026de565b9150509250925092565b60008083601f840112620027c057600080fd5b5081356001600160401b03811115620027d857600080fd5b602083019150836020828501011115620027f157600080fd5b9250929050565b8035600281106200280857600080fd5b919050565b80356001600160401b03811681146200280857600080fd5b803563ffffffff811681146200280857600080fd5b600080600080600080600080600060c08a8c0312156200285957600080fd5b89356001600160401b03808211156200287157600080fd5b6200287f8d838e01620027ad565b909b50995060208c01359150808211156200289957600080fd5b620028a78d838e01620027ad565b9099509750879150620028bd60408d01620027f8565b965060608c0135915080821115620028d457600080fd5b818c0191508c601f830112620028e957600080fd5b813581811115620028f957600080fd5b8d60208260051b85010111156200290f57600080fd5b6020830196508095505050506200292960808b016200280d565b91506200293960a08b0162002825565b90509295985092959850929598565b600082601f8301126200295a57600080fd5b620029646200265c565b8060408401858111156200297757600080fd5b845b818110156200299357803584526020938401930162002979565b509095945050505050565b600080600080848603610160811215620029b757600080fd5b85356001600160401b03811115620029ce57600080fd5b620029dc88828901620026de565b95505060208681013594506040808801359450610100605f198401121562002a0357600080fd5b62002a0d6200260c565b925062002a1e8960608a0162002948565b83528860bf89011262002a3057600080fd5b62002a3a6200265c565b806101208a018b81111562002a4e57600080fd5b60a08b015b8181101562002a765762002a688d8262002948565b845292850192840162002a53565b50818587015262002a888c8262002948565b8487015250505050508091505092959194509250565b60006020828403121562002ab157600080fd5b5035919050565b6000806040838503121562002acc57600080fd5b50508035926020909101359150565b60005b8381101562002af857818101518382015260200162002ade565b83811115620005f15750506000910152565b6000815180845262002b2481602086016020860162002adb565b601f01601f19169290920160200192915050565b6000602080830181845280855180835260408601915060408160051b870101925083870160005b8281101562002b9157603f1988860301845262002b7e85835162002b0a565b9450928501929085019060010162002b5f565b5092979650505050505050565b60208152600062002196602083018462002b0a565b8035600181106200280857600080fd5b60006001600160401b0382111562002bdf5762002bdf620025f6565b5060051b60200190565b600062002bfa620027018462002bc3565b8381529050602080820190600585901b84018681111562002c1a57600080fd5b845b8181101562002c5a5780356001600160401b0381111562002c3d5760008081fd5b62002c4b89828901620026de565b85525092820192820162002c1c565b505050509392505050565b600082601f83011262002c7757600080fd5b620021968383356020850162002be9565b6000806000806080858703121562002c9f57600080fd5b84356001600160401b038082111562002cb757600080fd5b9086019060c0828903121562002ccc57600080fd5b62002cd662002637565b62002ce183620027f8565b815262002cf160208401620027f8565b602082015262002d046040840162002bb3565b604082015260608301358281111562002d1c57600080fd5b62002d2a8a828601620026de565b60608301525060808301358281111562002d4357600080fd5b62002d518a828601620026de565b60808301525060a08301358281111562002d6a57600080fd5b62002d788a82860162002c65565b60a083015250955062002d91915050602086016200280d565b925062002da16040860162002825565b9396929550929360600135925050565b6001600160a01b0381168114620011b257600080fd5b6000806040838503121562002ddb57600080fd5b82359150602083013562002def8162002db1565b809150509250929050565b60006020828403121562002e0d57600080fd5b8135620021968162002db1565b634e487b7160e01b600052602160045260246000fd5b60006200219636848462002be9565b8060005b6002811015620005f157815184526020938401939091019060010162002e43565b610140810162002e75828762002e3f565b60408083018660005b600281101562002ea95762002e9583835162002e3f565b918301916020919091019060010162002e7e565b5050505062002ebc60c083018562002e3f565b62000f5061010083018462002e3f565b60006020828403121562002edf57600080fd5b815180151581146200219657600080fd5b60408152600062002f05604083018562002b0a565b90508260208301529392505050565b60408101818360005b600281101562002f3e57815183526020928301929091019060010162002f1d565b50505092915050565b60006020828403121562002f5a57600080fd5b5051919050565b600181811c9082168062002f7657607f821691505b602082108114156200244157634e487b7160e01b600052602260045260246000fd5b634e487b7160e01b600052603260045260246000fd5b634e487b7160e01b600052601160045260246000fd5b600063ffffffff82168062002fdd5762002fdd62002fae565b6000190192915050565b60006020828403121562002ffa57600080fd5b81516001600160401b038111156200301157600080fd5b8201601f810184136200302357600080fd5b8051620030346200270182620026b4565b8181528560208385010111156200304a57600080fd5b62000f5082602083016020860162002adb565b6001600160401b038516815260806020820152600062003081608083018662002b0a565b63ffffffff949094166040830152506060015292915050565b600060208284031215620030ad57600080fd5b81516bffffffffffffffffffffffff811681146200219657600080fd5b60006020808385031215620030de57600080fd5b82516001600160401b03811115620030f557600080fd5b8301601f810185136200310757600080fd5b805162003118620027018262002bc3565b81815260059190911b820183019083810190878311156200313857600080fd5b928401925b8284101562003158578351825292840192908401906200313d565b979650505050505050565b60006000198214156200317a576200317a62002fae565b5060010190565b60408152600062003196604083018562002b0a565b828103602084015262000f50818562002b0a565b6001600160401b0384168152606060208201526000620031ce606083018562002b0a565b905063ffffffff83166040830152949350505050565b600060208284031215620031f757600080fd5b8151620021968162002db1565b600181815b8085111562003247578163ffffffff048211156200322b576200322b62002fae565b808516156200323957918102915b93841c939080029062003209565b509250929050565b600181815b808511156200324757816000190482111562003274576200327462002fae565b808516156200328257918102915b93841c939080029062003254565b600082620032a15750600162000b3b565b81620032b05750600062000b3b565b8160018114620032c95760028114620032d4576200330c565b600191505062000b3b565b60ff841115620032e857620032e862002fae565b6001841b915063ffffffff82111562003305576200330562002fae565b5062000b3b565b5060208310610133831016604e8410600b841016171562003348575081810a63ffffffff81111562003342576200334262002fae565b62000b3b565b62003354838362003204565b8063ffffffff048211156200336d576200336d62002fae565b029392505050565b600082620033865750600162000b3b565b81620033955750600062000b3b565b8160018114620032c95760028114620033ae57620033ce565b60ff841115620033c257620033c262002fae565b50506001821b62000b3b565b5060208310610133831016604e8410600b8410161715620033f3575081810a62000b3b565b620033ff83836200324f565b80600019048211156200336d576200336d62002fae565b600063ffffffff62000b3781851682851662003290565b600063ffffffff8083168185168083038211156200344f576200344f62002fae565b01949350505050565b634e487b7160e01b600052601260045260246000fd5b600063ffffffff8084168062003488576200348862003458565b92169190910692915050565b600063ffffffff80841680620034ae57620034ae62003458565b92169190910492915050565b600063ffffffff80831681811415620034d757620034d762002fae565b6001019392505050565b600063ffffffff8381169083168181101562003501576200350162002fae565b039392505050565b6000826200351b576200351b62003458565b500690565b60008282101562003535576200353562002fae565b500390565b6000821982111562003550576200355062002fae565b500190565b600081600019048311821515161562003572576200357262002fae565b500290565b60006200219683836200337556fe60a0604052600380546001600160401b031916905534801561002057600080fd5b50604051610a7c380380610a7c83398101604081905261003f9161039f565b60008263ffffffff16116100aa5760405162461bcd60e51b815260206004820152602760248201527f5f747265654c6576656c732073686f756c642062652067726561746572207468604482015266616e207a65726f60c81b60648201526084015b60405180910390fd5b60208263ffffffff161061010b5760405162461bcd60e51b815260206004820152602260248201527f5f747265654c6576656c732073686f756c64206265206c657373207468616e20604482015261199960f11b60648201526084016100a1565b600080546001600160a01b0319166001600160a01b03831617815563ffffffff83166080526002805460018181019092557f2fe54c60d3acabf3343a35b6eba15db4821b340f76e741e2249685ed4899af6c600080516020610a3c8339815191529091018190558154808301835592829052600080516020610a5c8339815191529092018290555b8363ffffffff168163ffffffff161015610204576101b1828061021b565b600280546001818101909255600080516020610a3c8339815191520182905580548082018255600091909152600080516020610a5c833981519152018190559150806101fc816103ee565b915050610193565b5061020f818061021b565b6004555061046a915050565b60007f30644e72e131a029b85045b68181585d2833e84879b9709143e1f593f0000001831061028c5760405162461bcd60e51b815260206004820181905260248201527f5f6c6566742073686f756c6420626520696e7369646520746865206669656c6460448201526064016100a1565b7f30644e72e131a029b85045b68181585d2833e84879b9709143e1f593f000000182106103055760405162461bcd60e51b815260206004820152602160248201527f5f72696768742073686f756c6420626520696e7369646520746865206669656c6044820152601960fa1b60648201526084016100a1565b60408051808201825284815260208101849052600054915163014cf2b360e51b815290916001600160a01b03169063299e566090610347908490600401610420565b60206040518083038186803b15801561035f57600080fd5b505afa158015610373573d6000803e3d6000fd5b505050506040513d601f19601f820116820180604052508101906103979190610451565b949350505050565b600080604083850312156103b257600080fd5b825163ffffffff811681146103c657600080fd5b60208401519092506001600160a01b03811681146103e357600080fd5b809150509250929050565b600063ffffffff8083168181141561041657634e487b7160e01b600052601160045260246000fd5b6001019392505050565b60408101818360005b6002811015610448578151835260209283019290910190600101610429565b50505092915050565b60006020828403121561046357600080fd5b5051919050565b6080516105b7610485600039600061012601526105b76000f3fe608060405234801561001057600080fd5b50600436106100cf5760003560e01c8063c2b40ae41161008c578063ec73295911610066578063ec732959146101c6578063ed33639f146101ed578063f178e47c14610218578063fc7e9c6f1461022b57600080fd5b8063c2b40ae414610198578063cd87a3b4146101ab578063e8295588146101b357600080fd5b806338bf282e146100d4578063414a37ba146100fa5780634ecf518b146101215780636d9833e31461015d57806390eeb02b14610180578063ba70f75714610190575b600080fd5b6100e76100e23660046104b8565b610243565b6040519081526020015b60405180910390f35b6100e77f30644e72e131a029b85045b68181585d2833e84879b9709143e1f593f000000181565b6101487f000000000000000000000000000000000000000000000000000000000000000081565b60405163ffffffff90911681526020016100f1565b61017061016b3660046104da565b6103cc565b60405190151581526020016100f1565b6003546101489063ffffffff1681565b6100e761044a565b6100e76101a63660046104da565b610470565b610148606481565b6100e76101c13660046104da565b610487565b6100e77f2fe54c60d3acabf3343a35b6eba15db4821b340f76e741e2249685ed4899af6c81565b600054610200906001600160a01b031681565b6040516001600160a01b0390911681526020016100f1565b6100e76102263660046104da565b6104a8565b60035461014890640100000000900463ffffffff1681565b60007f30644e72e131a029b85045b68181585d2833e84879b9709143e1f593f000000183106102b95760405162461bcd60e51b815260206004820181905260248201527f5f6c6566742073686f756c6420626520696e7369646520746865206669656c6460448201526064015b60405180910390fd5b7f30644e72e131a029b85045b68181585d2833e84879b9709143e1f593f000000182106103325760405162461bcd60e51b815260206004820152602160248201527f5f72696768742073686f756c6420626520696e7369646520746865206669656c6044820152601960fa1b60648201526084016102b0565b60408051808201825284815260208101849052600054915163014cf2b360e51b815290916001600160a01b03169063299e5660906103749084906004016104f3565b60206040518083038186803b15801561038c57600080fd5b505afa1580156103a0573d6000803e3d6000fd5b505050506040513d601f19601f820116820180604052508101906103c49190610524565b949350505050565b6000816103db57506000919050565b60035463ffffffff165b60048163ffffffff16606481106103fe576103fe61053d565b01548314156104105750600192915050565b63ffffffff811661041f575060645b8061042981610553565b60035490925063ffffffff8084169116141590506103e55750600092915050565b60035460009060049063ffffffff16606481106104695761046961053d565b0154905090565b6004816064811061048057600080fd5b0154905081565b6002818154811061049757600080fd5b600091825260209091200154905081565b6001818154811061049757600080fd5b600080604083850312156104cb57600080fd5b50508035926020909101359150565b6000602082840312156104ec57600080fd5b5035919050565b60408101818360005b600281101561051b5781518352602092830192909101906001016104fc565b50505092915050565b60006020828403121561053657600080fd5b5051919050565b634e487b7160e01b600052603260045260246000fd5b600063ffffffff82168061057757634e487b7160e01b600052601160045260246000fd5b600019019291505056fea26469706673582212205eac6b4b3fb3ea5222926526d7a0a4a954d3322b72f2ef676c1478f8e0de979d64736f6c63430008090033405787fa12a823e0f2b7631cc41b3ba8828b3321ca811111fa75cd3aa3bb5aceb10e2d527612073b26eecdfd717e6a320cf44b4afac2b0732d9fcbe2b7fa0cf6a2646970667358221220e19c9443d8eb70522d3ff9d8f43490add5f1c6450cc9642fa65c63679efe39d964736f6c63430008090033036b6384b5eca791c62761152d0c79bb0604c104a5fb6f4eb0703f3154bb3db0f652222313e28459528d920b65115c16c04f3efc82aaedc97be59f3f377c0d3f","opcodes":"PUSH1 0xA0 PUSH1 0x40 MSTORE PUSH1 0x7 DUP1 SLOAD PUSH1 0x1 PUSH1 0x1 PUSH1 0x40 SHL SUB NOT AND SWAP1 SSTORE CALLVALUE DUP1 ISZERO PUSH3 0x21 JUMPI PUSH1 0x0 DUP1 REVERT JUMPDEST POP PUSH1 0x40 MLOAD PUSH3 0x4903 CODESIZE SUB DUP1 PUSH3 0x4903 DUP4 CODECOPY DUP2 ADD PUSH1 0x40 DUP2 SWAP1 MSTORE PUSH3 0x44 SWAP2 PUSH3 0x716 JUMP JUMPDEST PUSH1 0x0 DUP1 SLOAD PUSH1 0x1 PUSH1 0x1 PUSH1 0xA0 SHL SUB NOT AND PUSH1 0x1 PUSH1 0x1 PUSH1 0xA0 SHL SUB DUP8 AND OR DUP2 SSTORE DUP4 SWAP1 DUP4 SWAP1 CALLER SWAP1 DUP2 SWAP1 PUSH1 0x1 PUSH1 0x1 PUSH1 0xA0 SHL SUB DUP3 AND PUSH3 0xC3 JUMPI PUSH1 0x40 MLOAD PUSH3 0x461BCD PUSH1 0xE5 SHL DUP2 MSTORE PUSH1 0x20 PUSH1 0x4 DUP3 ADD MSTORE PUSH1 0x18 PUSH1 0x24 DUP3 ADD MSTORE PUSH32 0x43616E6E6F7420736574206F776E657220746F207A65726F0000000000000000 PUSH1 0x44 DUP3 ADD MSTORE PUSH1 0x64 ADD JUMPDEST PUSH1 0x40 MLOAD DUP1 SWAP2 SUB SWAP1 REVERT JUMPDEST PUSH1 0x2 DUP1 SLOAD PUSH1 0x1 PUSH1 0x1 PUSH1 0xA0 SHL SUB NOT AND PUSH1 0x1 PUSH1 0x1 PUSH1 0xA0 SHL SUB DUP5 DUP2 AND SWAP2 SWAP1 SWAP2 OR SWAP1 SWAP2 SSTORE DUP2 AND ISZERO PUSH3 0xF6 JUMPI PUSH3 0xF6 DUP2 PUSH3 0x35D JUMP JUMPDEST POP POP POP PUSH1 0x0 DUP3 PUSH4 0xFFFFFFFF AND GT PUSH3 0x161 JUMPI PUSH1 0x40 MLOAD PUSH3 0x461BCD PUSH1 0xE5 SHL DUP2 MSTORE PUSH1 0x20 PUSH1 0x4 DUP3 ADD MSTORE PUSH1 0x27 PUSH1 0x24 DUP3 ADD MSTORE PUSH32 0x5F747265654C6576656C732073686F756C642062652067726561746572207468 PUSH1 0x44 DUP3 ADD MSTORE PUSH7 0x616E207A65726F PUSH1 0xC8 SHL PUSH1 0x64 DUP3 ADD MSTORE PUSH1 0x84 ADD PUSH3 0xBA JUMP JUMPDEST PUSH1 0x20 DUP3 PUSH4 0xFFFFFFFF AND LT PUSH3 0x1C4 JUMPI PUSH1 0x40 MLOAD PUSH3 0x461BCD PUSH1 0xE5 SHL DUP2 MSTORE PUSH1 0x20 PUSH1 0x4 DUP3 ADD MSTORE PUSH1 0x22 PUSH1 0x24 DUP3 ADD MSTORE PUSH32 0x5F747265654C6576656C732073686F756C64206265206C657373207468616E20 PUSH1 0x44 DUP3 ADD MSTORE PUSH2 0x1999 PUSH1 0xF1 SHL PUSH1 0x64 DUP3 ADD MSTORE PUSH1 0x84 ADD PUSH3 0xBA JUMP JUMPDEST PUSH1 0x4 DUP1 SLOAD PUSH1 0x1 PUSH1 0x1 PUSH1 0xA0 SHL SUB NOT AND PUSH1 0x1 PUSH1 0x1 PUSH1 0xA0 SHL SUB DUP4 AND OR SWAP1 SSTORE PUSH4 0xFFFFFFFF DUP3 AND PUSH1 0x80 MSTORE PUSH1 0x6 DUP1 SLOAD PUSH1 0x1 DUP2 DUP2 ADD SWAP1 SWAP3 SSTORE PUSH32 0x2FE54C60D3ACABF3343A35B6EBA15DB4821B340F76E741E2249685ED4899AF6C PUSH1 0x0 DUP1 MLOAD PUSH1 0x20 PUSH3 0x48E3 DUP4 CODECOPY DUP2 MLOAD SWAP2 MSTORE SWAP1 SWAP2 ADD DUP2 SWAP1 SSTORE PUSH1 0x5 DUP1 SLOAD DUP1 DUP5 ADD DUP3 SSTORE PUSH1 0x0 SWAP2 SWAP1 SWAP2 MSTORE PUSH1 0x0 DUP1 MLOAD PUSH1 0x20 PUSH3 0x48C3 DUP4 CODECOPY DUP2 MLOAD SWAP2 MSTORE ADD DUP2 SWAP1 SSTORE SWAP1 JUMPDEST DUP4 PUSH4 0xFFFFFFFF AND DUP2 PUSH4 0xFFFFFFFF AND LT ISZERO PUSH3 0x2C9 JUMPI PUSH3 0x272 DUP3 DUP1 PUSH3 0x40A JUMP JUMPDEST PUSH1 0x6 DUP1 SLOAD PUSH1 0x1 DUP2 DUP2 ADD SWAP1 SWAP3 SSTORE PUSH1 0x0 DUP1 MLOAD PUSH1 0x20 PUSH3 0x48E3 DUP4 CODECOPY DUP2 MLOAD SWAP2 MSTORE ADD DUP3 SWAP1 SSTORE PUSH1 0x5 DUP1 SLOAD SWAP2 DUP3 ADD DUP2 SSTORE PUSH1 0x0 MSTORE PUSH1 0x0 DUP1 MLOAD PUSH1 0x20 PUSH3 0x48C3 DUP4 CODECOPY DUP2 MLOAD SWAP2 MSTORE ADD DUP2 SWAP1 SSTORE SWAP2 POP DUP1 PUSH3 0x2C0 DUP2 PUSH3 0x79E JUMP JUMPDEST SWAP2 POP POP PUSH3 0x251 JUMP JUMPDEST POP PUSH3 0x2D6 DUP2 DUP1 PUSH3 0x40A JUMP JUMPDEST PUSH1 0x8 SSTORE POP POP PUSH1 0x1 PUSH1 0x6C SSTORE POP PUSH1 0x40 DUP1 MLOAD PUSH1 0x0 DUP1 DUP3 MSTORE PUSH1 0x20 DUP3 ADD SWAP1 SWAP3 MSTORE SWAP1 PUSH3 0x30E JUMP JUMPDEST PUSH1 0x60 DUP2 MSTORE PUSH1 0x20 ADD SWAP1 PUSH1 0x1 SWAP1 SUB SWAP1 DUP2 PUSH3 0x2F8 JUMPI SWAP1 POP JUMPDEST POP DUP1 MLOAD PUSH3 0x325 SWAP2 PUSH1 0x74 SWAP2 PUSH1 0x20 SWAP1 SWAP2 ADD SWAP1 PUSH3 0x597 JUMP JUMPDEST POP PUSH1 0x70 DUP1 SLOAD PUSH1 0x1 PUSH1 0x1 PUSH1 0xA0 SHL SUB SWAP6 DUP7 AND PUSH1 0x1 PUSH1 0x1 PUSH1 0xA0 SHL SUB NOT SWAP2 DUP3 AND OR SWAP1 SWAP2 SSTORE PUSH1 0x71 DUP1 SLOAD SWAP3 SWAP1 SWAP6 AND SWAP2 AND OR SWAP1 SWAP3 SSTORE POP PUSH3 0x85B SWAP2 POP POP JUMP JUMPDEST PUSH1 0x1 PUSH1 0x1 PUSH1 0xA0 SHL SUB DUP2 AND CALLER EQ ISZERO PUSH3 0x3B8 JUMPI PUSH1 0x40 MLOAD PUSH3 0x461BCD PUSH1 0xE5 SHL DUP2 MSTORE PUSH1 0x20 PUSH1 0x4 DUP3 ADD MSTORE PUSH1 0x17 PUSH1 0x24 DUP3 ADD MSTORE PUSH32 0x43616E6E6F74207472616E7366657220746F2073656C66000000000000000000 PUSH1 0x44 DUP3 ADD MSTORE PUSH1 0x64 ADD PUSH3 0xBA JUMP JUMPDEST PUSH1 0x3 DUP1 SLOAD PUSH1 0x1 PUSH1 0x1 PUSH1 0xA0 SHL SUB NOT AND PUSH1 0x1 PUSH1 0x1 PUSH1 0xA0 SHL SUB DUP4 DUP2 AND SWAP2 DUP3 OR SWAP1 SWAP3 SSTORE PUSH1 0x2 SLOAD PUSH1 0x40 MLOAD SWAP2 SWAP3 AND SWAP1 PUSH32 0xED8889F560326EB138920D842192F0EB3DD22B4F139C87A2C57538E05BAE1278 SWAP1 PUSH1 0x0 SWAP1 LOG3 POP JUMP JUMPDEST PUSH1 0x0 PUSH32 0x30644E72E131A029B85045B68181585D2833E84879B9709143E1F593F0000001 DUP4 LT PUSH3 0x47D JUMPI PUSH1 0x40 MLOAD PUSH3 0x461BCD PUSH1 0xE5 SHL DUP2 MSTORE PUSH1 0x20 PUSH1 0x4 DUP3 ADD DUP2 SWAP1 MSTORE PUSH1 0x24 DUP3 ADD MSTORE PUSH32 0x5F6C6566742073686F756C6420626520696E7369646520746865206669656C64 PUSH1 0x44 DUP3 ADD MSTORE PUSH1 0x64 ADD PUSH3 0xBA JUMP JUMPDEST PUSH32 0x30644E72E131A029B85045B68181585D2833E84879B9709143E1F593F0000001 DUP3 LT PUSH3 0x4F8 JUMPI PUSH1 0x40 MLOAD PUSH3 0x461BCD PUSH1 0xE5 SHL DUP2 MSTORE PUSH1 0x20 PUSH1 0x4 DUP3 ADD MSTORE PUSH1 0x21 PUSH1 0x24 DUP3 ADD MSTORE PUSH32 0x5F72696768742073686F756C6420626520696E7369646520746865206669656C PUSH1 0x44 DUP3 ADD MSTORE PUSH1 0x19 PUSH1 0xFA SHL PUSH1 0x64 DUP3 ADD MSTORE PUSH1 0x84 ADD PUSH3 0xBA JUMP JUMPDEST PUSH1 0x40 DUP1 MLOAD DUP1 DUP3 ADD DUP3 MSTORE DUP5 DUP2 MSTORE PUSH1 0x20 DUP2 ADD DUP5 SWAP1 MSTORE PUSH1 0x4 DUP1 SLOAD SWAP3 MLOAD PUSH4 0x14CF2B3 PUSH1 0xE5 SHL DUP2 MSTORE SWAP2 SWAP3 PUSH1 0x1 PUSH1 0x1 PUSH1 0xA0 SHL SUB AND SWAP2 PUSH4 0x299E5660 SWAP2 PUSH3 0x53B SWAP2 DUP6 SWAP2 ADD PUSH3 0x7D1 JUMP JUMPDEST PUSH1 0x20 PUSH1 0x40 MLOAD DUP1 DUP4 SUB DUP2 DUP7 DUP1 EXTCODESIZE ISZERO DUP1 ISZERO PUSH3 0x554 JUMPI PUSH1 0x0 DUP1 REVERT JUMPDEST POP GAS STATICCALL ISZERO DUP1 ISZERO PUSH3 0x569 JUMPI RETURNDATASIZE PUSH1 0x0 DUP1 RETURNDATACOPY RETURNDATASIZE PUSH1 0x0 REVERT JUMPDEST POP POP POP POP PUSH1 0x40 MLOAD RETURNDATASIZE PUSH1 0x1F NOT PUSH1 0x1F DUP3 ADD AND DUP3 ADD DUP1 PUSH1 0x40 MSTORE POP DUP2 ADD SWAP1 PUSH3 0x58F SWAP2 SWAP1 PUSH3 0x804 JUMP JUMPDEST SWAP5 SWAP4 POP POP POP POP JUMP JUMPDEST DUP3 DUP1 SLOAD DUP3 DUP3 SSTORE SWAP1 PUSH1 0x0 MSTORE PUSH1 0x20 PUSH1 0x0 KECCAK256 SWAP1 DUP2 ADD SWAP3 DUP3 ISZERO PUSH3 0x5E9 JUMPI SWAP2 PUSH1 0x20 MUL DUP3 ADD JUMPDEST DUP3 DUP2 GT ISZERO PUSH3 0x5E9 JUMPI DUP3 MLOAD DUP1 MLOAD PUSH3 0x5D8 SWAP2 DUP5 SWAP2 PUSH1 0x20 SWAP1 SWAP2 ADD SWAP1 PUSH3 0x5FB JUMP JUMPDEST POP SWAP2 PUSH1 0x20 ADD SWAP2 SWAP1 PUSH1 0x1 ADD SWAP1 PUSH3 0x5B8 JUMP JUMPDEST POP PUSH3 0x5F7 SWAP3 SWAP2 POP PUSH3 0x686 JUMP JUMPDEST POP SWAP1 JUMP JUMPDEST DUP3 DUP1 SLOAD PUSH3 0x609 SWAP1 PUSH3 0x81E JUMP JUMPDEST SWAP1 PUSH1 0x0 MSTORE PUSH1 0x20 PUSH1 0x0 KECCAK256 SWAP1 PUSH1 0x1F ADD PUSH1 0x20 SWAP1 DIV DUP2 ADD SWAP3 DUP3 PUSH3 0x62D JUMPI PUSH1 0x0 DUP6 SSTORE PUSH3 0x678 JUMP JUMPDEST DUP3 PUSH1 0x1F LT PUSH3 0x648 JUMPI DUP1 MLOAD PUSH1 0xFF NOT AND DUP4 DUP1 ADD OR DUP6 SSTORE PUSH3 0x678 JUMP JUMPDEST DUP3 DUP1 ADD PUSH1 0x1 ADD DUP6 SSTORE DUP3 ISZERO PUSH3 0x678 JUMPI SWAP2 DUP3 ADD JUMPDEST DUP3 DUP2 GT ISZERO PUSH3 0x678 JUMPI DUP3 MLOAD DUP3 SSTORE SWAP2 PUSH1 0x20 ADD SWAP2 SWAP1 PUSH1 0x1 ADD SWAP1 PUSH3 0x65B JUMP JUMPDEST POP PUSH3 0x5F7 SWAP3 SWAP2 POP PUSH3 0x6A7 JUMP JUMPDEST DUP1 DUP3 GT ISZERO PUSH3 0x5F7 JUMPI PUSH1 0x0 PUSH3 0x69D DUP3 DUP3 PUSH3 0x6BE JUMP JUMPDEST POP PUSH1 0x1 ADD PUSH3 0x686 JUMP JUMPDEST JUMPDEST DUP1 DUP3 GT ISZERO PUSH3 0x5F7 JUMPI PUSH1 0x0 DUP2 SSTORE PUSH1 0x1 ADD PUSH3 0x6A8 JUMP JUMPDEST POP DUP1 SLOAD PUSH3 0x6CC SWAP1 PUSH3 0x81E JUMP JUMPDEST PUSH1 0x0 DUP3 SSTORE DUP1 PUSH1 0x1F LT PUSH3 0x6DD JUMPI POP POP JUMP JUMPDEST PUSH1 0x1F ADD PUSH1 0x20 SWAP1 DIV SWAP1 PUSH1 0x0 MSTORE PUSH1 0x20 PUSH1 0x0 KECCAK256 SWAP1 DUP2 ADD SWAP1 PUSH3 0x6FD SWAP2 SWAP1 PUSH3 0x6A7 JUMP JUMPDEST POP JUMP JUMPDEST PUSH1 0x1 PUSH1 0x1 PUSH1 0xA0 SHL SUB DUP2 AND DUP2 EQ PUSH3 0x6FD JUMPI PUSH1 0x0 DUP1 REVERT JUMPDEST PUSH1 0x0 DUP1 PUSH1 0x0 DUP1 PUSH1 0x0 PUSH1 0xA0 DUP7 DUP9 SUB SLT ISZERO PUSH3 0x72F JUMPI PUSH1 0x0 DUP1 REVERT JUMPDEST DUP6 MLOAD PUSH3 0x73C DUP2 PUSH3 0x700 JUMP JUMPDEST PUSH1 0x20 DUP8 ADD MLOAD SWAP1 SWAP6 POP PUSH3 0x74F DUP2 PUSH3 0x700 JUMP JUMPDEST PUSH1 0x40 DUP8 ADD MLOAD SWAP1 SWAP5 POP PUSH4 0xFFFFFFFF DUP2 AND DUP2 EQ PUSH3 0x76A JUMPI PUSH1 0x0 DUP1 REVERT JUMPDEST PUSH1 0x60 DUP8 ADD MLOAD SWAP1 SWAP4 POP PUSH3 0x77D DUP2 PUSH3 0x700 JUMP JUMPDEST PUSH1 0x80 DUP8 ADD MLOAD SWAP1 SWAP3 POP PUSH3 0x790 DUP2 PUSH3 0x700 JUMP JUMPDEST DUP1 SWAP2 POP POP SWAP3 SWAP6 POP SWAP3 SWAP6 SWAP1 SWAP4 POP JUMP JUMPDEST PUSH1 0x0 PUSH4 0xFFFFFFFF DUP1 DUP4 AND DUP2 DUP2 EQ ISZERO PUSH3 0x7C7 JUMPI PUSH4 0x4E487B71 PUSH1 0xE0 SHL PUSH1 0x0 MSTORE PUSH1 0x11 PUSH1 0x4 MSTORE PUSH1 0x24 PUSH1 0x0 REVERT JUMPDEST PUSH1 0x1 ADD SWAP4 SWAP3 POP POP POP JUMP JUMPDEST PUSH1 0x40 DUP2 ADD DUP2 DUP4 PUSH1 0x0 JUMPDEST PUSH1 0x2 DUP2 LT ISZERO PUSH3 0x7FB JUMPI DUP2 MLOAD DUP4 MSTORE PUSH1 0x20 SWAP3 DUP4 ADD SWAP3 SWAP1 SWAP2 ADD SWAP1 PUSH1 0x1 ADD PUSH3 0x7DA JUMP JUMPDEST POP POP POP SWAP3 SWAP2 POP POP JUMP JUMPDEST PUSH1 0x0 PUSH1 0x20 DUP3 DUP5 SUB SLT ISZERO PUSH3 0x817 JUMPI PUSH1 0x0 DUP1 REVERT JUMPDEST POP MLOAD SWAP2 SWAP1 POP JUMP JUMPDEST PUSH1 0x1 DUP2 DUP2 SHR SWAP1 DUP3 AND DUP1 PUSH3 0x833 JUMPI PUSH1 0x7F DUP3 AND SWAP2 POP JUMPDEST PUSH1 0x20 DUP3 LT DUP2 EQ ISZERO PUSH3 0x855 JUMPI PUSH4 0x4E487B71 PUSH1 0xE0 SHL PUSH1 0x0 MSTORE PUSH1 0x22 PUSH1 0x4 MSTORE PUSH1 0x24 PUSH1 0x0 REVERT JUMPDEST POP SWAP2 SWAP1 POP JUMP JUMPDEST PUSH1 0x80 MLOAD PUSH2 0x4037 PUSH3 0x88C PUSH1 0x0 CODECOPY PUSH1 0x0 DUP2 DUP2 PUSH2 0x351 ADD MSTORE DUP2 DUP2 PUSH2 0xFB7 ADD MSTORE DUP2 DUP2 PUSH2 0x1BFE ADD MSTORE PUSH2 0x1CE9 ADD MSTORE PUSH2 0x4037 PUSH1 0x0 RETURN INVALID PUSH1 0x80 PUSH1 0x40 MSTORE CALLVALUE DUP1 ISZERO PUSH3 0x11 JUMPI PUSH1 0x0 DUP1 REVERT JUMPDEST POP PUSH1 0x4 CALLDATASIZE LT PUSH3 0x219 JUMPI PUSH1 0x0 CALLDATALOAD PUSH1 0xE0 SHR DUP1 PUSH4 0xBA70F757 GT PUSH3 0x125 JUMPI DUP1 PUSH4 0xE8295588 GT PUSH3 0xAF JUMPI DUP1 PUSH4 0xF178E47C GT PUSH3 0x7A JUMPI DUP1 PUSH4 0xF178E47C EQ PUSH3 0x516 JUMPI DUP1 PUSH4 0xF2FDE38B EQ PUSH3 0x52D JUMPI DUP1 PUSH4 0xFC7E9C6F EQ PUSH3 0x544 JUMPI DUP1 PUSH4 0xFFFEB84E EQ PUSH3 0x55D JUMPI PUSH1 0x0 DUP1 REVERT JUMPDEST DUP1 PUSH4 0xE8295588 EQ PUSH3 0x4AC JUMPI DUP1 PUSH4 0xEA2637A5 EQ PUSH3 0x4C3 JUMPI DUP1 PUSH4 0xEC732959 EQ PUSH3 0x4DA JUMPI DUP1 PUSH4 0xED33639F EQ PUSH3 0x502 JUMPI PUSH1 0x0 DUP1 REVERT JUMPDEST DUP1 PUSH4 0xCD87A3B4 GT PUSH3 0xF0 JUMPI DUP1 PUSH4 0xCD87A3B4 EQ PUSH3 0x45A JUMPI DUP1 PUSH4 0xD328A91E EQ PUSH3 0x463 JUMPI DUP1 PUSH4 0xD4B39175 EQ PUSH3 0x46D JUMPI DUP1 PUSH4 0xDF65850A EQ PUSH3 0x4A2 JUMPI PUSH1 0x0 DUP1 REVERT JUMPDEST DUP1 PUSH4 0xBA70F757 EQ PUSH3 0x40C JUMPI DUP1 PUSH4 0xBEF3A2F0 EQ PUSH3 0x416 JUMPI DUP1 PUSH4 0xBF158FD2 EQ PUSH3 0x42F JUMPI DUP1 PUSH4 0xC2B40AE4 EQ PUSH3 0x443 JUMPI PUSH1 0x0 DUP1 REVERT JUMPDEST DUP1 PUSH4 0x414A37BA GT PUSH3 0x1A7 JUMPI DUP1 PUSH4 0x79BA5097 GT PUSH3 0x172 JUMPI DUP1 PUSH4 0x79BA5097 EQ PUSH3 0x3B9 JUMPI DUP1 PUSH4 0x839DF945 EQ PUSH3 0x3C3 JUMPI DUP1 PUSH4 0x8DA5CB5B EQ PUSH3 0x3E9 JUMPI DUP1 PUSH4 0x90EEB02B EQ PUSH3 0x3FB JUMPI PUSH1 0x0 DUP1 REVERT JUMPDEST DUP1 PUSH4 0x414A37BA EQ PUSH3 0x323 JUMPI DUP1 PUSH4 0x4ECF518B EQ PUSH3 0x34B JUMPI DUP1 PUSH4 0x5FF6CBF3 EQ PUSH3 0x389 JUMPI DUP1 PUSH4 0x6D9833E3 EQ PUSH3 0x3A2 JUMPI PUSH1 0x0 DUP1 REVERT JUMPDEST DUP1 PUSH4 0x22DC7B4C GT PUSH3 0x1E8 JUMPI DUP1 PUSH4 0x22DC7B4C EQ PUSH3 0x282 JUMPI DUP1 PUSH4 0x2997E86B EQ PUSH3 0x2B9 JUMPI DUP1 PUSH4 0x2B7AC3F3 EQ PUSH3 0x2DF JUMPI DUP1 PUSH4 0x38BF282E EQ PUSH3 0x30C JUMPI PUSH1 0x0 DUP1 REVERT JUMPDEST DUP1 PUSH4 0xCA76175 EQ PUSH3 0x21E JUMPI DUP1 PUSH4 0xD2A3A88 EQ PUSH3 0x237 JUMPI DUP1 PUSH4 0x1AA46F59 EQ PUSH3 0x261 JUMPI DUP1 PUSH4 0x218FC350 EQ PUSH3 0x26B JUMPI JUMPDEST PUSH1 0x0 DUP1 REVERT JUMPDEST PUSH3 0x235 PUSH3 0x22F CALLDATASIZE PUSH1 0x4 PUSH3 0x273A JUMP JUMPDEST PUSH3 0x567 JUMP JUMPDEST STOP JUMPDEST PUSH3 0x24E PUSH3 0x248 CALLDATASIZE PUSH1 0x4 PUSH3 0x283A JUMP JUMPDEST PUSH3 0x5F7 JUMP JUMPDEST PUSH1 0x40 MLOAD SWAP1 DUP2 MSTORE PUSH1 0x20 ADD JUMPDEST PUSH1 0x40 MLOAD DUP1 SWAP2 SUB SWAP1 RETURN JUMPDEST PUSH3 0x24E PUSH1 0x6D SLOAD DUP2 JUMP JUMPDEST PUSH3 0x235 PUSH3 0x27C CALLDATASIZE PUSH1 0x4 PUSH3 0x299E JUMP JUMPDEST PUSH3 0x773 JUMP JUMPDEST PUSH3 0x2A8 PUSH3 0x293 CALLDATASIZE PUSH1 0x4 PUSH3 0x2A9E JUMP JUMPDEST PUSH1 0x0 SWAP1 DUP2 MSTORE PUSH1 0x72 PUSH1 0x20 MSTORE PUSH1 0x40 SWAP1 KECCAK256 SLOAD PUSH1 0xFF AND SWAP1 JUMP JUMPDEST PUSH1 0x40 MLOAD SWAP1 ISZERO ISZERO DUP2 MSTORE PUSH1 0x20 ADD PUSH3 0x258 JUMP JUMPDEST PUSH3 0x2A8 PUSH3 0x2CA CALLDATASIZE PUSH1 0x4 PUSH3 0x2A9E JUMP JUMPDEST PUSH1 0x72 PUSH1 0x20 MSTORE PUSH1 0x0 SWAP1 DUP2 MSTORE PUSH1 0x40 SWAP1 KECCAK256 SLOAD PUSH1 0xFF AND DUP2 JUMP JUMPDEST PUSH1 0x70 SLOAD PUSH3 0x2F3 SWAP1 PUSH1 0x1 PUSH1 0x1 PUSH1 0xA0 SHL SUB AND DUP2 JUMP JUMPDEST PUSH1 0x40 MLOAD PUSH1 0x1 PUSH1 0x1 PUSH1 0xA0 SHL SUB SWAP1 SWAP2 AND DUP2 MSTORE PUSH1 0x20 ADD PUSH3 0x258 JUMP JUMPDEST PUSH3 0x24E PUSH3 0x31D CALLDATASIZE PUSH1 0x4 PUSH3 0x2AB8 JUMP JUMPDEST PUSH3 0x9B2 JUMP JUMPDEST PUSH3 0x24E PUSH32 0x30644E72E131A029B85045B68181585D2833E84879B9709143E1F593F0000001 DUP2 JUMP JUMPDEST PUSH3 0x373 PUSH32 0x0 DUP2 JUMP JUMPDEST PUSH1 0x40 MLOAD PUSH4 0xFFFFFFFF SWAP1 SWAP2 AND DUP2 MSTORE PUSH1 0x20 ADD PUSH3 0x258 JUMP JUMPDEST PUSH3 0x393 PUSH3 0xB41 JUMP JUMPDEST PUSH1 0x40 MLOAD PUSH3 0x258 SWAP2 SWAP1 PUSH3 0x2B38 JUMP JUMPDEST PUSH3 0x2A8 PUSH3 0x3B3 CALLDATASIZE PUSH1 0x4 PUSH3 0x2A9E JUMP JUMPDEST PUSH3 0xC24 JUMP JUMPDEST PUSH3 0x235 PUSH3 0xCAB JUMP JUMPDEST PUSH3 0x2A8 PUSH3 0x3D4 CALLDATASIZE PUSH1 0x4 PUSH3 0x2A9E JUMP JUMPDEST PUSH1 0x73 PUSH1 0x20 MSTORE PUSH1 0x0 SWAP1 DUP2 MSTORE PUSH1 0x40 SWAP1 KECCAK256 SLOAD PUSH1 0xFF AND DUP2 JUMP JUMPDEST PUSH1 0x2 SLOAD PUSH1 0x1 PUSH1 0x1 PUSH1 0xA0 SHL SUB AND PUSH3 0x2F3 JUMP JUMPDEST PUSH1 0x7 SLOAD PUSH3 0x373 SWAP1 PUSH4 0xFFFFFFFF AND DUP2 JUMP JUMPDEST PUSH3 0x24E PUSH3 0xD5B JUMP JUMPDEST PUSH3 0x420 PUSH3 0xD84 JUMP JUMPDEST PUSH1 0x40 MLOAD PUSH3 0x258 SWAP2 SWAP1 PUSH3 0x2B9E JUMP JUMPDEST PUSH1 0x71 SLOAD PUSH3 0x2F3 SWAP1 PUSH1 0x1 PUSH1 0x1 PUSH1 0xA0 SHL SUB AND DUP2 JUMP JUMPDEST PUSH3 0x24E PUSH3 0x454 CALLDATASIZE PUSH1 0x4 PUSH3 0x2A9E JUMP JUMPDEST PUSH3 0xE1A JUMP JUMPDEST PUSH3 0x373 PUSH1 0x64 DUP2 JUMP JUMPDEST PUSH3 0x420 PUSH3 0xE32 JUMP JUMPDEST PUSH3 0x484 PUSH3 0x47E CALLDATASIZE PUSH1 0x4 PUSH3 0x2C88 JUMP JUMPDEST PUSH3 0xEBB JUMP JUMPDEST PUSH1 0x40 MLOAD PUSH12 0xFFFFFFFFFFFFFFFFFFFFFFFF SWAP1 SWAP2 AND DUP2 MSTORE PUSH1 0x20 ADD PUSH3 0x258 JUMP JUMPDEST PUSH3 0x235 PUSH3 0xF59 JUMP JUMPDEST PUSH3 0x24E PUSH3 0x4BD CALLDATASIZE PUSH1 0x4 PUSH3 0x2A9E JUMP JUMPDEST PUSH3 0x1069 JUMP JUMPDEST PUSH3 0x235 PUSH3 0x4D4 CALLDATASIZE PUSH1 0x4 PUSH3 0x2DC7 JUMP JUMPDEST PUSH3 0x108B JUMP JUMPDEST PUSH3 0x24E PUSH32 0x2FE54C60D3ACABF3343A35B6EBA15DB4821B340F76E741E2249685ED4899AF6C DUP2 JUMP JUMPDEST PUSH1 0x4 SLOAD PUSH3 0x2F3 SWAP1 PUSH1 0x1 PUSH1 0x1 PUSH1 0xA0 SHL SUB AND DUP2 JUMP JUMPDEST PUSH3 0x24E PUSH3 0x527 CALLDATASIZE PUSH1 0x4 PUSH3 0x2A9E JUMP JUMPDEST PUSH3 0x118C JUMP JUMPDEST PUSH3 0x235 PUSH3 0x53E CALLDATASIZE PUSH1 0x4 PUSH3 0x2DFA JUMP JUMPDEST PUSH3 0x119D JUMP JUMPDEST PUSH1 0x7 SLOAD PUSH3 0x373 SWAP1 PUSH5 0x100000000 SWAP1 DIV PUSH4 0xFFFFFFFF AND DUP2 JUMP JUMPDEST PUSH3 0x420 PUSH3 0x11B5 JUMP JUMPDEST PUSH1 0x0 DUP4 DUP2 MSTORE PUSH1 0x1 PUSH1 0x20 MSTORE PUSH1 0x40 SWAP1 KECCAK256 SLOAD DUP4 SWAP1 PUSH1 0x1 PUSH1 0x1 PUSH1 0xA0 SHL SUB AND CALLER EQ PUSH3 0x5A1 JUMPI PUSH1 0x40 MLOAD PUSH4 0xA0C5EC63 PUSH1 0xE0 SHL DUP2 MSTORE PUSH1 0x4 ADD PUSH1 0x40 MLOAD DUP1 SWAP2 SUB SWAP1 REVERT JUMPDEST PUSH1 0x0 DUP2 DUP2 MSTORE PUSH1 0x1 PUSH1 0x20 MSTORE PUSH1 0x40 DUP1 DUP3 KECCAK256 DUP1 SLOAD PUSH1 0x1 PUSH1 0x1 PUSH1 0xA0 SHL SUB NOT AND SWAP1 SSTORE MLOAD DUP3 SWAP2 PUSH32 0x85E1543BF2F84FE80C6BADBCE3648C8539AD1DF4D2B3D822938CA0538BE727E6 SWAP2 LOG2 PUSH3 0x5F1 DUP5 DUP5 DUP5 PUSH3 0x11C4 JUMP JUMPDEST POP POP POP POP JUMP JUMPDEST PUSH1 0x0 PUSH3 0x634 PUSH1 0x40 DUP1 MLOAD PUSH1 0xC0 DUP2 ADD SWAP1 SWAP2 MSTORE DUP1 PUSH1 0x0 DUP2 MSTORE PUSH1 0x20 ADD PUSH1 0x0 DUP2 MSTORE PUSH1 0x20 ADD PUSH1 0x0 DUP2 MSTORE PUSH1 0x20 ADD PUSH1 0x60 DUP2 MSTORE PUSH1 0x20 ADD PUSH1 0x60 DUP2 MSTORE PUSH1 0x20 ADD PUSH1 0x60 DUP2 MSTORE POP SWAP1 JUMP JUMPDEST PUSH3 0x67D PUSH1 0x0 DUP1 DUP14 DUP14 DUP1 DUP1 PUSH1 0x1F ADD PUSH1 0x20 DUP1 SWAP2 DIV MUL PUSH1 0x20 ADD PUSH1 0x40 MLOAD SWAP1 DUP2 ADD PUSH1 0x40 MSTORE DUP1 SWAP4 SWAP3 SWAP2 SWAP1 DUP2 DUP2 MSTORE PUSH1 0x20 ADD DUP4 DUP4 DUP1 DUP3 DUP5 CALLDATACOPY PUSH1 0x0 SWAP3 ADD SWAP2 SWAP1 SWAP2 MSTORE POP DUP8 SWAP6 SWAP5 SWAP4 SWAP3 POP POP PUSH3 0x169B SWAP1 POP JUMP JUMPDEST DUP8 ISZERO PUSH3 0x730 JUMPI PUSH1 0x0 DUP8 PUSH1 0x1 DUP2 GT ISZERO PUSH3 0x69B JUMPI PUSH3 0x69B PUSH3 0x2E1A JUMP JUMPDEST EQ ISZERO PUSH3 0x6EC JUMPI PUSH3 0x6E6 DUP10 DUP10 DUP1 DUP1 PUSH1 0x1F ADD PUSH1 0x20 DUP1 SWAP2 DIV MUL PUSH1 0x20 ADD PUSH1 0x40 MLOAD SWAP1 DUP2 ADD PUSH1 0x40 MSTORE DUP1 SWAP4 SWAP3 SWAP2 SWAP1 DUP2 DUP2 MSTORE PUSH1 0x20 ADD DUP4 DUP4 DUP1 DUP3 DUP5 CALLDATACOPY PUSH1 0x0 SWAP3 ADD SWAP2 SWAP1 SWAP2 MSTORE POP DUP6 SWAP4 SWAP3 POP POP PUSH3 0x1723 SWAP1 POP JUMP JUMPDEST PUSH3 0x730 JUMP JUMPDEST PUSH3 0x730 DUP10 DUP10 DUP1 DUP1 PUSH1 0x1F ADD PUSH1 0x20 DUP1 SWAP2 DIV MUL PUSH1 0x20 ADD PUSH1 0x40 MLOAD SWAP1 DUP2 ADD PUSH1 0x40 MSTORE DUP1 SWAP4 SWAP3 SWAP2 SWAP1 DUP2 DUP2 MSTORE PUSH1 0x20 ADD DUP4 DUP4 DUP1 DUP3 DUP5 CALLDATACOPY PUSH1 0x0 SWAP3 ADD SWAP2 SWAP1 SWAP2 MSTORE POP DUP6 SWAP4 SWAP3 POP POP PUSH3 0x176B SWAP1 POP JUMP JUMPDEST DUP5 ISZERO PUSH3 0x74F JUMPI PUSH3 0x74F PUSH3 0x747 DUP7 DUP9 PUSH3 0x2E30 JUMP JUMPDEST DUP3 SWAP1 PUSH3 0x1797 JUMP JUMPDEST PUSH1 0x0 PUSH3 0x75E DUP3 DUP7 DUP7 PUSH3 0x17BF JUMP JUMPDEST PUSH1 0x6D DUP2 SWAP1 SSTORE SWAP13 SWAP12 POP POP POP POP POP POP POP POP POP POP POP POP JUMP JUMPDEST PUSH3 0x77D PUSH3 0x193D JUMP JUMPDEST PUSH1 0x0 DUP4 DUP2 MSTORE PUSH1 0x72 PUSH1 0x20 MSTORE PUSH1 0x40 SWAP1 KECCAK256 SLOAD PUSH1 0xFF AND ISZERO PUSH3 0x7DB JUMPI PUSH1 0x40 MLOAD PUSH3 0x461BCD PUSH1 0xE5 SHL DUP2 MSTORE PUSH1 0x20 PUSH1 0x4 DUP3 ADD MSTORE PUSH1 0x16 PUSH1 0x24 DUP3 ADD MSTORE PUSH22 0x139D5B1B1A599A595C88185B1C9958591E481D5CD959 PUSH1 0x52 SHL PUSH1 0x44 DUP3 ADD MSTORE PUSH1 0x64 ADD JUMPDEST PUSH1 0x40 MLOAD DUP1 SWAP2 SUB SWAP1 REVERT JUMPDEST PUSH3 0x7E6 DUP3 PUSH3 0xC24 JUMP JUMPDEST PUSH3 0x825 JUMPI PUSH1 0x40 MLOAD PUSH3 0x461BCD PUSH1 0xE5 SHL DUP2 MSTORE PUSH1 0x20 PUSH1 0x4 DUP3 ADD MSTORE PUSH1 0xE PUSH1 0x24 DUP3 ADD MSTORE PUSH14 0x2937B7BA103737BA1035B737BBB7 PUSH1 0x91 SHL PUSH1 0x44 DUP3 ADD MSTORE PUSH1 0x64 ADD PUSH3 0x7D2 JUMP JUMPDEST PUSH1 0x40 DUP1 MLOAD DUP1 DUP3 ADD DUP3 MSTORE DUP5 DUP2 MSTORE PUSH1 0x20 DUP1 DUP3 ADD DUP6 SWAP1 MSTORE PUSH1 0x70 SLOAD DUP5 MLOAD SWAP2 DUP6 ADD MLOAD DUP6 DUP6 ADD MLOAD SWAP5 MLOAD PUSH4 0x7AE4EB4F PUSH1 0xE1 SHL DUP2 MSTORE SWAP4 SWAP5 PUSH1 0x1 PUSH1 0x1 PUSH1 0xA0 SHL SUB SWAP1 SWAP3 AND SWAP4 PUSH4 0xF5C9D69E SWAP4 PUSH3 0x879 SWAP4 SWAP1 SWAP3 SWAP2 DUP8 SWAP1 PUSH1 0x4 ADD PUSH3 0x2E64 JUMP JUMPDEST PUSH1 0x20 PUSH1 0x40 MLOAD DUP1 DUP4 SUB DUP2 PUSH1 0x0 DUP8 DUP1 EXTCODESIZE ISZERO DUP1 ISZERO PUSH3 0x894 JUMPI PUSH1 0x0 DUP1 REVERT JUMPDEST POP GAS CALL ISZERO DUP1 ISZERO PUSH3 0x8A9 JUMPI RETURNDATASIZE PUSH1 0x0 DUP1 RETURNDATACOPY RETURNDATASIZE PUSH1 0x0 REVERT JUMPDEST POP POP POP POP PUSH1 0x40 MLOAD RETURNDATASIZE PUSH1 0x1F NOT PUSH1 0x1F DUP3 ADD AND DUP3 ADD DUP1 PUSH1 0x40 MSTORE POP DUP2 ADD SWAP1 PUSH3 0x8CF SWAP2 SWAP1 PUSH3 0x2ECC JUMP JUMPDEST PUSH3 0x90D JUMPI PUSH1 0x40 MLOAD PUSH3 0x461BCD PUSH1 0xE5 SHL DUP2 MSTORE PUSH1 0x20 PUSH1 0x4 DUP3 ADD MSTORE PUSH1 0xD PUSH1 0x24 DUP3 ADD MSTORE PUSH13 0x24B73B30B634B210383937B7B3 PUSH1 0x99 SHL PUSH1 0x44 DUP3 ADD MSTORE PUSH1 0x64 ADD PUSH3 0x7D2 JUMP JUMPDEST PUSH1 0x0 DUP5 DUP2 MSTORE PUSH1 0x72 PUSH1 0x20 SWAP1 DUP2 MSTORE PUSH1 0x40 DUP3 KECCAK256 DUP1 SLOAD PUSH1 0xFF NOT AND PUSH1 0x1 SWAP1 DUP2 OR SWAP1 SWAP2 SSTORE PUSH1 0x74 DUP1 SLOAD SWAP2 DUP3 ADD DUP2 SSTORE SWAP1 SWAP3 MSTORE DUP7 MLOAD PUSH3 0x96A SWAP3 PUSH32 0x19A0B39AA25AC793B5F6E9A0534364CC0B3FD1EA9B651E79C7F50A59D48EF813 ADD SWAP2 DUP9 ADD SWAP1 PUSH3 0x2462 JUMP JUMPDEST POP PUSH32 0x6B6C80BB5C4B26D73A7CF3586C1B2F17BD79F8F7FD3C3E14F9CD70926574120 DUP6 DUP6 PUSH1 0x40 MLOAD PUSH3 0x99E SWAP3 SWAP2 SWAP1 PUSH3 0x2EF0 JUMP JUMPDEST PUSH1 0x40 MLOAD DUP1 SWAP2 SUB SWAP1 LOG1 POP PUSH3 0x5F1 PUSH1 0x1 PUSH1 0x6C SSTORE JUMP JUMPDEST PUSH1 0x0 PUSH32 0x30644E72E131A029B85045B68181585D2833E84879B9709143E1F593F0000001 DUP4 LT PUSH3 0xA25 JUMPI PUSH1 0x40 MLOAD PUSH3 0x461BCD PUSH1 0xE5 SHL DUP2 MSTORE PUSH1 0x20 PUSH1 0x4 DUP3 ADD DUP2 SWAP1 MSTORE PUSH1 0x24 DUP3 ADD MSTORE PUSH32 0x5F6C6566742073686F756C6420626520696E7369646520746865206669656C64 PUSH1 0x44 DUP3 ADD MSTORE PUSH1 0x64 ADD PUSH3 0x7D2 JUMP JUMPDEST PUSH32 0x30644E72E131A029B85045B68181585D2833E84879B9709143E1F593F0000001 DUP3 LT PUSH3 0xAA0 JUMPI PUSH1 0x40 MLOAD PUSH3 0x461BCD PUSH1 0xE5 SHL DUP2 MSTORE PUSH1 0x20 PUSH1 0x4 DUP3 ADD MSTORE PUSH1 0x21 PUSH1 0x24 DUP3 ADD MSTORE PUSH32 0x5F72696768742073686F756C6420626520696E7369646520746865206669656C PUSH1 0x44 DUP3 ADD MSTORE PUSH1 0x19 PUSH1 0xFA SHL PUSH1 0x64 DUP3 ADD MSTORE PUSH1 0x84 ADD PUSH3 0x7D2 JUMP JUMPDEST PUSH1 0x40 DUP1 MLOAD DUP1 DUP3 ADD DUP3 MSTORE DUP5 DUP2 MSTORE PUSH1 0x20 DUP2 ADD DUP5 SWAP1 MSTORE PUSH1 0x4 DUP1 SLOAD SWAP3 MLOAD PUSH4 0x14CF2B3 PUSH1 0xE5 SHL DUP2 MSTORE SWAP2 SWAP3 PUSH1 0x1 PUSH1 0x1 PUSH1 0xA0 SHL SUB AND SWAP2 PUSH4 0x299E5660 SWAP2 PUSH3 0xAE3 SWAP2 DUP6 SWAP2 ADD PUSH3 0x2F14 JUMP JUMPDEST PUSH1 0x20 PUSH1 0x40 MLOAD DUP1 DUP4 SUB DUP2 DUP7 DUP1 EXTCODESIZE ISZERO DUP1 ISZERO PUSH3 0xAFC JUMPI PUSH1 0x0 DUP1 REVERT JUMPDEST POP GAS STATICCALL ISZERO DUP1 ISZERO PUSH3 0xB11 JUMPI RETURNDATASIZE PUSH1 0x0 DUP1 RETURNDATACOPY RETURNDATASIZE PUSH1 0x0 REVERT JUMPDEST POP POP POP POP PUSH1 0x40 MLOAD RETURNDATASIZE PUSH1 0x1F NOT PUSH1 0x1F DUP3 ADD AND DUP3 ADD DUP1 PUSH1 0x40 MSTORE POP DUP2 ADD SWAP1 PUSH3 0xB37 SWAP2 SWAP1 PUSH3 0x2F47 JUMP JUMPDEST SWAP2 POP POP JUMPDEST SWAP3 SWAP2 POP POP JUMP JUMPDEST PUSH1 0x60 PUSH1 0x74 DUP1 SLOAD DUP1 PUSH1 0x20 MUL PUSH1 0x20 ADD PUSH1 0x40 MLOAD SWAP1 DUP2 ADD PUSH1 0x40 MSTORE DUP1 SWAP3 SWAP2 SWAP1 DUP2 DUP2 MSTORE PUSH1 0x20 ADD PUSH1 0x0 SWAP1 JUMPDEST DUP3 DUP3 LT ISZERO PUSH3 0xC1B JUMPI DUP4 DUP3 SWAP1 PUSH1 0x0 MSTORE PUSH1 0x20 PUSH1 0x0 KECCAK256 ADD DUP1 SLOAD PUSH3 0xB87 SWAP1 PUSH3 0x2F61 JUMP JUMPDEST DUP1 PUSH1 0x1F ADD PUSH1 0x20 DUP1 SWAP2 DIV MUL PUSH1 0x20 ADD PUSH1 0x40 MLOAD SWAP1 DUP2 ADD PUSH1 0x40 MSTORE DUP1 SWAP3 SWAP2 SWAP1 DUP2 DUP2 MSTORE PUSH1 0x20 ADD DUP3 DUP1 SLOAD PUSH3 0xBB5 SWAP1 PUSH3 0x2F61 JUMP JUMPDEST DUP1 ISZERO PUSH3 0xC06 JUMPI DUP1 PUSH1 0x1F LT PUSH3 0xBDA JUMPI PUSH2 0x100 DUP1 DUP4 SLOAD DIV MUL DUP4 MSTORE SWAP2 PUSH1 0x20 ADD SWAP2 PUSH3 0xC06 JUMP JUMPDEST DUP3 ADD SWAP2 SWAP1 PUSH1 0x0 MSTORE PUSH1 0x20 PUSH1 0x0 KECCAK256 SWAP1 JUMPDEST DUP2 SLOAD DUP2 MSTORE SWAP1 PUSH1 0x1 ADD SWAP1 PUSH1 0x20 ADD DUP1 DUP4 GT PUSH3 0xBE8 JUMPI DUP3 SWAP1 SUB PUSH1 0x1F AND DUP3 ADD SWAP2 JUMPDEST POP POP POP POP POP DUP2 MSTORE PUSH1 0x20 ADD SWAP1 PUSH1 0x1 ADD SWAP1 PUSH3 0xB65 JUMP JUMPDEST POP POP POP POP SWAP1 POP SWAP1 JUMP JUMPDEST PUSH1 0x0 DUP2 PUSH3 0xC34 JUMPI POP PUSH1 0x0 SWAP2 SWAP1 POP JUMP JUMPDEST PUSH1 0x7 SLOAD PUSH4 0xFFFFFFFF AND JUMPDEST PUSH1 0x8 DUP2 PUSH4 0xFFFFFFFF AND PUSH1 0x64 DUP2 LT PUSH3 0xC5A JUMPI PUSH3 0xC5A PUSH3 0x2F98 JUMP JUMPDEST ADD SLOAD DUP4 EQ ISZERO PUSH3 0xC6D JUMPI POP PUSH1 0x1 SWAP3 SWAP2 POP POP JUMP JUMPDEST PUSH4 0xFFFFFFFF DUP2 AND PUSH3 0xC7D JUMPI POP PUSH1 0x64 JUMPDEST DUP1 PUSH3 0xC89 DUP2 PUSH3 0x2FC4 JUMP JUMPDEST PUSH1 0x7 SLOAD SWAP1 SWAP3 POP PUSH4 0xFFFFFFFF DUP1 DUP5 AND SWAP2 AND EQ ISZERO SWAP1 POP PUSH3 0xC3E JUMPI POP PUSH1 0x0 SWAP3 SWAP2 POP POP JUMP JUMPDEST PUSH1 0x3 SLOAD PUSH1 0x1 PUSH1 0x1 PUSH1 0xA0 SHL SUB AND CALLER EQ PUSH3 0xD00 JUMPI PUSH1 0x40 MLOAD PUSH3 0x461BCD PUSH1 0xE5 SHL DUP2 MSTORE PUSH1 0x20 PUSH1 0x4 DUP3 ADD MSTORE PUSH1 0x16 PUSH1 0x24 DUP3 ADD MSTORE PUSH22 0x26BAB9BA10313290383937B837B9B2B21037BBB732B9 PUSH1 0x51 SHL PUSH1 0x44 DUP3 ADD MSTORE PUSH1 0x64 ADD PUSH3 0x7D2 JUMP JUMPDEST PUSH1 0x2 DUP1 SLOAD PUSH1 0x1 PUSH1 0x1 PUSH1 0xA0 SHL SUB NOT DUP1 DUP3 AND CALLER SWAP1 DUP2 OR SWAP1 SWAP4 SSTORE PUSH1 0x3 DUP1 SLOAD SWAP1 SWAP2 AND SWAP1 SSTORE PUSH1 0x40 MLOAD PUSH1 0x1 PUSH1 0x1 PUSH1 0xA0 SHL SUB SWAP1 SWAP2 AND SWAP2 SWAP1 DUP3 SWAP1 PUSH32 0x8BE0079C531659141344CD1FD0A4F28419497F9722A3DAAFE3B4186F6B6457E0 SWAP1 PUSH1 0x0 SWAP1 LOG3 POP JUMP JUMPDEST PUSH1 0x7 SLOAD PUSH1 0x0 SWAP1 PUSH1 0x8 SWAP1 PUSH4 0xFFFFFFFF AND PUSH1 0x64 DUP2 LT PUSH3 0xD7D JUMPI PUSH3 0xD7D PUSH3 0x2F98 JUMP JUMPDEST ADD SLOAD SWAP1 POP SWAP1 JUMP JUMPDEST PUSH1 0x6E DUP1 SLOAD PUSH3 0xD93 SWAP1 PUSH3 0x2F61 JUMP JUMPDEST DUP1 PUSH1 0x1F ADD PUSH1 0x20 DUP1 SWAP2 DIV MUL PUSH1 0x20 ADD PUSH1 0x40 MLOAD SWAP1 DUP2 ADD PUSH1 0x40 MSTORE DUP1 SWAP3 SWAP2 SWAP1 DUP2 DUP2 MSTORE PUSH1 0x20 ADD DUP3 DUP1 SLOAD PUSH3 0xDC1 SWAP1 PUSH3 0x2F61 JUMP JUMPDEST DUP1 ISZERO PUSH3 0xE12 JUMPI DUP1 PUSH1 0x1F LT PUSH3 0xDE6 JUMPI PUSH2 0x100 DUP1 DUP4 SLOAD DIV MUL DUP4 MSTORE SWAP2 PUSH1 0x20 ADD SWAP2 PUSH3 0xE12 JUMP JUMPDEST DUP3 ADD SWAP2 SWAP1 PUSH1 0x0 MSTORE PUSH1 0x20 PUSH1 0x0 KECCAK256 SWAP1 JUMPDEST DUP2 SLOAD DUP2 MSTORE SWAP1 PUSH1 0x1 ADD SWAP1 PUSH1 0x20 ADD DUP1 DUP4 GT PUSH3 0xDF4 JUMPI DUP3 SWAP1 SUB PUSH1 0x1F AND DUP3 ADD SWAP2 JUMPDEST POP POP POP POP POP DUP2 JUMP JUMPDEST PUSH1 0x8 DUP2 PUSH1 0x64 DUP2 LT PUSH3 0xE2B JUMPI PUSH1 0x0 DUP1 REVERT JUMPDEST ADD SLOAD SWAP1 POP DUP2 JUMP JUMPDEST PUSH1 0x0 DUP1 SLOAD PUSH1 0x40 DUP1 MLOAD PUSH4 0x6994548F PUSH1 0xE1 SHL DUP2 MSTORE SWAP1 MLOAD PUSH1 0x60 SWAP4 PUSH1 0x1 PUSH1 0x1 PUSH1 0xA0 SHL SUB SWAP1 SWAP4 AND SWAP3 PUSH4 0xD328A91E SWAP3 PUSH1 0x4 DUP1 DUP3 ADD SWAP4 SWAP2 DUP3 SWAP1 SUB ADD DUP2 DUP7 DUP1 EXTCODESIZE ISZERO DUP1 ISZERO PUSH3 0xE77 JUMPI PUSH1 0x0 DUP1 REVERT JUMPDEST POP GAS STATICCALL ISZERO DUP1 ISZERO PUSH3 0xE8C JUMPI RETURNDATASIZE PUSH1 0x0 DUP1 RETURNDATACOPY RETURNDATASIZE PUSH1 0x0 REVERT JUMPDEST POP POP POP POP PUSH1 0x40 MLOAD RETURNDATASIZE PUSH1 0x0 DUP3 RETURNDATACOPY PUSH1 0x1F RETURNDATASIZE SWAP1 DUP2 ADD PUSH1 0x1F NOT AND DUP3 ADD PUSH1 0x40 MSTORE PUSH3 0xEB6 SWAP2 SWAP1 DUP2 ADD SWAP1 PUSH3 0x2FE7 JUMP JUMPDEST SWAP1 POP SWAP1 JUMP JUMPDEST PUSH1 0x0 DUP1 SLOAD PUSH1 0x1 PUSH1 0x1 PUSH1 0xA0 SHL SUB AND PUSH4 0xD227D245 DUP6 PUSH3 0xED9 DUP9 PUSH3 0x1999 JUMP JUMPDEST DUP7 DUP7 PUSH1 0x40 MLOAD DUP6 PUSH4 0xFFFFFFFF AND PUSH1 0xE0 SHL DUP2 MSTORE PUSH1 0x4 ADD PUSH3 0xEFC SWAP5 SWAP4 SWAP3 SWAP2 SWAP1 PUSH3 0x305D JUMP JUMPDEST PUSH1 0x20 PUSH1 0x40 MLOAD DUP1 DUP4 SUB DUP2 DUP7 DUP1 EXTCODESIZE ISZERO DUP1 ISZERO PUSH3 0xF15 JUMPI PUSH1 0x0 DUP1 REVERT JUMPDEST POP GAS STATICCALL ISZERO DUP1 ISZERO PUSH3 0xF2A JUMPI RETURNDATASIZE PUSH1 0x0 DUP1 RETURNDATACOPY RETURNDATASIZE PUSH1 0x0 REVERT JUMPDEST POP POP POP POP PUSH1 0x40 MLOAD RETURNDATASIZE PUSH1 0x1F NOT PUSH1 0x1F DUP3 ADD AND DUP3 ADD DUP1 PUSH1 0x40 MSTORE POP DUP2 ADD SWAP1 PUSH3 0xF50 SWAP2 SWAP1 PUSH3 0x309A JUMP JUMPDEST SWAP6 SWAP5 POP POP POP POP POP JUMP JUMPDEST PUSH3 0xF67 PUSH1 0x74 PUSH1 0x0 PUSH3 0x24F1 JUMP JUMPDEST PUSH1 0x40 DUP1 MLOAD PUSH1 0x0 DUP1 DUP3 MSTORE PUSH1 0x20 DUP3 ADD SWAP1 SWAP3 MSTORE SWAP1 PUSH3 0xF94 JUMP JUMPDEST PUSH1 0x60 DUP2 MSTORE PUSH1 0x20 ADD SWAP1 PUSH1 0x1 SWAP1 SUB SWAP1 DUP2 PUSH3 0xF7E JUMPI SWAP1 POP JUMPDEST POP DUP1 MLOAD PUSH3 0xFAB SWAP2 PUSH1 0x74 SWAP2 PUSH1 0x20 SWAP1 SWAP2 ADD SWAP1 PUSH3 0x2511 JUMP JUMPDEST POP PUSH1 0x4 SLOAD PUSH1 0x40 MLOAD PUSH1 0x0 SWAP2 PUSH32 0x0 SWAP2 PUSH1 0x1 PUSH1 0x1 PUSH1 0xA0 SHL SUB SWAP1 SWAP2 AND SWAP1 PUSH3 0xFEE SWAP1 PUSH3 0x2571 JUMP JUMPDEST PUSH4 0xFFFFFFFF SWAP1 SWAP3 AND DUP3 MSTORE PUSH1 0x1 PUSH1 0x1 PUSH1 0xA0 SHL SUB AND PUSH1 0x20 DUP3 ADD MSTORE PUSH1 0x40 ADD PUSH1 0x40 MLOAD DUP1 SWAP2 SUB SWAP1 PUSH1 0x0 CREATE DUP1 ISZERO DUP1 ISZERO PUSH3 0x1026 JUMPI RETURNDATASIZE PUSH1 0x0 DUP1 RETURNDATACOPY RETURNDATASIZE PUSH1 0x0 REVERT JUMPDEST POP PUSH1 0x40 MLOAD PUSH1 0x1 PUSH1 0x1 PUSH1 0xA0 SHL SUB DUP3 AND DUP2 MSTORE SWAP1 SWAP2 POP PUSH32 0x765DB991984A89C27E19F67D91432136B71039B4232E172528F603C60BD9F9B SWAP1 PUSH1 0x20 ADD PUSH1 0x40 MLOAD DUP1 SWAP2 SUB SWAP1 LOG1 POP JUMP JUMPDEST PUSH1 0x6 DUP2 DUP2 SLOAD DUP2 LT PUSH3 0x107A JUMPI PUSH1 0x0 DUP1 REVERT JUMPDEST PUSH1 0x0 SWAP2 DUP3 MSTORE PUSH1 0x20 SWAP1 SWAP2 KECCAK256 ADD SLOAD SWAP1 POP DUP2 JUMP JUMPDEST PUSH3 0x1095 PUSH3 0x193D JUMP JUMPDEST PUSH1 0x0 DUP3 DUP2 MSTORE PUSH1 0x73 PUSH1 0x20 MSTORE PUSH1 0x40 SWAP1 KECCAK256 SLOAD PUSH1 0xFF AND ISZERO PUSH3 0x10F6 JUMPI PUSH1 0x40 MLOAD PUSH3 0x461BCD PUSH1 0xE5 SHL DUP2 MSTORE PUSH1 0x20 PUSH1 0x4 DUP3 ADD MSTORE PUSH1 0x17 PUSH1 0x24 DUP3 ADD MSTORE PUSH32 0x436F6D6D69746D656E7420616C72656164792075736564000000000000000000 PUSH1 0x44 DUP3 ADD MSTORE PUSH1 0x64 ADD PUSH3 0x7D2 JUMP JUMPDEST PUSH1 0x0 PUSH3 0x1103 DUP4 PUSH3 0x1BE4 JUMP JUMPDEST PUSH1 0x0 DUP5 DUP2 MSTORE PUSH1 0x73 PUSH1 0x20 MSTORE PUSH1 0x40 SWAP1 DUP2 SWAP1 KECCAK256 DUP1 SLOAD PUSH1 0xFF NOT AND PUSH1 0x1 OR SWAP1 SSTORE MLOAD SWAP1 SWAP2 POP PUSH32 0x4B06A020EAA12A2D683A4C58434AE9611D1026DF0943FB89F31E751CB777B5AD SWAP1 PUSH3 0x1174 SWAP1 DUP6 SWAP1 DUP5 SWAP1 DUP7 SWAP1 SWAP3 DUP4 MSTORE PUSH4 0xFFFFFFFF SWAP2 SWAP1 SWAP2 AND PUSH1 0x20 DUP4 ADD MSTORE PUSH1 0x1 PUSH1 0x1 PUSH1 0xA0 SHL SUB AND PUSH1 0x40 DUP3 ADD MSTORE PUSH1 0x60 ADD SWAP1 JUMP JUMPDEST PUSH1 0x40 MLOAD DUP1 SWAP2 SUB SWAP1 LOG1 POP PUSH3 0x1188 PUSH1 0x1 PUSH1 0x6C SSTORE JUMP JUMPDEST POP POP JUMP JUMPDEST PUSH1 0x5 DUP2 DUP2 SLOAD DUP2 LT PUSH3 0x107A JUMPI PUSH1 0x0 DUP1 REVERT JUMPDEST PUSH3 0x11A7 PUSH3 0x1E70 JUMP JUMPDEST PUSH3 0x11B2 DUP2 PUSH3 0x1EC7 JUMP JUMPDEST POP JUMP JUMPDEST PUSH1 0x6F DUP1 SLOAD PUSH3 0xD93 SWAP1 PUSH3 0x2F61 JUMP JUMPDEST DUP2 MLOAD PUSH3 0x11D9 SWAP1 PUSH1 0x6E SWAP1 PUSH1 0x20 DUP6 ADD SWAP1 PUSH3 0x2462 JUMP JUMPDEST POP DUP1 MLOAD PUSH3 0x11EF SWAP1 PUSH1 0x6F SWAP1 PUSH1 0x20 DUP5 ADD SWAP1 PUSH3 0x2462 JUMP JUMPDEST POP PUSH1 0x71 SLOAD PUSH1 0x40 DUP1 MLOAD PUSH4 0xCE10B1FB PUSH1 0xE0 SHL DUP2 MSTORE SWAP1 MLOAD PUSH1 0x0 SWAP3 PUSH1 0x1 PUSH1 0x1 PUSH1 0xA0 SHL SUB AND SWAP2 PUSH4 0xCE10B1FB SWAP2 PUSH1 0x4 DUP1 DUP4 ADD SWAP3 DUP7 SWAP3 SWAP2 SWAP1 DUP3 SWAP1 SUB ADD DUP2 DUP7 DUP1 EXTCODESIZE ISZERO DUP1 ISZERO PUSH3 0x1235 JUMPI PUSH1 0x0 DUP1 REVERT JUMPDEST POP GAS STATICCALL ISZERO DUP1 ISZERO PUSH3 0x124A JUMPI RETURNDATASIZE PUSH1 0x0 DUP1 RETURNDATACOPY RETURNDATASIZE PUSH1 0x0 REVERT JUMPDEST POP POP POP POP PUSH1 0x40 MLOAD RETURNDATASIZE PUSH1 0x0 DUP3 RETURNDATACOPY PUSH1 0x1F RETURNDATASIZE SWAP1 DUP2 ADD PUSH1 0x1F NOT AND DUP3 ADD PUSH1 0x40 MSTORE PUSH3 0x1274 SWAP2 SWAP1 DUP2 ADD SWAP1 PUSH3 0x30CA JUMP JUMPDEST MLOAD GT PUSH3 0x12C4 JUMPI PUSH1 0x40 MLOAD PUSH3 0x461BCD PUSH1 0xE5 SHL DUP2 MSTORE PUSH1 0x20 PUSH1 0x4 DUP3 ADD MSTORE PUSH1 0x1B PUSH1 0x24 DUP3 ADD MSTORE PUSH32 0x4572726F72206665746368696E672072616E646F6D20776F7264730000000000 PUSH1 0x44 DUP3 ADD MSTORE PUSH1 0x64 ADD PUSH3 0x7D2 JUMP JUMPDEST PUSH1 0x71 SLOAD PUSH1 0x40 DUP1 MLOAD PUSH4 0xCE10B1FB PUSH1 0xE0 SHL DUP2 MSTORE SWAP1 MLOAD PUSH1 0x0 SWAP3 PUSH1 0x1 PUSH1 0x1 PUSH1 0xA0 SHL SUB AND SWAP2 PUSH4 0xCE10B1FB SWAP2 PUSH1 0x4 DUP1 DUP4 ADD SWAP3 DUP7 SWAP3 SWAP2 SWAP1 DUP3 SWAP1 SUB ADD DUP2 DUP7 DUP1 EXTCODESIZE ISZERO DUP1 ISZERO PUSH3 0x1309 JUMPI PUSH1 0x0 DUP1 REVERT JUMPDEST POP GAS STATICCALL ISZERO DUP1 ISZERO PUSH3 0x131E JUMPI RETURNDATASIZE PUSH1 0x0 DUP1 RETURNDATACOPY RETURNDATASIZE PUSH1 0x0 REVERT JUMPDEST POP POP POP POP PUSH1 0x40 MLOAD RETURNDATASIZE PUSH1 0x0 DUP3 RETURNDATACOPY PUSH1 0x1F RETURNDATASIZE SWAP1 DUP2 ADD PUSH1 0x1F NOT AND DUP3 ADD PUSH1 0x40 MSTORE PUSH3 0x1348 SWAP2 SWAP1 DUP2 ADD SWAP1 PUSH3 0x30CA JUMP JUMPDEST PUSH1 0x0 DUP2 MLOAD DUP2 LT PUSH3 0x135D JUMPI PUSH3 0x135D PUSH3 0x2F98 JUMP JUMPDEST PUSH1 0x20 MUL PUSH1 0x20 ADD ADD MLOAD SWAP1 POP PUSH1 0x71 PUSH1 0x0 SWAP1 SLOAD SWAP1 PUSH2 0x100 EXP SWAP1 DIV PUSH1 0x1 PUSH1 0x1 PUSH1 0xA0 SHL SUB AND PUSH1 0x1 PUSH1 0x1 PUSH1 0xA0 SHL SUB AND PUSH4 0xE0C86289 PUSH1 0x40 MLOAD DUP2 PUSH4 0xFFFFFFFF AND PUSH1 0xE0 SHL DUP2 MSTORE PUSH1 0x4 ADD PUSH1 0x0 PUSH1 0x40 MLOAD DUP1 DUP4 SUB DUP2 PUSH1 0x0 DUP8 DUP1 EXTCODESIZE ISZERO DUP1 ISZERO PUSH3 0x13B8 JUMPI PUSH1 0x0 DUP1 REVERT JUMPDEST POP GAS CALL ISZERO DUP1 ISZERO PUSH3 0x13CD JUMPI RETURNDATASIZE PUSH1 0x0 DUP1 RETURNDATACOPY RETURNDATASIZE PUSH1 0x0 REVERT JUMPDEST POP POP POP POP PUSH1 0x71 PUSH1 0x0 SWAP1 SLOAD SWAP1 PUSH2 0x100 EXP SWAP1 DIV PUSH1 0x1 PUSH1 0x1 PUSH1 0xA0 SHL SUB AND PUSH1 0x1 PUSH1 0x1 PUSH1 0xA0 SHL SUB AND PUSH4 0xCE10B1FB PUSH1 0x40 MLOAD DUP2 PUSH4 0xFFFFFFFF AND PUSH1 0xE0 SHL DUP2 MSTORE PUSH1 0x4 ADD PUSH1 0x0 PUSH1 0x40 MLOAD DUP1 DUP4 SUB DUP2 DUP7 DUP1 EXTCODESIZE ISZERO DUP1 ISZERO PUSH3 0x1420 JUMPI PUSH1 0x0 DUP1 REVERT JUMPDEST POP GAS STATICCALL ISZERO DUP1 ISZERO PUSH3 0x1435 JUMPI RETURNDATASIZE PUSH1 0x0 DUP1 RETURNDATACOPY RETURNDATASIZE PUSH1 0x0 REVERT JUMPDEST POP POP POP POP PUSH1 0x40 MLOAD RETURNDATASIZE PUSH1 0x0 DUP3 RETURNDATACOPY PUSH1 0x1F RETURNDATASIZE SWAP1 DUP2 ADD PUSH1 0x1F NOT AND DUP3 ADD PUSH1 0x40 MSTORE PUSH3 0x145F SWAP2 SWAP1 DUP2 ADD SWAP1 PUSH3 0x30CA JUMP JUMPDEST PUSH1 0x0 DUP2 MLOAD DUP2 LT PUSH3 0x1474 JUMPI PUSH3 0x1474 PUSH3 0x2F98 JUMP JUMPDEST PUSH1 0x20 MUL PUSH1 0x20 ADD ADD MLOAD DUP2 EQ ISZERO PUSH3 0x14CD JUMPI PUSH1 0x40 MLOAD PUSH3 0x461BCD PUSH1 0xE5 SHL DUP2 MSTORE PUSH1 0x20 PUSH1 0x4 DUP3 ADD MSTORE PUSH1 0x18 PUSH1 0x24 DUP3 ADD MSTORE PUSH32 0x52616E646F6D20776F726473206E6F7420757064617465640000000000000000 PUSH1 0x44 DUP3 ADD MSTORE PUSH1 0x64 ADD PUSH3 0x7D2 JUMP JUMPDEST PUSH1 0x71 SLOAD PUSH1 0x40 DUP1 MLOAD PUSH4 0xCE10B1FB PUSH1 0xE0 SHL DUP2 MSTORE SWAP1 MLOAD PUSH1 0x0 SWAP3 PUSH1 0x1 PUSH1 0x1 PUSH1 0xA0 SHL SUB AND SWAP2 PUSH4 0xCE10B1FB SWAP2 PUSH1 0x4 DUP1 DUP4 ADD SWAP3 DUP7 SWAP3 SWAP2 SWAP1 DUP3 SWAP1 SUB ADD DUP2 DUP7 DUP1 EXTCODESIZE ISZERO DUP1 ISZERO PUSH3 0x1512 JUMPI PUSH1 0x0 DUP1 REVERT JUMPDEST POP GAS STATICCALL ISZERO DUP1 ISZERO PUSH3 0x1527 JUMPI RETURNDATASIZE PUSH1 0x0 DUP1 RETURNDATACOPY RETURNDATASIZE PUSH1 0x0 REVERT JUMPDEST POP POP POP POP PUSH1 0x40 MLOAD RETURNDATASIZE PUSH1 0x0 DUP3 RETURNDATACOPY PUSH1 0x1F RETURNDATASIZE SWAP1 DUP2 ADD PUSH1 0x1F NOT AND DUP3 ADD PUSH1 0x40 MSTORE PUSH3 0x1551 SWAP2 SWAP1 DUP2 ADD SWAP1 PUSH3 0x30CA JUMP JUMPDEST MLOAD SWAP1 POP PUSH1 0x0 JUMPDEST DUP2 DUP2 LT ISZERO PUSH3 0x1657 JUMPI PUSH1 0x71 SLOAD PUSH1 0x40 DUP1 MLOAD PUSH4 0xCE10B1FB PUSH1 0xE0 SHL DUP2 MSTORE SWAP1 MLOAD PUSH1 0x0 SWAP3 PUSH1 0x1 PUSH1 0x1 PUSH1 0xA0 SHL SUB AND SWAP2 PUSH4 0xCE10B1FB SWAP2 PUSH1 0x4 DUP1 DUP4 ADD SWAP3 DUP7 SWAP3 SWAP2 SWAP1 DUP3 SWAP1 SUB ADD DUP2 DUP7 DUP1 EXTCODESIZE ISZERO DUP1 ISZERO PUSH3 0x15A5 JUMPI PUSH1 0x0 DUP1 REVERT JUMPDEST POP GAS STATICCALL ISZERO DUP1 ISZERO PUSH3 0x15BA JUMPI RETURNDATASIZE PUSH1 0x0 DUP1 RETURNDATACOPY RETURNDATASIZE PUSH1 0x0 REVERT JUMPDEST POP POP POP POP PUSH1 0x40 MLOAD RETURNDATASIZE PUSH1 0x0 DUP3 RETURNDATACOPY PUSH1 0x1F RETURNDATASIZE SWAP1 DUP2 ADD PUSH1 0x1F NOT AND DUP3 ADD PUSH1 0x40 MSTORE PUSH3 0x15E4 SWAP2 SWAP1 DUP2 ADD SWAP1 PUSH3 0x30CA JUMP JUMPDEST DUP3 DUP2 MLOAD DUP2 LT PUSH3 0x15F8 JUMPI PUSH3 0x15F8 PUSH3 0x2F98 JUMP JUMPDEST PUSH1 0x20 MUL PUSH1 0x20 ADD ADD MLOAD SWAP1 POP PUSH1 0x0 DUP2 PUSH1 0x40 MLOAD PUSH1 0x20 ADD PUSH3 0x1618 SWAP2 DUP2 MSTORE PUSH1 0x20 ADD SWAP1 JUMP JUMPDEST PUSH1 0x40 MLOAD PUSH1 0x20 DUP2 DUP4 SUB SUB DUP2 MSTORE SWAP1 PUSH1 0x40 MSTORE DUP1 MLOAD SWAP1 PUSH1 0x20 ADD KECCAK256 SWAP1 POP PUSH1 0x0 PUSH3 0x163E DUP3 DUP3 PUSH3 0x108B JUMP JUMPDEST POP POP POP DUP1 DUP1 PUSH3 0x164E SWAP1 PUSH3 0x3163 JUMP JUMPDEST SWAP2 POP POP PUSH3 0x1557 JUMP JUMPDEST POP DUP5 PUSH32 0x7BAB0EC163B5C132C72B8146AC4D6E067E82ED58F8B131150AA71C9258911562 DUP6 DUP6 PUSH1 0x40 MLOAD PUSH3 0x168C SWAP3 SWAP2 SWAP1 PUSH3 0x3181 JUMP JUMPDEST PUSH1 0x40 MLOAD DUP1 SWAP2 SUB SWAP1 LOG2 POP POP POP POP POP JUMP JUMPDEST DUP1 MLOAD PUSH3 0x16BB JUMPI PUSH1 0x40 MLOAD PUSH4 0x22CE3EDD PUSH1 0xE0 SHL DUP2 MSTORE PUSH1 0x4 ADD PUSH1 0x40 MLOAD DUP1 SWAP2 SUB SWAP1 REVERT JUMPDEST DUP4 DUP4 PUSH1 0x1 DUP2 GT ISZERO PUSH3 0x16D1 JUMPI PUSH3 0x16D1 PUSH3 0x2E1A JUMP JUMPDEST SWAP1 DUP2 PUSH1 0x1 DUP2 GT ISZERO PUSH3 0x16E7 JUMPI PUSH3 0x16E7 PUSH3 0x2E1A JUMP JUMPDEST SWAP1 MSTORE POP PUSH1 0x40 DUP5 ADD DUP3 DUP1 ISZERO PUSH3 0x1700 JUMPI PUSH3 0x1700 PUSH3 0x2E1A JUMP JUMPDEST SWAP1 DUP2 DUP1 ISZERO PUSH3 0x1713 JUMPI PUSH3 0x1713 PUSH3 0x2E1A JUMP JUMPDEST SWAP1 MSTORE POP PUSH1 0x60 SWAP1 SWAP4 ADD SWAP3 SWAP1 SWAP3 MSTORE POP POP JUMP JUMPDEST DUP1 MLOAD PUSH3 0x1743 JUMPI PUSH1 0x40 MLOAD PUSH4 0xE889636F PUSH1 0xE0 SHL DUP2 MSTORE PUSH1 0x4 ADD PUSH1 0x40 MLOAD DUP1 SWAP2 SUB SWAP1 REVERT JUMPDEST PUSH1 0x20 DUP3 ADD PUSH1 0x0 JUMPDEST SWAP1 DUP2 PUSH1 0x1 DUP2 GT ISZERO PUSH3 0x1760 JUMPI PUSH3 0x1760 PUSH3 0x2E1A JUMP JUMPDEST SWAP1 MSTORE POP PUSH1 0x80 SWAP1 SWAP2 ADD MSTORE JUMP JUMPDEST DUP1 MLOAD PUSH3 0x178B JUMPI PUSH1 0x40 MLOAD PUSH4 0xE889636F PUSH1 0xE0 SHL DUP2 MSTORE PUSH1 0x4 ADD PUSH1 0x40 MLOAD DUP1 SWAP2 SUB SWAP1 REVERT JUMPDEST PUSH1 0x20 DUP3 ADD PUSH1 0x1 PUSH3 0x174A JUMP JUMPDEST DUP1 MLOAD PUSH3 0x17B7 JUMPI PUSH1 0x40 MLOAD PUSH4 0xFE936CB7 PUSH1 0xE0 SHL DUP2 MSTORE PUSH1 0x4 ADD PUSH1 0x40 MLOAD DUP1 SWAP2 SUB SWAP1 REVERT JUMPDEST PUSH1 0xA0 SWAP1 SWAP2 ADD MSTORE JUMP JUMPDEST PUSH1 0x0 DUP1 SLOAD DUP2 SWAP1 PUSH1 0x1 PUSH1 0x1 PUSH1 0xA0 SHL SUB AND PUSH4 0x28242B04 DUP6 PUSH3 0x17DF DUP9 PUSH3 0x1999 JUMP JUMPDEST DUP7 PUSH1 0x40 MLOAD DUP5 PUSH4 0xFFFFFFFF AND PUSH1 0xE0 SHL DUP2 MSTORE PUSH1 0x4 ADD PUSH3 0x1800 SWAP4 SWAP3 SWAP2 SWAP1 PUSH3 0x31AA JUMP JUMPDEST PUSH1 0x20 PUSH1 0x40 MLOAD DUP1 DUP4 SUB DUP2 PUSH1 0x0 DUP8 DUP1 EXTCODESIZE ISZERO DUP1 ISZERO PUSH3 0x181B JUMPI PUSH1 0x0 DUP1 REVERT JUMPDEST POP GAS CALL ISZERO DUP1 ISZERO PUSH3 0x1830 JUMPI RETURNDATASIZE PUSH1 0x0 DUP1 RETURNDATACOPY RETURNDATASIZE PUSH1 0x0 REVERT JUMPDEST POP POP POP POP PUSH1 0x40 MLOAD RETURNDATASIZE PUSH1 0x1F NOT PUSH1 0x1F DUP3 ADD AND DUP3 ADD DUP1 PUSH1 0x40 MSTORE POP DUP2 ADD SWAP1 PUSH3 0x1856 SWAP2 SWAP1 PUSH3 0x2F47 JUMP JUMPDEST SWAP1 POP PUSH1 0x0 DUP1 SLOAD SWAP1 PUSH2 0x100 EXP SWAP1 DIV PUSH1 0x1 PUSH1 0x1 PUSH1 0xA0 SHL SUB AND PUSH1 0x1 PUSH1 0x1 PUSH1 0xA0 SHL SUB AND PUSH4 0x5AB1BD53 PUSH1 0x40 MLOAD DUP2 PUSH4 0xFFFFFFFF AND PUSH1 0xE0 SHL DUP2 MSTORE PUSH1 0x4 ADD PUSH1 0x20 PUSH1 0x40 MLOAD DUP1 DUP4 SUB DUP2 DUP7 DUP1 EXTCODESIZE ISZERO DUP1 ISZERO PUSH3 0x18A5 JUMPI PUSH1 0x0 DUP1 REVERT JUMPDEST POP GAS STATICCALL ISZERO DUP1 ISZERO PUSH3 0x18BA JUMPI RETURNDATASIZE PUSH1 0x0 DUP1 RETURNDATACOPY RETURNDATASIZE PUSH1 0x0 REVERT JUMPDEST POP POP POP POP PUSH1 0x40 MLOAD RETURNDATASIZE PUSH1 0x1F NOT PUSH1 0x1F DUP3 ADD AND DUP3 ADD DUP1 PUSH1 0x40 MSTORE POP DUP2 ADD SWAP1 PUSH3 0x18E0 SWAP2 SWAP1 PUSH3 0x31E4 JUMP JUMPDEST PUSH1 0x0 DUP3 DUP2 MSTORE PUSH1 0x1 PUSH1 0x20 MSTORE PUSH1 0x40 DUP1 DUP3 KECCAK256 DUP1 SLOAD PUSH1 0x1 PUSH1 0x1 PUSH1 0xA0 SHL SUB NOT AND PUSH1 0x1 PUSH1 0x1 PUSH1 0xA0 SHL SUB SWAP5 SWAP1 SWAP5 AND SWAP4 SWAP1 SWAP4 OR SWAP1 SWAP3 SSTORE SWAP1 MLOAD DUP3 SWAP2 PUSH32 0x1131472297A800FEE664D1D89CFA8F7676FF07189ECC53F80BBB5F4969099DB8 SWAP2 LOG2 SWAP5 SWAP4 POP POP POP POP JUMP JUMPDEST PUSH1 0x2 PUSH1 0x6C SLOAD EQ ISZERO PUSH3 0x1992 JUMPI PUSH1 0x40 MLOAD PUSH3 0x461BCD PUSH1 0xE5 SHL DUP2 MSTORE PUSH1 0x20 PUSH1 0x4 DUP3 ADD MSTORE PUSH1 0x1F PUSH1 0x24 DUP3 ADD MSTORE PUSH32 0x5265656E7472616E637947756172643A207265656E7472616E742063616C6C00 PUSH1 0x44 DUP3 ADD MSTORE PUSH1 0x64 ADD PUSH3 0x7D2 JUMP JUMPDEST PUSH1 0x2 PUSH1 0x6C SSTORE JUMP JUMPDEST PUSH1 0x60 PUSH3 0x19B9 PUSH1 0x40 MLOAD DUP1 PUSH1 0x40 ADD PUSH1 0x40 MSTORE DUP1 PUSH1 0x60 DUP2 MSTORE PUSH1 0x20 ADD PUSH1 0x0 DUP2 MSTORE POP SWAP1 JUMP JUMPDEST PUSH3 0x19C7 DUP2 PUSH2 0x100 PUSH3 0x1F74 JUMP JUMPDEST POP PUSH1 0x40 DUP1 MLOAD DUP1 DUP3 ADD SWAP1 SWAP2 MSTORE PUSH1 0xC DUP2 MSTORE PUSH12 0x31B7B232A637B1B0BA34B7B7 PUSH1 0xA1 SHL PUSH1 0x20 DUP3 ADD MSTORE PUSH3 0x19F8 SWAP1 DUP3 SWAP1 PUSH3 0x1FE2 JUMP JUMPDEST DUP3 MLOAD PUSH3 0x1A1B SWAP1 PUSH1 0x1 DUP2 GT ISZERO PUSH3 0x1A13 JUMPI PUSH3 0x1A13 PUSH3 0x2E1A JUMP JUMPDEST DUP3 SWAP1 PUSH3 0x2002 JUMP JUMPDEST PUSH1 0x40 DUP1 MLOAD DUP1 DUP3 ADD SWAP1 SWAP2 MSTORE PUSH1 0x8 DUP2 MSTORE PUSH8 0x6C616E6775616765 PUSH1 0xC0 SHL PUSH1 0x20 DUP3 ADD MSTORE PUSH3 0x1A47 SWAP1 DUP3 SWAP1 PUSH3 0x1FE2 JUMP JUMPDEST PUSH1 0x40 DUP4 ADD MLOAD PUSH3 0x1A62 SWAP1 DUP1 ISZERO PUSH3 0x1A13 JUMPI PUSH3 0x1A13 PUSH3 0x2E1A JUMP JUMPDEST PUSH1 0x40 DUP1 MLOAD DUP1 DUP3 ADD SWAP1 SWAP2 MSTORE PUSH1 0x6 DUP2 MSTORE PUSH6 0x736F75726365 PUSH1 0xD0 SHL PUSH1 0x20 DUP3 ADD MSTORE PUSH3 0x1A8C SWAP1 DUP3 SWAP1 PUSH3 0x1FE2 JUMP JUMPDEST PUSH1 0x60 DUP4 ADD MLOAD PUSH3 0x1A9E SWAP1 DUP3 SWAP1 PUSH3 0x1FE2 JUMP JUMPDEST PUSH1 0xA0 DUP4 ADD MLOAD MLOAD ISZERO PUSH3 0x1B44 JUMPI PUSH1 0x40 DUP1 MLOAD DUP1 DUP3 ADD SWAP1 SWAP2 MSTORE PUSH1 0x4 DUP2 MSTORE PUSH4 0x61726773 PUSH1 0xE0 SHL PUSH1 0x20 DUP3 ADD MSTORE PUSH3 0x1AD2 SWAP1 DUP3 SWAP1 PUSH3 0x1FE2 JUMP JUMPDEST PUSH3 0x1ADD DUP2 PUSH3 0x202C JUMP JUMPDEST PUSH1 0x0 JUMPDEST DUP4 PUSH1 0xA0 ADD MLOAD MLOAD DUP2 LT ISZERO PUSH3 0x1B38 JUMPI PUSH3 0x1B23 DUP5 PUSH1 0xA0 ADD MLOAD DUP3 DUP2 MLOAD DUP2 LT PUSH3 0x1B0B JUMPI PUSH3 0x1B0B PUSH3 0x2F98 JUMP JUMPDEST PUSH1 0x20 MUL PUSH1 0x20 ADD ADD MLOAD DUP4 PUSH3 0x1FE2 SWAP1 SWAP2 SWAP1 PUSH4 0xFFFFFFFF AND JUMP JUMPDEST DUP1 PUSH3 0x1B2F DUP2 PUSH3 0x3163 JUMP JUMPDEST SWAP2 POP POP PUSH3 0x1AE0 JUMP JUMPDEST POP PUSH3 0x1B44 DUP2 PUSH3 0x2039 JUMP JUMPDEST PUSH1 0x80 DUP4 ADD MLOAD MLOAD ISZERO PUSH3 0x1BDD JUMPI PUSH1 0x40 DUP1 MLOAD DUP1 DUP3 ADD SWAP1 SWAP2 MSTORE PUSH1 0xF DUP2 MSTORE PUSH15 0x39B2B1B932BA39A637B1B0BA34B7B7 PUSH1 0x89 SHL PUSH1 0x20 DUP3 ADD MSTORE PUSH3 0x1B83 SWAP1 DUP3 SWAP1 PUSH3 0x1FE2 JUMP JUMPDEST PUSH3 0x1BA0 DUP4 PUSH1 0x20 ADD MLOAD PUSH1 0x1 DUP2 GT ISZERO PUSH3 0x1A13 JUMPI PUSH3 0x1A13 PUSH3 0x2E1A JUMP JUMPDEST PUSH1 0x40 DUP1 MLOAD DUP1 DUP3 ADD SWAP1 SWAP2 MSTORE PUSH1 0x7 DUP2 MSTORE PUSH7 0x73656372657473 PUSH1 0xC8 SHL PUSH1 0x20 DUP3 ADD MSTORE PUSH3 0x1BCB SWAP1 DUP3 SWAP1 PUSH3 0x1FE2 JUMP JUMPDEST PUSH1 0x80 DUP4 ADD MLOAD PUSH3 0x1BDD SWAP1 DUP3 SWAP1 PUSH3 0x2046 JUMP JUMPDEST MLOAD SWAP3 SWAP2 POP POP JUMP JUMPDEST PUSH1 0x7 SLOAD PUSH1 0x0 SWAP1 PUSH5 0x100000000 SWAP1 DIV PUSH4 0xFFFFFFFF AND PUSH3 0x1C25 PUSH32 0x0 PUSH1 0x2 PUSH3 0x3416 JUMP JUMPDEST PUSH4 0xFFFFFFFF AND DUP2 PUSH4 0xFFFFFFFF AND EQ ISZERO PUSH3 0x1C9A JUMPI PUSH1 0x40 MLOAD PUSH3 0x461BCD PUSH1 0xE5 SHL DUP2 MSTORE PUSH1 0x20 PUSH1 0x4 DUP3 ADD MSTORE PUSH1 0x2F PUSH1 0x24 DUP3 ADD MSTORE PUSH32 0x4D65726B6C6520747265652069732066756C6C2E204E6F206D6F7265206C6561 PUSH1 0x44 DUP3 ADD MSTORE PUSH15 0x199CC818D85B881899481859191959 PUSH1 0x8A SHL PUSH1 0x64 DUP3 ADD MSTORE PUSH1 0x84 ADD PUSH3 0x7D2 JUMP JUMPDEST PUSH1 0x1 PUSH1 0x7 PUSH1 0x4 DUP3 DUP3 DUP3 SWAP1 SLOAD SWAP1 PUSH2 0x100 EXP SWAP1 DIV PUSH4 0xFFFFFFFF AND PUSH3 0x1CBE SWAP2 SWAP1 PUSH3 0x342D JUMP JUMPDEST SWAP3 POP PUSH2 0x100 EXP DUP2 SLOAD DUP2 PUSH4 0xFFFFFFFF MUL NOT AND SWAP1 DUP4 PUSH4 0xFFFFFFFF AND MUL OR SWAP1 SSTORE POP PUSH1 0x0 DUP4 SWAP1 POP PUSH1 0x0 DUP1 PUSH1 0x0 JUMPDEST PUSH32 0x0 PUSH4 0xFFFFFFFF AND DUP2 PUSH4 0xFFFFFFFF AND LT ISZERO PUSH3 0x1DEE JUMPI PUSH3 0x1D29 PUSH1 0x2 DUP7 PUSH3 0x346E JUMP JUMPDEST PUSH4 0xFFFFFFFF AND PUSH3 0x1D8F JUMPI DUP4 SWAP3 POP PUSH1 0x6 DUP2 PUSH4 0xFFFFFFFF AND DUP2 SLOAD DUP2 LT PUSH3 0x1D53 JUMPI PUSH3 0x1D53 PUSH3 0x2F98 JUMP JUMPDEST SWAP1 PUSH1 0x0 MSTORE PUSH1 0x20 PUSH1 0x0 KECCAK256 ADD SLOAD SWAP2 POP DUP4 PUSH1 0x5 DUP3 PUSH4 0xFFFFFFFF AND DUP2 SLOAD DUP2 LT PUSH3 0x1D7D JUMPI PUSH3 0x1D7D PUSH3 0x2F98 JUMP JUMPDEST PUSH1 0x0 SWAP2 DUP3 MSTORE PUSH1 0x20 SWAP1 SWAP2 KECCAK256 ADD SSTORE PUSH3 0x1DBC JUMP JUMPDEST PUSH1 0x5 DUP2 PUSH4 0xFFFFFFFF AND DUP2 SLOAD DUP2 LT PUSH3 0x1DAB JUMPI PUSH3 0x1DAB PUSH3 0x2F98 JUMP JUMPDEST SWAP1 PUSH1 0x0 MSTORE PUSH1 0x20 PUSH1 0x0 KECCAK256 ADD SLOAD SWAP3 POP DUP4 SWAP2 POP JUMPDEST PUSH3 0x1DC8 DUP4 DUP4 PUSH3 0x9B2 JUMP JUMPDEST SWAP4 POP PUSH3 0x1DD7 PUSH1 0x2 DUP7 PUSH3 0x3494 JUMP JUMPDEST SWAP5 POP DUP1 PUSH3 0x1DE5 DUP2 PUSH3 0x34BA JUMP JUMPDEST SWAP2 POP POP PUSH3 0x1CE7 JUMP JUMPDEST POP PUSH1 0x7 SLOAD PUSH1 0x64 SWAP1 PUSH3 0x1E08 SWAP1 PUSH4 0xFFFFFFFF AND PUSH1 0x1 PUSH3 0x342D JUMP JUMPDEST PUSH3 0x1E14 SWAP2 SWAP1 PUSH3 0x346E JUMP JUMPDEST PUSH1 0x7 DUP1 SLOAD PUSH4 0xFFFFFFFF NOT AND PUSH4 0xFFFFFFFF SWAP3 SWAP1 SWAP3 AND SWAP2 DUP3 OR SWAP1 SSTORE DUP4 SWAP1 PUSH1 0x8 SWAP1 PUSH1 0x64 DUP2 LT PUSH3 0x1E45 JUMPI PUSH3 0x1E45 PUSH3 0x2F98 JUMP JUMPDEST ADD SSTORE PUSH1 0x7 SLOAD PUSH3 0x1E66 SWAP1 PUSH1 0x1 SWAP1 PUSH5 0x100000000 SWAP1 DIV PUSH4 0xFFFFFFFF AND PUSH3 0x34E1 JUMP JUMPDEST SWAP7 SWAP6 POP POP POP POP POP POP JUMP JUMPDEST PUSH1 0x2 SLOAD PUSH1 0x1 PUSH1 0x1 PUSH1 0xA0 SHL SUB AND CALLER EQ PUSH3 0x1EC5 JUMPI PUSH1 0x40 MLOAD PUSH3 0x461BCD PUSH1 0xE5 SHL DUP2 MSTORE PUSH1 0x20 PUSH1 0x4 DUP3 ADD MSTORE PUSH1 0x16 PUSH1 0x24 DUP3 ADD MSTORE PUSH22 0x27B7363C9031B0B63630B1363290313C9037BBB732B9 PUSH1 0x51 SHL PUSH1 0x44 DUP3 ADD MSTORE PUSH1 0x64 ADD PUSH3 0x7D2 JUMP JUMPDEST JUMP JUMPDEST PUSH1 0x1 PUSH1 0x1 PUSH1 0xA0 SHL SUB DUP2 AND CALLER EQ ISZERO PUSH3 0x1F22 JUMPI PUSH1 0x40 MLOAD PUSH3 0x461BCD PUSH1 0xE5 SHL DUP2 MSTORE PUSH1 0x20 PUSH1 0x4 DUP3 ADD MSTORE PUSH1 0x17 PUSH1 0x24 DUP3 ADD MSTORE PUSH32 0x43616E6E6F74207472616E7366657220746F2073656C66000000000000000000 PUSH1 0x44 DUP3 ADD MSTORE PUSH1 0x64 ADD PUSH3 0x7D2 JUMP JUMPDEST PUSH1 0x3 DUP1 SLOAD PUSH1 0x1 PUSH1 0x1 PUSH1 0xA0 SHL SUB NOT AND PUSH1 0x1 PUSH1 0x1 PUSH1 0xA0 SHL SUB DUP4 DUP2 AND SWAP2 DUP3 OR SWAP1 SWAP3 SSTORE PUSH1 0x2 SLOAD PUSH1 0x40 MLOAD SWAP2 SWAP3 AND SWAP1 PUSH32 0xED8889F560326EB138920D842192F0EB3DD22B4F139C87A2C57538E05BAE1278 SWAP1 PUSH1 0x0 SWAP1 LOG3 POP JUMP JUMPDEST PUSH1 0x40 DUP1 MLOAD DUP1 DUP3 ADD SWAP1 SWAP2 MSTORE PUSH1 0x60 DUP2 MSTORE PUSH1 0x0 PUSH1 0x20 DUP3 ADD MSTORE PUSH3 0x1F96 PUSH1 0x20 DUP4 PUSH3 0x3509 JUMP JUMPDEST ISZERO PUSH3 0x1FC5 JUMPI PUSH3 0x1FA9 PUSH1 0x20 DUP4 PUSH3 0x3509 JUMP JUMPDEST PUSH3 0x1FB6 SWAP1 PUSH1 0x20 PUSH3 0x3520 JUMP JUMPDEST PUSH3 0x1FC2 SWAP1 DUP4 PUSH3 0x353A JUMP JUMPDEST SWAP2 POP JUMPDEST POP PUSH1 0x20 DUP3 DUP2 ADD DUP3 SWAP1 MSTORE PUSH1 0x40 DUP1 MLOAD DUP1 DUP6 MSTORE PUSH1 0x0 DUP2 MSTORE SWAP1 SWAP3 ADD ADD SWAP1 MSTORE SWAP1 JUMP JUMPDEST PUSH3 0x1FF1 DUP3 PUSH1 0x3 DUP4 MLOAD PUSH3 0x2050 JUMP JUMPDEST PUSH3 0x1FFD DUP3 DUP3 PUSH3 0x216D JUMP JUMPDEST POP POP POP JUMP JUMPDEST PUSH1 0x1 PUSH1 0x1 PUSH1 0x40 SHL SUB DUP2 GT ISZERO PUSH3 0x201E JUMPI PUSH3 0x1188 DUP3 DUP3 PUSH3 0x219D JUMP JUMPDEST PUSH3 0x1188 DUP3 PUSH1 0x0 DUP4 PUSH3 0x2050 JUMP JUMPDEST PUSH3 0x11B2 DUP2 PUSH1 0x4 PUSH3 0x21D9 JUMP JUMPDEST PUSH3 0x11B2 DUP2 PUSH1 0x7 PUSH3 0x21D9 JUMP JUMPDEST PUSH3 0x1FF1 DUP3 PUSH1 0x2 DUP4 MLOAD JUMPDEST PUSH1 0x17 DUP2 PUSH1 0x1 PUSH1 0x1 PUSH1 0x40 SHL SUB AND GT PUSH3 0x2077 JUMPI PUSH3 0x5F1 DUP4 PUSH1 0xE0 PUSH1 0x5 DUP6 SWAP1 SHL AND DUP4 OR PUSH3 0x21EB JUMP JUMPDEST PUSH1 0xFF DUP2 PUSH1 0x1 PUSH1 0x1 PUSH1 0x40 SHL SUB AND GT PUSH3 0x20B8 JUMPI PUSH3 0x20A0 DUP4 PUSH1 0x18 PUSH2 0x1FE0 PUSH1 0x5 DUP7 SWAP1 SHL AND OR PUSH3 0x21EB JUMP JUMPDEST POP PUSH3 0x5F1 DUP4 PUSH1 0x1 PUSH1 0x1 PUSH1 0x40 SHL SUB DUP4 AND PUSH1 0x1 PUSH3 0x2212 JUMP JUMPDEST PUSH2 0xFFFF DUP2 PUSH1 0x1 PUSH1 0x1 PUSH1 0x40 SHL SUB AND GT PUSH3 0x20FA JUMPI PUSH3 0x20E2 DUP4 PUSH1 0x19 PUSH2 0x1FE0 PUSH1 0x5 DUP7 SWAP1 SHL AND OR PUSH3 0x21EB JUMP JUMPDEST POP PUSH3 0x5F1 DUP4 PUSH1 0x1 PUSH1 0x1 PUSH1 0x40 SHL SUB DUP4 AND PUSH1 0x2 PUSH3 0x2212 JUMP JUMPDEST PUSH4 0xFFFFFFFF DUP2 PUSH1 0x1 PUSH1 0x1 PUSH1 0x40 SHL SUB AND GT PUSH3 0x213E JUMPI PUSH3 0x2126 DUP4 PUSH1 0x1A PUSH2 0x1FE0 PUSH1 0x5 DUP7 SWAP1 SHL AND OR PUSH3 0x21EB JUMP JUMPDEST POP PUSH3 0x5F1 DUP4 PUSH1 0x1 PUSH1 0x1 PUSH1 0x40 SHL SUB DUP4 AND PUSH1 0x4 PUSH3 0x2212 JUMP JUMPDEST PUSH3 0x2155 DUP4 PUSH1 0x1B PUSH2 0x1FE0 PUSH1 0x5 DUP7 SWAP1 SHL AND OR PUSH3 0x21EB JUMP JUMPDEST POP PUSH3 0x5F1 DUP4 PUSH1 0x1 PUSH1 0x1 PUSH1 0x40 SHL SUB DUP4 AND PUSH1 0x8 PUSH3 0x2212 JUMP JUMPDEST PUSH1 0x40 DUP1 MLOAD DUP1 DUP3 ADD SWAP1 SWAP2 MSTORE PUSH1 0x60 DUP2 MSTORE PUSH1 0x0 PUSH1 0x20 DUP3 ADD MSTORE PUSH3 0x2196 DUP4 DUP5 PUSH1 0x0 ADD MLOAD MLOAD DUP5 DUP6 MLOAD PUSH3 0x2242 JUMP JUMPDEST SWAP4 SWAP3 POP POP POP JUMP JUMPDEST PUSH3 0x21AA DUP3 PUSH1 0xC2 PUSH3 0x21EB JUMP JUMPDEST POP PUSH3 0x1188 DUP3 DUP3 PUSH1 0x40 MLOAD PUSH1 0x20 ADD PUSH3 0x21C4 SWAP2 DUP2 MSTORE PUSH1 0x20 ADD SWAP1 JUMP JUMPDEST PUSH1 0x40 MLOAD PUSH1 0x20 DUP2 DUP4 SUB SUB DUP2 MSTORE SWAP1 PUSH1 0x40 MSTORE PUSH3 0x2046 JUMP JUMPDEST PUSH3 0x1FFD DUP3 PUSH1 0x1F PUSH2 0x1FE0 PUSH1 0x5 DUP6 SWAP1 SHL AND OR JUMPDEST PUSH1 0x40 DUP1 MLOAD DUP1 DUP3 ADD SWAP1 SWAP2 MSTORE PUSH1 0x60 DUP2 MSTORE PUSH1 0x0 PUSH1 0x20 DUP3 ADD MSTORE PUSH3 0x2196 DUP4 DUP5 PUSH1 0x0 ADD MLOAD MLOAD DUP5 PUSH3 0x2341 JUMP JUMPDEST PUSH1 0x40 DUP1 MLOAD DUP1 DUP3 ADD SWAP1 SWAP2 MSTORE PUSH1 0x60 DUP2 MSTORE PUSH1 0x0 PUSH1 0x20 DUP3 ADD MSTORE PUSH3 0x223A DUP5 DUP6 PUSH1 0x0 ADD MLOAD MLOAD DUP6 DUP6 PUSH3 0x23A2 JUMP JUMPDEST SWAP5 SWAP4 POP POP POP POP JUMP JUMPDEST PUSH1 0x40 DUP1 MLOAD DUP1 DUP3 ADD SWAP1 SWAP2 MSTORE PUSH1 0x60 DUP2 MSTORE PUSH1 0x0 PUSH1 0x20 DUP3 ADD MSTORE DUP3 MLOAD DUP3 GT ISZERO PUSH3 0x2266 JUMPI PUSH1 0x0 DUP1 REVERT JUMPDEST PUSH1 0x20 DUP6 ADD MLOAD PUSH3 0x2277 DUP4 DUP7 PUSH3 0x353A JUMP JUMPDEST GT ISZERO PUSH3 0x22B3 JUMPI PUSH3 0x22B3 DUP6 PUSH3 0x22A0 DUP8 PUSH1 0x20 ADD MLOAD DUP8 DUP7 PUSH3 0x229A SWAP2 SWAP1 PUSH3 0x353A JUMP JUMPDEST PUSH3 0x242E JUMP JUMPDEST PUSH3 0x22AD SWAP1 PUSH1 0x2 PUSH3 0x3555 JUMP JUMPDEST PUSH3 0x2447 JUMP JUMPDEST PUSH1 0x0 DUP1 DUP7 MLOAD DUP1 MLOAD DUP8 PUSH1 0x20 DUP4 ADD ADD SWAP4 POP DUP1 DUP9 DUP8 ADD GT ISZERO PUSH3 0x22D3 JUMPI DUP8 DUP7 ADD DUP3 MSTORE JUMPDEST POP POP POP PUSH1 0x20 DUP5 ADD JUMPDEST PUSH1 0x20 DUP5 LT PUSH3 0x231B JUMPI DUP1 MLOAD DUP3 MSTORE PUSH3 0x22F5 PUSH1 0x20 DUP4 PUSH3 0x353A JUMP JUMPDEST SWAP2 POP PUSH3 0x2304 PUSH1 0x20 DUP3 PUSH3 0x353A JUMP JUMPDEST SWAP1 POP PUSH3 0x2313 PUSH1 0x20 DUP6 PUSH3 0x3520 JUMP JUMPDEST SWAP4 POP PUSH3 0x22DB JUMP JUMPDEST MLOAD DUP2 MLOAD PUSH1 0x0 NOT PUSH1 0x20 DUP7 SWAP1 SUB PUSH2 0x100 EXP ADD SWAP1 DUP2 AND SWAP1 NOT SWAP2 SWAP1 SWAP2 AND OR SWAP1 MSTORE POP DUP4 SWAP5 SWAP4 POP POP POP POP JUMP JUMPDEST PUSH1 0x40 DUP1 MLOAD DUP1 DUP3 ADD SWAP1 SWAP2 MSTORE PUSH1 0x60 DUP2 MSTORE PUSH1 0x0 PUSH1 0x20 DUP3 ADD MSTORE DUP4 PUSH1 0x20 ADD MLOAD DUP4 LT PUSH3 0x237A JUMPI PUSH3 0x237A DUP5 DUP6 PUSH1 0x20 ADD MLOAD PUSH1 0x2 PUSH3 0x22AD SWAP2 SWAP1 PUSH3 0x3555 JUMP JUMPDEST DUP4 MLOAD DUP1 MLOAD PUSH1 0x20 DUP6 DUP4 ADD ADD DUP5 DUP2 MSTORE8 POP DUP1 DUP6 EQ ISZERO PUSH3 0x2398 JUMPI PUSH1 0x1 DUP2 ADD DUP3 MSTORE JUMPDEST POP SWAP4 SWAP5 SWAP4 POP POP POP POP JUMP JUMPDEST PUSH1 0x40 DUP1 MLOAD DUP1 DUP3 ADD SWAP1 SWAP2 MSTORE PUSH1 0x60 DUP2 MSTORE PUSH1 0x0 PUSH1 0x20 DUP3 ADD MSTORE PUSH1 0x20 DUP6 ADD MLOAD PUSH3 0x23C8 DUP6 DUP5 PUSH3 0x353A JUMP JUMPDEST GT ISZERO PUSH3 0x23E0 JUMPI PUSH3 0x23E0 DUP6 PUSH3 0x22A0 DUP7 DUP6 PUSH3 0x353A JUMP JUMPDEST PUSH1 0x0 PUSH1 0x1 PUSH3 0x23F2 DUP5 PUSH2 0x100 PUSH3 0x3577 JUMP JUMPDEST PUSH3 0x23FE SWAP2 SWAP1 PUSH3 0x3520 JUMP JUMPDEST SWAP1 POP DUP6 MLOAD DUP4 DUP7 DUP3 ADD ADD DUP6 DUP4 NOT DUP3 MLOAD AND OR DUP2 MSTORE POP DUP1 MLOAD DUP5 DUP8 ADD GT ISZERO PUSH3 0x2423 JUMPI DUP4 DUP7 ADD DUP2 MSTORE JUMPDEST POP SWAP5 SWAP6 SWAP5 POP POP POP POP POP JUMP JUMPDEST PUSH1 0x0 DUP2 DUP4 GT ISZERO PUSH3 0x2441 JUMPI POP DUP2 PUSH3 0xB3B JUMP JUMPDEST POP SWAP2 SWAP1 POP JUMP JUMPDEST DUP2 MLOAD PUSH3 0x2455 DUP4 DUP4 PUSH3 0x1F74 JUMP JUMPDEST POP PUSH3 0x5F1 DUP4 DUP3 PUSH3 0x216D JUMP JUMPDEST DUP3 DUP1 SLOAD PUSH3 0x2470 SWAP1 PUSH3 0x2F61 JUMP JUMPDEST SWAP1 PUSH1 0x0 MSTORE PUSH1 0x20 PUSH1 0x0 KECCAK256 SWAP1 PUSH1 0x1F ADD PUSH1 0x20 SWAP1 DIV DUP2 ADD SWAP3 DUP3 PUSH3 0x2494 JUMPI PUSH1 0x0 DUP6 SSTORE PUSH3 0x24DF JUMP JUMPDEST DUP3 PUSH1 0x1F LT PUSH3 0x24AF JUMPI DUP1 MLOAD PUSH1 0xFF NOT AND DUP4 DUP1 ADD OR DUP6 SSTORE PUSH3 0x24DF JUMP JUMPDEST DUP3 DUP1 ADD PUSH1 0x1 ADD DUP6 SSTORE DUP3 ISZERO PUSH3 0x24DF JUMPI SWAP2 DUP3 ADD JUMPDEST DUP3 DUP2 GT ISZERO PUSH3 0x24DF JUMPI DUP3 MLOAD DUP3 SSTORE SWAP2 PUSH1 0x20 ADD SWAP2 SWAP1 PUSH1 0x1 ADD SWAP1 PUSH3 0x24C2 JUMP JUMPDEST POP PUSH3 0x24ED SWAP3 SWAP2 POP PUSH3 0x257F JUMP JUMPDEST POP SWAP1 JUMP JUMPDEST POP DUP1 SLOAD PUSH1 0x0 DUP3 SSTORE SWAP1 PUSH1 0x0 MSTORE PUSH1 0x20 PUSH1 0x0 KECCAK256 SWAP1 DUP2 ADD SWAP1 PUSH3 0x11B2 SWAP2 SWAP1 PUSH3 0x2596 JUMP JUMPDEST DUP3 DUP1 SLOAD DUP3 DUP3 SSTORE SWAP1 PUSH1 0x0 MSTORE PUSH1 0x20 PUSH1 0x0 KECCAK256 SWAP1 DUP2 ADD SWAP3 DUP3 ISZERO PUSH3 0x2563 JUMPI SWAP2 PUSH1 0x20 MUL DUP3 ADD JUMPDEST DUP3 DUP2 GT ISZERO PUSH3 0x2563 JUMPI DUP3 MLOAD DUP1 MLOAD PUSH3 0x2552 SWAP2 DUP5 SWAP2 PUSH1 0x20 SWAP1 SWAP2 ADD SWAP1 PUSH3 0x2462 JUMP JUMPDEST POP SWAP2 PUSH1 0x20 ADD SWAP2 SWAP1 PUSH1 0x1 ADD SWAP1 PUSH3 0x2532 JUMP JUMPDEST POP PUSH3 0x24ED SWAP3 SWAP2 POP PUSH3 0x2596 JUMP JUMPDEST PUSH2 0xA7C DUP1 PUSH3 0x3586 DUP4 CODECOPY ADD SWAP1 JUMP JUMPDEST JUMPDEST DUP1 DUP3 GT ISZERO PUSH3 0x24ED JUMPI PUSH1 0x0 DUP2 SSTORE PUSH1 0x1 ADD PUSH3 0x2580 JUMP JUMPDEST DUP1 DUP3 GT ISZERO PUSH3 0x24ED JUMPI PUSH1 0x0 PUSH3 0x25AD DUP3 DUP3 PUSH3 0x25B7 JUMP JUMPDEST POP PUSH1 0x1 ADD PUSH3 0x2596 JUMP JUMPDEST POP DUP1 SLOAD PUSH3 0x25C5 SWAP1 PUSH3 0x2F61 JUMP JUMPDEST PUSH1 0x0 DUP3 SSTORE DUP1 PUSH1 0x1F LT PUSH3 0x25D6 JUMPI POP POP JUMP JUMPDEST PUSH1 0x1F ADD PUSH1 0x20 SWAP1 DIV SWAP1 PUSH1 0x0 MSTORE PUSH1 0x20 PUSH1 0x0 KECCAK256 SWAP1 DUP2 ADD SWAP1 PUSH3 0x11B2 SWAP2 SWAP1 PUSH3 0x257F JUMP JUMPDEST PUSH4 0x4E487B71 PUSH1 0xE0 SHL PUSH1 0x0 MSTORE PUSH1 0x41 PUSH1 0x4 MSTORE PUSH1 0x24 PUSH1 0x0 REVERT JUMPDEST PUSH1 0x40 MLOAD PUSH1 0x60 DUP2 ADD PUSH1 0x1 PUSH1 0x1 PUSH1 0x40 SHL SUB DUP2 GT DUP3 DUP3 LT OR ISZERO PUSH3 0x2631 JUMPI PUSH3 0x2631 PUSH3 0x25F6 JUMP JUMPDEST PUSH1 0x40 MSTORE SWAP1 JUMP JUMPDEST PUSH1 0x40 MLOAD PUSH1 0xC0 DUP2 ADD PUSH1 0x1 PUSH1 0x1 PUSH1 0x40 SHL SUB DUP2 GT DUP3 DUP3 LT OR ISZERO PUSH3 0x2631 JUMPI PUSH3 0x2631 PUSH3 0x25F6 JUMP JUMPDEST PUSH1 0x40 DUP1 MLOAD SWAP1 DUP2 ADD PUSH1 0x1 PUSH1 0x1 PUSH1 0x40 SHL SUB DUP2 GT DUP3 DUP3 LT OR ISZERO PUSH3 0x2631 JUMPI PUSH3 0x2631 PUSH3 0x25F6 JUMP JUMPDEST PUSH1 0x40 MLOAD PUSH1 0x1F DUP3 ADD PUSH1 0x1F NOT AND DUP2 ADD PUSH1 0x1 PUSH1 0x1 PUSH1 0x40 SHL SUB DUP2 GT DUP3 DUP3 LT OR ISZERO PUSH3 0x26AC JUMPI PUSH3 0x26AC PUSH3 0x25F6 JUMP JUMPDEST PUSH1 0x40 MSTORE SWAP2 SWAP1 POP JUMP JUMPDEST PUSH1 0x0 PUSH1 0x1 PUSH1 0x1 PUSH1 0x40 SHL SUB DUP3 GT ISZERO PUSH3 0x26D0 JUMPI PUSH3 0x26D0 PUSH3 0x25F6 JUMP JUMPDEST POP PUSH1 0x1F ADD PUSH1 0x1F NOT AND PUSH1 0x20 ADD SWAP1 JUMP JUMPDEST PUSH1 0x0 DUP3 PUSH1 0x1F DUP4 ADD SLT PUSH3 0x26F0 JUMPI PUSH1 0x0 DUP1 REVERT JUMPDEST DUP2 CALLDATALOAD PUSH3 0x2707 PUSH3 0x2701 DUP3 PUSH3 0x26B4 JUMP JUMPDEST PUSH3 0x2681 JUMP JUMPDEST DUP2 DUP2 MSTORE DUP5 PUSH1 0x20 DUP4 DUP7 ADD ADD GT ISZERO PUSH3 0x271D JUMPI PUSH1 0x0 DUP1 REVERT JUMPDEST DUP2 PUSH1 0x20 DUP6 ADD PUSH1 0x20 DUP4 ADD CALLDATACOPY PUSH1 0x0 SWAP2 DUP2 ADD PUSH1 0x20 ADD SWAP2 SWAP1 SWAP2 MSTORE SWAP4 SWAP3 POP POP POP JUMP JUMPDEST PUSH1 0x0 DUP1 PUSH1 0x0 PUSH1 0x60 DUP5 DUP7 SUB SLT ISZERO PUSH3 0x2750 JUMPI PUSH1 0x0 DUP1 REVERT JUMPDEST DUP4 CALLDATALOAD SWAP3 POP PUSH1 0x20 DUP5 ADD CALLDATALOAD PUSH1 0x1 PUSH1 0x1 PUSH1 0x40 SHL SUB DUP1 DUP3 GT ISZERO PUSH3 0x276F JUMPI PUSH1 0x0 DUP1 REVERT JUMPDEST PUSH3 0x277D DUP8 DUP4 DUP9 ADD PUSH3 0x26DE JUMP JUMPDEST SWAP4 POP PUSH1 0x40 DUP7 ADD CALLDATALOAD SWAP2 POP DUP1 DUP3 GT ISZERO PUSH3 0x2794 JUMPI PUSH1 0x0 DUP1 REVERT JUMPDEST POP PUSH3 0x27A3 DUP7 DUP3 DUP8 ADD PUSH3 0x26DE JUMP JUMPDEST SWAP2 POP POP SWAP3 POP SWAP3 POP SWAP3 JUMP JUMPDEST PUSH1 0x0 DUP1 DUP4 PUSH1 0x1F DUP5 ADD SLT PUSH3 0x27C0 JUMPI PUSH1 0x0 DUP1 REVERT JUMPDEST POP DUP2 CALLDATALOAD PUSH1 0x1 PUSH1 0x1 PUSH1 0x40 SHL SUB DUP2 GT ISZERO PUSH3 0x27D8 JUMPI PUSH1 0x0 DUP1 REVERT JUMPDEST PUSH1 0x20 DUP4 ADD SWAP2 POP DUP4 PUSH1 0x20 DUP3 DUP6 ADD ADD GT ISZERO PUSH3 0x27F1 JUMPI PUSH1 0x0 DUP1 REVERT JUMPDEST SWAP3 POP SWAP3 SWAP1 POP JUMP JUMPDEST DUP1 CALLDATALOAD PUSH1 0x2 DUP2 LT PUSH3 0x2808 JUMPI PUSH1 0x0 DUP1 REVERT JUMPDEST SWAP2 SWAP1 POP JUMP JUMPDEST DUP1 CALLDATALOAD PUSH1 0x1 PUSH1 0x1 PUSH1 0x40 SHL SUB DUP2 AND DUP2 EQ PUSH3 0x2808 JUMPI PUSH1 0x0 DUP1 REVERT JUMPDEST DUP1 CALLDATALOAD PUSH4 0xFFFFFFFF DUP2 AND DUP2 EQ PUSH3 0x2808 JUMPI PUSH1 0x0 DUP1 REVERT JUMPDEST PUSH1 0x0 DUP1 PUSH1 0x0 DUP1 PUSH1 0x0 DUP1 PUSH1 0x0 DUP1 PUSH1 0x0 PUSH1 0xC0 DUP11 DUP13 SUB SLT ISZERO PUSH3 0x2859 JUMPI PUSH1 0x0 DUP1 REVERT JUMPDEST DUP10 CALLDATALOAD PUSH1 0x1 PUSH1 0x1 PUSH1 0x40 SHL SUB DUP1 DUP3 GT ISZERO PUSH3 0x2871 JUMPI PUSH1 0x0 DUP1 REVERT JUMPDEST PUSH3 0x287F DUP14 DUP4 DUP15 ADD PUSH3 0x27AD JUMP JUMPDEST SWAP1 SWAP12 POP SWAP10 POP PUSH1 0x20 DUP13 ADD CALLDATALOAD SWAP2 POP DUP1 DUP3 GT ISZERO PUSH3 0x2899 JUMPI PUSH1 0x0 DUP1 REVERT JUMPDEST PUSH3 0x28A7 DUP14 DUP4 DUP15 ADD PUSH3 0x27AD JUMP JUMPDEST SWAP1 SWAP10 POP SWAP8 POP DUP8 SWAP2 POP PUSH3 0x28BD PUSH1 0x40 DUP14 ADD PUSH3 0x27F8 JUMP JUMPDEST SWAP7 POP PUSH1 0x60 DUP13 ADD CALLDATALOAD SWAP2 POP DUP1 DUP3 GT ISZERO PUSH3 0x28D4 JUMPI PUSH1 0x0 DUP1 REVERT JUMPDEST DUP2 DUP13 ADD SWAP2 POP DUP13 PUSH1 0x1F DUP4 ADD SLT PUSH3 0x28E9 JUMPI PUSH1 0x0 DUP1 REVERT JUMPDEST DUP2 CALLDATALOAD DUP2 DUP2 GT ISZERO PUSH3 0x28F9 JUMPI PUSH1 0x0 DUP1 REVERT JUMPDEST DUP14 PUSH1 0x20 DUP3 PUSH1 0x5 SHL DUP6 ADD ADD GT ISZERO PUSH3 0x290F JUMPI PUSH1 0x0 DUP1 REVERT JUMPDEST PUSH1 0x20 DUP4 ADD SWAP7 POP DUP1 SWAP6 POP POP POP POP PUSH3 0x2929 PUSH1 0x80 DUP12 ADD PUSH3 0x280D JUMP JUMPDEST SWAP2 POP PUSH3 0x2939 PUSH1 0xA0 DUP12 ADD PUSH3 0x2825 JUMP JUMPDEST SWAP1 POP SWAP3 SWAP6 SWAP9 POP SWAP3 SWAP6 SWAP9 POP SWAP3 SWAP6 SWAP9 JUMP JUMPDEST PUSH1 0x0 DUP3 PUSH1 0x1F DUP4 ADD SLT PUSH3 0x295A JUMPI PUSH1 0x0 DUP1 REVERT JUMPDEST PUSH3 0x2964 PUSH3 0x265C JUMP JUMPDEST DUP1 PUSH1 0x40 DUP5 ADD DUP6 DUP2 GT ISZERO PUSH3 0x2977 JUMPI PUSH1 0x0 DUP1 REVERT JUMPDEST DUP5 JUMPDEST DUP2 DUP2 LT ISZERO PUSH3 0x2993 JUMPI DUP1 CALLDATALOAD DUP5 MSTORE PUSH1 0x20 SWAP4 DUP5 ADD SWAP4 ADD PUSH3 0x2979 JUMP JUMPDEST POP SWAP1 SWAP6 SWAP5 POP POP POP POP POP JUMP JUMPDEST PUSH1 0x0 DUP1 PUSH1 0x0 DUP1 DUP5 DUP7 SUB PUSH2 0x160 DUP2 SLT ISZERO PUSH3 0x29B7 JUMPI PUSH1 0x0 DUP1 REVERT JUMPDEST DUP6 CALLDATALOAD PUSH1 0x1 PUSH1 0x1 PUSH1 0x40 SHL SUB DUP2 GT ISZERO PUSH3 0x29CE JUMPI PUSH1 0x0 DUP1 REVERT JUMPDEST PUSH3 0x29DC DUP9 DUP3 DUP10 ADD PUSH3 0x26DE JUMP JUMPDEST SWAP6 POP POP PUSH1 0x20 DUP7 DUP2 ADD CALLDATALOAD SWAP5 POP PUSH1 0x40 DUP1 DUP9 ADD CALLDATALOAD SWAP5 POP PUSH2 0x100 PUSH1 0x5F NOT DUP5 ADD SLT ISZERO PUSH3 0x2A03 JUMPI PUSH1 0x0 DUP1 REVERT JUMPDEST PUSH3 0x2A0D PUSH3 0x260C JUMP JUMPDEST SWAP3 POP PUSH3 0x2A1E DUP10 PUSH1 0x60 DUP11 ADD PUSH3 0x2948 JUMP JUMPDEST DUP4 MSTORE DUP9 PUSH1 0xBF DUP10 ADD SLT PUSH3 0x2A30 JUMPI PUSH1 0x0 DUP1 REVERT JUMPDEST PUSH3 0x2A3A PUSH3 0x265C JUMP JUMPDEST DUP1 PUSH2 0x120 DUP11 ADD DUP12 DUP2 GT ISZERO PUSH3 0x2A4E JUMPI PUSH1 0x0 DUP1 REVERT JUMPDEST PUSH1 0xA0 DUP12 ADD JUMPDEST DUP2 DUP2 LT ISZERO PUSH3 0x2A76 JUMPI PUSH3 0x2A68 DUP14 DUP3 PUSH3 0x2948 JUMP JUMPDEST DUP5 MSTORE SWAP3 DUP6 ADD SWAP3 DUP5 ADD PUSH3 0x2A53 JUMP JUMPDEST POP DUP2 DUP6 DUP8 ADD MSTORE PUSH3 0x2A88 DUP13 DUP3 PUSH3 0x2948 JUMP JUMPDEST DUP5 DUP8 ADD MSTORE POP POP POP POP POP DUP1 SWAP2 POP POP SWAP3 SWAP6 SWAP2 SWAP5 POP SWAP3 POP JUMP JUMPDEST PUSH1 0x0 PUSH1 0x20 DUP3 DUP5 SUB SLT ISZERO PUSH3 0x2AB1 JUMPI PUSH1 0x0 DUP1 REVERT JUMPDEST POP CALLDATALOAD SWAP2 SWAP1 POP JUMP JUMPDEST PUSH1 0x0 DUP1 PUSH1 0x40 DUP4 DUP6 SUB SLT ISZERO PUSH3 0x2ACC JUMPI PUSH1 0x0 DUP1 REVERT JUMPDEST POP POP DUP1 CALLDATALOAD SWAP3 PUSH1 0x20 SWAP1 SWAP2 ADD CALLDATALOAD SWAP2 POP JUMP JUMPDEST PUSH1 0x0 JUMPDEST DUP4 DUP2 LT ISZERO PUSH3 0x2AF8 JUMPI DUP2 DUP2 ADD MLOAD DUP4 DUP3 ADD MSTORE PUSH1 0x20 ADD PUSH3 0x2ADE JUMP JUMPDEST DUP4 DUP2 GT ISZERO PUSH3 0x5F1 JUMPI POP POP PUSH1 0x0 SWAP2 ADD MSTORE JUMP JUMPDEST PUSH1 0x0 DUP2 MLOAD DUP1 DUP5 MSTORE PUSH3 0x2B24 DUP2 PUSH1 0x20 DUP7 ADD PUSH1 0x20 DUP7 ADD PUSH3 0x2ADB JUMP JUMPDEST PUSH1 0x1F ADD PUSH1 0x1F NOT AND SWAP3 SWAP1 SWAP3 ADD PUSH1 0x20 ADD SWAP3 SWAP2 POP POP JUMP JUMPDEST PUSH1 0x0 PUSH1 0x20 DUP1 DUP4 ADD DUP2 DUP5 MSTORE DUP1 DUP6 MLOAD DUP1 DUP4 MSTORE PUSH1 0x40 DUP7 ADD SWAP2 POP PUSH1 0x40 DUP2 PUSH1 0x5 SHL DUP8 ADD ADD SWAP3 POP DUP4 DUP8 ADD PUSH1 0x0 JUMPDEST DUP3 DUP2 LT ISZERO PUSH3 0x2B91 JUMPI PUSH1 0x3F NOT DUP9 DUP7 SUB ADD DUP5 MSTORE PUSH3 0x2B7E DUP6 DUP4 MLOAD PUSH3 0x2B0A JUMP JUMPDEST SWAP5 POP SWAP3 DUP6 ADD SWAP3 SWAP1 DUP6 ADD SWAP1 PUSH1 0x1 ADD PUSH3 0x2B5F JUMP JUMPDEST POP SWAP3 SWAP8 SWAP7 POP POP POP POP POP POP POP JUMP JUMPDEST PUSH1 0x20 DUP2 MSTORE PUSH1 0x0 PUSH3 0x2196 PUSH1 0x20 DUP4 ADD DUP5 PUSH3 0x2B0A JUMP JUMPDEST DUP1 CALLDATALOAD PUSH1 0x1 DUP2 LT PUSH3 0x2808 JUMPI PUSH1 0x0 DUP1 REVERT JUMPDEST PUSH1 0x0 PUSH1 0x1 PUSH1 0x1 PUSH1 0x40 SHL SUB DUP3 GT ISZERO PUSH3 0x2BDF JUMPI PUSH3 0x2BDF PUSH3 0x25F6 JUMP JUMPDEST POP PUSH1 0x5 SHL PUSH1 0x20 ADD SWAP1 JUMP JUMPDEST PUSH1 0x0 PUSH3 0x2BFA PUSH3 0x2701 DUP5 PUSH3 0x2BC3 JUMP JUMPDEST DUP4 DUP2 MSTORE SWAP1 POP PUSH1 0x20 DUP1 DUP3 ADD SWAP1 PUSH1 0x5 DUP6 SWAP1 SHL DUP5 ADD DUP7 DUP2 GT ISZERO PUSH3 0x2C1A JUMPI PUSH1 0x0 DUP1 REVERT JUMPDEST DUP5 JUMPDEST DUP2 DUP2 LT ISZERO PUSH3 0x2C5A JUMPI DUP1 CALLDATALOAD PUSH1 0x1 PUSH1 0x1 PUSH1 0x40 SHL SUB DUP2 GT ISZERO PUSH3 0x2C3D JUMPI PUSH1 0x0 DUP1 DUP2 REVERT JUMPDEST PUSH3 0x2C4B DUP10 DUP3 DUP10 ADD PUSH3 0x26DE JUMP JUMPDEST DUP6 MSTORE POP SWAP3 DUP3 ADD SWAP3 DUP3 ADD PUSH3 0x2C1C JUMP JUMPDEST POP POP POP POP SWAP4 SWAP3 POP POP POP JUMP JUMPDEST PUSH1 0x0 DUP3 PUSH1 0x1F DUP4 ADD SLT PUSH3 0x2C77 JUMPI PUSH1 0x0 DUP1 REVERT JUMPDEST PUSH3 0x2196 DUP4 DUP4 CALLDATALOAD PUSH1 0x20 DUP6 ADD PUSH3 0x2BE9 JUMP JUMPDEST PUSH1 0x0 DUP1 PUSH1 0x0 DUP1 PUSH1 0x80 DUP6 DUP8 SUB SLT ISZERO PUSH3 0x2C9F JUMPI PUSH1 0x0 DUP1 REVERT JUMPDEST DUP5 CALLDATALOAD PUSH1 0x1 PUSH1 0x1 PUSH1 0x40 SHL SUB DUP1 DUP3 GT ISZERO PUSH3 0x2CB7 JUMPI PUSH1 0x0 DUP1 REVERT JUMPDEST SWAP1 DUP7 ADD SWAP1 PUSH1 0xC0 DUP3 DUP10 SUB SLT ISZERO PUSH3 0x2CCC JUMPI PUSH1 0x0 DUP1 REVERT JUMPDEST PUSH3 0x2CD6 PUSH3 0x2637 JUMP JUMPDEST PUSH3 0x2CE1 DUP4 PUSH3 0x27F8 JUMP JUMPDEST DUP2 MSTORE PUSH3 0x2CF1 PUSH1 0x20 DUP5 ADD PUSH3 0x27F8 JUMP JUMPDEST PUSH1 0x20 DUP3 ADD MSTORE PUSH3 0x2D04 PUSH1 0x40 DUP5 ADD PUSH3 0x2BB3 JUMP JUMPDEST PUSH1 0x40 DUP3 ADD MSTORE PUSH1 0x60 DUP4 ADD CALLDATALOAD DUP3 DUP2 GT ISZERO PUSH3 0x2D1C JUMPI PUSH1 0x0 DUP1 REVERT JUMPDEST PUSH3 0x2D2A DUP11 DUP3 DUP7 ADD PUSH3 0x26DE JUMP JUMPDEST PUSH1 0x60 DUP4 ADD MSTORE POP PUSH1 0x80 DUP4 ADD CALLDATALOAD DUP3 DUP2 GT ISZERO PUSH3 0x2D43 JUMPI PUSH1 0x0 DUP1 REVERT JUMPDEST PUSH3 0x2D51 DUP11 DUP3 DUP7 ADD PUSH3 0x26DE JUMP JUMPDEST PUSH1 0x80 DUP4 ADD MSTORE POP PUSH1 0xA0 DUP4 ADD CALLDATALOAD DUP3 DUP2 GT ISZERO PUSH3 0x2D6A JUMPI PUSH1 0x0 DUP1 REVERT JUMPDEST PUSH3 0x2D78 DUP11 DUP3 DUP7 ADD PUSH3 0x2C65 JUMP JUMPDEST PUSH1 0xA0 DUP4 ADD MSTORE POP SWAP6 POP PUSH3 0x2D91 SWAP2 POP POP PUSH1 0x20 DUP7 ADD PUSH3 0x280D JUMP JUMPDEST SWAP3 POP PUSH3 0x2DA1 PUSH1 0x40 DUP7 ADD PUSH3 0x2825 JUMP JUMPDEST SWAP4 SWAP7 SWAP3 SWAP6 POP SWAP3 SWAP4 PUSH1 0x60 ADD CALLDATALOAD SWAP3 POP POP JUMP JUMPDEST PUSH1 0x1 PUSH1 0x1 PUSH1 0xA0 SHL SUB DUP2 AND DUP2 EQ PUSH3 0x11B2 JUMPI PUSH1 0x0 DUP1 REVERT JUMPDEST PUSH1 0x0 DUP1 PUSH1 0x40 DUP4 DUP6 SUB SLT ISZERO PUSH3 0x2DDB JUMPI PUSH1 0x0 DUP1 REVERT JUMPDEST DUP3 CALLDATALOAD SWAP2 POP PUSH1 0x20 DUP4 ADD CALLDATALOAD PUSH3 0x2DEF DUP2 PUSH3 0x2DB1 JUMP JUMPDEST DUP1 SWAP2 POP POP SWAP3 POP SWAP3 SWAP1 POP JUMP JUMPDEST PUSH1 0x0 PUSH1 0x20 DUP3 DUP5 SUB SLT ISZERO PUSH3 0x2E0D JUMPI PUSH1 0x0 DUP1 REVERT JUMPDEST DUP2 CALLDATALOAD PUSH3 0x2196 DUP2 PUSH3 0x2DB1 JUMP JUMPDEST PUSH4 0x4E487B71 PUSH1 0xE0 SHL PUSH1 0x0 MSTORE PUSH1 0x21 PUSH1 0x4 MSTORE PUSH1 0x24 PUSH1 0x0 REVERT JUMPDEST PUSH1 0x0 PUSH3 0x2196 CALLDATASIZE DUP5 DUP5 PUSH3 0x2BE9 JUMP JUMPDEST DUP1 PUSH1 0x0 JUMPDEST PUSH1 0x2 DUP2 LT ISZERO PUSH3 0x5F1 JUMPI DUP2 MLOAD DUP5 MSTORE PUSH1 0x20 SWAP4 DUP5 ADD SWAP4 SWAP1 SWAP2 ADD SWAP1 PUSH1 0x1 ADD PUSH3 0x2E43 JUMP JUMPDEST PUSH2 0x140 DUP2 ADD PUSH3 0x2E75 DUP3 DUP8 PUSH3 0x2E3F JUMP JUMPDEST PUSH1 0x40 DUP1 DUP4 ADD DUP7 PUSH1 0x0 JUMPDEST PUSH1 0x2 DUP2 LT ISZERO PUSH3 0x2EA9 JUMPI PUSH3 0x2E95 DUP4 DUP4 MLOAD PUSH3 0x2E3F JUMP JUMPDEST SWAP2 DUP4 ADD SWAP2 PUSH1 0x20 SWAP2 SWAP1 SWAP2 ADD SWAP1 PUSH1 0x1 ADD PUSH3 0x2E7E JUMP JUMPDEST POP POP POP POP PUSH3 0x2EBC PUSH1 0xC0 DUP4 ADD DUP6 PUSH3 0x2E3F JUMP JUMPDEST PUSH3 0xF50 PUSH2 0x100 DUP4 ADD DUP5 PUSH3 0x2E3F JUMP JUMPDEST PUSH1 0x0 PUSH1 0x20 DUP3 DUP5 SUB SLT ISZERO PUSH3 0x2EDF JUMPI PUSH1 0x0 DUP1 REVERT JUMPDEST DUP2 MLOAD DUP1 ISZERO ISZERO DUP2 EQ PUSH3 0x2196 JUMPI PUSH1 0x0 DUP1 REVERT JUMPDEST PUSH1 0x40 DUP2 MSTORE PUSH1 0x0 PUSH3 0x2F05 PUSH1 0x40 DUP4 ADD DUP6 PUSH3 0x2B0A JUMP JUMPDEST SWAP1 POP DUP3 PUSH1 0x20 DUP4 ADD MSTORE SWAP4 SWAP3 POP POP POP JUMP JUMPDEST PUSH1 0x40 DUP2 ADD DUP2 DUP4 PUSH1 0x0 JUMPDEST PUSH1 0x2 DUP2 LT ISZERO PUSH3 0x2F3E JUMPI DUP2 MLOAD DUP4 MSTORE PUSH1 0x20 SWAP3 DUP4 ADD SWAP3 SWAP1 SWAP2 ADD SWAP1 PUSH1 0x1 ADD PUSH3 0x2F1D JUMP JUMPDEST POP POP POP SWAP3 SWAP2 POP POP JUMP JUMPDEST PUSH1 0x0 PUSH1 0x20 DUP3 DUP5 SUB SLT ISZERO PUSH3 0x2F5A JUMPI PUSH1 0x0 DUP1 REVERT JUMPDEST POP MLOAD SWAP2 SWAP1 POP JUMP JUMPDEST PUSH1 0x1 DUP2 DUP2 SHR SWAP1 DUP3 AND DUP1 PUSH3 0x2F76 JUMPI PUSH1 0x7F DUP3 AND SWAP2 POP JUMPDEST PUSH1 0x20 DUP3 LT DUP2 EQ ISZERO PUSH3 0x2441 JUMPI PUSH4 0x4E487B71 PUSH1 0xE0 SHL PUSH1 0x0 MSTORE PUSH1 0x22 PUSH1 0x4 MSTORE PUSH1 0x24 PUSH1 0x0 REVERT JUMPDEST PUSH4 0x4E487B71 PUSH1 0xE0 SHL PUSH1 0x0 MSTORE PUSH1 0x32 PUSH1 0x4 MSTORE PUSH1 0x24 PUSH1 0x0 REVERT JUMPDEST PUSH4 0x4E487B71 PUSH1 0xE0 SHL PUSH1 0x0 MSTORE PUSH1 0x11 PUSH1 0x4 MSTORE PUSH1 0x24 PUSH1 0x0 REVERT JUMPDEST PUSH1 0x0 PUSH4 0xFFFFFFFF DUP3 AND DUP1 PUSH3 0x2FDD JUMPI PUSH3 0x2FDD PUSH3 0x2FAE JUMP JUMPDEST PUSH1 0x0 NOT ADD SWAP3 SWAP2 POP POP JUMP JUMPDEST PUSH1 0x0 PUSH1 0x20 DUP3 DUP5 SUB SLT ISZERO PUSH3 0x2FFA JUMPI PUSH1 0x0 DUP1 REVERT JUMPDEST DUP2 MLOAD PUSH1 0x1 PUSH1 0x1 PUSH1 0x40 SHL SUB DUP2 GT ISZERO PUSH3 0x3011 JUMPI PUSH1 0x0 DUP1 REVERT JUMPDEST DUP3 ADD PUSH1 0x1F DUP2 ADD DUP5 SGT PUSH3 0x3023 JUMPI PUSH1 0x0 DUP1 REVERT JUMPDEST DUP1 MLOAD PUSH3 0x3034 PUSH3 0x2701 DUP3 PUSH3 0x26B4 JUMP JUMPDEST DUP2 DUP2 MSTORE DUP6 PUSH1 0x20 DUP4 DUP6 ADD ADD GT ISZERO PUSH3 0x304A JUMPI PUSH1 0x0 DUP1 REVERT JUMPDEST PUSH3 0xF50 DUP3 PUSH1 0x20 DUP4 ADD PUSH1 0x20 DUP7 ADD PUSH3 0x2ADB JUMP JUMPDEST PUSH1 0x1 PUSH1 0x1 PUSH1 0x40 SHL SUB DUP6 AND DUP2 MSTORE PUSH1 0x80 PUSH1 0x20 DUP3 ADD MSTORE PUSH1 0x0 PUSH3 0x3081 PUSH1 0x80 DUP4 ADD DUP7 PUSH3 0x2B0A JUMP JUMPDEST PUSH4 0xFFFFFFFF SWAP5 SWAP1 SWAP5 AND PUSH1 0x40 DUP4 ADD MSTORE POP PUSH1 0x60 ADD MSTORE SWAP3 SWAP2 POP POP JUMP JUMPDEST PUSH1 0x0 PUSH1 0x20 DUP3 DUP5 SUB SLT ISZERO PUSH3 0x30AD JUMPI PUSH1 0x0 DUP1 REVERT JUMPDEST DUP2 MLOAD PUSH12 0xFFFFFFFFFFFFFFFFFFFFFFFF DUP2 AND DUP2 EQ PUSH3 0x2196 JUMPI PUSH1 0x0 DUP1 REVERT JUMPDEST PUSH1 0x0 PUSH1 0x20 DUP1 DUP4 DUP6 SUB SLT ISZERO PUSH3 0x30DE JUMPI PUSH1 0x0 DUP1 REVERT JUMPDEST DUP3 MLOAD PUSH1 0x1 PUSH1 0x1 PUSH1 0x40 SHL SUB DUP2 GT ISZERO PUSH3 0x30F5 JUMPI PUSH1 0x0 DUP1 REVERT JUMPDEST DUP4 ADD PUSH1 0x1F DUP2 ADD DUP6 SGT PUSH3 0x3107 JUMPI PUSH1 0x0 DUP1 REVERT JUMPDEST DUP1 MLOAD PUSH3 0x3118 PUSH3 0x2701 DUP3 PUSH3 0x2BC3 JUMP JUMPDEST DUP2 DUP2 MSTORE PUSH1 0x5 SWAP2 SWAP1 SWAP2 SHL DUP3 ADD DUP4 ADD SWAP1 DUP4 DUP2 ADD SWAP1 DUP8 DUP4 GT ISZERO PUSH3 0x3138 JUMPI PUSH1 0x0 DUP1 REVERT JUMPDEST SWAP3 DUP5 ADD SWAP3 JUMPDEST DUP3 DUP5 LT ISZERO PUSH3 0x3158 JUMPI DUP4 MLOAD DUP3 MSTORE SWAP3 DUP5 ADD SWAP3 SWAP1 DUP5 ADD SWAP1 PUSH3 0x313D JUMP JUMPDEST SWAP8 SWAP7 POP POP POP POP POP POP POP JUMP JUMPDEST PUSH1 0x0 PUSH1 0x0 NOT DUP3 EQ ISZERO PUSH3 0x317A JUMPI PUSH3 0x317A PUSH3 0x2FAE JUMP JUMPDEST POP PUSH1 0x1 ADD SWAP1 JUMP JUMPDEST PUSH1 0x40 DUP2 MSTORE PUSH1 0x0 PUSH3 0x3196 PUSH1 0x40 DUP4 ADD DUP6 PUSH3 0x2B0A JUMP JUMPDEST DUP3 DUP2 SUB PUSH1 0x20 DUP5 ADD MSTORE PUSH3 0xF50 DUP2 DUP6 PUSH3 0x2B0A JUMP JUMPDEST PUSH1 0x1 PUSH1 0x1 PUSH1 0x40 SHL SUB DUP5 AND DUP2 MSTORE PUSH1 0x60 PUSH1 0x20 DUP3 ADD MSTORE PUSH1 0x0 PUSH3 0x31CE PUSH1 0x60 DUP4 ADD DUP6 PUSH3 0x2B0A JUMP JUMPDEST SWAP1 POP PUSH4 0xFFFFFFFF DUP4 AND PUSH1 0x40 DUP4 ADD MSTORE SWAP5 SWAP4 POP POP POP POP JUMP JUMPDEST PUSH1 0x0 PUSH1 0x20 DUP3 DUP5 SUB SLT ISZERO PUSH3 0x31F7 JUMPI PUSH1 0x0 DUP1 REVERT JUMPDEST DUP2 MLOAD PUSH3 0x2196 DUP2 PUSH3 0x2DB1 JUMP JUMPDEST PUSH1 0x1 DUP2 DUP2 JUMPDEST DUP1 DUP6 GT ISZERO PUSH3 0x3247 JUMPI DUP2 PUSH4 0xFFFFFFFF DIV DUP3 GT ISZERO PUSH3 0x322B JUMPI PUSH3 0x322B PUSH3 0x2FAE JUMP JUMPDEST DUP1 DUP6 AND ISZERO PUSH3 0x3239 JUMPI SWAP2 DUP2 MUL SWAP2 JUMPDEST SWAP4 DUP5 SHR SWAP4 SWAP1 DUP1 MUL SWAP1 PUSH3 0x3209 JUMP JUMPDEST POP SWAP3 POP SWAP3 SWAP1 POP JUMP JUMPDEST PUSH1 0x1 DUP2 DUP2 JUMPDEST DUP1 DUP6 GT ISZERO PUSH3 0x3247 JUMPI DUP2 PUSH1 0x0 NOT DIV DUP3 GT ISZERO PUSH3 0x3274 JUMPI PUSH3 0x3274 PUSH3 0x2FAE JUMP JUMPDEST DUP1 DUP6 AND ISZERO PUSH3 0x3282 JUMPI SWAP2 DUP2 MUL SWAP2 JUMPDEST SWAP4 DUP5 SHR SWAP4 SWAP1 DUP1 MUL SWAP1 PUSH3 0x3254 JUMP JUMPDEST PUSH1 0x0 DUP3 PUSH3 0x32A1 JUMPI POP PUSH1 0x1 PUSH3 0xB3B JUMP JUMPDEST DUP2 PUSH3 0x32B0 JUMPI POP PUSH1 0x0 PUSH3 0xB3B JUMP JUMPDEST DUP2 PUSH1 0x1 DUP2 EQ PUSH3 0x32C9 JUMPI PUSH1 0x2 DUP2 EQ PUSH3 0x32D4 JUMPI PUSH3 0x330C JUMP JUMPDEST PUSH1 0x1 SWAP2 POP POP PUSH3 0xB3B JUMP JUMPDEST PUSH1 0xFF DUP5 GT ISZERO PUSH3 0x32E8 JUMPI PUSH3 0x32E8 PUSH3 0x2FAE JUMP JUMPDEST PUSH1 0x1 DUP5 SHL SWAP2 POP PUSH4 0xFFFFFFFF DUP3 GT ISZERO PUSH3 0x3305 JUMPI PUSH3 0x3305 PUSH3 0x2FAE JUMP JUMPDEST POP PUSH3 0xB3B JUMP JUMPDEST POP PUSH1 0x20 DUP4 LT PUSH2 0x133 DUP4 LT AND PUSH1 0x4E DUP5 LT PUSH1 0xB DUP5 LT AND OR ISZERO PUSH3 0x3348 JUMPI POP DUP2 DUP2 EXP PUSH4 0xFFFFFFFF DUP2 GT ISZERO PUSH3 0x3342 JUMPI PUSH3 0x3342 PUSH3 0x2FAE JUMP JUMPDEST PUSH3 0xB3B JUMP JUMPDEST PUSH3 0x3354 DUP4 DUP4 PUSH3 0x3204 JUMP JUMPDEST DUP1 PUSH4 0xFFFFFFFF DIV DUP3 GT ISZERO PUSH3 0x336D JUMPI PUSH3 0x336D PUSH3 0x2FAE JUMP JUMPDEST MUL SWAP4 SWAP3 POP POP POP JUMP JUMPDEST PUSH1 0x0 DUP3 PUSH3 0x3386 JUMPI POP PUSH1 0x1 PUSH3 0xB3B JUMP JUMPDEST DUP2 PUSH3 0x3395 JUMPI POP PUSH1 0x0 PUSH3 0xB3B JUMP JUMPDEST DUP2 PUSH1 0x1 DUP2 EQ PUSH3 0x32C9 JUMPI PUSH1 0x2 DUP2 EQ PUSH3 0x33AE JUMPI PUSH3 0x33CE JUMP JUMPDEST PUSH1 0xFF DUP5 GT ISZERO PUSH3 0x33C2 JUMPI PUSH3 0x33C2 PUSH3 0x2FAE JUMP JUMPDEST POP POP PUSH1 0x1 DUP3 SHL PUSH3 0xB3B JUMP JUMPDEST POP PUSH1 0x20 DUP4 LT PUSH2 0x133 DUP4 LT AND PUSH1 0x4E DUP5 LT PUSH1 0xB DUP5 LT AND OR ISZERO PUSH3 0x33F3 JUMPI POP DUP2 DUP2 EXP PUSH3 0xB3B JUMP JUMPDEST PUSH3 0x33FF DUP4 DUP4 PUSH3 0x324F JUMP JUMPDEST DUP1 PUSH1 0x0 NOT DIV DUP3 GT ISZERO PUSH3 0x336D JUMPI PUSH3 0x336D PUSH3 0x2FAE JUMP JUMPDEST PUSH1 0x0 PUSH4 0xFFFFFFFF PUSH3 0xB37 DUP2 DUP6 AND DUP3 DUP6 AND PUSH3 0x3290 JUMP JUMPDEST PUSH1 0x0 PUSH4 0xFFFFFFFF DUP1 DUP4 AND DUP2 DUP6 AND DUP1 DUP4 SUB DUP3 GT ISZERO PUSH3 0x344F JUMPI PUSH3 0x344F PUSH3 0x2FAE JUMP JUMPDEST ADD SWAP5 SWAP4 POP POP POP POP JUMP JUMPDEST PUSH4 0x4E487B71 PUSH1 0xE0 SHL PUSH1 0x0 MSTORE PUSH1 0x12 PUSH1 0x4 MSTORE PUSH1 0x24 PUSH1 0x0 REVERT JUMPDEST PUSH1 0x0 PUSH4 0xFFFFFFFF DUP1 DUP5 AND DUP1 PUSH3 0x3488 JUMPI PUSH3 0x3488 PUSH3 0x3458 JUMP JUMPDEST SWAP3 AND SWAP2 SWAP1 SWAP2 MOD SWAP3 SWAP2 POP POP JUMP JUMPDEST PUSH1 0x0 PUSH4 0xFFFFFFFF DUP1 DUP5 AND DUP1 PUSH3 0x34AE JUMPI PUSH3 0x34AE PUSH3 0x3458 JUMP JUMPDEST SWAP3 AND SWAP2 SWAP1 SWAP2 DIV SWAP3 SWAP2 POP POP JUMP JUMPDEST PUSH1 0x0 PUSH4 0xFFFFFFFF DUP1 DUP4 AND DUP2 DUP2 EQ ISZERO PUSH3 0x34D7 JUMPI PUSH3 0x34D7 PUSH3 0x2FAE JUMP JUMPDEST PUSH1 0x1 ADD SWAP4 SWAP3 POP POP POP JUMP JUMPDEST PUSH1 0x0 PUSH4 0xFFFFFFFF DUP4 DUP2 AND SWAP1 DUP4 AND DUP2 DUP2 LT ISZERO PUSH3 0x3501 JUMPI PUSH3 0x3501 PUSH3 0x2FAE JUMP JUMPDEST SUB SWAP4 SWAP3 POP POP POP JUMP JUMPDEST PUSH1 0x0 DUP3 PUSH3 0x351B JUMPI PUSH3 0x351B PUSH3 0x3458 JUMP JUMPDEST POP MOD SWAP1 JUMP JUMPDEST PUSH1 0x0 DUP3 DUP3 LT ISZERO PUSH3 0x3535 JUMPI PUSH3 0x3535 PUSH3 0x2FAE JUMP JUMPDEST POP SUB SWAP1 JUMP JUMPDEST PUSH1 0x0 DUP3 NOT DUP3 GT ISZERO PUSH3 0x3550 JUMPI PUSH3 0x3550 PUSH3 0x2FAE JUMP JUMPDEST POP ADD SWAP1 JUMP JUMPDEST PUSH1 0x0 DUP2 PUSH1 0x0 NOT DIV DUP4 GT DUP3 ISZERO ISZERO AND ISZERO PUSH3 0x3572 JUMPI PUSH3 0x3572 PUSH3 0x2FAE JUMP JUMPDEST POP MUL SWAP1 JUMP JUMPDEST PUSH1 0x0 PUSH3 0x2196 DUP4 DUP4 PUSH3 0x3375 JUMP INVALID PUSH1 0xA0 PUSH1 0x40 MSTORE PUSH1 0x3 DUP1 SLOAD PUSH1 0x1 PUSH1 0x1 PUSH1 0x40 SHL SUB NOT AND SWAP1 SSTORE CALLVALUE DUP1 ISZERO PUSH2 0x20 JUMPI PUSH1 0x0 DUP1 REVERT JUMPDEST POP PUSH1 0x40 MLOAD PUSH2 0xA7C CODESIZE SUB DUP1 PUSH2 0xA7C DUP4 CODECOPY DUP2 ADD PUSH1 0x40 DUP2 SWAP1 MSTORE PUSH2 0x3F SWAP2 PUSH2 0x39F JUMP JUMPDEST PUSH1 0x0 DUP3 PUSH4 0xFFFFFFFF AND GT PUSH2 0xAA JUMPI PUSH1 0x40 MLOAD PUSH3 0x461BCD PUSH1 0xE5 SHL DUP2 MSTORE PUSH1 0x20 PUSH1 0x4 DUP3 ADD MSTORE PUSH1 0x27 PUSH1 0x24 DUP3 ADD MSTORE PUSH32 0x5F747265654C6576656C732073686F756C642062652067726561746572207468 PUSH1 0x44 DUP3 ADD MSTORE PUSH7 0x616E207A65726F PUSH1 0xC8 SHL PUSH1 0x64 DUP3 ADD MSTORE PUSH1 0x84 ADD JUMPDEST PUSH1 0x40 MLOAD DUP1 SWAP2 SUB SWAP1 REVERT JUMPDEST PUSH1 0x20 DUP3 PUSH4 0xFFFFFFFF AND LT PUSH2 0x10B JUMPI PUSH1 0x40 MLOAD PUSH3 0x461BCD PUSH1 0xE5 SHL DUP2 MSTORE PUSH1 0x20 PUSH1 0x4 DUP3 ADD MSTORE PUSH1 0x22 PUSH1 0x24 DUP3 ADD MSTORE PUSH32 0x5F747265654C6576656C732073686F756C64206265206C657373207468616E20 PUSH1 0x44 DUP3 ADD MSTORE PUSH2 0x1999 PUSH1 0xF1 SHL PUSH1 0x64 DUP3 ADD MSTORE PUSH1 0x84 ADD PUSH2 0xA1 JUMP JUMPDEST PUSH1 0x0 DUP1 SLOAD PUSH1 0x1 PUSH1 0x1 PUSH1 0xA0 SHL SUB NOT AND PUSH1 0x1 PUSH1 0x1 PUSH1 0xA0 SHL SUB DUP4 AND OR DUP2 SSTORE PUSH4 0xFFFFFFFF DUP4 AND PUSH1 0x80 MSTORE PUSH1 0x2 DUP1 SLOAD PUSH1 0x1 DUP2 DUP2 ADD SWAP1 SWAP3 SSTORE PUSH32 0x2FE54C60D3ACABF3343A35B6EBA15DB4821B340F76E741E2249685ED4899AF6C PUSH1 0x0 DUP1 MLOAD PUSH1 0x20 PUSH2 0xA3C DUP4 CODECOPY DUP2 MLOAD SWAP2 MSTORE SWAP1 SWAP2 ADD DUP2 SWAP1 SSTORE DUP2 SLOAD DUP1 DUP4 ADD DUP4 SSTORE SWAP3 DUP3 SWAP1 MSTORE PUSH1 0x0 DUP1 MLOAD PUSH1 0x20 PUSH2 0xA5C DUP4 CODECOPY DUP2 MLOAD SWAP2 MSTORE SWAP1 SWAP3 ADD DUP3 SWAP1 SSTORE JUMPDEST DUP4 PUSH4 0xFFFFFFFF AND DUP2 PUSH4 0xFFFFFFFF AND LT ISZERO PUSH2 0x204 JUMPI PUSH2 0x1B1 DUP3 DUP1 PUSH2 0x21B JUMP JUMPDEST PUSH1 0x2 DUP1 SLOAD PUSH1 0x1 DUP2 DUP2 ADD SWAP1 SWAP3 SSTORE PUSH1 0x0 DUP1 MLOAD PUSH1 0x20 PUSH2 0xA3C DUP4 CODECOPY DUP2 MLOAD SWAP2 MSTORE ADD DUP3 SWAP1 SSTORE DUP1 SLOAD DUP1 DUP3 ADD DUP3 SSTORE PUSH1 0x0 SWAP2 SWAP1 SWAP2 MSTORE PUSH1 0x0 DUP1 MLOAD PUSH1 0x20 PUSH2 0xA5C DUP4 CODECOPY DUP2 MLOAD SWAP2 MSTORE ADD DUP2 SWAP1 SSTORE SWAP2 POP DUP1 PUSH2 0x1FC DUP2 PUSH2 0x3EE JUMP JUMPDEST SWAP2 POP POP PUSH2 0x193 JUMP JUMPDEST POP PUSH2 0x20F DUP2 DUP1 PUSH2 0x21B JUMP JUMPDEST PUSH1 0x4 SSTORE POP PUSH2 0x46A SWAP2 POP POP JUMP JUMPDEST PUSH1 0x0 PUSH32 0x30644E72E131A029B85045B68181585D2833E84879B9709143E1F593F0000001 DUP4 LT PUSH2 0x28C JUMPI PUSH1 0x40 MLOAD PUSH3 0x461BCD PUSH1 0xE5 SHL DUP2 MSTORE PUSH1 0x20 PUSH1 0x4 DUP3 ADD DUP2 SWAP1 MSTORE PUSH1 0x24 DUP3 ADD MSTORE PUSH32 0x5F6C6566742073686F756C6420626520696E7369646520746865206669656C64 PUSH1 0x44 DUP3 ADD MSTORE PUSH1 0x64 ADD PUSH2 0xA1 JUMP JUMPDEST PUSH32 0x30644E72E131A029B85045B68181585D2833E84879B9709143E1F593F0000001 DUP3 LT PUSH2 0x305 JUMPI PUSH1 0x40 MLOAD PUSH3 0x461BCD PUSH1 0xE5 SHL DUP2 MSTORE PUSH1 0x20 PUSH1 0x4 DUP3 ADD MSTORE PUSH1 0x21 PUSH1 0x24 DUP3 ADD MSTORE PUSH32 0x5F72696768742073686F756C6420626520696E7369646520746865206669656C PUSH1 0x44 DUP3 ADD MSTORE PUSH1 0x19 PUSH1 0xFA SHL PUSH1 0x64 DUP3 ADD MSTORE PUSH1 0x84 ADD PUSH2 0xA1 JUMP JUMPDEST PUSH1 0x40 DUP1 MLOAD DUP1 DUP3 ADD DUP3 MSTORE DUP5 DUP2 MSTORE PUSH1 0x20 DUP2 ADD DUP5 SWAP1 MSTORE PUSH1 0x0 SLOAD SWAP2 MLOAD PUSH4 0x14CF2B3 PUSH1 0xE5 SHL DUP2 MSTORE SWAP1 SWAP2 PUSH1 0x1 PUSH1 0x1 PUSH1 0xA0 SHL SUB AND SWAP1 PUSH4 0x299E5660 SWAP1 PUSH2 0x347 SWAP1 DUP5 SWAP1 PUSH1 0x4 ADD PUSH2 0x420 JUMP JUMPDEST PUSH1 0x20 PUSH1 0x40 MLOAD DUP1 DUP4 SUB DUP2 DUP7 DUP1 EXTCODESIZE ISZERO DUP1 ISZERO PUSH2 0x35F JUMPI PUSH1 0x0 DUP1 REVERT JUMPDEST POP GAS STATICCALL ISZERO DUP1 ISZERO PUSH2 0x373 JUMPI RETURNDATASIZE PUSH1 0x0 DUP1 RETURNDATACOPY RETURNDATASIZE PUSH1 0x0 REVERT JUMPDEST POP POP POP POP PUSH1 0x40 MLOAD RETURNDATASIZE PUSH1 0x1F NOT PUSH1 0x1F DUP3 ADD AND DUP3 ADD DUP1 PUSH1 0x40 MSTORE POP DUP2 ADD SWAP1 PUSH2 0x397 SWAP2 SWAP1 PUSH2 0x451 JUMP JUMPDEST SWAP5 SWAP4 POP POP POP POP JUMP JUMPDEST PUSH1 0x0 DUP1 PUSH1 0x40 DUP4 DUP6 SUB SLT ISZERO PUSH2 0x3B2 JUMPI PUSH1 0x0 DUP1 REVERT JUMPDEST DUP3 MLOAD PUSH4 0xFFFFFFFF DUP2 AND DUP2 EQ PUSH2 0x3C6 JUMPI PUSH1 0x0 DUP1 REVERT JUMPDEST PUSH1 0x20 DUP5 ADD MLOAD SWAP1 SWAP3 POP PUSH1 0x1 PUSH1 0x1 PUSH1 0xA0 SHL SUB DUP2 AND DUP2 EQ PUSH2 0x3E3 JUMPI PUSH1 0x0 DUP1 REVERT JUMPDEST DUP1 SWAP2 POP POP SWAP3 POP SWAP3 SWAP1 POP JUMP JUMPDEST PUSH1 0x0 PUSH4 0xFFFFFFFF DUP1 DUP4 AND DUP2 DUP2 EQ ISZERO PUSH2 0x416 JUMPI PUSH4 0x4E487B71 PUSH1 0xE0 SHL PUSH1 0x0 MSTORE PUSH1 0x11 PUSH1 0x4 MSTORE PUSH1 0x24 PUSH1 0x0 REVERT JUMPDEST PUSH1 0x1 ADD SWAP4 SWAP3 POP POP POP JUMP JUMPDEST PUSH1 0x40 DUP2 ADD DUP2 DUP4 PUSH1 0x0 JUMPDEST PUSH1 0x2 DUP2 LT ISZERO PUSH2 0x448 JUMPI DUP2 MLOAD DUP4 MSTORE PUSH1 0x20 SWAP3 DUP4 ADD SWAP3 SWAP1 SWAP2 ADD SWAP1 PUSH1 0x1 ADD PUSH2 0x429 JUMP JUMPDEST POP POP POP SWAP3 SWAP2 POP POP JUMP JUMPDEST PUSH1 0x0 PUSH1 0x20 DUP3 DUP5 SUB SLT ISZERO PUSH2 0x463 JUMPI PUSH1 0x0 DUP1 REVERT JUMPDEST POP MLOAD SWAP2 SWAP1 POP JUMP JUMPDEST PUSH1 0x80 MLOAD PUSH2 0x5B7 PUSH2 0x485 PUSH1 0x0 CODECOPY PUSH1 0x0 PUSH2 0x126 ADD MSTORE PUSH2 0x5B7 PUSH1 0x0 RETURN INVALID PUSH1 0x80 PUSH1 0x40 MSTORE CALLVALUE DUP1 ISZERO PUSH2 0x10 JUMPI PUSH1 0x0 DUP1 REVERT JUMPDEST POP PUSH1 0x4 CALLDATASIZE LT PUSH2 0xCF JUMPI PUSH1 0x0 CALLDATALOAD PUSH1 0xE0 SHR DUP1 PUSH4 0xC2B40AE4 GT PUSH2 0x8C JUMPI DUP1 PUSH4 0xEC732959 GT PUSH2 0x66 JUMPI DUP1 PUSH4 0xEC732959 EQ PUSH2 0x1C6 JUMPI DUP1 PUSH4 0xED33639F EQ PUSH2 0x1ED JUMPI DUP1 PUSH4 0xF178E47C EQ PUSH2 0x218 JUMPI DUP1 PUSH4 0xFC7E9C6F EQ PUSH2 0x22B JUMPI PUSH1 0x0 DUP1 REVERT JUMPDEST DUP1 PUSH4 0xC2B40AE4 EQ PUSH2 0x198 JUMPI DUP1 PUSH4 0xCD87A3B4 EQ PUSH2 0x1AB JUMPI DUP1 PUSH4 0xE8295588 EQ PUSH2 0x1B3 JUMPI PUSH1 0x0 DUP1 REVERT JUMPDEST DUP1 PUSH4 0x38BF282E EQ PUSH2 0xD4 JUMPI DUP1 PUSH4 0x414A37BA EQ PUSH2 0xFA JUMPI DUP1 PUSH4 0x4ECF518B EQ PUSH2 0x121 JUMPI DUP1 PUSH4 0x6D9833E3 EQ PUSH2 0x15D JUMPI DUP1 PUSH4 0x90EEB02B EQ PUSH2 0x180 JUMPI DUP1 PUSH4 0xBA70F757 EQ PUSH2 0x190 JUMPI JUMPDEST PUSH1 0x0 DUP1 REVERT JUMPDEST PUSH2 0xE7 PUSH2 0xE2 CALLDATASIZE PUSH1 0x4 PUSH2 0x4B8 JUMP JUMPDEST PUSH2 0x243 JUMP JUMPDEST PUSH1 0x40 MLOAD SWAP1 DUP2 MSTORE PUSH1 0x20 ADD JUMPDEST PUSH1 0x40 MLOAD DUP1 SWAP2 SUB SWAP1 RETURN JUMPDEST PUSH2 0xE7 PUSH32 0x30644E72E131A029B85045B68181585D2833E84879B9709143E1F593F0000001 DUP2 JUMP JUMPDEST PUSH2 0x148 PUSH32 0x0 DUP2 JUMP JUMPDEST PUSH1 0x40 MLOAD PUSH4 0xFFFFFFFF SWAP1 SWAP2 AND DUP2 MSTORE PUSH1 0x20 ADD PUSH2 0xF1 JUMP JUMPDEST PUSH2 0x170 PUSH2 0x16B CALLDATASIZE PUSH1 0x4 PUSH2 0x4DA JUMP JUMPDEST PUSH2 0x3CC JUMP JUMPDEST PUSH1 0x40 MLOAD SWAP1 ISZERO ISZERO DUP2 MSTORE PUSH1 0x20 ADD PUSH2 0xF1 JUMP JUMPDEST PUSH1 0x3 SLOAD PUSH2 0x148 SWAP1 PUSH4 0xFFFFFFFF AND DUP2 JUMP JUMPDEST PUSH2 0xE7 PUSH2 0x44A JUMP JUMPDEST PUSH2 0xE7 PUSH2 0x1A6 CALLDATASIZE PUSH1 0x4 PUSH2 0x4DA JUMP JUMPDEST PUSH2 0x470 JUMP JUMPDEST PUSH2 0x148 PUSH1 0x64 DUP2 JUMP JUMPDEST PUSH2 0xE7 PUSH2 0x1C1 CALLDATASIZE PUSH1 0x4 PUSH2 0x4DA JUMP JUMPDEST PUSH2 0x487 JUMP JUMPDEST PUSH2 0xE7 PUSH32 0x2FE54C60D3ACABF3343A35B6EBA15DB4821B340F76E741E2249685ED4899AF6C DUP2 JUMP JUMPDEST PUSH1 0x0 SLOAD PUSH2 0x200 SWAP1 PUSH1 0x1 PUSH1 0x1 PUSH1 0xA0 SHL SUB AND DUP2 JUMP JUMPDEST PUSH1 0x40 MLOAD PUSH1 0x1 PUSH1 0x1 PUSH1 0xA0 SHL SUB SWAP1 SWAP2 AND DUP2 MSTORE PUSH1 0x20 ADD PUSH2 0xF1 JUMP JUMPDEST PUSH2 0xE7 PUSH2 0x226 CALLDATASIZE PUSH1 0x4 PUSH2 0x4DA JUMP JUMPDEST PUSH2 0x4A8 JUMP JUMPDEST PUSH1 0x3 SLOAD PUSH2 0x148 SWAP1 PUSH5 0x100000000 SWAP1 DIV PUSH4 0xFFFFFFFF AND DUP2 JUMP JUMPDEST PUSH1 0x0 PUSH32 0x30644E72E131A029B85045B68181585D2833E84879B9709143E1F593F0000001 DUP4 LT PUSH2 0x2B9 JUMPI PUSH1 0x40 MLOAD PUSH3 0x461BCD PUSH1 0xE5 SHL DUP2 MSTORE PUSH1 0x20 PUSH1 0x4 DUP3 ADD DUP2 SWAP1 MSTORE PUSH1 0x24 DUP3 ADD MSTORE PUSH32 0x5F6C6566742073686F756C6420626520696E7369646520746865206669656C64 PUSH1 0x44 DUP3 ADD MSTORE PUSH1 0x64 ADD JUMPDEST PUSH1 0x40 MLOAD DUP1 SWAP2 SUB SWAP1 REVERT JUMPDEST PUSH32 0x30644E72E131A029B85045B68181585D2833E84879B9709143E1F593F0000001 DUP3 LT PUSH2 0x332 JUMPI PUSH1 0x40 MLOAD PUSH3 0x461BCD PUSH1 0xE5 SHL DUP2 MSTORE PUSH1 0x20 PUSH1 0x4 DUP3 ADD MSTORE PUSH1 0x21 PUSH1 0x24 DUP3 ADD MSTORE PUSH32 0x5F72696768742073686F756C6420626520696E7369646520746865206669656C PUSH1 0x44 DUP3 ADD MSTORE PUSH1 0x19 PUSH1 0xFA SHL PUSH1 0x64 DUP3 ADD MSTORE PUSH1 0x84 ADD PUSH2 0x2B0 JUMP JUMPDEST PUSH1 0x40 DUP1 MLOAD DUP1 DUP3 ADD DUP3 MSTORE DUP5 DUP2 MSTORE PUSH1 0x20 DUP2 ADD DUP5 SWAP1 MSTORE PUSH1 0x0 SLOAD SWAP2 MLOAD PUSH4 0x14CF2B3 PUSH1 0xE5 SHL DUP2 MSTORE SWAP1 SWAP2 PUSH1 0x1 PUSH1 0x1 PUSH1 0xA0 SHL SUB AND SWAP1 PUSH4 0x299E5660 SWAP1 PUSH2 0x374 SWAP1 DUP5 SWAP1 PUSH1 0x4 ADD PUSH2 0x4F3 JUMP JUMPDEST PUSH1 0x20 PUSH1 0x40 MLOAD DUP1 DUP4 SUB DUP2 DUP7 DUP1 EXTCODESIZE ISZERO DUP1 ISZERO PUSH2 0x38C JUMPI PUSH1 0x0 DUP1 REVERT JUMPDEST POP GAS STATICCALL ISZERO DUP1 ISZERO PUSH2 0x3A0 JUMPI RETURNDATASIZE PUSH1 0x0 DUP1 RETURNDATACOPY RETURNDATASIZE PUSH1 0x0 REVERT JUMPDEST POP POP POP POP PUSH1 0x40 MLOAD RETURNDATASIZE PUSH1 0x1F NOT PUSH1 0x1F DUP3 ADD AND DUP3 ADD DUP1 PUSH1 0x40 MSTORE POP DUP2 ADD SWAP1 PUSH2 0x3C4 SWAP2 SWAP1 PUSH2 0x524 JUMP JUMPDEST SWAP5 SWAP4 POP POP POP POP JUMP JUMPDEST PUSH1 0x0 DUP2 PUSH2 0x3DB JUMPI POP PUSH1 0x0 SWAP2 SWAP1 POP JUMP JUMPDEST PUSH1 0x3 SLOAD PUSH4 0xFFFFFFFF AND JUMPDEST PUSH1 0x4 DUP2 PUSH4 0xFFFFFFFF AND PUSH1 0x64 DUP2 LT PUSH2 0x3FE JUMPI PUSH2 0x3FE PUSH2 0x53D JUMP JUMPDEST ADD SLOAD DUP4 EQ ISZERO PUSH2 0x410 JUMPI POP PUSH1 0x1 SWAP3 SWAP2 POP POP JUMP JUMPDEST PUSH4 0xFFFFFFFF DUP2 AND PUSH2 0x41F JUMPI POP PUSH1 0x64 JUMPDEST DUP1 PUSH2 0x429 DUP2 PUSH2 0x553 JUMP JUMPDEST PUSH1 0x3 SLOAD SWAP1 SWAP3 POP PUSH4 0xFFFFFFFF DUP1 DUP5 AND SWAP2 AND EQ ISZERO SWAP1 POP PUSH2 0x3E5 JUMPI POP PUSH1 0x0 SWAP3 SWAP2 POP POP JUMP JUMPDEST PUSH1 0x3 SLOAD PUSH1 0x0 SWAP1 PUSH1 0x4 SWAP1 PUSH4 0xFFFFFFFF AND PUSH1 0x64 DUP2 LT PUSH2 0x469 JUMPI PUSH2 0x469 PUSH2 0x53D JUMP JUMPDEST ADD SLOAD SWAP1 POP SWAP1 JUMP JUMPDEST PUSH1 0x4 DUP2 PUSH1 0x64 DUP2 LT PUSH2 0x480 JUMPI PUSH1 0x0 DUP1 REVERT JUMPDEST ADD SLOAD SWAP1 POP DUP2 JUMP JUMPDEST PUSH1 0x2 DUP2 DUP2 SLOAD DUP2 LT PUSH2 0x497 JUMPI PUSH1 0x0 DUP1 REVERT JUMPDEST PUSH1 0x0 SWAP2 DUP3 MSTORE PUSH1 0x20 SWAP1 SWAP2 KECCAK256 ADD SLOAD SWAP1 POP DUP2 JUMP JUMPDEST PUSH1 0x1 DUP2 DUP2 SLOAD DUP2 LT PUSH2 0x497 JUMPI PUSH1 0x0 DUP1 REVERT JUMPDEST PUSH1 0x0 DUP1 PUSH1 0x40 DUP4 DUP6 SUB SLT ISZERO PUSH2 0x4CB JUMPI PUSH1 0x0 DUP1 REVERT JUMPDEST POP POP DUP1 CALLDATALOAD SWAP3 PUSH1 0x20 SWAP1 SWAP2 ADD CALLDATALOAD SWAP2 POP JUMP JUMPDEST PUSH1 0x0 PUSH1 0x20 DUP3 DUP5 SUB SLT ISZERO PUSH2 0x4EC JUMPI PUSH1 0x0 DUP1 REVERT JUMPDEST POP CALLDATALOAD SWAP2 SWAP1 POP JUMP JUMPDEST PUSH1 0x40 DUP2 ADD DUP2 DUP4 PUSH1 0x0 JUMPDEST PUSH1 0x2 DUP2 LT ISZERO PUSH2 0x51B JUMPI DUP2 MLOAD DUP4 MSTORE PUSH1 0x20 SWAP3 DUP4 ADD SWAP3 SWAP1 SWAP2 ADD SWAP1 PUSH1 0x1 ADD PUSH2 0x4FC JUMP JUMPDEST POP POP POP SWAP3 SWAP2 POP POP JUMP JUMPDEST PUSH1 0x0 PUSH1 0x20 DUP3 DUP5 SUB SLT ISZERO PUSH2 0x536 JUMPI PUSH1 0x0 DUP1 REVERT JUMPDEST POP MLOAD SWAP2 SWAP1 POP JUMP JUMPDEST PUSH4 0x4E487B71 PUSH1 0xE0 SHL PUSH1 0x0 MSTORE PUSH1 0x32 PUSH1 0x4 MSTORE PUSH1 0x24 PUSH1 0x0 REVERT JUMPDEST PUSH1 0x0 PUSH4 0xFFFFFFFF DUP3 AND DUP1 PUSH2 0x577 JUMPI PUSH4 0x4E487B71 PUSH1 0xE0 SHL PUSH1 0x0 MSTORE PUSH1 0x11 PUSH1 0x4 MSTORE PUSH1 0x24 PUSH1 0x0 REVERT JUMPDEST PUSH1 0x0 NOT ADD SWAP3 SWAP2 POP POP JUMP INVALID LOG2 PUSH5 0x6970667358 0x22 SLT KECCAK256 0x5E 0xAC PUSH12 0x4B3FB3EA5222926526D7A0A4 0xA9 SLOAD 0xD3 ORIGIN 0x2B PUSH19 0xF2EF676C1478F8E0DE979D64736F6C63430008 MULMOD STOP CALLER BLOCKHASH JUMPI DUP8 STATICCALL SLT 0xA8 0x23 0xE0 CALLCODE 0xB7 PUSH4 0x1CC41B3B 0xA8 DUP3 DUP12 CALLER 0x21 0xCA DUP2 GT GT STATICCALL PUSH22 0xCD3AA3BB5ACEB10E2D527612073B26EECDFD717E6A32 0xC DELEGATECALL 0x4B 0x4A STATICCALL 0xC2 0xB0 PUSH20 0x2D9FCBE2B7FA0CF6A2646970667358221220E19C SWAP5 NUMBER 0xD8 0xEB PUSH17 0x522D3FF9D8F43490ADD5F1C6450CC9642F 0xA6 0x5C PUSH4 0x679EFE39 0xD9 PUSH5 0x736F6C6343 STOP ADDMOD MULMOD STOP CALLER SUB PUSH12 0x6384B5ECA791C62761152D0C PUSH26 0xBB0604C104A5FB6F4EB0703F3154BB3DB0F652222313E2845952 DUP14 SWAP3 SIGNEXTEND PUSH6 0x115C16C04F3E 0xFC DUP3 0xAA 0xED 0xC9 PUSH28 0xE59F3F377C0D3F000000000000000000000000000000000000000000 "},"methodIdentifiers":{"FIELD_SIZE()":"414a37ba","ROOT_HISTORY_SIZE()":"cd87a3b4","ZERO_VALUE()":"ec732959","acceptOwnership()":"79ba5097","clearMessages()":"df65850a","commitments(bytes32)":"839df945","currentRootIndex()":"90eeb02b","estimateCost((uint8,uint8,uint8,string,bytes,string[]),uint64,uint32,uint256)":"d4b39175","filledSubtrees(uint256)":"f178e47c","getDONPublicKey()":"d328a91e","getLastRoot()":"ba70f757","getMessages()":"5ff6cbf3","getWallets(string,bytes,uint8,string[],uint64,uint32)":"0d2a3a88","handleOracleFulfillment(bytes32,bytes,bytes)":"0ca76175","hashLeftRight(bytes32,bytes32)":"38bf282e","hasher()":"ed33639f","insertIntoTree(bytes32,address)":"ea2637a5","isKnownRoot(bytes32)":"6d9833e3","isNullifierUsed(bytes32)":"22dc7b4c","latestError()":"fffeb84e","latestRequestId()":"1aa46f59","latestResponse()":"bef3a2f0","levels()":"4ecf518b","nextIndex()":"fc7e9c6f","nullifiers(bytes32)":"2997e86b","owner()":"8da5cb5b","postMessageWithProof(string,bytes32,bytes32,(uint256[2],uint256[2][2],uint256[2]))":"218fc350","roots(uint256)":"c2b40ae4","subscriptionManager()":"bf158fd2","transferOwnership(address)":"f2fde38b","verifier()":"2b7ac3f3","zeros(uint256)":"e8295588"}}}}}