{"contracts/SnapshotV2.sol":{"SnapshotV2":{"abi":[{"inputs":[{"internalType":"address","name":"oracle","type":"address"},{"internalType":"contract IVerifier","name":"_verifier","type":"address"},{"internalType":"uint32","name":"_merkleTreeHeight","type":"uint32"},{"internalType":"address","name":"_hasher","type":"address"},{"internalType":"address","name":"_subscriptionManager","type":"address"},{"internalType":"uint64","name":"_subscriptionId","type":"uint64"},{"internalType":"uint32","name":"_fulfillGasLimit","type":"uint32"},{"internalType":"uint256","name":"_updateInterval","type":"uint256"}],"stateMutability":"nonpayable","type":"constructor"},{"inputs":[],"name":"EmptyArgs","type":"error"},{"inputs":[],"name":"EmptySecrets","type":"error"},{"inputs":[],"name":"EmptySource","type":"error"},{"inputs":[{"internalType":"string","name":"message","type":"string"}],"name":"MerkleTree__IsFull","type":"error"},{"inputs":[{"internalType":"string","name":"message","type":"string"}],"name":"MerkleTree__TreeLevelsOutOfRange","type":"error"},{"inputs":[],"name":"RequestIsAlreadyPending","type":"error"},{"inputs":[],"name":"RequestIsNotPending","type":"error"},{"inputs":[],"name":"SenderIsNotRegistry","type":"error"},{"inputs":[{"internalType":"string","name":"message","type":"string"}],"name":"SnapshotV2__CommitmentAlreadyUsed","type":"error"},{"inputs":[{"internalType":"string","name":"message","type":"string"}],"name":"SnapshotV2__InvalidProof","type":"error"},{"inputs":[{"internalType":"string","name":"message","type":"string"}],"name":"SnapshotV2__NullifierAlreadyUsed","type":"error"},{"inputs":[{"internalType":"string","name":"message","type":"string"}],"name":"SnapshotV2__RandomWordsNotUpdated","type":"error"},{"inputs":[{"internalType":"string","name":"message","type":"string"}],"name":"SnapshotV2__RootNotKnown","type":"error"},{"inputs":[{"internalType":"string","name":"message","type":"string"}],"name":"SnapshotV2__TimeInterval","type":"error"},{"anonymous":false,"inputs":[{"indexed":false,"internalType":"bytes32","name":"commitment","type":"bytes32"},{"indexed":false,"internalType":"uint32","name":"insertedIndex","type":"uint32"},{"indexed":false,"internalType":"address","name":"wallet","type":"address"}],"name":"Inserted","type":"event"},{"anonymous":false,"inputs":[{"indexed":true,"internalType":"bytes32","name":"requestId","type":"bytes32"},{"indexed":false,"internalType":"bytes","name":"result","type":"bytes"},{"indexed":false,"internalType":"bytes","name":"err","type":"bytes"}],"name":"OCRResponse","type":"event"},{"anonymous":false,"inputs":[{"indexed":true,"internalType":"address","name":"from","type":"address"},{"indexed":true,"internalType":"address","name":"to","type":"address"}],"name":"OwnershipTransferRequested","type":"event"},{"anonymous":false,"inputs":[{"indexed":true,"internalType":"address","name":"from","type":"address"},{"indexed":true,"internalType":"address","name":"to","type":"address"}],"name":"OwnershipTransferred","type":"event"},{"anonymous":false,"inputs":[{"indexed":true,"internalType":"bytes32","name":"id","type":"bytes32"}],"name":"RequestFulfilled","type":"event"},{"anonymous":false,"inputs":[{"indexed":true,"internalType":"bytes32","name":"id","type":"bytes32"}],"name":"RequestSent","type":"event"},{"anonymous":false,"inputs":[{"indexed":false,"internalType":"string","name":"message","type":"string"},{"indexed":false,"internalType":"bytes32","name":"nullifier","type":"bytes32"}],"name":"messagePosted","type":"event"},{"anonymous":false,"inputs":[{"indexed":false,"internalType":"contract MerkleTree","name":"tree","type":"address"}],"name":"messagesCleared","type":"event"},{"inputs":[],"name":"FIELD_SIZE","outputs":[{"internalType":"uint256","name":"","type":"uint256"}],"stateMutability":"view","type":"function"},{"inputs":[],"name":"ROOT_HISTORY_SIZE","outputs":[{"internalType":"uint32","name":"","type":"uint32"}],"stateMutability":"view","type":"function"},{"inputs":[],"name":"ZERO_VALUE","outputs":[{"internalType":"uint256","name":"","type":"uint256"}],"stateMutability":"view","type":"function"},{"inputs":[],"name":"acceptOwnership","outputs":[],"stateMutability":"nonpayable","type":"function"},{"inputs":[{"internalType":"bytes","name":"","type":"bytes"}],"name":"checkUpkeep","outputs":[{"internalType":"bool","name":"upkeepNeeded","type":"bool"},{"internalType":"bytes","name":"","type":"bytes"}],"stateMutability":"view","type":"function"},{"inputs":[],"name":"clearMessages","outputs":[],"stateMutability":"nonpayable","type":"function"},{"inputs":[{"internalType":"bytes32","name":"","type":"bytes32"}],"name":"commitments","outputs":[{"internalType":"bool","name":"","type":"bool"}],"stateMutability":"view","type":"function"},{"inputs":[],"name":"currentRootIndex","outputs":[{"internalType":"uint32","name":"","type":"uint32"}],"stateMutability":"view","type":"function"},{"inputs":[{"components":[{"internalType":"enum Functions.Location","name":"codeLocation","type":"uint8"},{"internalType":"enum Functions.Location","name":"secretsLocation","type":"uint8"},{"internalType":"enum Functions.CodeLanguage","name":"language","type":"uint8"},{"internalType":"string","name":"source","type":"string"},{"internalType":"bytes","name":"secrets","type":"bytes"},{"internalType":"string[]","name":"args","type":"string[]"}],"internalType":"struct Functions.Request","name":"req","type":"tuple"},{"internalType":"uint64","name":"subscriptionId","type":"uint64"},{"internalType":"uint32","name":"gasLimit","type":"uint32"},{"internalType":"uint256","name":"gasPrice","type":"uint256"}],"name":"estimateCost","outputs":[{"internalType":"uint96","name":"","type":"uint96"}],"stateMutability":"view","type":"function"},{"inputs":[{"internalType":"uint256","name":"","type":"uint256"}],"name":"filledSubtrees","outputs":[{"internalType":"bytes32","name":"","type":"bytes32"}],"stateMutability":"view","type":"function"},{"inputs":[],"name":"fulfillGasLimit","outputs":[{"internalType":"uint32","name":"","type":"uint32"}],"stateMutability":"view","type":"function"},{"inputs":[{"internalType":"string","name":"source","type":"string"},{"internalType":"bytes","name":"secrets","type":"bytes"},{"internalType":"string[]","name":"args","type":"string[]"}],"name":"generateRequest","outputs":[{"internalType":"bytes","name":"","type":"bytes"}],"stateMutability":"pure","type":"function"},{"inputs":[],"name":"getDONPublicKey","outputs":[{"internalType":"bytes","name":"","type":"bytes"}],"stateMutability":"view","type":"function"},{"inputs":[],"name":"getLastRoot","outputs":[{"internalType":"bytes32","name":"","type":"bytes32"}],"stateMutability":"view","type":"function"},{"inputs":[],"name":"getMessages","outputs":[{"internalType":"string[]","name":"","type":"string[]"}],"stateMutability":"view","type":"function"},{"inputs":[{"internalType":"bytes32","name":"requestId","type":"bytes32"},{"internalType":"bytes","name":"response","type":"bytes"},{"internalType":"bytes","name":"err","type":"bytes"}],"name":"handleOracleFulfillment","outputs":[],"stateMutability":"nonpayable","type":"function"},{"inputs":[{"internalType":"bytes32","name":"_left","type":"bytes32"},{"internalType":"bytes32","name":"_right","type":"bytes32"}],"name":"hashLeftRight","outputs":[{"internalType":"bytes32","name":"","type":"bytes32"}],"stateMutability":"view","type":"function"},{"inputs":[],"name":"hasher","outputs":[{"internalType":"contract IHasher","name":"","type":"address"}],"stateMutability":"view","type":"function"},{"inputs":[{"internalType":"bytes32","name":"_commitment","type":"bytes32"},{"internalType":"address","name":"wallet","type":"address"}],"name":"insertIntoTree","outputs":[],"stateMutability":"nonpayable","type":"function"},{"inputs":[{"internalType":"bytes32","name":"_root","type":"bytes32"}],"name":"isKnownRoot","outputs":[{"internalType":"bool","name":"","type":"bool"}],"stateMutability":"view","type":"function"},{"inputs":[{"internalType":"bytes32","name":"_nullifier","type":"bytes32"}],"name":"isNullifierUsed","outputs":[{"internalType":"bool","name":"","type":"bool"}],"stateMutability":"view","type":"function"},{"inputs":[],"name":"lastUpkeepTimeStamp","outputs":[{"internalType":"uint256","name":"","type":"uint256"}],"stateMutability":"view","type":"function"},{"inputs":[],"name":"latestError","outputs":[{"internalType":"bytes","name":"","type":"bytes"}],"stateMutability":"view","type":"function"},{"inputs":[],"name":"latestRequestId","outputs":[{"internalType":"bytes32","name":"","type":"bytes32"}],"stateMutability":"view","type":"function"},{"inputs":[],"name":"latestResponse","outputs":[{"internalType":"bytes","name":"","type":"bytes"}],"stateMutability":"view","type":"function"},{"inputs":[],"name":"levels","outputs":[{"internalType":"uint32","name":"","type":"uint32"}],"stateMutability":"view","type":"function"},{"inputs":[],"name":"nextIndex","outputs":[{"internalType":"uint32","name":"","type":"uint32"}],"stateMutability":"view","type":"function"},{"inputs":[{"internalType":"bytes32","name":"","type":"bytes32"}],"name":"nullifiers","outputs":[{"internalType":"bool","name":"","type":"bool"}],"stateMutability":"view","type":"function"},{"inputs":[],"name":"owner","outputs":[{"internalType":"address","name":"","type":"address"}],"stateMutability":"view","type":"function"},{"inputs":[{"internalType":"bytes","name":"","type":"bytes"}],"name":"performUpkeep","outputs":[],"stateMutability":"nonpayable","type":"function"},{"inputs":[{"internalType":"string","name":"_message","type":"string"},{"internalType":"bytes32","name":"_nullifierHash","type":"bytes32"},{"internalType":"bytes32","name":"_root","type":"bytes32"},{"components":[{"internalType":"uint256[2]","name":"a","type":"uint256[2]"},{"internalType":"uint256[2][2]","name":"b","type":"uint256[2][2]"},{"internalType":"uint256[2]","name":"c","type":"uint256[2]"}],"internalType":"struct Proof","name":"_proof","type":"tuple"}],"name":"postMessageWithProof","outputs":[],"stateMutability":"nonpayable","type":"function"},{"inputs":[],"name":"requestCBOR","outputs":[{"internalType":"bytes","name":"","type":"bytes"}],"stateMutability":"view","type":"function"},{"inputs":[],"name":"responseCounter","outputs":[{"internalType":"uint256","name":"","type":"uint256"}],"stateMutability":"view","type":"function"},{"inputs":[{"internalType":"uint256","name":"","type":"uint256"}],"name":"roots","outputs":[{"internalType":"bytes32","name":"","type":"bytes32"}],"stateMutability":"view","type":"function"},{"inputs":[{"internalType":"uint64","name":"_subscriptionId","type":"uint64"},{"internalType":"uint32","name":"_fulfillGasLimit","type":"uint32"},{"internalType":"uint256","name":"_updateInterval","type":"uint256"},{"internalType":"bytes","name":"newRequestCBOR","type":"bytes"}],"name":"setRequest","outputs":[],"stateMutability":"nonpayable","type":"function"},{"inputs":[],"name":"subscriptionId","outputs":[{"internalType":"uint64","name":"","type":"uint64"}],"stateMutability":"view","type":"function"},{"inputs":[],"name":"subscriptionManager","outputs":[{"internalType":"contract IVRFv2SubscriptionManager","name":"","type":"address"}],"stateMutability":"view","type":"function"},{"inputs":[{"internalType":"address","name":"to","type":"address"}],"name":"transferOwnership","outputs":[],"stateMutability":"nonpayable","type":"function"},{"inputs":[],"name":"updateInterval","outputs":[{"internalType":"uint256","name":"","type":"uint256"}],"stateMutability":"view","type":"function"},{"inputs":[],"name":"upkeepCounter","outputs":[{"internalType":"uint256","name":"","type":"uint256"}],"stateMutability":"view","type":"function"},{"inputs":[],"name":"verifier","outputs":[{"internalType":"contract IVerifier","name":"","type":"address"}],"stateMutability":"view","type":"function"},{"inputs":[{"internalType":"uint256","name":"","type":"uint256"}],"name":"zeros","outputs":[{"internalType":"bytes32","name":"","type":"bytes32"}],"stateMutability":"view","type":"function"}],"evm":{"bytecode":{"linkReferences":{},"object":"60a0604052600780546001600160401b03191690553480156200002157600080fd5b5060405162004a9c38038062004a9c833981016040819052620000449162000713565b600080546001600160a01b0319166001600160a01b038a1617815586908690339081906001600160a01b038216620000c35760405162461bcd60e51b815260206004820152601860248201527f43616e6e6f7420736574206f776e657220746f207a65726f000000000000000060448201526064015b60405180910390fd5b600280546001600160a01b0319166001600160a01b0384811691909117909155811615620000f657620000f68162000340565b505050602063ffffffff831611156200016257604051632d5d403760e01b815260206004820152602660248201527f54726565206c6576656c732073686f756c64206265206265747765656e20302060448201526530b73210199960d11b6064820152608401620000ba565b600480546001600160a01b0319166001600160a01b03831617905563ffffffff82166080526006805460018181019092557f2fe54c60d3acabf3343a35b6eba15db4821b340f76e741e2249685ed4899af6c60008051602062004a7c83398151915290910181905560058054808401825560009190915260008051602062004a5c83398151915201819055905b8363ffffffff168163ffffffff1610156200026757620002108280620003ed565b60068054600181810190925560008051602062004a7c8339815191520182905560058054918201815560005260008051602062004a5c833981519152018190559150806200025e81620007ca565b915050620001ef565b50620002748180620003ed565b60085550506001606c55506040805160008082526020820190925290620002ac565b6060815260200190600190039081620002965790505b508051620002c391607a916020909101906200057a565b50607680546001600160a01b039889166001600160a01b0319918216179091556077805495909816941693909317909555606f91909155606e805463ffffffff90951668010000000000000000026001600160601b03199095166001600160401b0390921691909117939093179092555050426070555062000887565b6001600160a01b0381163314156200039b5760405162461bcd60e51b815260206004820152601760248201527f43616e6e6f74207472616e7366657220746f2073656c660000000000000000006044820152606401620000ba565b600380546001600160a01b0319166001600160a01b03838116918217909255600254604051919216907fed8889f560326eb138920d842192f0eb3dd22b4f139c87a2c57538e05bae127890600090a350565b60007f30644e72e131a029b85045b68181585d2833e84879b9709143e1f593f00000018310620004605760405162461bcd60e51b815260206004820181905260248201527f5f6c6566742073686f756c6420626520696e7369646520746865206669656c646044820152606401620000ba565b7f30644e72e131a029b85045b68181585d2833e84879b9709143e1f593f00000018210620004db5760405162461bcd60e51b815260206004820152602160248201527f5f72696768742073686f756c6420626520696e7369646520746865206669656c6044820152601960fa1b6064820152608401620000ba565b6040805180820182528481526020810184905260048054925163014cf2b360e51b815291926001600160a01b03169163299e5660916200051e91859101620007fd565b60206040518083038186803b1580156200053757600080fd5b505afa1580156200054c573d6000803e3d6000fd5b505050506040513d601f19601f8201168201806040525081019062000572919062000830565b949350505050565b828054828255906000526020600020908101928215620005cc579160200282015b82811115620005cc5782518051620005bb918491602090910190620005de565b50916020019190600101906200059b565b50620005da92915062000669565b5090565b828054620005ec906200084a565b90600052602060002090601f0160209004810192826200061057600085556200065b565b82601f106200062b57805160ff19168380011785556200065b565b828001600101855582156200065b579182015b828111156200065b5782518255916020019190600101906200063e565b50620005da9291506200068a565b80821115620005da576000620006808282620006a1565b5060010162000669565b5b80821115620005da57600081556001016200068b565b508054620006af906200084a565b6000825580601f10620006c0575050565b601f016020900490600052602060002090810190620006e091906200068a565b50565b6001600160a01b0381168114620006e057600080fd5b805163ffffffff811681146200070e57600080fd5b919050565b600080600080600080600080610100898b0312156200073157600080fd5b88516200073e81620006e3565b60208a01519098506200075181620006e3565b96506200076160408a01620006f9565b955060608901516200077381620006e3565b60808a01519095506200078681620006e3565b60a08a01519094506001600160401b0381168114620007a457600080fd5b9250620007b460c08a01620006f9565b915060e089015190509295985092959890939650565b600063ffffffff80831681811415620007f357634e487b7160e01b600052601160045260246000fd5b6001019392505050565b60408101818360005b60028110156200082757815183526020928301929091019060010162000806565b50505092915050565b6000602082840312156200084357600080fd5b5051919050565b600181811c908216806200085f57607f821691505b602082108114156200088157634e487b7160e01b600052602260045260246000fd5b50919050565b6080516141a4620008b860003960008181610438015281816111be01528181611b030152611bef01526141a46000f3fe60806040523480156200001157600080fd5b5060043610620002915760003560e01c806390eeb02b1162000161578063e829558811620000d3578063f178e47c1162000092578063f178e47c1462000639578063f2fde38b1462000650578063fc7e9c6f1462000667578063fd2c80ae1462000680578063fe083012146200068a578063fffeb84e14620006a157600080fd5b8063e829558814620005b8578063ea2637a514620005cf578063eb197c7714620005e6578063ec73295914620005fd578063ed33639f146200062557600080fd5b8063c2b40ae41162000120578063c2b40ae4146200054f578063cd87a3b41462000566578063d328a91e146200056f578063d4b391751462000579578063df65850a14620005ae57600080fd5b806390eeb02b146200050c578063a3d3c0d2146200051d578063ba70f7571462000527578063bef3a2f01462000531578063bf158fd2146200053b57600080fd5b806338bf282e1162000207578063688ecfd111620001c6578063688ecfd114620004735780636d9833e3146200048c5780636e04ff0d14620004a357806379ba509714620004ca578063839df94514620004d45780638da5cb5b14620004fa57600080fd5b806338bf282e14620003dc578063414a37ba14620003f35780634585e33b146200041b5780634ecf518b14620004325780635ff6cbf3146200045a57600080fd5b806322dc7b4c116200025457806322dc7b4c146200031a57806324b93e3e14620003515780632997e86b146200037f5780632b7ac3f314620003a5578063381fc4b514620003d257600080fd5b8063089ea02e146200029657806309c1ba2e14620002b35780630ca7617514620002e05780631aa46f5914620002f9578063218fc3501462000303575b600080fd5b620002a060705481565b6040519081526020015b60405180910390f35b606e54620002c7906001600160401b031681565b6040516001600160401b039091168152602001620002aa565b620002f7620002f136600462002794565b620006ab565b005b620002a060735481565b620002f7620003143660046200285d565b6200073b565b620003406200032b3660046200295d565b60009081526078602052604090205460ff1690565b6040519015158152602001620002aa565b606e546200036990600160401b900463ffffffff1681565b60405163ffffffff9091168152602001620002aa565b62000340620003903660046200295d565b60786020526000908152604090205460ff1681565b607654620003b9906001600160a01b031681565b6040516001600160a01b039091168152602001620002aa565b620002a060725481565b620002a0620003ed36600462002977565b6200097d565b620002a07f30644e72e131a029b85045b68181585d2833e84879b9709143e1f593f000000181565b620002f76200042c366004620029e5565b62000b0c565b620003697f000000000000000000000000000000000000000000000000000000000000000081565b6200046462000d18565b604051620002aa919062002a87565b6200047d62000dfb565b604051620002aa919062002aed565b620003406200049d3660046200295d565b62000e91565b620004ba620004b436600462002b02565b62000f18565b604051620002aa92919062002b3a565b620002f762000f37565b62000340620004e53660046200295d565b60796020526000908152604090205460ff1681565b6002546001600160a01b0316620003b9565b600754620003699063ffffffff1681565b620002a060715481565b620002a062000fe7565b6200047d62001010565b607754620003b9906001600160a01b031681565b620002a0620005603660046200295d565b6200101f565b62000369606481565b6200047d62001037565b620005906200058a36600462002c6e565b620010c0565b6040516bffffffffffffffffffffffff9091168152602001620002aa565b620002f762001160565b620002a0620005c93660046200295d565b62001270565b620002f7620005e036600462002dad565b62001292565b620002f7620005f736600462002de0565b62001394565b620002a07f2fe54c60d3acabf3343a35b6eba15db4821b340f76e741e2249685ed4899af6c81565b600454620003b9906001600160a01b031681565b620002a06200064a3660046200295d565b620013e9565b620002f76200066136600462002e56565b620013fa565b6007546200036990640100000000900463ffffffff1681565b620002a0606f5481565b6200047d6200069b36600462002e76565b62001412565b6200047d62001519565b60008381526001602052604090205483906001600160a01b03163314620006e55760405163a0c5ec6360e01b815260040160405180910390fd5b60008181526001602052604080822080546001600160a01b03191690555182917f85e1543bf2f84fe80c6badbce3648c8539ad1df4d2b3d822938ca0538be727e691a26200073584848462001528565b50505050565b6200074562001842565b60008381526078602052604090205460ff1615620007a4576040516337a51b3d60e21b8152602060048201526016602482015275139d5b1b1a599a595c88185b1c9958591e481d5cd95960521b60448201526064015b60405180910390fd5b620007af8262000e91565b620007ef5760405163a4305b1360e01b815260206004820152600e60248201526d2937b7ba103737ba1035b737bbb760911b60448201526064016200079b565b6040805180820182528381526020808201869052607654845191850151858501519451637ae4eb4f60e11b815293946001600160a01b039092169363f5c9d69e936200084393909291879060040162002f6e565b602060405180830381600087803b1580156200085e57600080fd5b505af115801562000873573d6000803e3d6000fd5b505050506040513d601f19601f8201168201806040525081019062000899919062002fdf565b620008d8576040516309daa30960e21b815260206004820152600d60248201526c24b73b30b634b210383937b7b360991b60448201526064016200079b565b60008481526078602090815260408220805460ff19166001908117909155607a80549182018155909252865162000935927ff0440771a29e57e18c66727944770b82cc77924aef333c927ce6bdd2cdb3ae0301918801906200243f565b507f06b6c80bb5c4b26d73a7cf3586c1b2f17bd79f8f7fd3c3e14f9cd7092657412085856040516200096992919062003003565b60405180910390a150620007356001606c55565b60007f30644e72e131a029b85045b68181585d2833e84879b9709143e1f593f00000018310620009f05760405162461bcd60e51b815260206004820181905260248201527f5f6c6566742073686f756c6420626520696e7369646520746865206669656c6460448201526064016200079b565b7f30644e72e131a029b85045b68181585d2833e84879b9709143e1f593f0000001821062000a6b5760405162461bcd60e51b815260206004820152602160248201527f5f72696768742073686f756c6420626520696e7369646520746865206669656c6044820152601960fa1b60648201526084016200079b565b6040805180820182528481526020810184905260048054925163014cf2b360e51b815291926001600160a01b03169163299e56609162000aae9185910162003027565b60206040518083038186803b15801562000ac757600080fd5b505afa15801562000adc573d6000803e3d6000fd5b505050506040513d601f19601f8201168201806040525081019062000b0291906200305a565b9150505b92915050565b600062000b286040518060200160405280600081525062000f18565b5090508062000b7357604051632f0c8d4b60e21b8152602060048201526015602482015274151a5b59481a5b9d195c9d985b081b9bdd081b595d605a1b60448201526064016200079b565b4260705560715462000b879060016200308a565b60715560008054606e54604051630a090ac160e21b81526001600160a01b03909216916328242b049162000bdb916001600160401b03821691606d91600160401b90910463ffffffff1690600401620030dc565b602060405180830381600087803b15801562000bf657600080fd5b505af115801562000c0b573d6000803e3d6000fd5b505050506040513d601f19601f8201168201806040525081019062000c3191906200305a565b905060008054906101000a90046001600160a01b03166001600160a01b0316635ab1bd536040518163ffffffff1660e01b815260040160206040518083038186803b15801562000c8057600080fd5b505afa15801562000c95573d6000803e3d6000fd5b505050506040513d601f19601f8201168201806040525081019062000cbb9190620031ab565b60008281526001602052604080822080546001600160a01b0319166001600160a01b039490941693909317909255905182917f1131472297a800fee664d1d89cfa8f7676ff07189ecc53f80bbb5f4969099db891a2607355505050565b6060607a805480602002602001604051908101604052809291908181526020016000905b8282101562000df257838290600052602060002001805462000d5e90620030a5565b80601f016020809104026020016040519081016040528092919081815260200182805462000d8c90620030a5565b801562000ddd5780601f1062000db15761010080835404028352916020019162000ddd565b820191906000526020600020905b81548152906001019060200180831162000dbf57829003601f168201915b50505050508152602001906001019062000d3c565b50505050905090565b606d805462000e0a90620030a5565b80601f016020809104026020016040519081016040528092919081815260200182805462000e3890620030a5565b801562000e895780601f1062000e5d5761010080835404028352916020019162000e89565b820191906000526020600020905b81548152906001019060200180831162000e6b57829003601f168201915b505050505081565b60008162000ea157506000919050565b60075463ffffffff165b60088163ffffffff166064811062000ec75762000ec7620031cb565b015483141562000eda5750600192915050565b63ffffffff811662000eea575060645b8062000ef681620031e1565b60075490925063ffffffff80841691161415905062000eab5750600092915050565b60006060606f546070544262000f2f919062003204565b119150915091565b6003546001600160a01b0316331462000f8c5760405162461bcd60e51b815260206004820152601660248201527526bab9ba10313290383937b837b9b2b21037bbb732b960511b60448201526064016200079b565b600280546001600160a01b0319808216339081179093556003805490911690556040516001600160a01b03909116919082907f8be0079c531659141344cd1fd0a4f28419497f9722a3daafe3b4186f6b6457e090600090a350565b60075460009060089063ffffffff1660648110620010095762001009620031cb565b0154905090565b6074805462000e0a90620030a5565b600881606481106200103057600080fd5b0154905081565b6000805460408051636994548f60e11b815290516060936001600160a01b039093169263d328a91e9260048082019391829003018186803b1580156200107c57600080fd5b505afa15801562001091573d6000803e3d6000fd5b505050506040513d6000823e601f3d908101601f19168201604052620010bb91908101906200321e565b905090565b600080546001600160a01b031663d227d24585620010de886200189e565b86866040518563ffffffff1660e01b815260040162001101949392919062003294565b60206040518083038186803b1580156200111a57600080fd5b505afa1580156200112f573d6000803e3d6000fd5b505050506040513d601f19601f82011682018060405250810190620011559190620032d1565b90505b949350505050565b6200116e607a6000620024ce565b60408051600080825260208201909252906200119b565b6060815260200190600190039081620011855790505b508051620011b291607a91602090910190620024ee565b506004546040516000917f0000000000000000000000000000000000000000000000000000000000000000916001600160a01b0390911690620011f5906200254e565b63ffffffff90921682526001600160a01b03166020820152604001604051809103906000f0801580156200122d573d6000803e3d6000fd5b506040516001600160a01b03821681529091507f0765db991984a89c27e19f67d91432136b71039b4232e172528f603c60bd9f9b9060200160405180910390a150565b600681815481106200128157600080fd5b600091825260209091200154905081565b6200129c62001842565b60008281526079602052604090205460ff1615620012fe57604051632f40bf3560e01b815260206004820152601760248201527f436f6d6d69746d656e7420616c7265616479207573656400000000000000000060448201526064016200079b565b60006200130b8362001ae9565b60008481526079602052604090819020805460ff19166001179055519091507f4b06a020eaa12a2d683a4c58434ae9611d1026df0943fb89f31e751cb777b5ad906200137c9085908490869092835263ffffffff9190911660208301526001600160a01b0316604082015260600190565b60405180910390a150620013906001606c55565b5050565b6200139e62001d76565b606f839055606e805463ffffffff8616600160401b026bffffffffffffffffffffffff199091166001600160401b03881617179055620013e1606d83836200255c565b505050505050565b600581815481106200128157600080fd5b6200140462001d76565b6200140f8162001dcd565b50565b60606200144f6040805160c08101909152806000815260200160008152602001600081526020016060815260200160608152602001606081525090565b620014986000808a8a8080601f0160208091040260200160405190810160405280939291908181526020018383808284376000920191909152508795949392505062001e7a9050565b8415620014e357620014e386868080601f016020809104026020016040519081016040528093929190818152602001838380828437600092019190915250859392505062001f029050565b8215620015025762001502620014fa848662003301565b829062001f31565b6200150d816200189e565b98975050505050505050565b6075805462000e0a90620030a5565b81516200153d9060749060208501906200243f565b508051620015539060759060208401906200243f565b506077546040805163ce10b1fb60e01b815290516000926001600160a01b03169163ce10b1fb9160048083019286929190829003018186803b1580156200159957600080fd5b505afa158015620015ae573d6000803e3d6000fd5b505050506040513d6000823e601f3d908101601f19168201604052620015d8919081019062003310565b600081518110620015ed57620015ed620031cb565b60200260200101519050607760009054906101000a90046001600160a01b03166001600160a01b031663e0c862896040518163ffffffff1660e01b8152600401600060405180830381600087803b1580156200164857600080fd5b505af11580156200165d573d6000803e3d6000fd5b505050506000607760009054906101000a90046001600160a01b03166001600160a01b031663ce10b1fb6040518163ffffffff1660e01b815260040160006040518083038186803b158015620016b257600080fd5b505afa158015620016c7573d6000803e3d6000fd5b505050506040513d6000823e601f3d908101601f19168201604052620016f1919081019062003310565b905080600081518110620017095762001709620031cb565b602002602001015182141562001763576040516350e417ad60e01b815260206004820152601860248201527f52616e646f6d20776f726473206e6f742075706461746564000000000000000060448201526064016200079b565b60005b8151811015620017fe576000828281518110620017875762001787620031cb565b60200260200101519050600081604051602001620017a791815260200190565b604051602081830303815290604052805190602001209050600087806020019051810190620017d79190620031ab565b9050620017e5828262001292565b5050508080620017f590620033a9565b91505062001766565b50847f7bab0ec163b5c132c72b8146ac4d6e067e82ed58f8b131150aa71c9258911562858560405162001833929190620033c7565b60405180910390a25050505050565b6002606c541415620018975760405162461bcd60e51b815260206004820152601f60248201527f5265656e7472616e637947756172643a207265656e7472616e742063616c6c0060448201526064016200079b565b6002606c55565b6060620018be604051806040016040528060608152602001600081525090565b620018cc8161010062001f59565b5060408051808201909152600c81526b31b7b232a637b1b0ba34b7b760a11b6020820152620018fd90829062001fc7565b825162001920906001811115620019185762001918620033f0565b829062001fe7565b6040805180820190915260088152676c616e677561676560c01b60208201526200194c90829062001fc7565b604083015162001967908015620019185762001918620033f0565b604080518082019091526006815265736f7572636560d01b60208201526200199190829062001fc7565b6060830151620019a390829062001fc7565b60a0830151511562001a49576040805180820190915260048152636172677360e01b6020820152620019d790829062001fc7565b620019e28162002011565b60005b8360a001515181101562001a3d5762001a288460a00151828151811062001a105762001a10620031cb565b60200260200101518362001fc790919063ffffffff16565b8062001a3481620033a9565b915050620019e5565b5062001a49816200201e565b6080830151511562001ae25760408051808201909152600f81526e39b2b1b932ba39a637b1b0ba34b7b760891b602082015262001a8890829062001fc7565b62001aa583602001516001811115620019185762001918620033f0565b6040805180820190915260078152667365637265747360c81b602082015262001ad090829062001fc7565b608083015162001ae29082906200202b565b5192915050565b600754600090640100000000900463ffffffff1662001b2a7f0000000000000000000000000000000000000000000000000000000000000000600262003618565b63ffffffff168163ffffffff16141562001ba05760405163d7e8473f60e01b815260206004820152602f60248201527f4d65726b6c6520747265652069732066756c6c2e204e6f206d6f7265206c656160448201526e199cc818d85b881899481859191959608a1b60648201526084016200079b565b6001600760048282829054906101000a900463ffffffff1662001bc491906200362f565b92506101000a81548163ffffffff021916908363ffffffff160217905550600083905060008060005b7f000000000000000000000000000000000000000000000000000000000000000063ffffffff168163ffffffff16101562001cf45762001c2f60028662003670565b63ffffffff1662001c955783925060068163ffffffff168154811062001c595762001c59620031cb565b906000526020600020015491508360058263ffffffff168154811062001c835762001c83620031cb565b60009182526020909120015562001cc2565b60058163ffffffff168154811062001cb15762001cb1620031cb565b906000526020600020015492508391505b62001cce83836200097d565b935062001cdd60028662003696565b94508062001ceb81620036bc565b91505062001bed565b5060075460649062001d0e9063ffffffff1660016200362f565b62001d1a919062003670565b6007805463ffffffff191663ffffffff92909216918217905583906008906064811062001d4b5762001d4b620031cb565b015560075462001d6c90600190640100000000900463ffffffff16620036e3565b9695505050505050565b6002546001600160a01b0316331462001dcb5760405162461bcd60e51b815260206004820152601660248201527527b7363c9031b0b63630b1363290313c9037bbb732b960511b60448201526064016200079b565b565b6001600160a01b03811633141562001e285760405162461bcd60e51b815260206004820152601760248201527f43616e6e6f74207472616e7366657220746f2073656c6600000000000000000060448201526064016200079b565b600380546001600160a01b0319166001600160a01b03838116918217909255600254604051919216907fed8889f560326eb138920d842192f0eb3dd22b4f139c87a2c57538e05bae127890600090a350565b805162001e9a576040516322ce3edd60e01b815260040160405180910390fd5b8383600181111562001eb05762001eb0620033f0565b9081600181111562001ec65762001ec6620033f0565b9052506040840182801562001edf5762001edf620033f0565b9081801562001ef25762001ef2620033f0565b9052506060909301929092525050565b805162001f225760405163e889636f60e01b815260040160405180910390fd5b60016020830152608090910152565b805162001f515760405163fe936cb760e01b815260040160405180910390fd5b60a090910152565b60408051808201909152606081526000602082015262001f7b6020836200370b565b1562001faa5762001f8e6020836200370b565b62001f9b90602062003204565b62001fa790836200308a565b91505b506020828101829052604080518085526000815290920101905290565b62001fd6826003835162002035565b62001fe2828262002152565b505050565b6001600160401b03811115620020035762001390828262002182565b620013908260008362002035565b6200140f816004620021be565b6200140f816007620021be565b62001fd682600283515b6017816001600160401b0316116200205c57620007358360e0600585901b168317620021d0565b60ff816001600160401b0316116200209d5762002085836018611fe0600586901b1617620021d0565b5062000735836001600160401b0383166001620021f7565b61ffff816001600160401b031611620020df57620020c7836019611fe0600586901b1617620021d0565b5062000735836001600160401b0383166002620021f7565b63ffffffff816001600160401b03161162002123576200210b83601a611fe0600586901b1617620021d0565b5062000735836001600160401b0383166004620021f7565b6200213a83601b611fe0600586901b1617620021d0565b5062000735836001600160401b0383166008620021f7565b6040805180820190915260608152600060208201526200217b838460000151518485516200221f565b9392505050565b6200218f8260c2620021d0565b50620013908282604051602001620021a991815260200190565b6040516020818303038152906040526200202b565b62001fe282601f611fe0600585901b16175b6040805180820190915260608152600060208201526200217b83846000015151846200231e565b604080518082019091526060815260006020820152620011588485600001515185856200237f565b60408051808201909152606081526000602082015282518211156200224357600080fd5b60208501516200225483866200308a565b1115620022905762002290856200227d876020015187866200227791906200308a565b6200240b565b6200228a90600262003722565b62002424565b600080865180518760208301019350808887011115620022b05787860182525b505050602084015b60208410620022f85780518252620022d26020836200308a565b9150620022e16020826200308a565b9050620022f060208562003204565b9350620022b8565b51815160001960208690036101000a019081169019919091161790525083949350505050565b6040805180820190915260608152600060208201528360200151831062002357576200235784856020015160026200228a919062003722565b83518051602085830101848153508085141562002375576001810182525b5093949350505050565b6040805180820190915260608152600060208201526020850151620023a585846200308a565b1115620023bd57620023bd856200227d86856200308a565b60006001620023cf8461010062003744565b620023db919062003204565b9050855183868201018583198251161781525080518487011115620024005783860181525b509495945050505050565b6000818311156200241e57508162000b06565b50919050565b815162002432838362001f59565b5062000735838262002152565b8280546200244d90620030a5565b90600052602060002090601f016020900481019282620024715760008555620024bc565b82601f106200248c57805160ff1916838001178555620024bc565b82800160010185558215620024bc579182015b82811115620024bc5782518255916020019190600101906200249f565b50620024ca929150620025d9565b5090565b50805460008255906000526020600020908101906200140f9190620025f0565b82805482825590600052602060002090810192821562002540579160200282015b828111156200254057825180516200252f9184916020909101906200243f565b50916020019190600101906200250f565b50620024ca929150620025f0565b610a1c806200375383390190565b8280546200256a90620030a5565b90600052602060002090601f0160209004810192826200258e5760008555620024bc565b82601f10620025a95782800160ff19823516178555620024bc565b82800160010185558215620024bc579182015b82811115620024bc578235825591602001919060010190620025bc565b5b80821115620024ca5760008155600101620025da565b80821115620024ca57600062002607828262002611565b50600101620025f0565b5080546200261f90620030a5565b6000825580601f1062002630575050565b601f0160209004906000526020600020908101906200140f9190620025d9565b634e487b7160e01b600052604160045260246000fd5b604051606081016001600160401b03811182821017156200268b576200268b62002650565b60405290565b60405160c081016001600160401b03811182821017156200268b576200268b62002650565b604080519081016001600160401b03811182821017156200268b576200268b62002650565b604051601f8201601f191681016001600160401b038111828210171562002706576200270662002650565b604052919050565b60006001600160401b038211156200272a576200272a62002650565b50601f01601f191660200190565b600082601f8301126200274a57600080fd5b8135620027616200275b826200270e565b620026db565b8181528460208386010111156200277757600080fd5b816020850160208301376000918101602001919091529392505050565b600080600060608486031215620027aa57600080fd5b8335925060208401356001600160401b0380821115620027c957600080fd5b620027d78783880162002738565b93506040860135915080821115620027ee57600080fd5b50620027fd8682870162002738565b9150509250925092565b600082601f8301126200281957600080fd5b62002823620026b6565b8060408401858111156200283657600080fd5b845b818110156200285257803584526020938401930162002838565b509095945050505050565b6000806000808486036101608112156200287657600080fd5b85356001600160401b038111156200288d57600080fd5b6200289b8882890162002738565b95505060208681013594506040808801359450610100605f1984011215620028c257600080fd5b620028cc62002666565b9250620028dd8960608a0162002807565b83528860bf890112620028ef57600080fd5b620028f9620026b6565b806101208a018b8111156200290d57600080fd5b60a08b015b818110156200293557620029278d8262002807565b845292850192840162002912565b508185870152620029478c8262002807565b8487015250505050508091505092959194509250565b6000602082840312156200297057600080fd5b5035919050565b600080604083850312156200298b57600080fd5b50508035926020909101359150565b60008083601f840112620029ad57600080fd5b5081356001600160401b03811115620029c557600080fd5b602083019150836020828501011115620029de57600080fd5b9250929050565b60008060208385031215620029f957600080fd5b82356001600160401b0381111562002a1057600080fd5b62002a1e858286016200299a565b90969095509350505050565b60005b8381101562002a4757818101518382015260200162002a2d565b83811115620007355750506000910152565b6000815180845262002a7381602086016020860162002a2a565b601f01601f19169290920160200192915050565b6000602080830181845280855180835260408601915060408160051b870101925083870160005b8281101562002ae057603f1988860301845262002acd85835162002a59565b9450928501929085019060010162002aae565b5092979650505050505050565b6020815260006200217b602083018462002a59565b60006020828403121562002b1557600080fd5b81356001600160401b0381111562002b2c57600080fd5b62000b028482850162002738565b821515815260406020820152600062001158604083018462002a59565b80356002811062002b6757600080fd5b919050565b80356001811062002b6757600080fd5b60006001600160401b0382111562002b985762002b9862002650565b5060051b60200190565b600062002bb36200275b8462002b7c565b8381529050602080820190600585901b84018681111562002bd357600080fd5b845b8181101562002c135780356001600160401b0381111562002bf65760008081fd5b62002c048982890162002738565b85525092820192820162002bd5565b505050509392505050565b600082601f83011262002c3057600080fd5b6200217b8383356020850162002ba2565b80356001600160401b038116811462002b6757600080fd5b803563ffffffff8116811462002b6757600080fd5b6000806000806080858703121562002c8557600080fd5b84356001600160401b038082111562002c9d57600080fd5b9086019060c0828903121562002cb257600080fd5b62002cbc62002691565b62002cc78362002b57565b815262002cd76020840162002b57565b602082015262002cea6040840162002b6c565b604082015260608301358281111562002d0257600080fd5b62002d108a82860162002738565b60608301525060808301358281111562002d2957600080fd5b62002d378a82860162002738565b60808301525060a08301358281111562002d5057600080fd5b62002d5e8a82860162002c1e565b60a083015250955062002d779150506020860162002c41565b925062002d876040860162002c59565b9396929550929360600135925050565b6001600160a01b03811681146200140f57600080fd5b6000806040838503121562002dc157600080fd5b82359150602083013562002dd58162002d97565b809150509250929050565b60008060008060006080868803121562002df957600080fd5b62002e048662002c41565b945062002e146020870162002c59565b93506040860135925060608601356001600160401b0381111562002e3757600080fd5b62002e45888289016200299a565b969995985093965092949392505050565b60006020828403121562002e6957600080fd5b81356200217b8162002d97565b6000806000806000806060878903121562002e9057600080fd5b86356001600160401b038082111562002ea857600080fd5b62002eb68a838b016200299a565b9098509650602089013591508082111562002ed057600080fd5b62002ede8a838b016200299a565b9096509450604089013591508082111562002ef857600080fd5b818901915089601f83011262002f0d57600080fd5b81358181111562002f1d57600080fd5b8a60208260051b850101111562002f3357600080fd5b6020830194508093505050509295509295509295565b8060005b60028110156200073557815184526020938401939091019060010162002f4d565b610140810162002f7f828762002f49565b60408083018660005b600281101562002fb35762002f9f83835162002f49565b918301916020919091019060010162002f88565b5050505062002fc660c083018562002f49565b62002fd661010083018462002f49565b95945050505050565b60006020828403121562002ff257600080fd5b815180151581146200217b57600080fd5b60408152600062003018604083018562002a59565b90508260208301529392505050565b60408101818360005b60028110156200305157815183526020928301929091019060010162003030565b50505092915050565b6000602082840312156200306d57600080fd5b5051919050565b634e487b7160e01b600052601160045260246000fd5b60008219821115620030a057620030a062003074565b500190565b600181811c90821680620030ba57607f821691505b602082108114156200241e57634e487b7160e01b600052602260045260246000fd5b6001600160401b0384168152600060206060818401526000855481600182811c9150808316806200310e57607f831692505b8583108114156200312d57634e487b7160e01b85526022600452602485fd5b60608801839052608088018180156200314f576001811462003161576200318e565b60ff198616825287820196506200318e565b60008c81526020902060005b8681101562003188578154848201529085019089016200316d565b83019750505b50505063ffffffff88166040880152509193506200115892505050565b600060208284031215620031be57600080fd5b81516200217b8162002d97565b634e487b7160e01b600052603260045260246000fd5b600063ffffffff821680620031fa57620031fa62003074565b6000190192915050565b60008282101562003219576200321962003074565b500390565b6000602082840312156200323157600080fd5b81516001600160401b038111156200324857600080fd5b8201601f810184136200325a57600080fd5b80516200326b6200275b826200270e565b8181528560208385010111156200328157600080fd5b62002fd682602083016020860162002a2a565b6001600160401b0385168152608060208201526000620032b8608083018662002a59565b63ffffffff949094166040830152506060015292915050565b600060208284031215620032e457600080fd5b81516bffffffffffffffffffffffff811681146200217b57600080fd5b60006200217b36848462002ba2565b600060208083850312156200332457600080fd5b82516001600160401b038111156200333b57600080fd5b8301601f810185136200334d57600080fd5b80516200335e6200275b8262002b7c565b81815260059190911b820183019083810190878311156200337e57600080fd5b928401925b828410156200339e5783518252928401929084019062003383565b979650505050505050565b6000600019821415620033c057620033c062003074565b5060010190565b604081526000620033dc604083018562002a59565b828103602084015262002fd6818562002a59565b634e487b7160e01b600052602160045260246000fd5b600181815b8085111562003449578163ffffffff048211156200342d576200342d62003074565b808516156200343b57918102915b93841c93908002906200340b565b509250929050565b600181815b808511156200344957816000190482111562003476576200347662003074565b808516156200348457918102915b93841c939080029062003456565b600082620034a35750600162000b06565b81620034b25750600062000b06565b8160018114620034cb5760028114620034d6576200350e565b600191505062000b06565b60ff841115620034ea57620034ea62003074565b6001841b915063ffffffff82111562003507576200350762003074565b5062000b06565b5060208310610133831016604e8410600b84101617156200354a575081810a63ffffffff81111562003544576200354462003074565b62000b06565b62003556838362003406565b8063ffffffff048211156200356f576200356f62003074565b029392505050565b600082620035885750600162000b06565b81620035975750600062000b06565b8160018114620034cb5760028114620035b057620035d0565b60ff841115620035c457620035c462003074565b50506001821b62000b06565b5060208310610133831016604e8410600b8410161715620035f5575081810a62000b06565b62003601838362003451565b80600019048211156200356f576200356f62003074565b600063ffffffff62000b0281851682851662003492565b600063ffffffff80831681851680830382111562003651576200365162003074565b01949350505050565b634e487b7160e01b600052601260045260246000fd5b600063ffffffff808416806200368a576200368a6200365a565b92169190910692915050565b600063ffffffff80841680620036b057620036b06200365a565b92169190910492915050565b600063ffffffff80831681811415620036d957620036d962003074565b6001019392505050565b600063ffffffff8381169083168181101562003703576200370362003074565b039392505050565b6000826200371d576200371d6200365a565b500690565b60008160001904831182151516156200373f576200373f62003074565b500290565b60006200217b83836200357756fe60a0604052600380546001600160401b031916905534801561002057600080fd5b50604051610a1c380380610a1c83398101604081905261003f9161033f565b60208263ffffffff1611156100ab57604051632d5d403760e01b815260206004820152602660248201527f54726565206c6576656c732073686f756c64206265206265747765656e20302060448201526530b73210199960d11b60648201526084015b60405180910390fd5b600080546001600160a01b0319166001600160a01b03831617815563ffffffff83166080526002805460018181019092557f2fe54c60d3acabf3343a35b6eba15db4821b340f76e741e2249685ed4899af6c6000805160206109dc83398151915290910181905581548083018355928290526000805160206109fc8339815191529092018290555b8363ffffffff168163ffffffff1610156101a45761015182806101bb565b6002805460018181019092556000805160206109dc83398151915201829055805480820182556000919091526000805160206109fc8339815191520181905591508061019c8161038e565b915050610133565b506101af81806101bb565b6004555061040a915050565b60007f30644e72e131a029b85045b68181585d2833e84879b9709143e1f593f0000001831061022c5760405162461bcd60e51b815260206004820181905260248201527f5f6c6566742073686f756c6420626520696e7369646520746865206669656c6460448201526064016100a2565b7f30644e72e131a029b85045b68181585d2833e84879b9709143e1f593f000000182106102a55760405162461bcd60e51b815260206004820152602160248201527f5f72696768742073686f756c6420626520696e7369646520746865206669656c6044820152601960fa1b60648201526084016100a2565b60408051808201825284815260208101849052600054915163014cf2b360e51b815290916001600160a01b03169063299e5660906102e79084906004016103c0565b60206040518083038186803b1580156102ff57600080fd5b505afa158015610313573d6000803e3d6000fd5b505050506040513d601f19601f8201168201806040525081019061033791906103f1565b949350505050565b6000806040838503121561035257600080fd5b825163ffffffff8116811461036657600080fd5b60208401519092506001600160a01b038116811461038357600080fd5b809150509250929050565b600063ffffffff808316818114156103b657634e487b7160e01b600052601160045260246000fd5b6001019392505050565b60408101818360005b60028110156103e85781518352602092830192909101906001016103c9565b50505092915050565b60006020828403121561040357600080fd5b5051919050565b6080516105b7610425600039600061012601526105b76000f3fe608060405234801561001057600080fd5b50600436106100cf5760003560e01c8063c2b40ae41161008c578063ec73295911610066578063ec732959146101c6578063ed33639f146101ed578063f178e47c14610218578063fc7e9c6f1461022b57600080fd5b8063c2b40ae414610198578063cd87a3b4146101ab578063e8295588146101b357600080fd5b806338bf282e146100d4578063414a37ba146100fa5780634ecf518b146101215780636d9833e31461015d57806390eeb02b14610180578063ba70f75714610190575b600080fd5b6100e76100e23660046104b8565b610243565b6040519081526020015b60405180910390f35b6100e77f30644e72e131a029b85045b68181585d2833e84879b9709143e1f593f000000181565b6101487f000000000000000000000000000000000000000000000000000000000000000081565b60405163ffffffff90911681526020016100f1565b61017061016b3660046104da565b6103cc565b60405190151581526020016100f1565b6003546101489063ffffffff1681565b6100e761044a565b6100e76101a63660046104da565b610470565b610148606481565b6100e76101c13660046104da565b610487565b6100e77f2fe54c60d3acabf3343a35b6eba15db4821b340f76e741e2249685ed4899af6c81565b600054610200906001600160a01b031681565b6040516001600160a01b0390911681526020016100f1565b6100e76102263660046104da565b6104a8565b60035461014890640100000000900463ffffffff1681565b60007f30644e72e131a029b85045b68181585d2833e84879b9709143e1f593f000000183106102b95760405162461bcd60e51b815260206004820181905260248201527f5f6c6566742073686f756c6420626520696e7369646520746865206669656c6460448201526064015b60405180910390fd5b7f30644e72e131a029b85045b68181585d2833e84879b9709143e1f593f000000182106103325760405162461bcd60e51b815260206004820152602160248201527f5f72696768742073686f756c6420626520696e7369646520746865206669656c6044820152601960fa1b60648201526084016102b0565b60408051808201825284815260208101849052600054915163014cf2b360e51b815290916001600160a01b03169063299e5660906103749084906004016104f3565b60206040518083038186803b15801561038c57600080fd5b505afa1580156103a0573d6000803e3d6000fd5b505050506040513d601f19601f820116820180604052508101906103c49190610524565b949350505050565b6000816103db57506000919050565b60035463ffffffff165b60048163ffffffff16606481106103fe576103fe61053d565b01548314156104105750600192915050565b63ffffffff811661041f575060645b8061042981610553565b60035490925063ffffffff8084169116141590506103e55750600092915050565b60035460009060049063ffffffff16606481106104695761046961053d565b0154905090565b6004816064811061048057600080fd5b0154905081565b6002818154811061049757600080fd5b600091825260209091200154905081565b6001818154811061049757600080fd5b600080604083850312156104cb57600080fd5b50508035926020909101359150565b6000602082840312156104ec57600080fd5b5035919050565b60408101818360005b600281101561051b5781518352602092830192909101906001016104fc565b50505092915050565b60006020828403121561053657600080fd5b5051919050565b634e487b7160e01b600052603260045260246000fd5b600063ffffffff82168061057757634e487b7160e01b600052601160045260246000fd5b600019019291505056fea2646970667358221220397068daf4ce198292d75c39aeb5b0a2b269737239edb7584a03fd01dd990fd864736f6c63430008090033405787fa12a823e0f2b7631cc41b3ba8828b3321ca811111fa75cd3aa3bb5aceb10e2d527612073b26eecdfd717e6a320cf44b4afac2b0732d9fcbe2b7fa0cf6a264697066735822122078dc8569ea54b0896f870dc6175df4966c37dcdb5aa90020e24fc5256072163364736f6c63430008090033036b6384b5eca791c62761152d0c79bb0604c104a5fb6f4eb0703f3154bb3db0f652222313e28459528d920b65115c16c04f3efc82aaedc97be59f3f377c0d3f","opcodes":"PUSH1 0xA0 PUSH1 0x40 MSTORE PUSH1 0x7 DUP1 SLOAD PUSH1 0x1 PUSH1 0x1 PUSH1 0x40 SHL SUB NOT AND SWAP1 SSTORE CALLVALUE DUP1 ISZERO PUSH3 0x21 JUMPI PUSH1 0x0 DUP1 REVERT JUMPDEST POP PUSH1 0x40 MLOAD PUSH3 0x4A9C CODESIZE SUB DUP1 PUSH3 0x4A9C DUP4 CODECOPY DUP2 ADD PUSH1 0x40 DUP2 SWAP1 MSTORE PUSH3 0x44 SWAP2 PUSH3 0x713 JUMP JUMPDEST PUSH1 0x0 DUP1 SLOAD PUSH1 0x1 PUSH1 0x1 PUSH1 0xA0 SHL SUB NOT AND PUSH1 0x1 PUSH1 0x1 PUSH1 0xA0 SHL SUB DUP11 AND OR DUP2 SSTORE DUP7 SWAP1 DUP7 SWAP1 CALLER SWAP1 DUP2 SWAP1 PUSH1 0x1 PUSH1 0x1 PUSH1 0xA0 SHL SUB DUP3 AND PUSH3 0xC3 JUMPI PUSH1 0x40 MLOAD PUSH3 0x461BCD PUSH1 0xE5 SHL DUP2 MSTORE PUSH1 0x20 PUSH1 0x4 DUP3 ADD MSTORE PUSH1 0x18 PUSH1 0x24 DUP3 ADD MSTORE PUSH32 0x43616E6E6F7420736574206F776E657220746F207A65726F0000000000000000 PUSH1 0x44 DUP3 ADD MSTORE PUSH1 0x64 ADD JUMPDEST PUSH1 0x40 MLOAD DUP1 SWAP2 SUB SWAP1 REVERT JUMPDEST PUSH1 0x2 DUP1 SLOAD PUSH1 0x1 PUSH1 0x1 PUSH1 0xA0 SHL SUB NOT AND PUSH1 0x1 PUSH1 0x1 PUSH1 0xA0 SHL SUB DUP5 DUP2 AND SWAP2 SWAP1 SWAP2 OR SWAP1 SWAP2 SSTORE DUP2 AND ISZERO PUSH3 0xF6 JUMPI PUSH3 0xF6 DUP2 PUSH3 0x340 JUMP JUMPDEST POP POP POP PUSH1 0x20 PUSH4 0xFFFFFFFF DUP4 AND GT ISZERO PUSH3 0x162 JUMPI PUSH1 0x40 MLOAD PUSH4 0x2D5D4037 PUSH1 0xE0 SHL DUP2 MSTORE PUSH1 0x20 PUSH1 0x4 DUP3 ADD MSTORE PUSH1 0x26 PUSH1 0x24 DUP3 ADD MSTORE PUSH32 0x54726565206C6576656C732073686F756C64206265206265747765656E203020 PUSH1 0x44 DUP3 ADD MSTORE PUSH6 0x30B732101999 PUSH1 0xD1 SHL PUSH1 0x64 DUP3 ADD MSTORE PUSH1 0x84 ADD PUSH3 0xBA JUMP JUMPDEST PUSH1 0x4 DUP1 SLOAD PUSH1 0x1 PUSH1 0x1 PUSH1 0xA0 SHL SUB NOT AND PUSH1 0x1 PUSH1 0x1 PUSH1 0xA0 SHL SUB DUP4 AND OR SWAP1 SSTORE PUSH4 0xFFFFFFFF DUP3 AND PUSH1 0x80 MSTORE PUSH1 0x6 DUP1 SLOAD PUSH1 0x1 DUP2 DUP2 ADD SWAP1 SWAP3 SSTORE PUSH32 0x2FE54C60D3ACABF3343A35B6EBA15DB4821B340F76E741E2249685ED4899AF6C PUSH1 0x0 DUP1 MLOAD PUSH1 0x20 PUSH3 0x4A7C DUP4 CODECOPY DUP2 MLOAD SWAP2 MSTORE SWAP1 SWAP2 ADD DUP2 SWAP1 SSTORE PUSH1 0x5 DUP1 SLOAD DUP1 DUP5 ADD DUP3 SSTORE PUSH1 0x0 SWAP2 SWAP1 SWAP2 MSTORE PUSH1 0x0 DUP1 MLOAD PUSH1 0x20 PUSH3 0x4A5C DUP4 CODECOPY DUP2 MLOAD SWAP2 MSTORE ADD DUP2 SWAP1 SSTORE SWAP1 JUMPDEST DUP4 PUSH4 0xFFFFFFFF AND DUP2 PUSH4 0xFFFFFFFF AND LT ISZERO PUSH3 0x267 JUMPI PUSH3 0x210 DUP3 DUP1 PUSH3 0x3ED JUMP JUMPDEST PUSH1 0x6 DUP1 SLOAD PUSH1 0x1 DUP2 DUP2 ADD SWAP1 SWAP3 SSTORE PUSH1 0x0 DUP1 MLOAD PUSH1 0x20 PUSH3 0x4A7C DUP4 CODECOPY DUP2 MLOAD SWAP2 MSTORE ADD DUP3 SWAP1 SSTORE PUSH1 0x5 DUP1 SLOAD SWAP2 DUP3 ADD DUP2 SSTORE PUSH1 0x0 MSTORE PUSH1 0x0 DUP1 MLOAD PUSH1 0x20 PUSH3 0x4A5C DUP4 CODECOPY DUP2 MLOAD SWAP2 MSTORE ADD DUP2 SWAP1 SSTORE SWAP2 POP DUP1 PUSH3 0x25E DUP2 PUSH3 0x7CA JUMP JUMPDEST SWAP2 POP POP PUSH3 0x1EF JUMP JUMPDEST POP PUSH3 0x274 DUP2 DUP1 PUSH3 0x3ED JUMP JUMPDEST PUSH1 0x8 SSTORE POP POP PUSH1 0x1 PUSH1 0x6C SSTORE POP PUSH1 0x40 DUP1 MLOAD PUSH1 0x0 DUP1 DUP3 MSTORE PUSH1 0x20 DUP3 ADD SWAP1 SWAP3 MSTORE SWAP1 PUSH3 0x2AC JUMP JUMPDEST PUSH1 0x60 DUP2 MSTORE PUSH1 0x20 ADD SWAP1 PUSH1 0x1 SWAP1 SUB SWAP1 DUP2 PUSH3 0x296 JUMPI SWAP1 POP JUMPDEST POP DUP1 MLOAD PUSH3 0x2C3 SWAP2 PUSH1 0x7A SWAP2 PUSH1 0x20 SWAP1 SWAP2 ADD SWAP1 PUSH3 0x57A JUMP JUMPDEST POP PUSH1 0x76 DUP1 SLOAD PUSH1 0x1 PUSH1 0x1 PUSH1 0xA0 SHL SUB SWAP9 DUP10 AND PUSH1 0x1 PUSH1 0x1 PUSH1 0xA0 SHL SUB NOT SWAP2 DUP3 AND OR SWAP1 SWAP2 SSTORE PUSH1 0x77 DUP1 SLOAD SWAP6 SWAP1 SWAP9 AND SWAP5 AND SWAP4 SWAP1 SWAP4 OR SWAP1 SWAP6 SSTORE PUSH1 0x6F SWAP2 SWAP1 SWAP2 SSTORE PUSH1 0x6E DUP1 SLOAD PUSH4 0xFFFFFFFF SWAP1 SWAP6 AND PUSH9 0x10000000000000000 MUL PUSH1 0x1 PUSH1 0x1 PUSH1 0x60 SHL SUB NOT SWAP1 SWAP6 AND PUSH1 0x1 PUSH1 0x1 PUSH1 0x40 SHL SUB SWAP1 SWAP3 AND SWAP2 SWAP1 SWAP2 OR SWAP4 SWAP1 SWAP4 OR SWAP1 SWAP3 SSTORE POP POP TIMESTAMP PUSH1 0x70 SSTORE POP PUSH3 0x887 JUMP JUMPDEST PUSH1 0x1 PUSH1 0x1 PUSH1 0xA0 SHL SUB DUP2 AND CALLER EQ ISZERO PUSH3 0x39B JUMPI PUSH1 0x40 MLOAD PUSH3 0x461BCD PUSH1 0xE5 SHL DUP2 MSTORE PUSH1 0x20 PUSH1 0x4 DUP3 ADD MSTORE PUSH1 0x17 PUSH1 0x24 DUP3 ADD MSTORE PUSH32 0x43616E6E6F74207472616E7366657220746F2073656C66000000000000000000 PUSH1 0x44 DUP3 ADD MSTORE PUSH1 0x64 ADD PUSH3 0xBA JUMP JUMPDEST PUSH1 0x3 DUP1 SLOAD PUSH1 0x1 PUSH1 0x1 PUSH1 0xA0 SHL SUB NOT AND PUSH1 0x1 PUSH1 0x1 PUSH1 0xA0 SHL SUB DUP4 DUP2 AND SWAP2 DUP3 OR SWAP1 SWAP3 SSTORE PUSH1 0x2 SLOAD PUSH1 0x40 MLOAD SWAP2 SWAP3 AND SWAP1 PUSH32 0xED8889F560326EB138920D842192F0EB3DD22B4F139C87A2C57538E05BAE1278 SWAP1 PUSH1 0x0 SWAP1 LOG3 POP JUMP JUMPDEST PUSH1 0x0 PUSH32 0x30644E72E131A029B85045B68181585D2833E84879B9709143E1F593F0000001 DUP4 LT PUSH3 0x460 JUMPI PUSH1 0x40 MLOAD PUSH3 0x461BCD PUSH1 0xE5 SHL DUP2 MSTORE PUSH1 0x20 PUSH1 0x4 DUP3 ADD DUP2 SWAP1 MSTORE PUSH1 0x24 DUP3 ADD MSTORE PUSH32 0x5F6C6566742073686F756C6420626520696E7369646520746865206669656C64 PUSH1 0x44 DUP3 ADD MSTORE PUSH1 0x64 ADD PUSH3 0xBA JUMP JUMPDEST PUSH32 0x30644E72E131A029B85045B68181585D2833E84879B9709143E1F593F0000001 DUP3 LT PUSH3 0x4DB JUMPI PUSH1 0x40 MLOAD PUSH3 0x461BCD PUSH1 0xE5 SHL DUP2 MSTORE PUSH1 0x20 PUSH1 0x4 DUP3 ADD MSTORE PUSH1 0x21 PUSH1 0x24 DUP3 ADD MSTORE PUSH32 0x5F72696768742073686F756C6420626520696E7369646520746865206669656C PUSH1 0x44 DUP3 ADD MSTORE PUSH1 0x19 PUSH1 0xFA SHL PUSH1 0x64 DUP3 ADD MSTORE PUSH1 0x84 ADD PUSH3 0xBA JUMP JUMPDEST PUSH1 0x40 DUP1 MLOAD DUP1 DUP3 ADD DUP3 MSTORE DUP5 DUP2 MSTORE PUSH1 0x20 DUP2 ADD DUP5 SWAP1 MSTORE PUSH1 0x4 DUP1 SLOAD SWAP3 MLOAD PUSH4 0x14CF2B3 PUSH1 0xE5 SHL DUP2 MSTORE SWAP2 SWAP3 PUSH1 0x1 PUSH1 0x1 PUSH1 0xA0 SHL SUB AND SWAP2 PUSH4 0x299E5660 SWAP2 PUSH3 0x51E SWAP2 DUP6 SWAP2 ADD PUSH3 0x7FD JUMP JUMPDEST PUSH1 0x20 PUSH1 0x40 MLOAD DUP1 DUP4 SUB DUP2 DUP7 DUP1 EXTCODESIZE ISZERO DUP1 ISZERO PUSH3 0x537 JUMPI PUSH1 0x0 DUP1 REVERT JUMPDEST POP GAS STATICCALL ISZERO DUP1 ISZERO PUSH3 0x54C JUMPI RETURNDATASIZE PUSH1 0x0 DUP1 RETURNDATACOPY RETURNDATASIZE PUSH1 0x0 REVERT JUMPDEST POP POP POP POP PUSH1 0x40 MLOAD RETURNDATASIZE PUSH1 0x1F NOT PUSH1 0x1F DUP3 ADD AND DUP3 ADD DUP1 PUSH1 0x40 MSTORE POP DUP2 ADD SWAP1 PUSH3 0x572 SWAP2 SWAP1 PUSH3 0x830 JUMP JUMPDEST SWAP5 SWAP4 POP POP POP POP JUMP JUMPDEST DUP3 DUP1 SLOAD DUP3 DUP3 SSTORE SWAP1 PUSH1 0x0 MSTORE PUSH1 0x20 PUSH1 0x0 KECCAK256 SWAP1 DUP2 ADD SWAP3 DUP3 ISZERO PUSH3 0x5CC JUMPI SWAP2 PUSH1 0x20 MUL DUP3 ADD JUMPDEST DUP3 DUP2 GT ISZERO PUSH3 0x5CC JUMPI DUP3 MLOAD DUP1 MLOAD PUSH3 0x5BB SWAP2 DUP5 SWAP2 PUSH1 0x20 SWAP1 SWAP2 ADD SWAP1 PUSH3 0x5DE JUMP JUMPDEST POP SWAP2 PUSH1 0x20 ADD SWAP2 SWAP1 PUSH1 0x1 ADD SWAP1 PUSH3 0x59B JUMP JUMPDEST POP PUSH3 0x5DA SWAP3 SWAP2 POP PUSH3 0x669 JUMP JUMPDEST POP SWAP1 JUMP JUMPDEST DUP3 DUP1 SLOAD PUSH3 0x5EC SWAP1 PUSH3 0x84A JUMP JUMPDEST SWAP1 PUSH1 0x0 MSTORE PUSH1 0x20 PUSH1 0x0 KECCAK256 SWAP1 PUSH1 0x1F ADD PUSH1 0x20 SWAP1 DIV DUP2 ADD SWAP3 DUP3 PUSH3 0x610 JUMPI PUSH1 0x0 DUP6 SSTORE PUSH3 0x65B JUMP JUMPDEST DUP3 PUSH1 0x1F LT PUSH3 0x62B JUMPI DUP1 MLOAD PUSH1 0xFF NOT AND DUP4 DUP1 ADD OR DUP6 SSTORE PUSH3 0x65B JUMP JUMPDEST DUP3 DUP1 ADD PUSH1 0x1 ADD DUP6 SSTORE DUP3 ISZERO PUSH3 0x65B JUMPI SWAP2 DUP3 ADD JUMPDEST DUP3 DUP2 GT ISZERO PUSH3 0x65B JUMPI DUP3 MLOAD DUP3 SSTORE SWAP2 PUSH1 0x20 ADD SWAP2 SWAP1 PUSH1 0x1 ADD SWAP1 PUSH3 0x63E JUMP JUMPDEST POP PUSH3 0x5DA SWAP3 SWAP2 POP PUSH3 0x68A JUMP JUMPDEST DUP1 DUP3 GT ISZERO PUSH3 0x5DA JUMPI PUSH1 0x0 PUSH3 0x680 DUP3 DUP3 PUSH3 0x6A1 JUMP JUMPDEST POP PUSH1 0x1 ADD PUSH3 0x669 JUMP JUMPDEST JUMPDEST DUP1 DUP3 GT ISZERO PUSH3 0x5DA JUMPI PUSH1 0x0 DUP2 SSTORE PUSH1 0x1 ADD PUSH3 0x68B JUMP JUMPDEST POP DUP1 SLOAD PUSH3 0x6AF SWAP1 PUSH3 0x84A JUMP JUMPDEST PUSH1 0x0 DUP3 SSTORE DUP1 PUSH1 0x1F LT PUSH3 0x6C0 JUMPI POP POP JUMP JUMPDEST PUSH1 0x1F ADD PUSH1 0x20 SWAP1 DIV SWAP1 PUSH1 0x0 MSTORE PUSH1 0x20 PUSH1 0x0 KECCAK256 SWAP1 DUP2 ADD SWAP1 PUSH3 0x6E0 SWAP2 SWAP1 PUSH3 0x68A JUMP JUMPDEST POP JUMP JUMPDEST PUSH1 0x1 PUSH1 0x1 PUSH1 0xA0 SHL SUB DUP2 AND DUP2 EQ PUSH3 0x6E0 JUMPI PUSH1 0x0 DUP1 REVERT JUMPDEST DUP1 MLOAD PUSH4 0xFFFFFFFF DUP2 AND DUP2 EQ PUSH3 0x70E JUMPI PUSH1 0x0 DUP1 REVERT JUMPDEST SWAP2 SWAP1 POP JUMP JUMPDEST PUSH1 0x0 DUP1 PUSH1 0x0 DUP1 PUSH1 0x0 DUP1 PUSH1 0x0 DUP1 PUSH2 0x100 DUP10 DUP12 SUB SLT ISZERO PUSH3 0x731 JUMPI PUSH1 0x0 DUP1 REVERT JUMPDEST DUP9 MLOAD PUSH3 0x73E DUP2 PUSH3 0x6E3 JUMP JUMPDEST PUSH1 0x20 DUP11 ADD MLOAD SWAP1 SWAP9 POP PUSH3 0x751 DUP2 PUSH3 0x6E3 JUMP JUMPDEST SWAP7 POP PUSH3 0x761 PUSH1 0x40 DUP11 ADD PUSH3 0x6F9 JUMP JUMPDEST SWAP6 POP PUSH1 0x60 DUP10 ADD MLOAD PUSH3 0x773 DUP2 PUSH3 0x6E3 JUMP JUMPDEST PUSH1 0x80 DUP11 ADD MLOAD SWAP1 SWAP6 POP PUSH3 0x786 DUP2 PUSH3 0x6E3 JUMP JUMPDEST PUSH1 0xA0 DUP11 ADD MLOAD SWAP1 SWAP5 POP PUSH1 0x1 PUSH1 0x1 PUSH1 0x40 SHL SUB DUP2 AND DUP2 EQ PUSH3 0x7A4 JUMPI PUSH1 0x0 DUP1 REVERT JUMPDEST SWAP3 POP PUSH3 0x7B4 PUSH1 0xC0 DUP11 ADD PUSH3 0x6F9 JUMP JUMPDEST SWAP2 POP PUSH1 0xE0 DUP10 ADD MLOAD SWAP1 POP SWAP3 SWAP6 SWAP9 POP SWAP3 SWAP6 SWAP9 SWAP1 SWAP4 SWAP7 POP JUMP JUMPDEST PUSH1 0x0 PUSH4 0xFFFFFFFF DUP1 DUP4 AND DUP2 DUP2 EQ ISZERO PUSH3 0x7F3 JUMPI PUSH4 0x4E487B71 PUSH1 0xE0 SHL PUSH1 0x0 MSTORE PUSH1 0x11 PUSH1 0x4 MSTORE PUSH1 0x24 PUSH1 0x0 REVERT JUMPDEST PUSH1 0x1 ADD SWAP4 SWAP3 POP POP POP JUMP JUMPDEST PUSH1 0x40 DUP2 ADD DUP2 DUP4 PUSH1 0x0 JUMPDEST PUSH1 0x2 DUP2 LT ISZERO PUSH3 0x827 JUMPI DUP2 MLOAD DUP4 MSTORE PUSH1 0x20 SWAP3 DUP4 ADD SWAP3 SWAP1 SWAP2 ADD SWAP1 PUSH1 0x1 ADD PUSH3 0x806 JUMP JUMPDEST POP POP POP SWAP3 SWAP2 POP POP JUMP JUMPDEST PUSH1 0x0 PUSH1 0x20 DUP3 DUP5 SUB SLT ISZERO PUSH3 0x843 JUMPI PUSH1 0x0 DUP1 REVERT JUMPDEST POP MLOAD SWAP2 SWAP1 POP JUMP JUMPDEST PUSH1 0x1 DUP2 DUP2 SHR SWAP1 DUP3 AND DUP1 PUSH3 0x85F JUMPI PUSH1 0x7F DUP3 AND SWAP2 POP JUMPDEST PUSH1 0x20 DUP3 LT DUP2 EQ ISZERO PUSH3 0x881 JUMPI PUSH4 0x4E487B71 PUSH1 0xE0 SHL PUSH1 0x0 MSTORE PUSH1 0x22 PUSH1 0x4 MSTORE PUSH1 0x24 PUSH1 0x0 REVERT JUMPDEST POP SWAP2 SWAP1 POP JUMP JUMPDEST PUSH1 0x80 MLOAD PUSH2 0x41A4 PUSH3 0x8B8 PUSH1 0x0 CODECOPY PUSH1 0x0 DUP2 DUP2 PUSH2 0x438 ADD MSTORE DUP2 DUP2 PUSH2 0x11BE ADD MSTORE DUP2 DUP2 PUSH2 0x1B03 ADD MSTORE PUSH2 0x1BEF ADD MSTORE PUSH2 0x41A4 PUSH1 0x0 RETURN INVALID PUSH1 0x80 PUSH1 0x40 MSTORE CALLVALUE DUP1 ISZERO PUSH3 0x11 JUMPI PUSH1 0x0 DUP1 REVERT JUMPDEST POP PUSH1 0x4 CALLDATASIZE LT PUSH3 0x291 JUMPI PUSH1 0x0 CALLDATALOAD PUSH1 0xE0 SHR DUP1 PUSH4 0x90EEB02B GT PUSH3 0x161 JUMPI DUP1 PUSH4 0xE8295588 GT PUSH3 0xD3 JUMPI DUP1 PUSH4 0xF178E47C GT PUSH3 0x92 JUMPI DUP1 PUSH4 0xF178E47C EQ PUSH3 0x639 JUMPI DUP1 PUSH4 0xF2FDE38B EQ PUSH3 0x650 JUMPI DUP1 PUSH4 0xFC7E9C6F EQ PUSH3 0x667 JUMPI DUP1 PUSH4 0xFD2C80AE EQ PUSH3 0x680 JUMPI DUP1 PUSH4 0xFE083012 EQ PUSH3 0x68A JUMPI DUP1 PUSH4 0xFFFEB84E EQ PUSH3 0x6A1 JUMPI PUSH1 0x0 DUP1 REVERT JUMPDEST DUP1 PUSH4 0xE8295588 EQ PUSH3 0x5B8 JUMPI DUP1 PUSH4 0xEA2637A5 EQ PUSH3 0x5CF JUMPI DUP1 PUSH4 0xEB197C77 EQ PUSH3 0x5E6 JUMPI DUP1 PUSH4 0xEC732959 EQ PUSH3 0x5FD JUMPI DUP1 PUSH4 0xED33639F EQ PUSH3 0x625 JUMPI PUSH1 0x0 DUP1 REVERT JUMPDEST DUP1 PUSH4 0xC2B40AE4 GT PUSH3 0x120 JUMPI DUP1 PUSH4 0xC2B40AE4 EQ PUSH3 0x54F JUMPI DUP1 PUSH4 0xCD87A3B4 EQ PUSH3 0x566 JUMPI DUP1 PUSH4 0xD328A91E EQ PUSH3 0x56F JUMPI DUP1 PUSH4 0xD4B39175 EQ PUSH3 0x579 JUMPI DUP1 PUSH4 0xDF65850A EQ PUSH3 0x5AE JUMPI PUSH1 0x0 DUP1 REVERT JUMPDEST DUP1 PUSH4 0x90EEB02B EQ PUSH3 0x50C JUMPI DUP1 PUSH4 0xA3D3C0D2 EQ PUSH3 0x51D JUMPI DUP1 PUSH4 0xBA70F757 EQ PUSH3 0x527 JUMPI DUP1 PUSH4 0xBEF3A2F0 EQ PUSH3 0x531 JUMPI DUP1 PUSH4 0xBF158FD2 EQ PUSH3 0x53B JUMPI PUSH1 0x0 DUP1 REVERT JUMPDEST DUP1 PUSH4 0x38BF282E GT PUSH3 0x207 JUMPI DUP1 PUSH4 0x688ECFD1 GT PUSH3 0x1C6 JUMPI DUP1 PUSH4 0x688ECFD1 EQ PUSH3 0x473 JUMPI DUP1 PUSH4 0x6D9833E3 EQ PUSH3 0x48C JUMPI DUP1 PUSH4 0x6E04FF0D EQ PUSH3 0x4A3 JUMPI DUP1 PUSH4 0x79BA5097 EQ PUSH3 0x4CA JUMPI DUP1 PUSH4 0x839DF945 EQ PUSH3 0x4D4 JUMPI DUP1 PUSH4 0x8DA5CB5B EQ PUSH3 0x4FA JUMPI PUSH1 0x0 DUP1 REVERT JUMPDEST DUP1 PUSH4 0x38BF282E EQ PUSH3 0x3DC JUMPI DUP1 PUSH4 0x414A37BA EQ PUSH3 0x3F3 JUMPI DUP1 PUSH4 0x4585E33B EQ PUSH3 0x41B JUMPI DUP1 PUSH4 0x4ECF518B EQ PUSH3 0x432 JUMPI DUP1 PUSH4 0x5FF6CBF3 EQ PUSH3 0x45A JUMPI PUSH1 0x0 DUP1 REVERT JUMPDEST DUP1 PUSH4 0x22DC7B4C GT PUSH3 0x254 JUMPI DUP1 PUSH4 0x22DC7B4C EQ PUSH3 0x31A JUMPI DUP1 PUSH4 0x24B93E3E EQ PUSH3 0x351 JUMPI DUP1 PUSH4 0x2997E86B EQ PUSH3 0x37F JUMPI DUP1 PUSH4 0x2B7AC3F3 EQ PUSH3 0x3A5 JUMPI DUP1 PUSH4 0x381FC4B5 EQ PUSH3 0x3D2 JUMPI PUSH1 0x0 DUP1 REVERT JUMPDEST DUP1 PUSH4 0x89EA02E EQ PUSH3 0x296 JUMPI DUP1 PUSH4 0x9C1BA2E EQ PUSH3 0x2B3 JUMPI DUP1 PUSH4 0xCA76175 EQ PUSH3 0x2E0 JUMPI DUP1 PUSH4 0x1AA46F59 EQ PUSH3 0x2F9 JUMPI DUP1 PUSH4 0x218FC350 EQ PUSH3 0x303 JUMPI JUMPDEST PUSH1 0x0 DUP1 REVERT JUMPDEST PUSH3 0x2A0 PUSH1 0x70 SLOAD DUP2 JUMP JUMPDEST PUSH1 0x40 MLOAD SWAP1 DUP2 MSTORE PUSH1 0x20 ADD JUMPDEST PUSH1 0x40 MLOAD DUP1 SWAP2 SUB SWAP1 RETURN JUMPDEST PUSH1 0x6E SLOAD PUSH3 0x2C7 SWAP1 PUSH1 0x1 PUSH1 0x1 PUSH1 0x40 SHL SUB AND DUP2 JUMP JUMPDEST PUSH1 0x40 MLOAD PUSH1 0x1 PUSH1 0x1 PUSH1 0x40 SHL SUB SWAP1 SWAP2 AND DUP2 MSTORE PUSH1 0x20 ADD PUSH3 0x2AA JUMP JUMPDEST PUSH3 0x2F7 PUSH3 0x2F1 CALLDATASIZE PUSH1 0x4 PUSH3 0x2794 JUMP JUMPDEST PUSH3 0x6AB JUMP JUMPDEST STOP JUMPDEST PUSH3 0x2A0 PUSH1 0x73 SLOAD DUP2 JUMP JUMPDEST PUSH3 0x2F7 PUSH3 0x314 CALLDATASIZE PUSH1 0x4 PUSH3 0x285D JUMP JUMPDEST PUSH3 0x73B JUMP JUMPDEST PUSH3 0x340 PUSH3 0x32B CALLDATASIZE PUSH1 0x4 PUSH3 0x295D JUMP JUMPDEST PUSH1 0x0 SWAP1 DUP2 MSTORE PUSH1 0x78 PUSH1 0x20 MSTORE PUSH1 0x40 SWAP1 KECCAK256 SLOAD PUSH1 0xFF AND SWAP1 JUMP JUMPDEST PUSH1 0x40 MLOAD SWAP1 ISZERO ISZERO DUP2 MSTORE PUSH1 0x20 ADD PUSH3 0x2AA JUMP JUMPDEST PUSH1 0x6E SLOAD PUSH3 0x369 SWAP1 PUSH1 0x1 PUSH1 0x40 SHL SWAP1 DIV PUSH4 0xFFFFFFFF AND DUP2 JUMP JUMPDEST PUSH1 0x40 MLOAD PUSH4 0xFFFFFFFF SWAP1 SWAP2 AND DUP2 MSTORE PUSH1 0x20 ADD PUSH3 0x2AA JUMP JUMPDEST PUSH3 0x340 PUSH3 0x390 CALLDATASIZE PUSH1 0x4 PUSH3 0x295D JUMP JUMPDEST PUSH1 0x78 PUSH1 0x20 MSTORE PUSH1 0x0 SWAP1 DUP2 MSTORE PUSH1 0x40 SWAP1 KECCAK256 SLOAD PUSH1 0xFF AND DUP2 JUMP JUMPDEST PUSH1 0x76 SLOAD PUSH3 0x3B9 SWAP1 PUSH1 0x1 PUSH1 0x1 PUSH1 0xA0 SHL SUB AND DUP2 JUMP JUMPDEST PUSH1 0x40 MLOAD PUSH1 0x1 PUSH1 0x1 PUSH1 0xA0 SHL SUB SWAP1 SWAP2 AND DUP2 MSTORE PUSH1 0x20 ADD PUSH3 0x2AA JUMP JUMPDEST PUSH3 0x2A0 PUSH1 0x72 SLOAD DUP2 JUMP JUMPDEST PUSH3 0x2A0 PUSH3 0x3ED CALLDATASIZE PUSH1 0x4 PUSH3 0x2977 JUMP JUMPDEST PUSH3 0x97D JUMP JUMPDEST PUSH3 0x2A0 PUSH32 0x30644E72E131A029B85045B68181585D2833E84879B9709143E1F593F0000001 DUP2 JUMP JUMPDEST PUSH3 0x2F7 PUSH3 0x42C CALLDATASIZE PUSH1 0x4 PUSH3 0x29E5 JUMP JUMPDEST PUSH3 0xB0C JUMP JUMPDEST PUSH3 0x369 PUSH32 0x0 DUP2 JUMP JUMPDEST PUSH3 0x464 PUSH3 0xD18 JUMP JUMPDEST PUSH1 0x40 MLOAD PUSH3 0x2AA SWAP2 SWAP1 PUSH3 0x2A87 JUMP JUMPDEST PUSH3 0x47D PUSH3 0xDFB JUMP JUMPDEST PUSH1 0x40 MLOAD PUSH3 0x2AA SWAP2 SWAP1 PUSH3 0x2AED JUMP JUMPDEST PUSH3 0x340 PUSH3 0x49D CALLDATASIZE PUSH1 0x4 PUSH3 0x295D JUMP JUMPDEST PUSH3 0xE91 JUMP JUMPDEST PUSH3 0x4BA PUSH3 0x4B4 CALLDATASIZE PUSH1 0x4 PUSH3 0x2B02 JUMP JUMPDEST PUSH3 0xF18 JUMP JUMPDEST PUSH1 0x40 MLOAD PUSH3 0x2AA SWAP3 SWAP2 SWAP1 PUSH3 0x2B3A JUMP JUMPDEST PUSH3 0x2F7 PUSH3 0xF37 JUMP JUMPDEST PUSH3 0x340 PUSH3 0x4E5 CALLDATASIZE PUSH1 0x4 PUSH3 0x295D JUMP JUMPDEST PUSH1 0x79 PUSH1 0x20 MSTORE PUSH1 0x0 SWAP1 DUP2 MSTORE PUSH1 0x40 SWAP1 KECCAK256 SLOAD PUSH1 0xFF AND DUP2 JUMP JUMPDEST PUSH1 0x2 SLOAD PUSH1 0x1 PUSH1 0x1 PUSH1 0xA0 SHL SUB AND PUSH3 0x3B9 JUMP JUMPDEST PUSH1 0x7 SLOAD PUSH3 0x369 SWAP1 PUSH4 0xFFFFFFFF AND DUP2 JUMP JUMPDEST PUSH3 0x2A0 PUSH1 0x71 SLOAD DUP2 JUMP JUMPDEST PUSH3 0x2A0 PUSH3 0xFE7 JUMP JUMPDEST PUSH3 0x47D PUSH3 0x1010 JUMP JUMPDEST PUSH1 0x77 SLOAD PUSH3 0x3B9 SWAP1 PUSH1 0x1 PUSH1 0x1 PUSH1 0xA0 SHL SUB AND DUP2 JUMP JUMPDEST PUSH3 0x2A0 PUSH3 0x560 CALLDATASIZE PUSH1 0x4 PUSH3 0x295D JUMP JUMPDEST PUSH3 0x101F JUMP JUMPDEST PUSH3 0x369 PUSH1 0x64 DUP2 JUMP JUMPDEST PUSH3 0x47D PUSH3 0x1037 JUMP JUMPDEST PUSH3 0x590 PUSH3 0x58A CALLDATASIZE PUSH1 0x4 PUSH3 0x2C6E JUMP JUMPDEST PUSH3 0x10C0 JUMP JUMPDEST PUSH1 0x40 MLOAD PUSH12 0xFFFFFFFFFFFFFFFFFFFFFFFF SWAP1 SWAP2 AND DUP2 MSTORE PUSH1 0x20 ADD PUSH3 0x2AA JUMP JUMPDEST PUSH3 0x2F7 PUSH3 0x1160 JUMP JUMPDEST PUSH3 0x2A0 PUSH3 0x5C9 CALLDATASIZE PUSH1 0x4 PUSH3 0x295D JUMP JUMPDEST PUSH3 0x1270 JUMP JUMPDEST PUSH3 0x2F7 PUSH3 0x5E0 CALLDATASIZE PUSH1 0x4 PUSH3 0x2DAD JUMP JUMPDEST PUSH3 0x1292 JUMP JUMPDEST PUSH3 0x2F7 PUSH3 0x5F7 CALLDATASIZE PUSH1 0x4 PUSH3 0x2DE0 JUMP JUMPDEST PUSH3 0x1394 JUMP JUMPDEST PUSH3 0x2A0 PUSH32 0x2FE54C60D3ACABF3343A35B6EBA15DB4821B340F76E741E2249685ED4899AF6C DUP2 JUMP JUMPDEST PUSH1 0x4 SLOAD PUSH3 0x3B9 SWAP1 PUSH1 0x1 PUSH1 0x1 PUSH1 0xA0 SHL SUB AND DUP2 JUMP JUMPDEST PUSH3 0x2A0 PUSH3 0x64A CALLDATASIZE PUSH1 0x4 PUSH3 0x295D JUMP JUMPDEST PUSH3 0x13E9 JUMP JUMPDEST PUSH3 0x2F7 PUSH3 0x661 CALLDATASIZE PUSH1 0x4 PUSH3 0x2E56 JUMP JUMPDEST PUSH3 0x13FA JUMP JUMPDEST PUSH1 0x7 SLOAD PUSH3 0x369 SWAP1 PUSH5 0x100000000 SWAP1 DIV PUSH4 0xFFFFFFFF AND DUP2 JUMP JUMPDEST PUSH3 0x2A0 PUSH1 0x6F SLOAD DUP2 JUMP JUMPDEST PUSH3 0x47D PUSH3 0x69B CALLDATASIZE PUSH1 0x4 PUSH3 0x2E76 JUMP JUMPDEST PUSH3 0x1412 JUMP JUMPDEST PUSH3 0x47D PUSH3 0x1519 JUMP JUMPDEST PUSH1 0x0 DUP4 DUP2 MSTORE PUSH1 0x1 PUSH1 0x20 MSTORE PUSH1 0x40 SWAP1 KECCAK256 SLOAD DUP4 SWAP1 PUSH1 0x1 PUSH1 0x1 PUSH1 0xA0 SHL SUB AND CALLER EQ PUSH3 0x6E5 JUMPI PUSH1 0x40 MLOAD PUSH4 0xA0C5EC63 PUSH1 0xE0 SHL DUP2 MSTORE PUSH1 0x4 ADD PUSH1 0x40 MLOAD DUP1 SWAP2 SUB SWAP1 REVERT JUMPDEST PUSH1 0x0 DUP2 DUP2 MSTORE PUSH1 0x1 PUSH1 0x20 MSTORE PUSH1 0x40 DUP1 DUP3 KECCAK256 DUP1 SLOAD PUSH1 0x1 PUSH1 0x1 PUSH1 0xA0 SHL SUB NOT AND SWAP1 SSTORE MLOAD DUP3 SWAP2 PUSH32 0x85E1543BF2F84FE80C6BADBCE3648C8539AD1DF4D2B3D822938CA0538BE727E6 SWAP2 LOG2 PUSH3 0x735 DUP5 DUP5 DUP5 PUSH3 0x1528 JUMP JUMPDEST POP POP POP POP JUMP JUMPDEST PUSH3 0x745 PUSH3 0x1842 JUMP JUMPDEST PUSH1 0x0 DUP4 DUP2 MSTORE PUSH1 0x78 PUSH1 0x20 MSTORE PUSH1 0x40 SWAP1 KECCAK256 SLOAD PUSH1 0xFF AND ISZERO PUSH3 0x7A4 JUMPI PUSH1 0x40 MLOAD PUSH4 0x37A51B3D PUSH1 0xE2 SHL DUP2 MSTORE PUSH1 0x20 PUSH1 0x4 DUP3 ADD MSTORE PUSH1 0x16 PUSH1 0x24 DUP3 ADD MSTORE PUSH22 0x139D5B1B1A599A595C88185B1C9958591E481D5CD959 PUSH1 0x52 SHL PUSH1 0x44 DUP3 ADD MSTORE PUSH1 0x64 ADD JUMPDEST PUSH1 0x40 MLOAD DUP1 SWAP2 SUB SWAP1 REVERT JUMPDEST PUSH3 0x7AF DUP3 PUSH3 0xE91 JUMP JUMPDEST PUSH3 0x7EF JUMPI PUSH1 0x40 MLOAD PUSH4 0xA4305B13 PUSH1 0xE0 SHL DUP2 MSTORE PUSH1 0x20 PUSH1 0x4 DUP3 ADD MSTORE PUSH1 0xE PUSH1 0x24 DUP3 ADD MSTORE PUSH14 0x2937B7BA103737BA1035B737BBB7 PUSH1 0x91 SHL PUSH1 0x44 DUP3 ADD MSTORE PUSH1 0x64 ADD PUSH3 0x79B JUMP JUMPDEST PUSH1 0x40 DUP1 MLOAD DUP1 DUP3 ADD DUP3 MSTORE DUP4 DUP2 MSTORE PUSH1 0x20 DUP1 DUP3 ADD DUP7 SWAP1 MSTORE PUSH1 0x76 SLOAD DUP5 MLOAD SWAP2 DUP6 ADD MLOAD DUP6 DUP6 ADD MLOAD SWAP5 MLOAD PUSH4 0x7AE4EB4F PUSH1 0xE1 SHL DUP2 MSTORE SWAP4 SWAP5 PUSH1 0x1 PUSH1 0x1 PUSH1 0xA0 SHL SUB SWAP1 SWAP3 AND SWAP4 PUSH4 0xF5C9D69E SWAP4 PUSH3 0x843 SWAP4 SWAP1 SWAP3 SWAP2 DUP8 SWAP1 PUSH1 0x4 ADD PUSH3 0x2F6E JUMP JUMPDEST PUSH1 0x20 PUSH1 0x40 MLOAD DUP1 DUP4 SUB DUP2 PUSH1 0x0 DUP8 DUP1 EXTCODESIZE ISZERO DUP1 ISZERO PUSH3 0x85E JUMPI PUSH1 0x0 DUP1 REVERT JUMPDEST POP GAS CALL ISZERO DUP1 ISZERO PUSH3 0x873 JUMPI RETURNDATASIZE PUSH1 0x0 DUP1 RETURNDATACOPY RETURNDATASIZE PUSH1 0x0 REVERT JUMPDEST POP POP POP POP PUSH1 0x40 MLOAD RETURNDATASIZE PUSH1 0x1F NOT PUSH1 0x1F DUP3 ADD AND DUP3 ADD DUP1 PUSH1 0x40 MSTORE POP DUP2 ADD SWAP1 PUSH3 0x899 SWAP2 SWAP1 PUSH3 0x2FDF JUMP JUMPDEST PUSH3 0x8D8 JUMPI PUSH1 0x40 MLOAD PUSH4 0x9DAA309 PUSH1 0xE2 SHL DUP2 MSTORE PUSH1 0x20 PUSH1 0x4 DUP3 ADD MSTORE PUSH1 0xD PUSH1 0x24 DUP3 ADD MSTORE PUSH13 0x24B73B30B634B210383937B7B3 PUSH1 0x99 SHL PUSH1 0x44 DUP3 ADD MSTORE PUSH1 0x64 ADD PUSH3 0x79B JUMP JUMPDEST PUSH1 0x0 DUP5 DUP2 MSTORE PUSH1 0x78 PUSH1 0x20 SWAP1 DUP2 MSTORE PUSH1 0x40 DUP3 KECCAK256 DUP1 SLOAD PUSH1 0xFF NOT AND PUSH1 0x1 SWAP1 DUP2 OR SWAP1 SWAP2 SSTORE PUSH1 0x7A DUP1 SLOAD SWAP2 DUP3 ADD DUP2 SSTORE SWAP1 SWAP3 MSTORE DUP7 MLOAD PUSH3 0x935 SWAP3 PUSH32 0xF0440771A29E57E18C66727944770B82CC77924AEF333C927CE6BDD2CDB3AE03 ADD SWAP2 DUP9 ADD SWAP1 PUSH3 0x243F JUMP JUMPDEST POP PUSH32 0x6B6C80BB5C4B26D73A7CF3586C1B2F17BD79F8F7FD3C3E14F9CD70926574120 DUP6 DUP6 PUSH1 0x40 MLOAD PUSH3 0x969 SWAP3 SWAP2 SWAP1 PUSH3 0x3003 JUMP JUMPDEST PUSH1 0x40 MLOAD DUP1 SWAP2 SUB SWAP1 LOG1 POP PUSH3 0x735 PUSH1 0x1 PUSH1 0x6C SSTORE JUMP JUMPDEST PUSH1 0x0 PUSH32 0x30644E72E131A029B85045B68181585D2833E84879B9709143E1F593F0000001 DUP4 LT PUSH3 0x9F0 JUMPI PUSH1 0x40 MLOAD PUSH3 0x461BCD PUSH1 0xE5 SHL DUP2 MSTORE PUSH1 0x20 PUSH1 0x4 DUP3 ADD DUP2 SWAP1 MSTORE PUSH1 0x24 DUP3 ADD MSTORE PUSH32 0x5F6C6566742073686F756C6420626520696E7369646520746865206669656C64 PUSH1 0x44 DUP3 ADD MSTORE PUSH1 0x64 ADD PUSH3 0x79B JUMP JUMPDEST PUSH32 0x30644E72E131A029B85045B68181585D2833E84879B9709143E1F593F0000001 DUP3 LT PUSH3 0xA6B JUMPI PUSH1 0x40 MLOAD PUSH3 0x461BCD PUSH1 0xE5 SHL DUP2 MSTORE PUSH1 0x20 PUSH1 0x4 DUP3 ADD MSTORE PUSH1 0x21 PUSH1 0x24 DUP3 ADD MSTORE PUSH32 0x5F72696768742073686F756C6420626520696E7369646520746865206669656C PUSH1 0x44 DUP3 ADD MSTORE PUSH1 0x19 PUSH1 0xFA SHL PUSH1 0x64 DUP3 ADD MSTORE PUSH1 0x84 ADD PUSH3 0x79B JUMP JUMPDEST PUSH1 0x40 DUP1 MLOAD DUP1 DUP3 ADD DUP3 MSTORE DUP5 DUP2 MSTORE PUSH1 0x20 DUP2 ADD DUP5 SWAP1 MSTORE PUSH1 0x4 DUP1 SLOAD SWAP3 MLOAD PUSH4 0x14CF2B3 PUSH1 0xE5 SHL DUP2 MSTORE SWAP2 SWAP3 PUSH1 0x1 PUSH1 0x1 PUSH1 0xA0 SHL SUB AND SWAP2 PUSH4 0x299E5660 SWAP2 PUSH3 0xAAE SWAP2 DUP6 SWAP2 ADD PUSH3 0x3027 JUMP JUMPDEST PUSH1 0x20 PUSH1 0x40 MLOAD DUP1 DUP4 SUB DUP2 DUP7 DUP1 EXTCODESIZE ISZERO DUP1 ISZERO PUSH3 0xAC7 JUMPI PUSH1 0x0 DUP1 REVERT JUMPDEST POP GAS STATICCALL ISZERO DUP1 ISZERO PUSH3 0xADC JUMPI RETURNDATASIZE PUSH1 0x0 DUP1 RETURNDATACOPY RETURNDATASIZE PUSH1 0x0 REVERT JUMPDEST POP POP POP POP PUSH1 0x40 MLOAD RETURNDATASIZE PUSH1 0x1F NOT PUSH1 0x1F DUP3 ADD AND DUP3 ADD DUP1 PUSH1 0x40 MSTORE POP DUP2 ADD SWAP1 PUSH3 0xB02 SWAP2 SWAP1 PUSH3 0x305A JUMP JUMPDEST SWAP2 POP POP JUMPDEST SWAP3 SWAP2 POP POP JUMP JUMPDEST PUSH1 0x0 PUSH3 0xB28 PUSH1 0x40 MLOAD DUP1 PUSH1 0x20 ADD PUSH1 0x40 MSTORE DUP1 PUSH1 0x0 DUP2 MSTORE POP PUSH3 0xF18 JUMP JUMPDEST POP SWAP1 POP DUP1 PUSH3 0xB73 JUMPI PUSH1 0x40 MLOAD PUSH4 0x2F0C8D4B PUSH1 0xE2 SHL DUP2 MSTORE PUSH1 0x20 PUSH1 0x4 DUP3 ADD MSTORE PUSH1 0x15 PUSH1 0x24 DUP3 ADD MSTORE PUSH21 0x151A5B59481A5B9D195C9D985B081B9BDD081B595D PUSH1 0x5A SHL PUSH1 0x44 DUP3 ADD MSTORE PUSH1 0x64 ADD PUSH3 0x79B JUMP JUMPDEST TIMESTAMP PUSH1 0x70 SSTORE PUSH1 0x71 SLOAD PUSH3 0xB87 SWAP1 PUSH1 0x1 PUSH3 0x308A JUMP JUMPDEST PUSH1 0x71 SSTORE PUSH1 0x0 DUP1 SLOAD PUSH1 0x6E SLOAD PUSH1 0x40 MLOAD PUSH4 0xA090AC1 PUSH1 0xE2 SHL DUP2 MSTORE PUSH1 0x1 PUSH1 0x1 PUSH1 0xA0 SHL SUB SWAP1 SWAP3 AND SWAP2 PUSH4 0x28242B04 SWAP2 PUSH3 0xBDB SWAP2 PUSH1 0x1 PUSH1 0x1 PUSH1 0x40 SHL SUB DUP3 AND SWAP2 PUSH1 0x6D SWAP2 PUSH1 0x1 PUSH1 0x40 SHL SWAP1 SWAP2 DIV PUSH4 0xFFFFFFFF AND SWAP1 PUSH1 0x4 ADD PUSH3 0x30DC JUMP JUMPDEST PUSH1 0x20 PUSH1 0x40 MLOAD DUP1 DUP4 SUB DUP2 PUSH1 0x0 DUP8 DUP1 EXTCODESIZE ISZERO DUP1 ISZERO PUSH3 0xBF6 JUMPI PUSH1 0x0 DUP1 REVERT JUMPDEST POP GAS CALL ISZERO DUP1 ISZERO PUSH3 0xC0B JUMPI RETURNDATASIZE PUSH1 0x0 DUP1 RETURNDATACOPY RETURNDATASIZE PUSH1 0x0 REVERT JUMPDEST POP POP POP POP PUSH1 0x40 MLOAD RETURNDATASIZE PUSH1 0x1F NOT PUSH1 0x1F DUP3 ADD AND DUP3 ADD DUP1 PUSH1 0x40 MSTORE POP DUP2 ADD SWAP1 PUSH3 0xC31 SWAP2 SWAP1 PUSH3 0x305A JUMP JUMPDEST SWAP1 POP PUSH1 0x0 DUP1 SLOAD SWAP1 PUSH2 0x100 EXP SWAP1 DIV PUSH1 0x1 PUSH1 0x1 PUSH1 0xA0 SHL SUB AND PUSH1 0x1 PUSH1 0x1 PUSH1 0xA0 SHL SUB AND PUSH4 0x5AB1BD53 PUSH1 0x40 MLOAD DUP2 PUSH4 0xFFFFFFFF AND PUSH1 0xE0 SHL DUP2 MSTORE PUSH1 0x4 ADD PUSH1 0x20 PUSH1 0x40 MLOAD DUP1 DUP4 SUB DUP2 DUP7 DUP1 EXTCODESIZE ISZERO DUP1 ISZERO PUSH3 0xC80 JUMPI PUSH1 0x0 DUP1 REVERT JUMPDEST POP GAS STATICCALL ISZERO DUP1 ISZERO PUSH3 0xC95 JUMPI RETURNDATASIZE PUSH1 0x0 DUP1 RETURNDATACOPY RETURNDATASIZE PUSH1 0x0 REVERT JUMPDEST POP POP POP POP PUSH1 0x40 MLOAD RETURNDATASIZE PUSH1 0x1F NOT PUSH1 0x1F DUP3 ADD AND DUP3 ADD DUP1 PUSH1 0x40 MSTORE POP DUP2 ADD SWAP1 PUSH3 0xCBB SWAP2 SWAP1 PUSH3 0x31AB JUMP JUMPDEST PUSH1 0x0 DUP3 DUP2 MSTORE PUSH1 0x1 PUSH1 0x20 MSTORE PUSH1 0x40 DUP1 DUP3 KECCAK256 DUP1 SLOAD PUSH1 0x1 PUSH1 0x1 PUSH1 0xA0 SHL SUB NOT AND PUSH1 0x1 PUSH1 0x1 PUSH1 0xA0 SHL SUB SWAP5 SWAP1 SWAP5 AND SWAP4 SWAP1 SWAP4 OR SWAP1 SWAP3 SSTORE SWAP1 MLOAD DUP3 SWAP2 PUSH32 0x1131472297A800FEE664D1D89CFA8F7676FF07189ECC53F80BBB5F4969099DB8 SWAP2 LOG2 PUSH1 0x73 SSTORE POP POP POP JUMP JUMPDEST PUSH1 0x60 PUSH1 0x7A DUP1 SLOAD DUP1 PUSH1 0x20 MUL PUSH1 0x20 ADD PUSH1 0x40 MLOAD SWAP1 DUP2 ADD PUSH1 0x40 MSTORE DUP1 SWAP3 SWAP2 SWAP1 DUP2 DUP2 MSTORE PUSH1 0x20 ADD PUSH1 0x0 SWAP1 JUMPDEST DUP3 DUP3 LT ISZERO PUSH3 0xDF2 JUMPI DUP4 DUP3 SWAP1 PUSH1 0x0 MSTORE PUSH1 0x20 PUSH1 0x0 KECCAK256 ADD DUP1 SLOAD PUSH3 0xD5E SWAP1 PUSH3 0x30A5 JUMP JUMPDEST DUP1 PUSH1 0x1F ADD PUSH1 0x20 DUP1 SWAP2 DIV MUL PUSH1 0x20 ADD PUSH1 0x40 MLOAD SWAP1 DUP2 ADD PUSH1 0x40 MSTORE DUP1 SWAP3 SWAP2 SWAP1 DUP2 DUP2 MSTORE PUSH1 0x20 ADD DUP3 DUP1 SLOAD PUSH3 0xD8C SWAP1 PUSH3 0x30A5 JUMP JUMPDEST DUP1 ISZERO PUSH3 0xDDD JUMPI DUP1 PUSH1 0x1F LT PUSH3 0xDB1 JUMPI PUSH2 0x100 DUP1 DUP4 SLOAD DIV MUL DUP4 MSTORE SWAP2 PUSH1 0x20 ADD SWAP2 PUSH3 0xDDD JUMP JUMPDEST DUP3 ADD SWAP2 SWAP1 PUSH1 0x0 MSTORE PUSH1 0x20 PUSH1 0x0 KECCAK256 SWAP1 JUMPDEST DUP2 SLOAD DUP2 MSTORE SWAP1 PUSH1 0x1 ADD SWAP1 PUSH1 0x20 ADD DUP1 DUP4 GT PUSH3 0xDBF JUMPI DUP3 SWAP1 SUB PUSH1 0x1F AND DUP3 ADD SWAP2 JUMPDEST POP POP POP POP POP DUP2 MSTORE PUSH1 0x20 ADD SWAP1 PUSH1 0x1 ADD SWAP1 PUSH3 0xD3C JUMP JUMPDEST POP POP POP POP SWAP1 POP SWAP1 JUMP JUMPDEST PUSH1 0x6D DUP1 SLOAD PUSH3 0xE0A SWAP1 PUSH3 0x30A5 JUMP JUMPDEST DUP1 PUSH1 0x1F ADD PUSH1 0x20 DUP1 SWAP2 DIV MUL PUSH1 0x20 ADD PUSH1 0x40 MLOAD SWAP1 DUP2 ADD PUSH1 0x40 MSTORE DUP1 SWAP3 SWAP2 SWAP1 DUP2 DUP2 MSTORE PUSH1 0x20 ADD DUP3 DUP1 SLOAD PUSH3 0xE38 SWAP1 PUSH3 0x30A5 JUMP JUMPDEST DUP1 ISZERO PUSH3 0xE89 JUMPI DUP1 PUSH1 0x1F LT PUSH3 0xE5D JUMPI PUSH2 0x100 DUP1 DUP4 SLOAD DIV MUL DUP4 MSTORE SWAP2 PUSH1 0x20 ADD SWAP2 PUSH3 0xE89 JUMP JUMPDEST DUP3 ADD SWAP2 SWAP1 PUSH1 0x0 MSTORE PUSH1 0x20 PUSH1 0x0 KECCAK256 SWAP1 JUMPDEST DUP2 SLOAD DUP2 MSTORE SWAP1 PUSH1 0x1 ADD SWAP1 PUSH1 0x20 ADD DUP1 DUP4 GT PUSH3 0xE6B JUMPI DUP3 SWAP1 SUB PUSH1 0x1F AND DUP3 ADD SWAP2 JUMPDEST POP POP POP POP POP DUP2 JUMP JUMPDEST PUSH1 0x0 DUP2 PUSH3 0xEA1 JUMPI POP PUSH1 0x0 SWAP2 SWAP1 POP JUMP JUMPDEST PUSH1 0x7 SLOAD PUSH4 0xFFFFFFFF AND JUMPDEST PUSH1 0x8 DUP2 PUSH4 0xFFFFFFFF AND PUSH1 0x64 DUP2 LT PUSH3 0xEC7 JUMPI PUSH3 0xEC7 PUSH3 0x31CB JUMP JUMPDEST ADD SLOAD DUP4 EQ ISZERO PUSH3 0xEDA JUMPI POP PUSH1 0x1 SWAP3 SWAP2 POP POP JUMP JUMPDEST PUSH4 0xFFFFFFFF DUP2 AND PUSH3 0xEEA JUMPI POP PUSH1 0x64 JUMPDEST DUP1 PUSH3 0xEF6 DUP2 PUSH3 0x31E1 JUMP JUMPDEST PUSH1 0x7 SLOAD SWAP1 SWAP3 POP PUSH4 0xFFFFFFFF DUP1 DUP5 AND SWAP2 AND EQ ISZERO SWAP1 POP PUSH3 0xEAB JUMPI POP PUSH1 0x0 SWAP3 SWAP2 POP POP JUMP JUMPDEST PUSH1 0x0 PUSH1 0x60 PUSH1 0x6F SLOAD PUSH1 0x70 SLOAD TIMESTAMP PUSH3 0xF2F SWAP2 SWAP1 PUSH3 0x3204 JUMP JUMPDEST GT SWAP2 POP SWAP2 POP SWAP2 JUMP JUMPDEST PUSH1 0x3 SLOAD PUSH1 0x1 PUSH1 0x1 PUSH1 0xA0 SHL SUB AND CALLER EQ PUSH3 0xF8C JUMPI PUSH1 0x40 MLOAD PUSH3 0x461BCD PUSH1 0xE5 SHL DUP2 MSTORE PUSH1 0x20 PUSH1 0x4 DUP3 ADD MSTORE PUSH1 0x16 PUSH1 0x24 DUP3 ADD MSTORE PUSH22 0x26BAB9BA10313290383937B837B9B2B21037BBB732B9 PUSH1 0x51 SHL PUSH1 0x44 DUP3 ADD MSTORE PUSH1 0x64 ADD PUSH3 0x79B JUMP JUMPDEST PUSH1 0x2 DUP1 SLOAD PUSH1 0x1 PUSH1 0x1 PUSH1 0xA0 SHL SUB NOT DUP1 DUP3 AND CALLER SWAP1 DUP2 OR SWAP1 SWAP4 SSTORE PUSH1 0x3 DUP1 SLOAD SWAP1 SWAP2 AND SWAP1 SSTORE PUSH1 0x40 MLOAD PUSH1 0x1 PUSH1 0x1 PUSH1 0xA0 SHL SUB SWAP1 SWAP2 AND SWAP2 SWAP1 DUP3 SWAP1 PUSH32 0x8BE0079C531659141344CD1FD0A4F28419497F9722A3DAAFE3B4186F6B6457E0 SWAP1 PUSH1 0x0 SWAP1 LOG3 POP JUMP JUMPDEST PUSH1 0x7 SLOAD PUSH1 0x0 SWAP1 PUSH1 0x8 SWAP1 PUSH4 0xFFFFFFFF AND PUSH1 0x64 DUP2 LT PUSH3 0x1009 JUMPI PUSH3 0x1009 PUSH3 0x31CB JUMP JUMPDEST ADD SLOAD SWAP1 POP SWAP1 JUMP JUMPDEST PUSH1 0x74 DUP1 SLOAD PUSH3 0xE0A SWAP1 PUSH3 0x30A5 JUMP JUMPDEST PUSH1 0x8 DUP2 PUSH1 0x64 DUP2 LT PUSH3 0x1030 JUMPI PUSH1 0x0 DUP1 REVERT JUMPDEST ADD SLOAD SWAP1 POP DUP2 JUMP JUMPDEST PUSH1 0x0 DUP1 SLOAD PUSH1 0x40 DUP1 MLOAD PUSH4 0x6994548F PUSH1 0xE1 SHL DUP2 MSTORE SWAP1 MLOAD PUSH1 0x60 SWAP4 PUSH1 0x1 PUSH1 0x1 PUSH1 0xA0 SHL SUB SWAP1 SWAP4 AND SWAP3 PUSH4 0xD328A91E SWAP3 PUSH1 0x4 DUP1 DUP3 ADD SWAP4 SWAP2 DUP3 SWAP1 SUB ADD DUP2 DUP7 DUP1 EXTCODESIZE ISZERO DUP1 ISZERO PUSH3 0x107C JUMPI PUSH1 0x0 DUP1 REVERT JUMPDEST POP GAS STATICCALL ISZERO DUP1 ISZERO PUSH3 0x1091 JUMPI RETURNDATASIZE PUSH1 0x0 DUP1 RETURNDATACOPY RETURNDATASIZE PUSH1 0x0 REVERT JUMPDEST POP POP POP POP PUSH1 0x40 MLOAD RETURNDATASIZE PUSH1 0x0 DUP3 RETURNDATACOPY PUSH1 0x1F RETURNDATASIZE SWAP1 DUP2 ADD PUSH1 0x1F NOT AND DUP3 ADD PUSH1 0x40 MSTORE PUSH3 0x10BB SWAP2 SWAP1 DUP2 ADD SWAP1 PUSH3 0x321E JUMP JUMPDEST SWAP1 POP SWAP1 JUMP JUMPDEST PUSH1 0x0 DUP1 SLOAD PUSH1 0x1 PUSH1 0x1 PUSH1 0xA0 SHL SUB AND PUSH4 0xD227D245 DUP6 PUSH3 0x10DE DUP9 PUSH3 0x189E JUMP JUMPDEST DUP7 DUP7 PUSH1 0x40 MLOAD DUP6 PUSH4 0xFFFFFFFF AND PUSH1 0xE0 SHL DUP2 MSTORE PUSH1 0x4 ADD PUSH3 0x1101 SWAP5 SWAP4 SWAP3 SWAP2 SWAP1 PUSH3 0x3294 JUMP JUMPDEST PUSH1 0x20 PUSH1 0x40 MLOAD DUP1 DUP4 SUB DUP2 DUP7 DUP1 EXTCODESIZE ISZERO DUP1 ISZERO PUSH3 0x111A JUMPI PUSH1 0x0 DUP1 REVERT JUMPDEST POP GAS STATICCALL ISZERO DUP1 ISZERO PUSH3 0x112F JUMPI RETURNDATASIZE PUSH1 0x0 DUP1 RETURNDATACOPY RETURNDATASIZE PUSH1 0x0 REVERT JUMPDEST POP POP POP POP PUSH1 0x40 MLOAD RETURNDATASIZE PUSH1 0x1F NOT PUSH1 0x1F DUP3 ADD AND DUP3 ADD DUP1 PUSH1 0x40 MSTORE POP DUP2 ADD SWAP1 PUSH3 0x1155 SWAP2 SWAP1 PUSH3 0x32D1 JUMP JUMPDEST SWAP1 POP JUMPDEST SWAP5 SWAP4 POP POP POP POP JUMP JUMPDEST PUSH3 0x116E PUSH1 0x7A PUSH1 0x0 PUSH3 0x24CE JUMP JUMPDEST PUSH1 0x40 DUP1 MLOAD PUSH1 0x0 DUP1 DUP3 MSTORE PUSH1 0x20 DUP3 ADD SWAP1 SWAP3 MSTORE SWAP1 PUSH3 0x119B JUMP JUMPDEST PUSH1 0x60 DUP2 MSTORE PUSH1 0x20 ADD SWAP1 PUSH1 0x1 SWAP1 SUB SWAP1 DUP2 PUSH3 0x1185 JUMPI SWAP1 POP JUMPDEST POP DUP1 MLOAD PUSH3 0x11B2 SWAP2 PUSH1 0x7A SWAP2 PUSH1 0x20 SWAP1 SWAP2 ADD SWAP1 PUSH3 0x24EE JUMP JUMPDEST POP PUSH1 0x4 SLOAD PUSH1 0x40 MLOAD PUSH1 0x0 SWAP2 PUSH32 0x0 SWAP2 PUSH1 0x1 PUSH1 0x1 PUSH1 0xA0 SHL SUB SWAP1 SWAP2 AND SWAP1 PUSH3 0x11F5 SWAP1 PUSH3 0x254E JUMP JUMPDEST PUSH4 0xFFFFFFFF SWAP1 SWAP3 AND DUP3 MSTORE PUSH1 0x1 PUSH1 0x1 PUSH1 0xA0 SHL SUB AND PUSH1 0x20 DUP3 ADD MSTORE PUSH1 0x40 ADD PUSH1 0x40 MLOAD DUP1 SWAP2 SUB SWAP1 PUSH1 0x0 CREATE DUP1 ISZERO DUP1 ISZERO PUSH3 0x122D JUMPI RETURNDATASIZE PUSH1 0x0 DUP1 RETURNDATACOPY RETURNDATASIZE PUSH1 0x0 REVERT JUMPDEST POP PUSH1 0x40 MLOAD PUSH1 0x1 PUSH1 0x1 PUSH1 0xA0 SHL SUB DUP3 AND DUP2 MSTORE SWAP1 SWAP2 POP PUSH32 0x765DB991984A89C27E19F67D91432136B71039B4232E172528F603C60BD9F9B SWAP1 PUSH1 0x20 ADD PUSH1 0x40 MLOAD DUP1 SWAP2 SUB SWAP1 LOG1 POP JUMP JUMPDEST PUSH1 0x6 DUP2 DUP2 SLOAD DUP2 LT PUSH3 0x1281 JUMPI PUSH1 0x0 DUP1 REVERT JUMPDEST PUSH1 0x0 SWAP2 DUP3 MSTORE PUSH1 0x20 SWAP1 SWAP2 KECCAK256 ADD SLOAD SWAP1 POP DUP2 JUMP JUMPDEST PUSH3 0x129C PUSH3 0x1842 JUMP JUMPDEST PUSH1 0x0 DUP3 DUP2 MSTORE PUSH1 0x79 PUSH1 0x20 MSTORE PUSH1 0x40 SWAP1 KECCAK256 SLOAD PUSH1 0xFF AND ISZERO PUSH3 0x12FE JUMPI PUSH1 0x40 MLOAD PUSH4 0x2F40BF35 PUSH1 0xE0 SHL DUP2 MSTORE PUSH1 0x20 PUSH1 0x4 DUP3 ADD MSTORE PUSH1 0x17 PUSH1 0x24 DUP3 ADD MSTORE PUSH32 0x436F6D6D69746D656E7420616C72656164792075736564000000000000000000 PUSH1 0x44 DUP3 ADD MSTORE PUSH1 0x64 ADD PUSH3 0x79B JUMP JUMPDEST PUSH1 0x0 PUSH3 0x130B DUP4 PUSH3 0x1AE9 JUMP JUMPDEST PUSH1 0x0 DUP5 DUP2 MSTORE PUSH1 0x79 PUSH1 0x20 MSTORE PUSH1 0x40 SWAP1 DUP2 SWAP1 KECCAK256 DUP1 SLOAD PUSH1 0xFF NOT AND PUSH1 0x1 OR SWAP1 SSTORE MLOAD SWAP1 SWAP2 POP PUSH32 0x4B06A020EAA12A2D683A4C58434AE9611D1026DF0943FB89F31E751CB777B5AD SWAP1 PUSH3 0x137C SWAP1 DUP6 SWAP1 DUP5 SWAP1 DUP7 SWAP1 SWAP3 DUP4 MSTORE PUSH4 0xFFFFFFFF SWAP2 SWAP1 SWAP2 AND PUSH1 0x20 DUP4 ADD MSTORE PUSH1 0x1 PUSH1 0x1 PUSH1 0xA0 SHL SUB AND PUSH1 0x40 DUP3 ADD MSTORE PUSH1 0x60 ADD SWAP1 JUMP JUMPDEST PUSH1 0x40 MLOAD DUP1 SWAP2 SUB SWAP1 LOG1 POP PUSH3 0x1390 PUSH1 0x1 PUSH1 0x6C SSTORE JUMP JUMPDEST POP POP JUMP JUMPDEST PUSH3 0x139E PUSH3 0x1D76 JUMP JUMPDEST PUSH1 0x6F DUP4 SWAP1 SSTORE PUSH1 0x6E DUP1 SLOAD PUSH4 0xFFFFFFFF DUP7 AND PUSH1 0x1 PUSH1 0x40 SHL MUL PUSH12 0xFFFFFFFFFFFFFFFFFFFFFFFF NOT SWAP1 SWAP2 AND PUSH1 0x1 PUSH1 0x1 PUSH1 0x40 SHL SUB DUP9 AND OR OR SWAP1 SSTORE PUSH3 0x13E1 PUSH1 0x6D DUP4 DUP4 PUSH3 0x255C JUMP JUMPDEST POP POP POP POP POP POP JUMP JUMPDEST PUSH1 0x5 DUP2 DUP2 SLOAD DUP2 LT PUSH3 0x1281 JUMPI PUSH1 0x0 DUP1 REVERT JUMPDEST PUSH3 0x1404 PUSH3 0x1D76 JUMP JUMPDEST PUSH3 0x140F DUP2 PUSH3 0x1DCD JUMP JUMPDEST POP JUMP JUMPDEST PUSH1 0x60 PUSH3 0x144F PUSH1 0x40 DUP1 MLOAD PUSH1 0xC0 DUP2 ADD SWAP1 SWAP2 MSTORE DUP1 PUSH1 0x0 DUP2 MSTORE PUSH1 0x20 ADD PUSH1 0x0 DUP2 MSTORE PUSH1 0x20 ADD PUSH1 0x0 DUP2 MSTORE PUSH1 0x20 ADD PUSH1 0x60 DUP2 MSTORE PUSH1 0x20 ADD PUSH1 0x60 DUP2 MSTORE PUSH1 0x20 ADD PUSH1 0x60 DUP2 MSTORE POP SWAP1 JUMP JUMPDEST PUSH3 0x1498 PUSH1 0x0 DUP1 DUP11 DUP11 DUP1 DUP1 PUSH1 0x1F ADD PUSH1 0x20 DUP1 SWAP2 DIV MUL PUSH1 0x20 ADD PUSH1 0x40 MLOAD SWAP1 DUP2 ADD PUSH1 0x40 MSTORE DUP1 SWAP4 SWAP3 SWAP2 SWAP1 DUP2 DUP2 MSTORE PUSH1 0x20 ADD DUP4 DUP4 DUP1 DUP3 DUP5 CALLDATACOPY PUSH1 0x0 SWAP3 ADD SWAP2 SWAP1 SWAP2 MSTORE POP DUP8 SWAP6 SWAP5 SWAP4 SWAP3 POP POP PUSH3 0x1E7A SWAP1 POP JUMP JUMPDEST DUP5 ISZERO PUSH3 0x14E3 JUMPI PUSH3 0x14E3 DUP7 DUP7 DUP1 DUP1 PUSH1 0x1F ADD PUSH1 0x20 DUP1 SWAP2 DIV MUL PUSH1 0x20 ADD PUSH1 0x40 MLOAD SWAP1 DUP2 ADD PUSH1 0x40 MSTORE DUP1 SWAP4 SWAP3 SWAP2 SWAP1 DUP2 DUP2 MSTORE PUSH1 0x20 ADD DUP4 DUP4 DUP1 DUP3 DUP5 CALLDATACOPY PUSH1 0x0 SWAP3 ADD SWAP2 SWAP1 SWAP2 MSTORE POP DUP6 SWAP4 SWAP3 POP POP PUSH3 0x1F02 SWAP1 POP JUMP JUMPDEST DUP3 ISZERO PUSH3 0x1502 JUMPI PUSH3 0x1502 PUSH3 0x14FA DUP5 DUP7 PUSH3 0x3301 JUMP JUMPDEST DUP3 SWAP1 PUSH3 0x1F31 JUMP JUMPDEST PUSH3 0x150D DUP2 PUSH3 0x189E JUMP JUMPDEST SWAP9 SWAP8 POP POP POP POP POP POP POP POP JUMP JUMPDEST PUSH1 0x75 DUP1 SLOAD PUSH3 0xE0A SWAP1 PUSH3 0x30A5 JUMP JUMPDEST DUP2 MLOAD PUSH3 0x153D SWAP1 PUSH1 0x74 SWAP1 PUSH1 0x20 DUP6 ADD SWAP1 PUSH3 0x243F JUMP JUMPDEST POP DUP1 MLOAD PUSH3 0x1553 SWAP1 PUSH1 0x75 SWAP1 PUSH1 0x20 DUP5 ADD SWAP1 PUSH3 0x243F JUMP JUMPDEST POP PUSH1 0x77 SLOAD PUSH1 0x40 DUP1 MLOAD PUSH4 0xCE10B1FB PUSH1 0xE0 SHL DUP2 MSTORE SWAP1 MLOAD PUSH1 0x0 SWAP3 PUSH1 0x1 PUSH1 0x1 PUSH1 0xA0 SHL SUB AND SWAP2 PUSH4 0xCE10B1FB SWAP2 PUSH1 0x4 DUP1 DUP4 ADD SWAP3 DUP7 SWAP3 SWAP2 SWAP1 DUP3 SWAP1 SUB ADD DUP2 DUP7 DUP1 EXTCODESIZE ISZERO DUP1 ISZERO PUSH3 0x1599 JUMPI PUSH1 0x0 DUP1 REVERT JUMPDEST POP GAS STATICCALL ISZERO DUP1 ISZERO PUSH3 0x15AE JUMPI RETURNDATASIZE PUSH1 0x0 DUP1 RETURNDATACOPY RETURNDATASIZE PUSH1 0x0 REVERT JUMPDEST POP POP POP POP PUSH1 0x40 MLOAD RETURNDATASIZE PUSH1 0x0 DUP3 RETURNDATACOPY PUSH1 0x1F RETURNDATASIZE SWAP1 DUP2 ADD PUSH1 0x1F NOT AND DUP3 ADD PUSH1 0x40 MSTORE PUSH3 0x15D8 SWAP2 SWAP1 DUP2 ADD SWAP1 PUSH3 0x3310 JUMP JUMPDEST PUSH1 0x0 DUP2 MLOAD DUP2 LT PUSH3 0x15ED JUMPI PUSH3 0x15ED PUSH3 0x31CB JUMP JUMPDEST PUSH1 0x20 MUL PUSH1 0x20 ADD ADD MLOAD SWAP1 POP PUSH1 0x77 PUSH1 0x0 SWAP1 SLOAD SWAP1 PUSH2 0x100 EXP SWAP1 DIV PUSH1 0x1 PUSH1 0x1 PUSH1 0xA0 SHL SUB AND PUSH1 0x1 PUSH1 0x1 PUSH1 0xA0 SHL SUB AND PUSH4 0xE0C86289 PUSH1 0x40 MLOAD DUP2 PUSH4 0xFFFFFFFF AND PUSH1 0xE0 SHL DUP2 MSTORE PUSH1 0x4 ADD PUSH1 0x0 PUSH1 0x40 MLOAD DUP1 DUP4 SUB DUP2 PUSH1 0x0 DUP8 DUP1 EXTCODESIZE ISZERO DUP1 ISZERO PUSH3 0x1648 JUMPI PUSH1 0x0 DUP1 REVERT JUMPDEST POP GAS CALL ISZERO DUP1 ISZERO PUSH3 0x165D JUMPI RETURNDATASIZE PUSH1 0x0 DUP1 RETURNDATACOPY RETURNDATASIZE PUSH1 0x0 REVERT JUMPDEST POP POP POP POP PUSH1 0x0 PUSH1 0x77 PUSH1 0x0 SWAP1 SLOAD SWAP1 PUSH2 0x100 EXP SWAP1 DIV PUSH1 0x1 PUSH1 0x1 PUSH1 0xA0 SHL SUB AND PUSH1 0x1 PUSH1 0x1 PUSH1 0xA0 SHL SUB AND PUSH4 0xCE10B1FB PUSH1 0x40 MLOAD DUP2 PUSH4 0xFFFFFFFF AND PUSH1 0xE0 SHL DUP2 MSTORE PUSH1 0x4 ADD PUSH1 0x0 PUSH1 0x40 MLOAD DUP1 DUP4 SUB DUP2 DUP7 DUP1 EXTCODESIZE ISZERO DUP1 ISZERO PUSH3 0x16B2 JUMPI PUSH1 0x0 DUP1 REVERT JUMPDEST POP GAS STATICCALL ISZERO DUP1 ISZERO PUSH3 0x16C7 JUMPI RETURNDATASIZE PUSH1 0x0 DUP1 RETURNDATACOPY RETURNDATASIZE PUSH1 0x0 REVERT JUMPDEST POP POP POP POP PUSH1 0x40 MLOAD RETURNDATASIZE PUSH1 0x0 DUP3 RETURNDATACOPY PUSH1 0x1F RETURNDATASIZE SWAP1 DUP2 ADD PUSH1 0x1F NOT AND DUP3 ADD PUSH1 0x40 MSTORE PUSH3 0x16F1 SWAP2 SWAP1 DUP2 ADD SWAP1 PUSH3 0x3310 JUMP JUMPDEST SWAP1 POP DUP1 PUSH1 0x0 DUP2 MLOAD DUP2 LT PUSH3 0x1709 JUMPI PUSH3 0x1709 PUSH3 0x31CB JUMP JUMPDEST PUSH1 0x20 MUL PUSH1 0x20 ADD ADD MLOAD DUP3 EQ ISZERO PUSH3 0x1763 JUMPI PUSH1 0x40 MLOAD PUSH4 0x50E417AD PUSH1 0xE0 SHL DUP2 MSTORE PUSH1 0x20 PUSH1 0x4 DUP3 ADD MSTORE PUSH1 0x18 PUSH1 0x24 DUP3 ADD MSTORE PUSH32 0x52616E646F6D20776F726473206E6F7420757064617465640000000000000000 PUSH1 0x44 DUP3 ADD MSTORE PUSH1 0x64 ADD PUSH3 0x79B JUMP JUMPDEST PUSH1 0x0 JUMPDEST DUP2 MLOAD DUP2 LT ISZERO PUSH3 0x17FE JUMPI PUSH1 0x0 DUP3 DUP3 DUP2 MLOAD DUP2 LT PUSH3 0x1787 JUMPI PUSH3 0x1787 PUSH3 0x31CB JUMP JUMPDEST PUSH1 0x20 MUL PUSH1 0x20 ADD ADD MLOAD SWAP1 POP PUSH1 0x0 DUP2 PUSH1 0x40 MLOAD PUSH1 0x20 ADD PUSH3 0x17A7 SWAP2 DUP2 MSTORE PUSH1 0x20 ADD SWAP1 JUMP JUMPDEST PUSH1 0x40 MLOAD PUSH1 0x20 DUP2 DUP4 SUB SUB DUP2 MSTORE SWAP1 PUSH1 0x40 MSTORE DUP1 MLOAD SWAP1 PUSH1 0x20 ADD KECCAK256 SWAP1 POP PUSH1 0x0 DUP8 DUP1 PUSH1 0x20 ADD SWAP1 MLOAD DUP2 ADD SWAP1 PUSH3 0x17D7 SWAP2 SWAP1 PUSH3 0x31AB JUMP JUMPDEST SWAP1 POP PUSH3 0x17E5 DUP3 DUP3 PUSH3 0x1292 JUMP JUMPDEST POP POP POP DUP1 DUP1 PUSH3 0x17F5 SWAP1 PUSH3 0x33A9 JUMP JUMPDEST SWAP2 POP POP PUSH3 0x1766 JUMP JUMPDEST POP DUP5 PUSH32 0x7BAB0EC163B5C132C72B8146AC4D6E067E82ED58F8B131150AA71C9258911562 DUP6 DUP6 PUSH1 0x40 MLOAD PUSH3 0x1833 SWAP3 SWAP2 SWAP1 PUSH3 0x33C7 JUMP JUMPDEST PUSH1 0x40 MLOAD DUP1 SWAP2 SUB SWAP1 LOG2 POP POP POP POP POP JUMP JUMPDEST PUSH1 0x2 PUSH1 0x6C SLOAD EQ ISZERO PUSH3 0x1897 JUMPI PUSH1 0x40 MLOAD PUSH3 0x461BCD PUSH1 0xE5 SHL DUP2 MSTORE PUSH1 0x20 PUSH1 0x4 DUP3 ADD MSTORE PUSH1 0x1F PUSH1 0x24 DUP3 ADD MSTORE PUSH32 0x5265656E7472616E637947756172643A207265656E7472616E742063616C6C00 PUSH1 0x44 DUP3 ADD MSTORE PUSH1 0x64 ADD PUSH3 0x79B JUMP JUMPDEST PUSH1 0x2 PUSH1 0x6C SSTORE JUMP JUMPDEST PUSH1 0x60 PUSH3 0x18BE PUSH1 0x40 MLOAD DUP1 PUSH1 0x40 ADD PUSH1 0x40 MSTORE DUP1 PUSH1 0x60 DUP2 MSTORE PUSH1 0x20 ADD PUSH1 0x0 DUP2 MSTORE POP SWAP1 JUMP JUMPDEST PUSH3 0x18CC DUP2 PUSH2 0x100 PUSH3 0x1F59 JUMP JUMPDEST POP PUSH1 0x40 DUP1 MLOAD DUP1 DUP3 ADD SWAP1 SWAP2 MSTORE PUSH1 0xC DUP2 MSTORE PUSH12 0x31B7B232A637B1B0BA34B7B7 PUSH1 0xA1 SHL PUSH1 0x20 DUP3 ADD MSTORE PUSH3 0x18FD SWAP1 DUP3 SWAP1 PUSH3 0x1FC7 JUMP JUMPDEST DUP3 MLOAD PUSH3 0x1920 SWAP1 PUSH1 0x1 DUP2 GT ISZERO PUSH3 0x1918 JUMPI PUSH3 0x1918 PUSH3 0x33F0 JUMP JUMPDEST DUP3 SWAP1 PUSH3 0x1FE7 JUMP JUMPDEST PUSH1 0x40 DUP1 MLOAD DUP1 DUP3 ADD SWAP1 SWAP2 MSTORE PUSH1 0x8 DUP2 MSTORE PUSH8 0x6C616E6775616765 PUSH1 0xC0 SHL PUSH1 0x20 DUP3 ADD MSTORE PUSH3 0x194C SWAP1 DUP3 SWAP1 PUSH3 0x1FC7 JUMP JUMPDEST PUSH1 0x40 DUP4 ADD MLOAD PUSH3 0x1967 SWAP1 DUP1 ISZERO PUSH3 0x1918 JUMPI PUSH3 0x1918 PUSH3 0x33F0 JUMP JUMPDEST PUSH1 0x40 DUP1 MLOAD DUP1 DUP3 ADD SWAP1 SWAP2 MSTORE PUSH1 0x6 DUP2 MSTORE PUSH6 0x736F75726365 PUSH1 0xD0 SHL PUSH1 0x20 DUP3 ADD MSTORE PUSH3 0x1991 SWAP1 DUP3 SWAP1 PUSH3 0x1FC7 JUMP JUMPDEST PUSH1 0x60 DUP4 ADD MLOAD PUSH3 0x19A3 SWAP1 DUP3 SWAP1 PUSH3 0x1FC7 JUMP JUMPDEST PUSH1 0xA0 DUP4 ADD MLOAD MLOAD ISZERO PUSH3 0x1A49 JUMPI PUSH1 0x40 DUP1 MLOAD DUP1 DUP3 ADD SWAP1 SWAP2 MSTORE PUSH1 0x4 DUP2 MSTORE PUSH4 0x61726773 PUSH1 0xE0 SHL PUSH1 0x20 DUP3 ADD MSTORE PUSH3 0x19D7 SWAP1 DUP3 SWAP1 PUSH3 0x1FC7 JUMP JUMPDEST PUSH3 0x19E2 DUP2 PUSH3 0x2011 JUMP JUMPDEST PUSH1 0x0 JUMPDEST DUP4 PUSH1 0xA0 ADD MLOAD MLOAD DUP2 LT ISZERO PUSH3 0x1A3D JUMPI PUSH3 0x1A28 DUP5 PUSH1 0xA0 ADD MLOAD DUP3 DUP2 MLOAD DUP2 LT PUSH3 0x1A10 JUMPI PUSH3 0x1A10 PUSH3 0x31CB JUMP JUMPDEST PUSH1 0x20 MUL PUSH1 0x20 ADD ADD MLOAD DUP4 PUSH3 0x1FC7 SWAP1 SWAP2 SWAP1 PUSH4 0xFFFFFFFF AND JUMP JUMPDEST DUP1 PUSH3 0x1A34 DUP2 PUSH3 0x33A9 JUMP JUMPDEST SWAP2 POP POP PUSH3 0x19E5 JUMP JUMPDEST POP PUSH3 0x1A49 DUP2 PUSH3 0x201E JUMP JUMPDEST PUSH1 0x80 DUP4 ADD MLOAD MLOAD ISZERO PUSH3 0x1AE2 JUMPI PUSH1 0x40 DUP1 MLOAD DUP1 DUP3 ADD SWAP1 SWAP2 MSTORE PUSH1 0xF DUP2 MSTORE PUSH15 0x39B2B1B932BA39A637B1B0BA34B7B7 PUSH1 0x89 SHL PUSH1 0x20 DUP3 ADD MSTORE PUSH3 0x1A88 SWAP1 DUP3 SWAP1 PUSH3 0x1FC7 JUMP JUMPDEST PUSH3 0x1AA5 DUP4 PUSH1 0x20 ADD MLOAD PUSH1 0x1 DUP2 GT ISZERO PUSH3 0x1918 JUMPI PUSH3 0x1918 PUSH3 0x33F0 JUMP JUMPDEST PUSH1 0x40 DUP1 MLOAD DUP1 DUP3 ADD SWAP1 SWAP2 MSTORE PUSH1 0x7 DUP2 MSTORE PUSH7 0x73656372657473 PUSH1 0xC8 SHL PUSH1 0x20 DUP3 ADD MSTORE PUSH3 0x1AD0 SWAP1 DUP3 SWAP1 PUSH3 0x1FC7 JUMP JUMPDEST PUSH1 0x80 DUP4 ADD MLOAD PUSH3 0x1AE2 SWAP1 DUP3 SWAP1 PUSH3 0x202B JUMP JUMPDEST MLOAD SWAP3 SWAP2 POP POP JUMP JUMPDEST PUSH1 0x7 SLOAD PUSH1 0x0 SWAP1 PUSH5 0x100000000 SWAP1 DIV PUSH4 0xFFFFFFFF AND PUSH3 0x1B2A PUSH32 0x0 PUSH1 0x2 PUSH3 0x3618 JUMP JUMPDEST PUSH4 0xFFFFFFFF AND DUP2 PUSH4 0xFFFFFFFF AND EQ ISZERO PUSH3 0x1BA0 JUMPI PUSH1 0x40 MLOAD PUSH4 0xD7E8473F PUSH1 0xE0 SHL DUP2 MSTORE PUSH1 0x20 PUSH1 0x4 DUP3 ADD MSTORE PUSH1 0x2F PUSH1 0x24 DUP3 ADD MSTORE PUSH32 0x4D65726B6C6520747265652069732066756C6C2E204E6F206D6F7265206C6561 PUSH1 0x44 DUP3 ADD MSTORE PUSH15 0x199CC818D85B881899481859191959 PUSH1 0x8A SHL PUSH1 0x64 DUP3 ADD MSTORE PUSH1 0x84 ADD PUSH3 0x79B JUMP JUMPDEST PUSH1 0x1 PUSH1 0x7 PUSH1 0x4 DUP3 DUP3 DUP3 SWAP1 SLOAD SWAP1 PUSH2 0x100 EXP SWAP1 DIV PUSH4 0xFFFFFFFF AND PUSH3 0x1BC4 SWAP2 SWAP1 PUSH3 0x362F JUMP JUMPDEST SWAP3 POP PUSH2 0x100 EXP DUP2 SLOAD DUP2 PUSH4 0xFFFFFFFF MUL NOT AND SWAP1 DUP4 PUSH4 0xFFFFFFFF AND MUL OR SWAP1 SSTORE POP PUSH1 0x0 DUP4 SWAP1 POP PUSH1 0x0 DUP1 PUSH1 0x0 JUMPDEST PUSH32 0x0 PUSH4 0xFFFFFFFF AND DUP2 PUSH4 0xFFFFFFFF AND LT ISZERO PUSH3 0x1CF4 JUMPI PUSH3 0x1C2F PUSH1 0x2 DUP7 PUSH3 0x3670 JUMP JUMPDEST PUSH4 0xFFFFFFFF AND PUSH3 0x1C95 JUMPI DUP4 SWAP3 POP PUSH1 0x6 DUP2 PUSH4 0xFFFFFFFF AND DUP2 SLOAD DUP2 LT PUSH3 0x1C59 JUMPI PUSH3 0x1C59 PUSH3 0x31CB JUMP JUMPDEST SWAP1 PUSH1 0x0 MSTORE PUSH1 0x20 PUSH1 0x0 KECCAK256 ADD SLOAD SWAP2 POP DUP4 PUSH1 0x5 DUP3 PUSH4 0xFFFFFFFF AND DUP2 SLOAD DUP2 LT PUSH3 0x1C83 JUMPI PUSH3 0x1C83 PUSH3 0x31CB JUMP JUMPDEST PUSH1 0x0 SWAP2 DUP3 MSTORE PUSH1 0x20 SWAP1 SWAP2 KECCAK256 ADD SSTORE PUSH3 0x1CC2 JUMP JUMPDEST PUSH1 0x5 DUP2 PUSH4 0xFFFFFFFF AND DUP2 SLOAD DUP2 LT PUSH3 0x1CB1 JUMPI PUSH3 0x1CB1 PUSH3 0x31CB JUMP JUMPDEST SWAP1 PUSH1 0x0 MSTORE PUSH1 0x20 PUSH1 0x0 KECCAK256 ADD SLOAD SWAP3 POP DUP4 SWAP2 POP JUMPDEST PUSH3 0x1CCE DUP4 DUP4 PUSH3 0x97D JUMP JUMPDEST SWAP4 POP PUSH3 0x1CDD PUSH1 0x2 DUP7 PUSH3 0x3696 JUMP JUMPDEST SWAP5 POP DUP1 PUSH3 0x1CEB DUP2 PUSH3 0x36BC JUMP JUMPDEST SWAP2 POP POP PUSH3 0x1BED JUMP JUMPDEST POP PUSH1 0x7 SLOAD PUSH1 0x64 SWAP1 PUSH3 0x1D0E SWAP1 PUSH4 0xFFFFFFFF AND PUSH1 0x1 PUSH3 0x362F JUMP JUMPDEST PUSH3 0x1D1A SWAP2 SWAP1 PUSH3 0x3670 JUMP JUMPDEST PUSH1 0x7 DUP1 SLOAD PUSH4 0xFFFFFFFF NOT AND PUSH4 0xFFFFFFFF SWAP3 SWAP1 SWAP3 AND SWAP2 DUP3 OR SWAP1 SSTORE DUP4 SWAP1 PUSH1 0x8 SWAP1 PUSH1 0x64 DUP2 LT PUSH3 0x1D4B JUMPI PUSH3 0x1D4B PUSH3 0x31CB JUMP JUMPDEST ADD SSTORE PUSH1 0x7 SLOAD PUSH3 0x1D6C SWAP1 PUSH1 0x1 SWAP1 PUSH5 0x100000000 SWAP1 DIV PUSH4 0xFFFFFFFF AND PUSH3 0x36E3 JUMP JUMPDEST SWAP7 SWAP6 POP POP POP POP POP POP JUMP JUMPDEST PUSH1 0x2 SLOAD PUSH1 0x1 PUSH1 0x1 PUSH1 0xA0 SHL SUB AND CALLER EQ PUSH3 0x1DCB JUMPI PUSH1 0x40 MLOAD PUSH3 0x461BCD PUSH1 0xE5 SHL DUP2 MSTORE PUSH1 0x20 PUSH1 0x4 DUP3 ADD MSTORE PUSH1 0x16 PUSH1 0x24 DUP3 ADD MSTORE PUSH22 0x27B7363C9031B0B63630B1363290313C9037BBB732B9 PUSH1 0x51 SHL PUSH1 0x44 DUP3 ADD MSTORE PUSH1 0x64 ADD PUSH3 0x79B JUMP JUMPDEST JUMP JUMPDEST PUSH1 0x1 PUSH1 0x1 PUSH1 0xA0 SHL SUB DUP2 AND CALLER EQ ISZERO PUSH3 0x1E28 JUMPI PUSH1 0x40 MLOAD PUSH3 0x461BCD PUSH1 0xE5 SHL DUP2 MSTORE PUSH1 0x20 PUSH1 0x4 DUP3 ADD MSTORE PUSH1 0x17 PUSH1 0x24 DUP3 ADD MSTORE PUSH32 0x43616E6E6F74207472616E7366657220746F2073656C66000000000000000000 PUSH1 0x44 DUP3 ADD MSTORE PUSH1 0x64 ADD PUSH3 0x79B JUMP JUMPDEST PUSH1 0x3 DUP1 SLOAD PUSH1 0x1 PUSH1 0x1 PUSH1 0xA0 SHL SUB NOT AND PUSH1 0x1 PUSH1 0x1 PUSH1 0xA0 SHL SUB DUP4 DUP2 AND SWAP2 DUP3 OR SWAP1 SWAP3 SSTORE PUSH1 0x2 SLOAD PUSH1 0x40 MLOAD SWAP2 SWAP3 AND SWAP1 PUSH32 0xED8889F560326EB138920D842192F0EB3DD22B4F139C87A2C57538E05BAE1278 SWAP1 PUSH1 0x0 SWAP1 LOG3 POP JUMP JUMPDEST DUP1 MLOAD PUSH3 0x1E9A JUMPI PUSH1 0x40 MLOAD PUSH4 0x22CE3EDD PUSH1 0xE0 SHL DUP2 MSTORE PUSH1 0x4 ADD PUSH1 0x40 MLOAD DUP1 SWAP2 SUB SWAP1 REVERT JUMPDEST DUP4 DUP4 PUSH1 0x1 DUP2 GT ISZERO PUSH3 0x1EB0 JUMPI PUSH3 0x1EB0 PUSH3 0x33F0 JUMP JUMPDEST SWAP1 DUP2 PUSH1 0x1 DUP2 GT ISZERO PUSH3 0x1EC6 JUMPI PUSH3 0x1EC6 PUSH3 0x33F0 JUMP JUMPDEST SWAP1 MSTORE POP PUSH1 0x40 DUP5 ADD DUP3 DUP1 ISZERO PUSH3 0x1EDF JUMPI PUSH3 0x1EDF PUSH3 0x33F0 JUMP JUMPDEST SWAP1 DUP2 DUP1 ISZERO PUSH3 0x1EF2 JUMPI PUSH3 0x1EF2 PUSH3 0x33F0 JUMP JUMPDEST SWAP1 MSTORE POP PUSH1 0x60 SWAP1 SWAP4 ADD SWAP3 SWAP1 SWAP3 MSTORE POP POP JUMP JUMPDEST DUP1 MLOAD PUSH3 0x1F22 JUMPI PUSH1 0x40 MLOAD PUSH4 0xE889636F PUSH1 0xE0 SHL DUP2 MSTORE PUSH1 0x4 ADD PUSH1 0x40 MLOAD DUP1 SWAP2 SUB SWAP1 REVERT JUMPDEST PUSH1 0x1 PUSH1 0x20 DUP4 ADD MSTORE PUSH1 0x80 SWAP1 SWAP2 ADD MSTORE JUMP JUMPDEST DUP1 MLOAD PUSH3 0x1F51 JUMPI PUSH1 0x40 MLOAD PUSH4 0xFE936CB7 PUSH1 0xE0 SHL DUP2 MSTORE PUSH1 0x4 ADD PUSH1 0x40 MLOAD DUP1 SWAP2 SUB SWAP1 REVERT JUMPDEST PUSH1 0xA0 SWAP1 SWAP2 ADD MSTORE JUMP JUMPDEST PUSH1 0x40 DUP1 MLOAD DUP1 DUP3 ADD SWAP1 SWAP2 MSTORE PUSH1 0x60 DUP2 MSTORE PUSH1 0x0 PUSH1 0x20 DUP3 ADD MSTORE PUSH3 0x1F7B PUSH1 0x20 DUP4 PUSH3 0x370B JUMP JUMPDEST ISZERO PUSH3 0x1FAA JUMPI PUSH3 0x1F8E PUSH1 0x20 DUP4 PUSH3 0x370B JUMP JUMPDEST PUSH3 0x1F9B SWAP1 PUSH1 0x20 PUSH3 0x3204 JUMP JUMPDEST PUSH3 0x1FA7 SWAP1 DUP4 PUSH3 0x308A JUMP JUMPDEST SWAP2 POP JUMPDEST POP PUSH1 0x20 DUP3 DUP2 ADD DUP3 SWAP1 MSTORE PUSH1 0x40 DUP1 MLOAD DUP1 DUP6 MSTORE PUSH1 0x0 DUP2 MSTORE SWAP1 SWAP3 ADD ADD SWAP1 MSTORE SWAP1 JUMP JUMPDEST PUSH3 0x1FD6 DUP3 PUSH1 0x3 DUP4 MLOAD PUSH3 0x2035 JUMP JUMPDEST PUSH3 0x1FE2 DUP3 DUP3 PUSH3 0x2152 JUMP JUMPDEST POP POP POP JUMP JUMPDEST PUSH1 0x1 PUSH1 0x1 PUSH1 0x40 SHL SUB DUP2 GT ISZERO PUSH3 0x2003 JUMPI PUSH3 0x1390 DUP3 DUP3 PUSH3 0x2182 JUMP JUMPDEST PUSH3 0x1390 DUP3 PUSH1 0x0 DUP4 PUSH3 0x2035 JUMP JUMPDEST PUSH3 0x140F DUP2 PUSH1 0x4 PUSH3 0x21BE JUMP JUMPDEST PUSH3 0x140F DUP2 PUSH1 0x7 PUSH3 0x21BE JUMP JUMPDEST PUSH3 0x1FD6 DUP3 PUSH1 0x2 DUP4 MLOAD JUMPDEST PUSH1 0x17 DUP2 PUSH1 0x1 PUSH1 0x1 PUSH1 0x40 SHL SUB AND GT PUSH3 0x205C JUMPI PUSH3 0x735 DUP4 PUSH1 0xE0 PUSH1 0x5 DUP6 SWAP1 SHL AND DUP4 OR PUSH3 0x21D0 JUMP JUMPDEST PUSH1 0xFF DUP2 PUSH1 0x1 PUSH1 0x1 PUSH1 0x40 SHL SUB AND GT PUSH3 0x209D JUMPI PUSH3 0x2085 DUP4 PUSH1 0x18 PUSH2 0x1FE0 PUSH1 0x5 DUP7 SWAP1 SHL AND OR PUSH3 0x21D0 JUMP JUMPDEST POP PUSH3 0x735 DUP4 PUSH1 0x1 PUSH1 0x1 PUSH1 0x40 SHL SUB DUP4 AND PUSH1 0x1 PUSH3 0x21F7 JUMP JUMPDEST PUSH2 0xFFFF DUP2 PUSH1 0x1 PUSH1 0x1 PUSH1 0x40 SHL SUB AND GT PUSH3 0x20DF JUMPI PUSH3 0x20C7 DUP4 PUSH1 0x19 PUSH2 0x1FE0 PUSH1 0x5 DUP7 SWAP1 SHL AND OR PUSH3 0x21D0 JUMP JUMPDEST POP PUSH3 0x735 DUP4 PUSH1 0x1 PUSH1 0x1 PUSH1 0x40 SHL SUB DUP4 AND PUSH1 0x2 PUSH3 0x21F7 JUMP JUMPDEST PUSH4 0xFFFFFFFF DUP2 PUSH1 0x1 PUSH1 0x1 PUSH1 0x40 SHL SUB AND GT PUSH3 0x2123 JUMPI PUSH3 0x210B DUP4 PUSH1 0x1A PUSH2 0x1FE0 PUSH1 0x5 DUP7 SWAP1 SHL AND OR PUSH3 0x21D0 JUMP JUMPDEST POP PUSH3 0x735 DUP4 PUSH1 0x1 PUSH1 0x1 PUSH1 0x40 SHL SUB DUP4 AND PUSH1 0x4 PUSH3 0x21F7 JUMP JUMPDEST PUSH3 0x213A DUP4 PUSH1 0x1B PUSH2 0x1FE0 PUSH1 0x5 DUP7 SWAP1 SHL AND OR PUSH3 0x21D0 JUMP JUMPDEST POP PUSH3 0x735 DUP4 PUSH1 0x1 PUSH1 0x1 PUSH1 0x40 SHL SUB DUP4 AND PUSH1 0x8 PUSH3 0x21F7 JUMP JUMPDEST PUSH1 0x40 DUP1 MLOAD DUP1 DUP3 ADD SWAP1 SWAP2 MSTORE PUSH1 0x60 DUP2 MSTORE PUSH1 0x0 PUSH1 0x20 DUP3 ADD MSTORE PUSH3 0x217B DUP4 DUP5 PUSH1 0x0 ADD MLOAD MLOAD DUP5 DUP6 MLOAD PUSH3 0x221F JUMP JUMPDEST SWAP4 SWAP3 POP POP POP JUMP JUMPDEST PUSH3 0x218F DUP3 PUSH1 0xC2 PUSH3 0x21D0 JUMP JUMPDEST POP PUSH3 0x1390 DUP3 DUP3 PUSH1 0x40 MLOAD PUSH1 0x20 ADD PUSH3 0x21A9 SWAP2 DUP2 MSTORE PUSH1 0x20 ADD SWAP1 JUMP JUMPDEST PUSH1 0x40 MLOAD PUSH1 0x20 DUP2 DUP4 SUB SUB DUP2 MSTORE SWAP1 PUSH1 0x40 MSTORE PUSH3 0x202B JUMP JUMPDEST PUSH3 0x1FE2 DUP3 PUSH1 0x1F PUSH2 0x1FE0 PUSH1 0x5 DUP6 SWAP1 SHL AND OR JUMPDEST PUSH1 0x40 DUP1 MLOAD DUP1 DUP3 ADD SWAP1 SWAP2 MSTORE PUSH1 0x60 DUP2 MSTORE PUSH1 0x0 PUSH1 0x20 DUP3 ADD MSTORE PUSH3 0x217B DUP4 DUP5 PUSH1 0x0 ADD MLOAD MLOAD DUP5 PUSH3 0x231E JUMP JUMPDEST PUSH1 0x40 DUP1 MLOAD DUP1 DUP3 ADD SWAP1 SWAP2 MSTORE PUSH1 0x60 DUP2 MSTORE PUSH1 0x0 PUSH1 0x20 DUP3 ADD MSTORE PUSH3 0x1158 DUP5 DUP6 PUSH1 0x0 ADD MLOAD MLOAD DUP6 DUP6 PUSH3 0x237F JUMP JUMPDEST PUSH1 0x40 DUP1 MLOAD DUP1 DUP3 ADD SWAP1 SWAP2 MSTORE PUSH1 0x60 DUP2 MSTORE PUSH1 0x0 PUSH1 0x20 DUP3 ADD MSTORE DUP3 MLOAD DUP3 GT ISZERO PUSH3 0x2243 JUMPI PUSH1 0x0 DUP1 REVERT JUMPDEST PUSH1 0x20 DUP6 ADD MLOAD PUSH3 0x2254 DUP4 DUP7 PUSH3 0x308A JUMP JUMPDEST GT ISZERO PUSH3 0x2290 JUMPI PUSH3 0x2290 DUP6 PUSH3 0x227D DUP8 PUSH1 0x20 ADD MLOAD DUP8 DUP7 PUSH3 0x2277 SWAP2 SWAP1 PUSH3 0x308A JUMP JUMPDEST PUSH3 0x240B JUMP JUMPDEST PUSH3 0x228A SWAP1 PUSH1 0x2 PUSH3 0x3722 JUMP JUMPDEST PUSH3 0x2424 JUMP JUMPDEST PUSH1 0x0 DUP1 DUP7 MLOAD DUP1 MLOAD DUP8 PUSH1 0x20 DUP4 ADD ADD SWAP4 POP DUP1 DUP9 DUP8 ADD GT ISZERO PUSH3 0x22B0 JUMPI DUP8 DUP7 ADD DUP3 MSTORE JUMPDEST POP POP POP PUSH1 0x20 DUP5 ADD JUMPDEST PUSH1 0x20 DUP5 LT PUSH3 0x22F8 JUMPI DUP1 MLOAD DUP3 MSTORE PUSH3 0x22D2 PUSH1 0x20 DUP4 PUSH3 0x308A JUMP JUMPDEST SWAP2 POP PUSH3 0x22E1 PUSH1 0x20 DUP3 PUSH3 0x308A JUMP JUMPDEST SWAP1 POP PUSH3 0x22F0 PUSH1 0x20 DUP6 PUSH3 0x3204 JUMP JUMPDEST SWAP4 POP PUSH3 0x22B8 JUMP JUMPDEST MLOAD DUP2 MLOAD PUSH1 0x0 NOT PUSH1 0x20 DUP7 SWAP1 SUB PUSH2 0x100 EXP ADD SWAP1 DUP2 AND SWAP1 NOT SWAP2 SWAP1 SWAP2 AND OR SWAP1 MSTORE POP DUP4 SWAP5 SWAP4 POP POP POP POP JUMP JUMPDEST PUSH1 0x40 DUP1 MLOAD DUP1 DUP3 ADD SWAP1 SWAP2 MSTORE PUSH1 0x60 DUP2 MSTORE PUSH1 0x0 PUSH1 0x20 DUP3 ADD MSTORE DUP4 PUSH1 0x20 ADD MLOAD DUP4 LT PUSH3 0x2357 JUMPI PUSH3 0x2357 DUP5 DUP6 PUSH1 0x20 ADD MLOAD PUSH1 0x2 PUSH3 0x228A SWAP2 SWAP1 PUSH3 0x3722 JUMP JUMPDEST DUP4 MLOAD DUP1 MLOAD PUSH1 0x20 DUP6 DUP4 ADD ADD DUP5 DUP2 MSTORE8 POP DUP1 DUP6 EQ ISZERO PUSH3 0x2375 JUMPI PUSH1 0x1 DUP2 ADD DUP3 MSTORE JUMPDEST POP SWAP4 SWAP5 SWAP4 POP POP POP POP JUMP JUMPDEST PUSH1 0x40 DUP1 MLOAD DUP1 DUP3 ADD SWAP1 SWAP2 MSTORE PUSH1 0x60 DUP2 MSTORE PUSH1 0x0 PUSH1 0x20 DUP3 ADD MSTORE PUSH1 0x20 DUP6 ADD MLOAD PUSH3 0x23A5 DUP6 DUP5 PUSH3 0x308A JUMP JUMPDEST GT ISZERO PUSH3 0x23BD JUMPI PUSH3 0x23BD DUP6 PUSH3 0x227D DUP7 DUP6 PUSH3 0x308A JUMP JUMPDEST PUSH1 0x0 PUSH1 0x1 PUSH3 0x23CF DUP5 PUSH2 0x100 PUSH3 0x3744 JUMP JUMPDEST PUSH3 0x23DB SWAP2 SWAP1 PUSH3 0x3204 JUMP JUMPDEST SWAP1 POP DUP6 MLOAD DUP4 DUP7 DUP3 ADD ADD DUP6 DUP4 NOT DUP3 MLOAD AND OR DUP2 MSTORE POP DUP1 MLOAD DUP5 DUP8 ADD GT ISZERO PUSH3 0x2400 JUMPI DUP4 DUP7 ADD DUP2 MSTORE JUMPDEST POP SWAP5 SWAP6 SWAP5 POP POP POP POP POP JUMP JUMPDEST PUSH1 0x0 DUP2 DUP4 GT ISZERO PUSH3 0x241E JUMPI POP DUP2 PUSH3 0xB06 JUMP JUMPDEST POP SWAP2 SWAP1 POP JUMP JUMPDEST DUP2 MLOAD PUSH3 0x2432 DUP4 DUP4 PUSH3 0x1F59 JUMP JUMPDEST POP PUSH3 0x735 DUP4 DUP3 PUSH3 0x2152 JUMP JUMPDEST DUP3 DUP1 SLOAD PUSH3 0x244D SWAP1 PUSH3 0x30A5 JUMP JUMPDEST SWAP1 PUSH1 0x0 MSTORE PUSH1 0x20 PUSH1 0x0 KECCAK256 SWAP1 PUSH1 0x1F ADD PUSH1 0x20 SWAP1 DIV DUP2 ADD SWAP3 DUP3 PUSH3 0x2471 JUMPI PUSH1 0x0 DUP6 SSTORE PUSH3 0x24BC JUMP JUMPDEST DUP3 PUSH1 0x1F LT PUSH3 0x248C JUMPI DUP1 MLOAD PUSH1 0xFF NOT AND DUP4 DUP1 ADD OR DUP6 SSTORE PUSH3 0x24BC JUMP JUMPDEST DUP3 DUP1 ADD PUSH1 0x1 ADD DUP6 SSTORE DUP3 ISZERO PUSH3 0x24BC JUMPI SWAP2 DUP3 ADD JUMPDEST DUP3 DUP2 GT ISZERO PUSH3 0x24BC JUMPI DUP3 MLOAD DUP3 SSTORE SWAP2 PUSH1 0x20 ADD SWAP2 SWAP1 PUSH1 0x1 ADD SWAP1 PUSH3 0x249F JUMP JUMPDEST POP PUSH3 0x24CA SWAP3 SWAP2 POP PUSH3 0x25D9 JUMP JUMPDEST POP SWAP1 JUMP JUMPDEST POP DUP1 SLOAD PUSH1 0x0 DUP3 SSTORE SWAP1 PUSH1 0x0 MSTORE PUSH1 0x20 PUSH1 0x0 KECCAK256 SWAP1 DUP2 ADD SWAP1 PUSH3 0x140F SWAP2 SWAP1 PUSH3 0x25F0 JUMP JUMPDEST DUP3 DUP1 SLOAD DUP3 DUP3 SSTORE SWAP1 PUSH1 0x0 MSTORE PUSH1 0x20 PUSH1 0x0 KECCAK256 SWAP1 DUP2 ADD SWAP3 DUP3 ISZERO PUSH3 0x2540 JUMPI SWAP2 PUSH1 0x20 MUL DUP3 ADD JUMPDEST DUP3 DUP2 GT ISZERO PUSH3 0x2540 JUMPI DUP3 MLOAD DUP1 MLOAD PUSH3 0x252F SWAP2 DUP5 SWAP2 PUSH1 0x20 SWAP1 SWAP2 ADD SWAP1 PUSH3 0x243F JUMP JUMPDEST POP SWAP2 PUSH1 0x20 ADD SWAP2 SWAP1 PUSH1 0x1 ADD SWAP1 PUSH3 0x250F JUMP JUMPDEST POP PUSH3 0x24CA SWAP3 SWAP2 POP PUSH3 0x25F0 JUMP JUMPDEST PUSH2 0xA1C DUP1 PUSH3 0x3753 DUP4 CODECOPY ADD SWAP1 JUMP JUMPDEST DUP3 DUP1 SLOAD PUSH3 0x256A SWAP1 PUSH3 0x30A5 JUMP JUMPDEST SWAP1 PUSH1 0x0 MSTORE PUSH1 0x20 PUSH1 0x0 KECCAK256 SWAP1 PUSH1 0x1F ADD PUSH1 0x20 SWAP1 DIV DUP2 ADD SWAP3 DUP3 PUSH3 0x258E JUMPI PUSH1 0x0 DUP6 SSTORE PUSH3 0x24BC JUMP JUMPDEST DUP3 PUSH1 0x1F LT PUSH3 0x25A9 JUMPI DUP3 DUP1 ADD PUSH1 0xFF NOT DUP3 CALLDATALOAD AND OR DUP6 SSTORE PUSH3 0x24BC JUMP JUMPDEST DUP3 DUP1 ADD PUSH1 0x1 ADD DUP6 SSTORE DUP3 ISZERO PUSH3 0x24BC JUMPI SWAP2 DUP3 ADD JUMPDEST DUP3 DUP2 GT ISZERO PUSH3 0x24BC JUMPI DUP3 CALLDATALOAD DUP3 SSTORE SWAP2 PUSH1 0x20 ADD SWAP2 SWAP1 PUSH1 0x1 ADD SWAP1 PUSH3 0x25BC JUMP JUMPDEST JUMPDEST DUP1 DUP3 GT ISZERO PUSH3 0x24CA JUMPI PUSH1 0x0 DUP2 SSTORE PUSH1 0x1 ADD PUSH3 0x25DA JUMP JUMPDEST DUP1 DUP3 GT ISZERO PUSH3 0x24CA JUMPI PUSH1 0x0 PUSH3 0x2607 DUP3 DUP3 PUSH3 0x2611 JUMP JUMPDEST POP PUSH1 0x1 ADD PUSH3 0x25F0 JUMP JUMPDEST POP DUP1 SLOAD PUSH3 0x261F SWAP1 PUSH3 0x30A5 JUMP JUMPDEST PUSH1 0x0 DUP3 SSTORE DUP1 PUSH1 0x1F LT PUSH3 0x2630 JUMPI POP POP JUMP JUMPDEST PUSH1 0x1F ADD PUSH1 0x20 SWAP1 DIV SWAP1 PUSH1 0x0 MSTORE PUSH1 0x20 PUSH1 0x0 KECCAK256 SWAP1 DUP2 ADD SWAP1 PUSH3 0x140F SWAP2 SWAP1 PUSH3 0x25D9 JUMP JUMPDEST PUSH4 0x4E487B71 PUSH1 0xE0 SHL PUSH1 0x0 MSTORE PUSH1 0x41 PUSH1 0x4 MSTORE PUSH1 0x24 PUSH1 0x0 REVERT JUMPDEST PUSH1 0x40 MLOAD PUSH1 0x60 DUP2 ADD PUSH1 0x1 PUSH1 0x1 PUSH1 0x40 SHL SUB DUP2 GT DUP3 DUP3 LT OR ISZERO PUSH3 0x268B JUMPI PUSH3 0x268B PUSH3 0x2650 JUMP JUMPDEST PUSH1 0x40 MSTORE SWAP1 JUMP JUMPDEST PUSH1 0x40 MLOAD PUSH1 0xC0 DUP2 ADD PUSH1 0x1 PUSH1 0x1 PUSH1 0x40 SHL SUB DUP2 GT DUP3 DUP3 LT OR ISZERO PUSH3 0x268B JUMPI PUSH3 0x268B PUSH3 0x2650 JUMP JUMPDEST PUSH1 0x40 DUP1 MLOAD SWAP1 DUP2 ADD PUSH1 0x1 PUSH1 0x1 PUSH1 0x40 SHL SUB DUP2 GT DUP3 DUP3 LT OR ISZERO PUSH3 0x268B JUMPI PUSH3 0x268B PUSH3 0x2650 JUMP JUMPDEST PUSH1 0x40 MLOAD PUSH1 0x1F DUP3 ADD PUSH1 0x1F NOT AND DUP2 ADD PUSH1 0x1 PUSH1 0x1 PUSH1 0x40 SHL SUB DUP2 GT DUP3 DUP3 LT OR ISZERO PUSH3 0x2706 JUMPI PUSH3 0x2706 PUSH3 0x2650 JUMP JUMPDEST PUSH1 0x40 MSTORE SWAP2 SWAP1 POP JUMP JUMPDEST PUSH1 0x0 PUSH1 0x1 PUSH1 0x1 PUSH1 0x40 SHL SUB DUP3 GT ISZERO PUSH3 0x272A JUMPI PUSH3 0x272A PUSH3 0x2650 JUMP JUMPDEST POP PUSH1 0x1F ADD PUSH1 0x1F NOT AND PUSH1 0x20 ADD SWAP1 JUMP JUMPDEST PUSH1 0x0 DUP3 PUSH1 0x1F DUP4 ADD SLT PUSH3 0x274A JUMPI PUSH1 0x0 DUP1 REVERT JUMPDEST DUP2 CALLDATALOAD PUSH3 0x2761 PUSH3 0x275B DUP3 PUSH3 0x270E JUMP JUMPDEST PUSH3 0x26DB JUMP JUMPDEST DUP2 DUP2 MSTORE DUP5 PUSH1 0x20 DUP4 DUP7 ADD ADD GT ISZERO PUSH3 0x2777 JUMPI PUSH1 0x0 DUP1 REVERT JUMPDEST DUP2 PUSH1 0x20 DUP6 ADD PUSH1 0x20 DUP4 ADD CALLDATACOPY PUSH1 0x0 SWAP2 DUP2 ADD PUSH1 0x20 ADD SWAP2 SWAP1 SWAP2 MSTORE SWAP4 SWAP3 POP POP POP JUMP JUMPDEST PUSH1 0x0 DUP1 PUSH1 0x0 PUSH1 0x60 DUP5 DUP7 SUB SLT ISZERO PUSH3 0x27AA JUMPI PUSH1 0x0 DUP1 REVERT JUMPDEST DUP4 CALLDATALOAD SWAP3 POP PUSH1 0x20 DUP5 ADD CALLDATALOAD PUSH1 0x1 PUSH1 0x1 PUSH1 0x40 SHL SUB DUP1 DUP3 GT ISZERO PUSH3 0x27C9 JUMPI PUSH1 0x0 DUP1 REVERT JUMPDEST PUSH3 0x27D7 DUP8 DUP4 DUP9 ADD PUSH3 0x2738 JUMP JUMPDEST SWAP4 POP PUSH1 0x40 DUP7 ADD CALLDATALOAD SWAP2 POP DUP1 DUP3 GT ISZERO PUSH3 0x27EE JUMPI PUSH1 0x0 DUP1 REVERT JUMPDEST POP PUSH3 0x27FD DUP7 DUP3 DUP8 ADD PUSH3 0x2738 JUMP JUMPDEST SWAP2 POP POP SWAP3 POP SWAP3 POP SWAP3 JUMP JUMPDEST PUSH1 0x0 DUP3 PUSH1 0x1F DUP4 ADD SLT PUSH3 0x2819 JUMPI PUSH1 0x0 DUP1 REVERT JUMPDEST PUSH3 0x2823 PUSH3 0x26B6 JUMP JUMPDEST DUP1 PUSH1 0x40 DUP5 ADD DUP6 DUP2 GT ISZERO PUSH3 0x2836 JUMPI PUSH1 0x0 DUP1 REVERT JUMPDEST DUP5 JUMPDEST DUP2 DUP2 LT ISZERO PUSH3 0x2852 JUMPI DUP1 CALLDATALOAD DUP5 MSTORE PUSH1 0x20 SWAP4 DUP5 ADD SWAP4 ADD PUSH3 0x2838 JUMP JUMPDEST POP SWAP1 SWAP6 SWAP5 POP POP POP POP POP JUMP JUMPDEST PUSH1 0x0 DUP1 PUSH1 0x0 DUP1 DUP5 DUP7 SUB PUSH2 0x160 DUP2 SLT ISZERO PUSH3 0x2876 JUMPI PUSH1 0x0 DUP1 REVERT JUMPDEST DUP6 CALLDATALOAD PUSH1 0x1 PUSH1 0x1 PUSH1 0x40 SHL SUB DUP2 GT ISZERO PUSH3 0x288D JUMPI PUSH1 0x0 DUP1 REVERT JUMPDEST PUSH3 0x289B DUP9 DUP3 DUP10 ADD PUSH3 0x2738 JUMP JUMPDEST SWAP6 POP POP PUSH1 0x20 DUP7 DUP2 ADD CALLDATALOAD SWAP5 POP PUSH1 0x40 DUP1 DUP9 ADD CALLDATALOAD SWAP5 POP PUSH2 0x100 PUSH1 0x5F NOT DUP5 ADD SLT ISZERO PUSH3 0x28C2 JUMPI PUSH1 0x0 DUP1 REVERT JUMPDEST PUSH3 0x28CC PUSH3 0x2666 JUMP JUMPDEST SWAP3 POP PUSH3 0x28DD DUP10 PUSH1 0x60 DUP11 ADD PUSH3 0x2807 JUMP JUMPDEST DUP4 MSTORE DUP9 PUSH1 0xBF DUP10 ADD SLT PUSH3 0x28EF JUMPI PUSH1 0x0 DUP1 REVERT JUMPDEST PUSH3 0x28F9 PUSH3 0x26B6 JUMP JUMPDEST DUP1 PUSH2 0x120 DUP11 ADD DUP12 DUP2 GT ISZERO PUSH3 0x290D JUMPI PUSH1 0x0 DUP1 REVERT JUMPDEST PUSH1 0xA0 DUP12 ADD JUMPDEST DUP2 DUP2 LT ISZERO PUSH3 0x2935 JUMPI PUSH3 0x2927 DUP14 DUP3 PUSH3 0x2807 JUMP JUMPDEST DUP5 MSTORE SWAP3 DUP6 ADD SWAP3 DUP5 ADD PUSH3 0x2912 JUMP JUMPDEST POP DUP2 DUP6 DUP8 ADD MSTORE PUSH3 0x2947 DUP13 DUP3 PUSH3 0x2807 JUMP JUMPDEST DUP5 DUP8 ADD MSTORE POP POP POP POP POP DUP1 SWAP2 POP POP SWAP3 SWAP6 SWAP2 SWAP5 POP SWAP3 POP JUMP JUMPDEST PUSH1 0x0 PUSH1 0x20 DUP3 DUP5 SUB SLT ISZERO PUSH3 0x2970 JUMPI PUSH1 0x0 DUP1 REVERT JUMPDEST POP CALLDATALOAD SWAP2 SWAP1 POP JUMP JUMPDEST PUSH1 0x0 DUP1 PUSH1 0x40 DUP4 DUP6 SUB SLT ISZERO PUSH3 0x298B JUMPI PUSH1 0x0 DUP1 REVERT JUMPDEST POP POP DUP1 CALLDATALOAD SWAP3 PUSH1 0x20 SWAP1 SWAP2 ADD CALLDATALOAD SWAP2 POP JUMP JUMPDEST PUSH1 0x0 DUP1 DUP4 PUSH1 0x1F DUP5 ADD SLT PUSH3 0x29AD JUMPI PUSH1 0x0 DUP1 REVERT JUMPDEST POP DUP2 CALLDATALOAD PUSH1 0x1 PUSH1 0x1 PUSH1 0x40 SHL SUB DUP2 GT ISZERO PUSH3 0x29C5 JUMPI PUSH1 0x0 DUP1 REVERT JUMPDEST PUSH1 0x20 DUP4 ADD SWAP2 POP DUP4 PUSH1 0x20 DUP3 DUP6 ADD ADD GT ISZERO PUSH3 0x29DE JUMPI PUSH1 0x0 DUP1 REVERT JUMPDEST SWAP3 POP SWAP3 SWAP1 POP JUMP JUMPDEST PUSH1 0x0 DUP1 PUSH1 0x20 DUP4 DUP6 SUB SLT ISZERO PUSH3 0x29F9 JUMPI PUSH1 0x0 DUP1 REVERT JUMPDEST DUP3 CALLDATALOAD PUSH1 0x1 PUSH1 0x1 PUSH1 0x40 SHL SUB DUP2 GT ISZERO PUSH3 0x2A10 JUMPI PUSH1 0x0 DUP1 REVERT JUMPDEST PUSH3 0x2A1E DUP6 DUP3 DUP7 ADD PUSH3 0x299A JUMP JUMPDEST SWAP1 SWAP7 SWAP1 SWAP6 POP SWAP4 POP POP POP POP JUMP JUMPDEST PUSH1 0x0 JUMPDEST DUP4 DUP2 LT ISZERO PUSH3 0x2A47 JUMPI DUP2 DUP2 ADD MLOAD DUP4 DUP3 ADD MSTORE PUSH1 0x20 ADD PUSH3 0x2A2D JUMP JUMPDEST DUP4 DUP2 GT ISZERO PUSH3 0x735 JUMPI POP POP PUSH1 0x0 SWAP2 ADD MSTORE JUMP JUMPDEST PUSH1 0x0 DUP2 MLOAD DUP1 DUP5 MSTORE PUSH3 0x2A73 DUP2 PUSH1 0x20 DUP7 ADD PUSH1 0x20 DUP7 ADD PUSH3 0x2A2A JUMP JUMPDEST PUSH1 0x1F ADD PUSH1 0x1F NOT AND SWAP3 SWAP1 SWAP3 ADD PUSH1 0x20 ADD SWAP3 SWAP2 POP POP JUMP JUMPDEST PUSH1 0x0 PUSH1 0x20 DUP1 DUP4 ADD DUP2 DUP5 MSTORE DUP1 DUP6 MLOAD DUP1 DUP4 MSTORE PUSH1 0x40 DUP7 ADD SWAP2 POP PUSH1 0x40 DUP2 PUSH1 0x5 SHL DUP8 ADD ADD SWAP3 POP DUP4 DUP8 ADD PUSH1 0x0 JUMPDEST DUP3 DUP2 LT ISZERO PUSH3 0x2AE0 JUMPI PUSH1 0x3F NOT DUP9 DUP7 SUB ADD DUP5 MSTORE PUSH3 0x2ACD DUP6 DUP4 MLOAD PUSH3 0x2A59 JUMP JUMPDEST SWAP5 POP SWAP3 DUP6 ADD SWAP3 SWAP1 DUP6 ADD SWAP1 PUSH1 0x1 ADD PUSH3 0x2AAE JUMP JUMPDEST POP SWAP3 SWAP8 SWAP7 POP POP POP POP POP POP POP JUMP JUMPDEST PUSH1 0x20 DUP2 MSTORE PUSH1 0x0 PUSH3 0x217B PUSH1 0x20 DUP4 ADD DUP5 PUSH3 0x2A59 JUMP JUMPDEST PUSH1 0x0 PUSH1 0x20 DUP3 DUP5 SUB SLT ISZERO PUSH3 0x2B15 JUMPI PUSH1 0x0 DUP1 REVERT JUMPDEST DUP2 CALLDATALOAD PUSH1 0x1 PUSH1 0x1 PUSH1 0x40 SHL SUB DUP2 GT ISZERO PUSH3 0x2B2C JUMPI PUSH1 0x0 DUP1 REVERT JUMPDEST PUSH3 0xB02 DUP5 DUP3 DUP6 ADD PUSH3 0x2738 JUMP JUMPDEST DUP3 ISZERO ISZERO DUP2 MSTORE PUSH1 0x40 PUSH1 0x20 DUP3 ADD MSTORE PUSH1 0x0 PUSH3 0x1158 PUSH1 0x40 DUP4 ADD DUP5 PUSH3 0x2A59 JUMP JUMPDEST DUP1 CALLDATALOAD PUSH1 0x2 DUP2 LT PUSH3 0x2B67 JUMPI PUSH1 0x0 DUP1 REVERT JUMPDEST SWAP2 SWAP1 POP JUMP JUMPDEST DUP1 CALLDATALOAD PUSH1 0x1 DUP2 LT PUSH3 0x2B67 JUMPI PUSH1 0x0 DUP1 REVERT JUMPDEST PUSH1 0x0 PUSH1 0x1 PUSH1 0x1 PUSH1 0x40 SHL SUB DUP3 GT ISZERO PUSH3 0x2B98 JUMPI PUSH3 0x2B98 PUSH3 0x2650 JUMP JUMPDEST POP PUSH1 0x5 SHL PUSH1 0x20 ADD SWAP1 JUMP JUMPDEST PUSH1 0x0 PUSH3 0x2BB3 PUSH3 0x275B DUP5 PUSH3 0x2B7C JUMP JUMPDEST DUP4 DUP2 MSTORE SWAP1 POP PUSH1 0x20 DUP1 DUP3 ADD SWAP1 PUSH1 0x5 DUP6 SWAP1 SHL DUP5 ADD DUP7 DUP2 GT ISZERO PUSH3 0x2BD3 JUMPI PUSH1 0x0 DUP1 REVERT JUMPDEST DUP5 JUMPDEST DUP2 DUP2 LT ISZERO PUSH3 0x2C13 JUMPI DUP1 CALLDATALOAD PUSH1 0x1 PUSH1 0x1 PUSH1 0x40 SHL SUB DUP2 GT ISZERO PUSH3 0x2BF6 JUMPI PUSH1 0x0 DUP1 DUP2 REVERT JUMPDEST PUSH3 0x2C04 DUP10 DUP3 DUP10 ADD PUSH3 0x2738 JUMP JUMPDEST DUP6 MSTORE POP SWAP3 DUP3 ADD SWAP3 DUP3 ADD PUSH3 0x2BD5 JUMP JUMPDEST POP POP POP POP SWAP4 SWAP3 POP POP POP JUMP JUMPDEST PUSH1 0x0 DUP3 PUSH1 0x1F DUP4 ADD SLT PUSH3 0x2C30 JUMPI PUSH1 0x0 DUP1 REVERT JUMPDEST PUSH3 0x217B DUP4 DUP4 CALLDATALOAD PUSH1 0x20 DUP6 ADD PUSH3 0x2BA2 JUMP JUMPDEST DUP1 CALLDATALOAD PUSH1 0x1 PUSH1 0x1 PUSH1 0x40 SHL SUB DUP2 AND DUP2 EQ PUSH3 0x2B67 JUMPI PUSH1 0x0 DUP1 REVERT JUMPDEST DUP1 CALLDATALOAD PUSH4 0xFFFFFFFF DUP2 AND DUP2 EQ PUSH3 0x2B67 JUMPI PUSH1 0x0 DUP1 REVERT JUMPDEST PUSH1 0x0 DUP1 PUSH1 0x0 DUP1 PUSH1 0x80 DUP6 DUP8 SUB SLT ISZERO PUSH3 0x2C85 JUMPI PUSH1 0x0 DUP1 REVERT JUMPDEST DUP5 CALLDATALOAD PUSH1 0x1 PUSH1 0x1 PUSH1 0x40 SHL SUB DUP1 DUP3 GT ISZERO PUSH3 0x2C9D JUMPI PUSH1 0x0 DUP1 REVERT JUMPDEST SWAP1 DUP7 ADD SWAP1 PUSH1 0xC0 DUP3 DUP10 SUB SLT ISZERO PUSH3 0x2CB2 JUMPI PUSH1 0x0 DUP1 REVERT JUMPDEST PUSH3 0x2CBC PUSH3 0x2691 JUMP JUMPDEST PUSH3 0x2CC7 DUP4 PUSH3 0x2B57 JUMP JUMPDEST DUP2 MSTORE PUSH3 0x2CD7 PUSH1 0x20 DUP5 ADD PUSH3 0x2B57 JUMP JUMPDEST PUSH1 0x20 DUP3 ADD MSTORE PUSH3 0x2CEA PUSH1 0x40 DUP5 ADD PUSH3 0x2B6C JUMP JUMPDEST PUSH1 0x40 DUP3 ADD MSTORE PUSH1 0x60 DUP4 ADD CALLDATALOAD DUP3 DUP2 GT ISZERO PUSH3 0x2D02 JUMPI PUSH1 0x0 DUP1 REVERT JUMPDEST PUSH3 0x2D10 DUP11 DUP3 DUP7 ADD PUSH3 0x2738 JUMP JUMPDEST PUSH1 0x60 DUP4 ADD MSTORE POP PUSH1 0x80 DUP4 ADD CALLDATALOAD DUP3 DUP2 GT ISZERO PUSH3 0x2D29 JUMPI PUSH1 0x0 DUP1 REVERT JUMPDEST PUSH3 0x2D37 DUP11 DUP3 DUP7 ADD PUSH3 0x2738 JUMP JUMPDEST PUSH1 0x80 DUP4 ADD MSTORE POP PUSH1 0xA0 DUP4 ADD CALLDATALOAD DUP3 DUP2 GT ISZERO PUSH3 0x2D50 JUMPI PUSH1 0x0 DUP1 REVERT JUMPDEST PUSH3 0x2D5E DUP11 DUP3 DUP7 ADD PUSH3 0x2C1E JUMP JUMPDEST PUSH1 0xA0 DUP4 ADD MSTORE POP SWAP6 POP PUSH3 0x2D77 SWAP2 POP POP PUSH1 0x20 DUP7 ADD PUSH3 0x2C41 JUMP JUMPDEST SWAP3 POP PUSH3 0x2D87 PUSH1 0x40 DUP7 ADD PUSH3 0x2C59 JUMP JUMPDEST SWAP4 SWAP7 SWAP3 SWAP6 POP SWAP3 SWAP4 PUSH1 0x60 ADD CALLDATALOAD SWAP3 POP POP JUMP JUMPDEST PUSH1 0x1 PUSH1 0x1 PUSH1 0xA0 SHL SUB DUP2 AND DUP2 EQ PUSH3 0x140F JUMPI PUSH1 0x0 DUP1 REVERT JUMPDEST PUSH1 0x0 DUP1 PUSH1 0x40 DUP4 DUP6 SUB SLT ISZERO PUSH3 0x2DC1 JUMPI PUSH1 0x0 DUP1 REVERT JUMPDEST DUP3 CALLDATALOAD SWAP2 POP PUSH1 0x20 DUP4 ADD CALLDATALOAD PUSH3 0x2DD5 DUP2 PUSH3 0x2D97 JUMP JUMPDEST DUP1 SWAP2 POP POP SWAP3 POP SWAP3 SWAP1 POP JUMP JUMPDEST PUSH1 0x0 DUP1 PUSH1 0x0 DUP1 PUSH1 0x0 PUSH1 0x80 DUP7 DUP9 SUB SLT ISZERO PUSH3 0x2DF9 JUMPI PUSH1 0x0 DUP1 REVERT JUMPDEST PUSH3 0x2E04 DUP7 PUSH3 0x2C41 JUMP JUMPDEST SWAP5 POP PUSH3 0x2E14 PUSH1 0x20 DUP8 ADD PUSH3 0x2C59 JUMP JUMPDEST SWAP4 POP PUSH1 0x40 DUP7 ADD CALLDATALOAD SWAP3 POP PUSH1 0x60 DUP7 ADD CALLDATALOAD PUSH1 0x1 PUSH1 0x1 PUSH1 0x40 SHL SUB DUP2 GT ISZERO PUSH3 0x2E37 JUMPI PUSH1 0x0 DUP1 REVERT JUMPDEST PUSH3 0x2E45 DUP9 DUP3 DUP10 ADD PUSH3 0x299A JUMP JUMPDEST SWAP7 SWAP10 SWAP6 SWAP9 POP SWAP4 SWAP7 POP SWAP3 SWAP5 SWAP4 SWAP3 POP POP POP JUMP JUMPDEST PUSH1 0x0 PUSH1 0x20 DUP3 DUP5 SUB SLT ISZERO PUSH3 0x2E69 JUMPI PUSH1 0x0 DUP1 REVERT JUMPDEST DUP2 CALLDATALOAD PUSH3 0x217B DUP2 PUSH3 0x2D97 JUMP JUMPDEST PUSH1 0x0 DUP1 PUSH1 0x0 DUP1 PUSH1 0x0 DUP1 PUSH1 0x60 DUP8 DUP10 SUB SLT ISZERO PUSH3 0x2E90 JUMPI PUSH1 0x0 DUP1 REVERT JUMPDEST DUP7 CALLDATALOAD PUSH1 0x1 PUSH1 0x1 PUSH1 0x40 SHL SUB DUP1 DUP3 GT ISZERO PUSH3 0x2EA8 JUMPI PUSH1 0x0 DUP1 REVERT JUMPDEST PUSH3 0x2EB6 DUP11 DUP4 DUP12 ADD PUSH3 0x299A JUMP JUMPDEST SWAP1 SWAP9 POP SWAP7 POP PUSH1 0x20 DUP10 ADD CALLDATALOAD SWAP2 POP DUP1 DUP3 GT ISZERO PUSH3 0x2ED0 JUMPI PUSH1 0x0 DUP1 REVERT JUMPDEST PUSH3 0x2EDE DUP11 DUP4 DUP12 ADD PUSH3 0x299A JUMP JUMPDEST SWAP1 SWAP7 POP SWAP5 POP PUSH1 0x40 DUP10 ADD CALLDATALOAD SWAP2 POP DUP1 DUP3 GT ISZERO PUSH3 0x2EF8 JUMPI PUSH1 0x0 DUP1 REVERT JUMPDEST DUP2 DUP10 ADD SWAP2 POP DUP10 PUSH1 0x1F DUP4 ADD SLT PUSH3 0x2F0D JUMPI PUSH1 0x0 DUP1 REVERT JUMPDEST DUP2 CALLDATALOAD DUP2 DUP2 GT ISZERO PUSH3 0x2F1D JUMPI PUSH1 0x0 DUP1 REVERT JUMPDEST DUP11 PUSH1 0x20 DUP3 PUSH1 0x5 SHL DUP6 ADD ADD GT ISZERO PUSH3 0x2F33 JUMPI PUSH1 0x0 DUP1 REVERT JUMPDEST PUSH1 0x20 DUP4 ADD SWAP5 POP DUP1 SWAP4 POP POP POP POP SWAP3 SWAP6 POP SWAP3 SWAP6 POP SWAP3 SWAP6 JUMP JUMPDEST DUP1 PUSH1 0x0 JUMPDEST PUSH1 0x2 DUP2 LT ISZERO PUSH3 0x735 JUMPI DUP2 MLOAD DUP5 MSTORE PUSH1 0x20 SWAP4 DUP5 ADD SWAP4 SWAP1 SWAP2 ADD SWAP1 PUSH1 0x1 ADD PUSH3 0x2F4D JUMP JUMPDEST PUSH2 0x140 DUP2 ADD PUSH3 0x2F7F DUP3 DUP8 PUSH3 0x2F49 JUMP JUMPDEST PUSH1 0x40 DUP1 DUP4 ADD DUP7 PUSH1 0x0 JUMPDEST PUSH1 0x2 DUP2 LT ISZERO PUSH3 0x2FB3 JUMPI PUSH3 0x2F9F DUP4 DUP4 MLOAD PUSH3 0x2F49 JUMP JUMPDEST SWAP2 DUP4 ADD SWAP2 PUSH1 0x20 SWAP2 SWAP1 SWAP2 ADD SWAP1 PUSH1 0x1 ADD PUSH3 0x2F88 JUMP JUMPDEST POP POP POP POP PUSH3 0x2FC6 PUSH1 0xC0 DUP4 ADD DUP6 PUSH3 0x2F49 JUMP JUMPDEST PUSH3 0x2FD6 PUSH2 0x100 DUP4 ADD DUP5 PUSH3 0x2F49 JUMP JUMPDEST SWAP6 SWAP5 POP POP POP POP POP JUMP JUMPDEST PUSH1 0x0 PUSH1 0x20 DUP3 DUP5 SUB SLT ISZERO PUSH3 0x2FF2 JUMPI PUSH1 0x0 DUP1 REVERT JUMPDEST DUP2 MLOAD DUP1 ISZERO ISZERO DUP2 EQ PUSH3 0x217B JUMPI PUSH1 0x0 DUP1 REVERT JUMPDEST PUSH1 0x40 DUP2 MSTORE PUSH1 0x0 PUSH3 0x3018 PUSH1 0x40 DUP4 ADD DUP6 PUSH3 0x2A59 JUMP JUMPDEST SWAP1 POP DUP3 PUSH1 0x20 DUP4 ADD MSTORE SWAP4 SWAP3 POP POP POP JUMP JUMPDEST PUSH1 0x40 DUP2 ADD DUP2 DUP4 PUSH1 0x0 JUMPDEST PUSH1 0x2 DUP2 LT ISZERO PUSH3 0x3051 JUMPI DUP2 MLOAD DUP4 MSTORE PUSH1 0x20 SWAP3 DUP4 ADD SWAP3 SWAP1 SWAP2 ADD SWAP1 PUSH1 0x1 ADD PUSH3 0x3030 JUMP JUMPDEST POP POP POP SWAP3 SWAP2 POP POP JUMP JUMPDEST PUSH1 0x0 PUSH1 0x20 DUP3 DUP5 SUB SLT ISZERO PUSH3 0x306D JUMPI PUSH1 0x0 DUP1 REVERT JUMPDEST POP MLOAD SWAP2 SWAP1 POP JUMP JUMPDEST PUSH4 0x4E487B71 PUSH1 0xE0 SHL PUSH1 0x0 MSTORE PUSH1 0x11 PUSH1 0x4 MSTORE PUSH1 0x24 PUSH1 0x0 REVERT JUMPDEST PUSH1 0x0 DUP3 NOT DUP3 GT ISZERO PUSH3 0x30A0 JUMPI PUSH3 0x30A0 PUSH3 0x3074 JUMP JUMPDEST POP ADD SWAP1 JUMP JUMPDEST PUSH1 0x1 DUP2 DUP2 SHR SWAP1 DUP3 AND DUP1 PUSH3 0x30BA JUMPI PUSH1 0x7F DUP3 AND SWAP2 POP JUMPDEST PUSH1 0x20 DUP3 LT DUP2 EQ ISZERO PUSH3 0x241E JUMPI PUSH4 0x4E487B71 PUSH1 0xE0 SHL PUSH1 0x0 MSTORE PUSH1 0x22 PUSH1 0x4 MSTORE PUSH1 0x24 PUSH1 0x0 REVERT JUMPDEST PUSH1 0x1 PUSH1 0x1 PUSH1 0x40 SHL SUB DUP5 AND DUP2 MSTORE PUSH1 0x0 PUSH1 0x20 PUSH1 0x60 DUP2 DUP5 ADD MSTORE PUSH1 0x0 DUP6 SLOAD DUP2 PUSH1 0x1 DUP3 DUP2 SHR SWAP2 POP DUP1 DUP4 AND DUP1 PUSH3 0x310E JUMPI PUSH1 0x7F DUP4 AND SWAP3 POP JUMPDEST DUP6 DUP4 LT DUP2 EQ ISZERO PUSH3 0x312D JUMPI PUSH4 0x4E487B71 PUSH1 0xE0 SHL DUP6 MSTORE PUSH1 0x22 PUSH1 0x4 MSTORE PUSH1 0x24 DUP6 REVERT JUMPDEST PUSH1 0x60 DUP9 ADD DUP4 SWAP1 MSTORE PUSH1 0x80 DUP9 ADD DUP2 DUP1 ISZERO PUSH3 0x314F JUMPI PUSH1 0x1 DUP2 EQ PUSH3 0x3161 JUMPI PUSH3 0x318E JUMP JUMPDEST PUSH1 0xFF NOT DUP7 AND DUP3 MSTORE DUP8 DUP3 ADD SWAP7 POP PUSH3 0x318E JUMP JUMPDEST PUSH1 0x0 DUP13 DUP2 MSTORE PUSH1 0x20 SWAP1 KECCAK256 PUSH1 0x0 JUMPDEST DUP7 DUP2 LT ISZERO PUSH3 0x3188 JUMPI DUP2 SLOAD DUP5 DUP3 ADD MSTORE SWAP1 DUP6 ADD SWAP1 DUP10 ADD PUSH3 0x316D JUMP JUMPDEST DUP4 ADD SWAP8 POP POP JUMPDEST POP POP POP PUSH4 0xFFFFFFFF DUP9 AND PUSH1 0x40 DUP9 ADD MSTORE POP SWAP2 SWAP4 POP PUSH3 0x1158 SWAP3 POP POP POP JUMP JUMPDEST PUSH1 0x0 PUSH1 0x20 DUP3 DUP5 SUB SLT ISZERO PUSH3 0x31BE JUMPI PUSH1 0x0 DUP1 REVERT JUMPDEST DUP2 MLOAD PUSH3 0x217B DUP2 PUSH3 0x2D97 JUMP JUMPDEST PUSH4 0x4E487B71 PUSH1 0xE0 SHL PUSH1 0x0 MSTORE PUSH1 0x32 PUSH1 0x4 MSTORE PUSH1 0x24 PUSH1 0x0 REVERT JUMPDEST PUSH1 0x0 PUSH4 0xFFFFFFFF DUP3 AND DUP1 PUSH3 0x31FA JUMPI PUSH3 0x31FA PUSH3 0x3074 JUMP JUMPDEST PUSH1 0x0 NOT ADD SWAP3 SWAP2 POP POP JUMP JUMPDEST PUSH1 0x0 DUP3 DUP3 LT ISZERO PUSH3 0x3219 JUMPI PUSH3 0x3219 PUSH3 0x3074 JUMP JUMPDEST POP SUB SWAP1 JUMP JUMPDEST PUSH1 0x0 PUSH1 0x20 DUP3 DUP5 SUB SLT ISZERO PUSH3 0x3231 JUMPI PUSH1 0x0 DUP1 REVERT JUMPDEST DUP2 MLOAD PUSH1 0x1 PUSH1 0x1 PUSH1 0x40 SHL SUB DUP2 GT ISZERO PUSH3 0x3248 JUMPI PUSH1 0x0 DUP1 REVERT JUMPDEST DUP3 ADD PUSH1 0x1F DUP2 ADD DUP5 SGT PUSH3 0x325A JUMPI PUSH1 0x0 DUP1 REVERT JUMPDEST DUP1 MLOAD PUSH3 0x326B PUSH3 0x275B DUP3 PUSH3 0x270E JUMP JUMPDEST DUP2 DUP2 MSTORE DUP6 PUSH1 0x20 DUP4 DUP6 ADD ADD GT ISZERO PUSH3 0x3281 JUMPI PUSH1 0x0 DUP1 REVERT JUMPDEST PUSH3 0x2FD6 DUP3 PUSH1 0x20 DUP4 ADD PUSH1 0x20 DUP7 ADD PUSH3 0x2A2A JUMP JUMPDEST PUSH1 0x1 PUSH1 0x1 PUSH1 0x40 SHL SUB DUP6 AND DUP2 MSTORE PUSH1 0x80 PUSH1 0x20 DUP3 ADD MSTORE PUSH1 0x0 PUSH3 0x32B8 PUSH1 0x80 DUP4 ADD DUP7 PUSH3 0x2A59 JUMP JUMPDEST PUSH4 0xFFFFFFFF SWAP5 SWAP1 SWAP5 AND PUSH1 0x40 DUP4 ADD MSTORE POP PUSH1 0x60 ADD MSTORE SWAP3 SWAP2 POP POP JUMP JUMPDEST PUSH1 0x0 PUSH1 0x20 DUP3 DUP5 SUB SLT ISZERO PUSH3 0x32E4 JUMPI PUSH1 0x0 DUP1 REVERT JUMPDEST DUP2 MLOAD PUSH12 0xFFFFFFFFFFFFFFFFFFFFFFFF DUP2 AND DUP2 EQ PUSH3 0x217B JUMPI PUSH1 0x0 DUP1 REVERT JUMPDEST PUSH1 0x0 PUSH3 0x217B CALLDATASIZE DUP5 DUP5 PUSH3 0x2BA2 JUMP JUMPDEST PUSH1 0x0 PUSH1 0x20 DUP1 DUP4 DUP6 SUB SLT ISZERO PUSH3 0x3324 JUMPI PUSH1 0x0 DUP1 REVERT JUMPDEST DUP3 MLOAD PUSH1 0x1 PUSH1 0x1 PUSH1 0x40 SHL SUB DUP2 GT ISZERO PUSH3 0x333B JUMPI PUSH1 0x0 DUP1 REVERT JUMPDEST DUP4 ADD PUSH1 0x1F DUP2 ADD DUP6 SGT PUSH3 0x334D JUMPI PUSH1 0x0 DUP1 REVERT JUMPDEST DUP1 MLOAD PUSH3 0x335E PUSH3 0x275B DUP3 PUSH3 0x2B7C JUMP JUMPDEST DUP2 DUP2 MSTORE PUSH1 0x5 SWAP2 SWAP1 SWAP2 SHL DUP3 ADD DUP4 ADD SWAP1 DUP4 DUP2 ADD SWAP1 DUP8 DUP4 GT ISZERO PUSH3 0x337E JUMPI PUSH1 0x0 DUP1 REVERT JUMPDEST SWAP3 DUP5 ADD SWAP3 JUMPDEST DUP3 DUP5 LT ISZERO PUSH3 0x339E JUMPI DUP4 MLOAD DUP3 MSTORE SWAP3 DUP5 ADD SWAP3 SWAP1 DUP5 ADD SWAP1 PUSH3 0x3383 JUMP JUMPDEST SWAP8 SWAP7 POP POP POP POP POP POP POP JUMP JUMPDEST PUSH1 0x0 PUSH1 0x0 NOT DUP3 EQ ISZERO PUSH3 0x33C0 JUMPI PUSH3 0x33C0 PUSH3 0x3074 JUMP JUMPDEST POP PUSH1 0x1 ADD SWAP1 JUMP JUMPDEST PUSH1 0x40 DUP2 MSTORE PUSH1 0x0 PUSH3 0x33DC PUSH1 0x40 DUP4 ADD DUP6 PUSH3 0x2A59 JUMP JUMPDEST DUP3 DUP2 SUB PUSH1 0x20 DUP5 ADD MSTORE PUSH3 0x2FD6 DUP2 DUP6 PUSH3 0x2A59 JUMP JUMPDEST PUSH4 0x4E487B71 PUSH1 0xE0 SHL PUSH1 0x0 MSTORE PUSH1 0x21 PUSH1 0x4 MSTORE PUSH1 0x24 PUSH1 0x0 REVERT JUMPDEST PUSH1 0x1 DUP2 DUP2 JUMPDEST DUP1 DUP6 GT ISZERO PUSH3 0x3449 JUMPI DUP2 PUSH4 0xFFFFFFFF DIV DUP3 GT ISZERO PUSH3 0x342D JUMPI PUSH3 0x342D PUSH3 0x3074 JUMP JUMPDEST DUP1 DUP6 AND ISZERO PUSH3 0x343B JUMPI SWAP2 DUP2 MUL SWAP2 JUMPDEST SWAP4 DUP5 SHR SWAP4 SWAP1 DUP1 MUL SWAP1 PUSH3 0x340B JUMP JUMPDEST POP SWAP3 POP SWAP3 SWAP1 POP JUMP JUMPDEST PUSH1 0x1 DUP2 DUP2 JUMPDEST DUP1 DUP6 GT ISZERO PUSH3 0x3449 JUMPI DUP2 PUSH1 0x0 NOT DIV DUP3 GT ISZERO PUSH3 0x3476 JUMPI PUSH3 0x3476 PUSH3 0x3074 JUMP JUMPDEST DUP1 DUP6 AND ISZERO PUSH3 0x3484 JUMPI SWAP2 DUP2 MUL SWAP2 JUMPDEST SWAP4 DUP5 SHR SWAP4 SWAP1 DUP1 MUL SWAP1 PUSH3 0x3456 JUMP JUMPDEST PUSH1 0x0 DUP3 PUSH3 0x34A3 JUMPI POP PUSH1 0x1 PUSH3 0xB06 JUMP JUMPDEST DUP2 PUSH3 0x34B2 JUMPI POP PUSH1 0x0 PUSH3 0xB06 JUMP JUMPDEST DUP2 PUSH1 0x1 DUP2 EQ PUSH3 0x34CB JUMPI PUSH1 0x2 DUP2 EQ PUSH3 0x34D6 JUMPI PUSH3 0x350E JUMP JUMPDEST PUSH1 0x1 SWAP2 POP POP PUSH3 0xB06 JUMP JUMPDEST PUSH1 0xFF DUP5 GT ISZERO PUSH3 0x34EA JUMPI PUSH3 0x34EA PUSH3 0x3074 JUMP JUMPDEST PUSH1 0x1 DUP5 SHL SWAP2 POP PUSH4 0xFFFFFFFF DUP3 GT ISZERO PUSH3 0x3507 JUMPI PUSH3 0x3507 PUSH3 0x3074 JUMP JUMPDEST POP PUSH3 0xB06 JUMP JUMPDEST POP PUSH1 0x20 DUP4 LT PUSH2 0x133 DUP4 LT AND PUSH1 0x4E DUP5 LT PUSH1 0xB DUP5 LT AND OR ISZERO PUSH3 0x354A JUMPI POP DUP2 DUP2 EXP PUSH4 0xFFFFFFFF DUP2 GT ISZERO PUSH3 0x3544 JUMPI PUSH3 0x3544 PUSH3 0x3074 JUMP JUMPDEST PUSH3 0xB06 JUMP JUMPDEST PUSH3 0x3556 DUP4 DUP4 PUSH3 0x3406 JUMP JUMPDEST DUP1 PUSH4 0xFFFFFFFF DIV DUP3 GT ISZERO PUSH3 0x356F JUMPI PUSH3 0x356F PUSH3 0x3074 JUMP JUMPDEST MUL SWAP4 SWAP3 POP POP POP JUMP JUMPDEST PUSH1 0x0 DUP3 PUSH3 0x3588 JUMPI POP PUSH1 0x1 PUSH3 0xB06 JUMP JUMPDEST DUP2 PUSH3 0x3597 JUMPI POP PUSH1 0x0 PUSH3 0xB06 JUMP JUMPDEST DUP2 PUSH1 0x1 DUP2 EQ PUSH3 0x34CB JUMPI PUSH1 0x2 DUP2 EQ PUSH3 0x35B0 JUMPI PUSH3 0x35D0 JUMP JUMPDEST PUSH1 0xFF DUP5 GT ISZERO PUSH3 0x35C4 JUMPI PUSH3 0x35C4 PUSH3 0x3074 JUMP JUMPDEST POP POP PUSH1 0x1 DUP3 SHL PUSH3 0xB06 JUMP JUMPDEST POP PUSH1 0x20 DUP4 LT PUSH2 0x133 DUP4 LT AND PUSH1 0x4E DUP5 LT PUSH1 0xB DUP5 LT AND OR ISZERO PUSH3 0x35F5 JUMPI POP DUP2 DUP2 EXP PUSH3 0xB06 JUMP JUMPDEST PUSH3 0x3601 DUP4 DUP4 PUSH3 0x3451 JUMP JUMPDEST DUP1 PUSH1 0x0 NOT DIV DUP3 GT ISZERO PUSH3 0x356F JUMPI PUSH3 0x356F PUSH3 0x3074 JUMP JUMPDEST PUSH1 0x0 PUSH4 0xFFFFFFFF PUSH3 0xB02 DUP2 DUP6 AND DUP3 DUP6 AND PUSH3 0x3492 JUMP JUMPDEST PUSH1 0x0 PUSH4 0xFFFFFFFF DUP1 DUP4 AND DUP2 DUP6 AND DUP1 DUP4 SUB DUP3 GT ISZERO PUSH3 0x3651 JUMPI PUSH3 0x3651 PUSH3 0x3074 JUMP JUMPDEST ADD SWAP5 SWAP4 POP POP POP POP JUMP JUMPDEST PUSH4 0x4E487B71 PUSH1 0xE0 SHL PUSH1 0x0 MSTORE PUSH1 0x12 PUSH1 0x4 MSTORE PUSH1 0x24 PUSH1 0x0 REVERT JUMPDEST PUSH1 0x0 PUSH4 0xFFFFFFFF DUP1 DUP5 AND DUP1 PUSH3 0x368A JUMPI PUSH3 0x368A PUSH3 0x365A JUMP JUMPDEST SWAP3 AND SWAP2 SWAP1 SWAP2 MOD SWAP3 SWAP2 POP POP JUMP JUMPDEST PUSH1 0x0 PUSH4 0xFFFFFFFF DUP1 DUP5 AND DUP1 PUSH3 0x36B0 JUMPI PUSH3 0x36B0 PUSH3 0x365A JUMP JUMPDEST SWAP3 AND SWAP2 SWAP1 SWAP2 DIV SWAP3 SWAP2 POP POP JUMP JUMPDEST PUSH1 0x0 PUSH4 0xFFFFFFFF DUP1 DUP4 AND DUP2 DUP2 EQ ISZERO PUSH3 0x36D9 JUMPI PUSH3 0x36D9 PUSH3 0x3074 JUMP JUMPDEST PUSH1 0x1 ADD SWAP4 SWAP3 POP POP POP JUMP JUMPDEST PUSH1 0x0 PUSH4 0xFFFFFFFF DUP4 DUP2 AND SWAP1 DUP4 AND DUP2 DUP2 LT ISZERO PUSH3 0x3703 JUMPI PUSH3 0x3703 PUSH3 0x3074 JUMP JUMPDEST SUB SWAP4 SWAP3 POP POP POP JUMP JUMPDEST PUSH1 0x0 DUP3 PUSH3 0x371D JUMPI PUSH3 0x371D PUSH3 0x365A JUMP JUMPDEST POP MOD SWAP1 JUMP JUMPDEST PUSH1 0x0 DUP2 PUSH1 0x0 NOT DIV DUP4 GT DUP3 ISZERO ISZERO AND ISZERO PUSH3 0x373F JUMPI PUSH3 0x373F PUSH3 0x3074 JUMP JUMPDEST POP MUL SWAP1 JUMP JUMPDEST PUSH1 0x0 PUSH3 0x217B DUP4 DUP4 PUSH3 0x3577 JUMP INVALID PUSH1 0xA0 PUSH1 0x40 MSTORE PUSH1 0x3 DUP1 SLOAD PUSH1 0x1 PUSH1 0x1 PUSH1 0x40 SHL SUB NOT AND SWAP1 SSTORE CALLVALUE DUP1 ISZERO PUSH2 0x20 JUMPI PUSH1 0x0 DUP1 REVERT JUMPDEST POP PUSH1 0x40 MLOAD PUSH2 0xA1C CODESIZE SUB DUP1 PUSH2 0xA1C DUP4 CODECOPY DUP2 ADD PUSH1 0x40 DUP2 SWAP1 MSTORE PUSH2 0x3F SWAP2 PUSH2 0x33F JUMP JUMPDEST PUSH1 0x20 DUP3 PUSH4 0xFFFFFFFF AND GT ISZERO PUSH2 0xAB JUMPI PUSH1 0x40 MLOAD PUSH4 0x2D5D4037 PUSH1 0xE0 SHL DUP2 MSTORE PUSH1 0x20 PUSH1 0x4 DUP3 ADD MSTORE PUSH1 0x26 PUSH1 0x24 DUP3 ADD MSTORE PUSH32 0x54726565206C6576656C732073686F756C64206265206265747765656E203020 PUSH1 0x44 DUP3 ADD MSTORE PUSH6 0x30B732101999 PUSH1 0xD1 SHL PUSH1 0x64 DUP3 ADD MSTORE PUSH1 0x84 ADD JUMPDEST PUSH1 0x40 MLOAD DUP1 SWAP2 SUB SWAP1 REVERT JUMPDEST PUSH1 0x0 DUP1 SLOAD PUSH1 0x1 PUSH1 0x1 PUSH1 0xA0 SHL SUB NOT AND PUSH1 0x1 PUSH1 0x1 PUSH1 0xA0 SHL SUB DUP4 AND OR DUP2 SSTORE PUSH4 0xFFFFFFFF DUP4 AND PUSH1 0x80 MSTORE PUSH1 0x2 DUP1 SLOAD PUSH1 0x1 DUP2 DUP2 ADD SWAP1 SWAP3 SSTORE PUSH32 0x2FE54C60D3ACABF3343A35B6EBA15DB4821B340F76E741E2249685ED4899AF6C PUSH1 0x0 DUP1 MLOAD PUSH1 0x20 PUSH2 0x9DC DUP4 CODECOPY DUP2 MLOAD SWAP2 MSTORE SWAP1 SWAP2 ADD DUP2 SWAP1 SSTORE DUP2 SLOAD DUP1 DUP4 ADD DUP4 SSTORE SWAP3 DUP3 SWAP1 MSTORE PUSH1 0x0 DUP1 MLOAD PUSH1 0x20 PUSH2 0x9FC DUP4 CODECOPY DUP2 MLOAD SWAP2 MSTORE SWAP1 SWAP3 ADD DUP3 SWAP1 SSTORE JUMPDEST DUP4 PUSH4 0xFFFFFFFF AND DUP2 PUSH4 0xFFFFFFFF AND LT ISZERO PUSH2 0x1A4 JUMPI PUSH2 0x151 DUP3 DUP1 PUSH2 0x1BB JUMP JUMPDEST PUSH1 0x2 DUP1 SLOAD PUSH1 0x1 DUP2 DUP2 ADD SWAP1 SWAP3 SSTORE PUSH1 0x0 DUP1 MLOAD PUSH1 0x20 PUSH2 0x9DC DUP4 CODECOPY DUP2 MLOAD SWAP2 MSTORE ADD DUP3 SWAP1 SSTORE DUP1 SLOAD DUP1 DUP3 ADD DUP3 SSTORE PUSH1 0x0 SWAP2 SWAP1 SWAP2 MSTORE PUSH1 0x0 DUP1 MLOAD PUSH1 0x20 PUSH2 0x9FC DUP4 CODECOPY DUP2 MLOAD SWAP2 MSTORE ADD DUP2 SWAP1 SSTORE SWAP2 POP DUP1 PUSH2 0x19C DUP2 PUSH2 0x38E JUMP JUMPDEST SWAP2 POP POP PUSH2 0x133 JUMP JUMPDEST POP PUSH2 0x1AF DUP2 DUP1 PUSH2 0x1BB JUMP JUMPDEST PUSH1 0x4 SSTORE POP PUSH2 0x40A SWAP2 POP POP JUMP JUMPDEST PUSH1 0x0 PUSH32 0x30644E72E131A029B85045B68181585D2833E84879B9709143E1F593F0000001 DUP4 LT PUSH2 0x22C JUMPI PUSH1 0x40 MLOAD PUSH3 0x461BCD PUSH1 0xE5 SHL DUP2 MSTORE PUSH1 0x20 PUSH1 0x4 DUP3 ADD DUP2 SWAP1 MSTORE PUSH1 0x24 DUP3 ADD MSTORE PUSH32 0x5F6C6566742073686F756C6420626520696E7369646520746865206669656C64 PUSH1 0x44 DUP3 ADD MSTORE PUSH1 0x64 ADD PUSH2 0xA2 JUMP JUMPDEST PUSH32 0x30644E72E131A029B85045B68181585D2833E84879B9709143E1F593F0000001 DUP3 LT PUSH2 0x2A5 JUMPI PUSH1 0x40 MLOAD PUSH3 0x461BCD PUSH1 0xE5 SHL DUP2 MSTORE PUSH1 0x20 PUSH1 0x4 DUP3 ADD MSTORE PUSH1 0x21 PUSH1 0x24 DUP3 ADD MSTORE PUSH32 0x5F72696768742073686F756C6420626520696E7369646520746865206669656C PUSH1 0x44 DUP3 ADD MSTORE PUSH1 0x19 PUSH1 0xFA SHL PUSH1 0x64 DUP3 ADD MSTORE PUSH1 0x84 ADD PUSH2 0xA2 JUMP JUMPDEST PUSH1 0x40 DUP1 MLOAD DUP1 DUP3 ADD DUP3 MSTORE DUP5 DUP2 MSTORE PUSH1 0x20 DUP2 ADD DUP5 SWAP1 MSTORE PUSH1 0x0 SLOAD SWAP2 MLOAD PUSH4 0x14CF2B3 PUSH1 0xE5 SHL DUP2 MSTORE SWAP1 SWAP2 PUSH1 0x1 PUSH1 0x1 PUSH1 0xA0 SHL SUB AND SWAP1 PUSH4 0x299E5660 SWAP1 PUSH2 0x2E7 SWAP1 DUP5 SWAP1 PUSH1 0x4 ADD PUSH2 0x3C0 JUMP JUMPDEST PUSH1 0x20 PUSH1 0x40 MLOAD DUP1 DUP4 SUB DUP2 DUP7 DUP1 EXTCODESIZE ISZERO DUP1 ISZERO PUSH2 0x2FF JUMPI PUSH1 0x0 DUP1 REVERT JUMPDEST POP GAS STATICCALL ISZERO DUP1 ISZERO PUSH2 0x313 JUMPI RETURNDATASIZE PUSH1 0x0 DUP1 RETURNDATACOPY RETURNDATASIZE PUSH1 0x0 REVERT JUMPDEST POP POP POP POP PUSH1 0x40 MLOAD RETURNDATASIZE PUSH1 0x1F NOT PUSH1 0x1F DUP3 ADD AND DUP3 ADD DUP1 PUSH1 0x40 MSTORE POP DUP2 ADD SWAP1 PUSH2 0x337 SWAP2 SWAP1 PUSH2 0x3F1 JUMP JUMPDEST SWAP5 SWAP4 POP POP POP POP JUMP JUMPDEST PUSH1 0x0 DUP1 PUSH1 0x40 DUP4 DUP6 SUB SLT ISZERO PUSH2 0x352 JUMPI PUSH1 0x0 DUP1 REVERT JUMPDEST DUP3 MLOAD PUSH4 0xFFFFFFFF DUP2 AND DUP2 EQ PUSH2 0x366 JUMPI PUSH1 0x0 DUP1 REVERT JUMPDEST PUSH1 0x20 DUP5 ADD MLOAD SWAP1 SWAP3 POP PUSH1 0x1 PUSH1 0x1 PUSH1 0xA0 SHL SUB DUP2 AND DUP2 EQ PUSH2 0x383 JUMPI PUSH1 0x0 DUP1 REVERT JUMPDEST DUP1 SWAP2 POP POP SWAP3 POP SWAP3 SWAP1 POP JUMP JUMPDEST PUSH1 0x0 PUSH4 0xFFFFFFFF DUP1 DUP4 AND DUP2 DUP2 EQ ISZERO PUSH2 0x3B6 JUMPI PUSH4 0x4E487B71 PUSH1 0xE0 SHL PUSH1 0x0 MSTORE PUSH1 0x11 PUSH1 0x4 MSTORE PUSH1 0x24 PUSH1 0x0 REVERT JUMPDEST PUSH1 0x1 ADD SWAP4 SWAP3 POP POP POP JUMP JUMPDEST PUSH1 0x40 DUP2 ADD DUP2 DUP4 PUSH1 0x0 JUMPDEST PUSH1 0x2 DUP2 LT ISZERO PUSH2 0x3E8 JUMPI DUP2 MLOAD DUP4 MSTORE PUSH1 0x20 SWAP3 DUP4 ADD SWAP3 SWAP1 SWAP2 ADD SWAP1 PUSH1 0x1 ADD PUSH2 0x3C9 JUMP JUMPDEST POP POP POP SWAP3 SWAP2 POP POP JUMP JUMPDEST PUSH1 0x0 PUSH1 0x20 DUP3 DUP5 SUB SLT ISZERO PUSH2 0x403 JUMPI PUSH1 0x0 DUP1 REVERT JUMPDEST POP MLOAD SWAP2 SWAP1 POP JUMP JUMPDEST PUSH1 0x80 MLOAD PUSH2 0x5B7 PUSH2 0x425 PUSH1 0x0 CODECOPY PUSH1 0x0 PUSH2 0x126 ADD MSTORE PUSH2 0x5B7 PUSH1 0x0 RETURN INVALID PUSH1 0x80 PUSH1 0x40 MSTORE CALLVALUE DUP1 ISZERO PUSH2 0x10 JUMPI PUSH1 0x0 DUP1 REVERT JUMPDEST POP PUSH1 0x4 CALLDATASIZE LT PUSH2 0xCF JUMPI PUSH1 0x0 CALLDATALOAD PUSH1 0xE0 SHR DUP1 PUSH4 0xC2B40AE4 GT PUSH2 0x8C JUMPI DUP1 PUSH4 0xEC732959 GT PUSH2 0x66 JUMPI DUP1 PUSH4 0xEC732959 EQ PUSH2 0x1C6 JUMPI DUP1 PUSH4 0xED33639F EQ PUSH2 0x1ED JUMPI DUP1 PUSH4 0xF178E47C EQ PUSH2 0x218 JUMPI DUP1 PUSH4 0xFC7E9C6F EQ PUSH2 0x22B JUMPI PUSH1 0x0 DUP1 REVERT JUMPDEST DUP1 PUSH4 0xC2B40AE4 EQ PUSH2 0x198 JUMPI DUP1 PUSH4 0xCD87A3B4 EQ PUSH2 0x1AB JUMPI DUP1 PUSH4 0xE8295588 EQ PUSH2 0x1B3 JUMPI PUSH1 0x0 DUP1 REVERT JUMPDEST DUP1 PUSH4 0x38BF282E EQ PUSH2 0xD4 JUMPI DUP1 PUSH4 0x414A37BA EQ PUSH2 0xFA JUMPI DUP1 PUSH4 0x4ECF518B EQ PUSH2 0x121 JUMPI DUP1 PUSH4 0x6D9833E3 EQ PUSH2 0x15D JUMPI DUP1 PUSH4 0x90EEB02B EQ PUSH2 0x180 JUMPI DUP1 PUSH4 0xBA70F757 EQ PUSH2 0x190 JUMPI JUMPDEST PUSH1 0x0 DUP1 REVERT JUMPDEST PUSH2 0xE7 PUSH2 0xE2 CALLDATASIZE PUSH1 0x4 PUSH2 0x4B8 JUMP JUMPDEST PUSH2 0x243 JUMP JUMPDEST PUSH1 0x40 MLOAD SWAP1 DUP2 MSTORE PUSH1 0x20 ADD JUMPDEST PUSH1 0x40 MLOAD DUP1 SWAP2 SUB SWAP1 RETURN JUMPDEST PUSH2 0xE7 PUSH32 0x30644E72E131A029B85045B68181585D2833E84879B9709143E1F593F0000001 DUP2 JUMP JUMPDEST PUSH2 0x148 PUSH32 0x0 DUP2 JUMP JUMPDEST PUSH1 0x40 MLOAD PUSH4 0xFFFFFFFF SWAP1 SWAP2 AND DUP2 MSTORE PUSH1 0x20 ADD PUSH2 0xF1 JUMP JUMPDEST PUSH2 0x170 PUSH2 0x16B CALLDATASIZE PUSH1 0x4 PUSH2 0x4DA JUMP JUMPDEST PUSH2 0x3CC JUMP JUMPDEST PUSH1 0x40 MLOAD SWAP1 ISZERO ISZERO DUP2 MSTORE PUSH1 0x20 ADD PUSH2 0xF1 JUMP JUMPDEST PUSH1 0x3 SLOAD PUSH2 0x148 SWAP1 PUSH4 0xFFFFFFFF AND DUP2 JUMP JUMPDEST PUSH2 0xE7 PUSH2 0x44A JUMP JUMPDEST PUSH2 0xE7 PUSH2 0x1A6 CALLDATASIZE PUSH1 0x4 PUSH2 0x4DA JUMP JUMPDEST PUSH2 0x470 JUMP JUMPDEST PUSH2 0x148 PUSH1 0x64 DUP2 JUMP JUMPDEST PUSH2 0xE7 PUSH2 0x1C1 CALLDATASIZE PUSH1 0x4 PUSH2 0x4DA JUMP JUMPDEST PUSH2 0x487 JUMP JUMPDEST PUSH2 0xE7 PUSH32 0x2FE54C60D3ACABF3343A35B6EBA15DB4821B340F76E741E2249685ED4899AF6C DUP2 JUMP JUMPDEST PUSH1 0x0 SLOAD PUSH2 0x200 SWAP1 PUSH1 0x1 PUSH1 0x1 PUSH1 0xA0 SHL SUB AND DUP2 JUMP JUMPDEST PUSH1 0x40 MLOAD PUSH1 0x1 PUSH1 0x1 PUSH1 0xA0 SHL SUB SWAP1 SWAP2 AND DUP2 MSTORE PUSH1 0x20 ADD PUSH2 0xF1 JUMP JUMPDEST PUSH2 0xE7 PUSH2 0x226 CALLDATASIZE PUSH1 0x4 PUSH2 0x4DA JUMP JUMPDEST PUSH2 0x4A8 JUMP JUMPDEST PUSH1 0x3 SLOAD PUSH2 0x148 SWAP1 PUSH5 0x100000000 SWAP1 DIV PUSH4 0xFFFFFFFF AND DUP2 JUMP JUMPDEST PUSH1 0x0 PUSH32 0x30644E72E131A029B85045B68181585D2833E84879B9709143E1F593F0000001 DUP4 LT PUSH2 0x2B9 JUMPI PUSH1 0x40 MLOAD PUSH3 0x461BCD PUSH1 0xE5 SHL DUP2 MSTORE PUSH1 0x20 PUSH1 0x4 DUP3 ADD DUP2 SWAP1 MSTORE PUSH1 0x24 DUP3 ADD MSTORE PUSH32 0x5F6C6566742073686F756C6420626520696E7369646520746865206669656C64 PUSH1 0x44 DUP3 ADD MSTORE PUSH1 0x64 ADD JUMPDEST PUSH1 0x40 MLOAD DUP1 SWAP2 SUB SWAP1 REVERT JUMPDEST PUSH32 0x30644E72E131A029B85045B68181585D2833E84879B9709143E1F593F0000001 DUP3 LT PUSH2 0x332 JUMPI PUSH1 0x40 MLOAD PUSH3 0x461BCD PUSH1 0xE5 SHL DUP2 MSTORE PUSH1 0x20 PUSH1 0x4 DUP3 ADD MSTORE PUSH1 0x21 PUSH1 0x24 DUP3 ADD MSTORE PUSH32 0x5F72696768742073686F756C6420626520696E7369646520746865206669656C PUSH1 0x44 DUP3 ADD MSTORE PUSH1 0x19 PUSH1 0xFA SHL PUSH1 0x64 DUP3 ADD MSTORE PUSH1 0x84 ADD PUSH2 0x2B0 JUMP JUMPDEST PUSH1 0x40 DUP1 MLOAD DUP1 DUP3 ADD DUP3 MSTORE DUP5 DUP2 MSTORE PUSH1 0x20 DUP2 ADD DUP5 SWAP1 MSTORE PUSH1 0x0 SLOAD SWAP2 MLOAD PUSH4 0x14CF2B3 PUSH1 0xE5 SHL DUP2 MSTORE SWAP1 SWAP2 PUSH1 0x1 PUSH1 0x1 PUSH1 0xA0 SHL SUB AND SWAP1 PUSH4 0x299E5660 SWAP1 PUSH2 0x374 SWAP1 DUP5 SWAP1 PUSH1 0x4 ADD PUSH2 0x4F3 JUMP JUMPDEST PUSH1 0x20 PUSH1 0x40 MLOAD DUP1 DUP4 SUB DUP2 DUP7 DUP1 EXTCODESIZE ISZERO DUP1 ISZERO PUSH2 0x38C JUMPI PUSH1 0x0 DUP1 REVERT JUMPDEST POP GAS STATICCALL ISZERO DUP1 ISZERO PUSH2 0x3A0 JUMPI RETURNDATASIZE PUSH1 0x0 DUP1 RETURNDATACOPY RETURNDATASIZE PUSH1 0x0 REVERT JUMPDEST POP POP POP POP PUSH1 0x40 MLOAD RETURNDATASIZE PUSH1 0x1F NOT PUSH1 0x1F DUP3 ADD AND DUP3 ADD DUP1 PUSH1 0x40 MSTORE POP DUP2 ADD SWAP1 PUSH2 0x3C4 SWAP2 SWAP1 PUSH2 0x524 JUMP JUMPDEST SWAP5 SWAP4 POP POP POP POP JUMP JUMPDEST PUSH1 0x0 DUP2 PUSH2 0x3DB JUMPI POP PUSH1 0x0 SWAP2 SWAP1 POP JUMP JUMPDEST PUSH1 0x3 SLOAD PUSH4 0xFFFFFFFF AND JUMPDEST PUSH1 0x4 DUP2 PUSH4 0xFFFFFFFF AND PUSH1 0x64 DUP2 LT PUSH2 0x3FE JUMPI PUSH2 0x3FE PUSH2 0x53D JUMP JUMPDEST ADD SLOAD DUP4 EQ ISZERO PUSH2 0x410 JUMPI POP PUSH1 0x1 SWAP3 SWAP2 POP POP JUMP JUMPDEST PUSH4 0xFFFFFFFF DUP2 AND PUSH2 0x41F JUMPI POP PUSH1 0x64 JUMPDEST DUP1 PUSH2 0x429 DUP2 PUSH2 0x553 JUMP JUMPDEST PUSH1 0x3 SLOAD SWAP1 SWAP3 POP PUSH4 0xFFFFFFFF DUP1 DUP5 AND SWAP2 AND EQ ISZERO SWAP1 POP PUSH2 0x3E5 JUMPI POP PUSH1 0x0 SWAP3 SWAP2 POP POP JUMP JUMPDEST PUSH1 0x3 SLOAD PUSH1 0x0 SWAP1 PUSH1 0x4 SWAP1 PUSH4 0xFFFFFFFF AND PUSH1 0x64 DUP2 LT PUSH2 0x469 JUMPI PUSH2 0x469 PUSH2 0x53D JUMP JUMPDEST ADD SLOAD SWAP1 POP SWAP1 JUMP JUMPDEST PUSH1 0x4 DUP2 PUSH1 0x64 DUP2 LT PUSH2 0x480 JUMPI PUSH1 0x0 DUP1 REVERT JUMPDEST ADD SLOAD SWAP1 POP DUP2 JUMP JUMPDEST PUSH1 0x2 DUP2 DUP2 SLOAD DUP2 LT PUSH2 0x497 JUMPI PUSH1 0x0 DUP1 REVERT JUMPDEST PUSH1 0x0 SWAP2 DUP3 MSTORE PUSH1 0x20 SWAP1 SWAP2 KECCAK256 ADD SLOAD SWAP1 POP DUP2 JUMP JUMPDEST PUSH1 0x1 DUP2 DUP2 SLOAD DUP2 LT PUSH2 0x497 JUMPI PUSH1 0x0 DUP1 REVERT JUMPDEST PUSH1 0x0 DUP1 PUSH1 0x40 DUP4 DUP6 SUB SLT ISZERO PUSH2 0x4CB JUMPI PUSH1 0x0 DUP1 REVERT JUMPDEST POP POP DUP1 CALLDATALOAD SWAP3 PUSH1 0x20 SWAP1 SWAP2 ADD CALLDATALOAD SWAP2 POP JUMP JUMPDEST PUSH1 0x0 PUSH1 0x20 DUP3 DUP5 SUB SLT ISZERO PUSH2 0x4EC JUMPI PUSH1 0x0 DUP1 REVERT JUMPDEST POP CALLDATALOAD SWAP2 SWAP1 POP JUMP JUMPDEST PUSH1 0x40 DUP2 ADD DUP2 DUP4 PUSH1 0x0 JUMPDEST PUSH1 0x2 DUP2 LT ISZERO PUSH2 0x51B JUMPI DUP2 MLOAD DUP4 MSTORE PUSH1 0x20 SWAP3 DUP4 ADD SWAP3 SWAP1 SWAP2 ADD SWAP1 PUSH1 0x1 ADD PUSH2 0x4FC JUMP JUMPDEST POP POP POP SWAP3 SWAP2 POP POP JUMP JUMPDEST PUSH1 0x0 PUSH1 0x20 DUP3 DUP5 SUB SLT ISZERO PUSH2 0x536 JUMPI PUSH1 0x0 DUP1 REVERT JUMPDEST POP MLOAD SWAP2 SWAP1 POP JUMP JUMPDEST PUSH4 0x4E487B71 PUSH1 0xE0 SHL PUSH1 0x0 MSTORE PUSH1 0x32 PUSH1 0x4 MSTORE PUSH1 0x24 PUSH1 0x0 REVERT JUMPDEST PUSH1 0x0 PUSH4 0xFFFFFFFF DUP3 AND DUP1 PUSH2 0x577 JUMPI PUSH4 0x4E487B71 PUSH1 0xE0 SHL PUSH1 0x0 MSTORE PUSH1 0x11 PUSH1 0x4 MSTORE PUSH1 0x24 PUSH1 0x0 REVERT JUMPDEST PUSH1 0x0 NOT ADD SWAP3 SWAP2 POP POP JUMP INVALID LOG2 PUSH5 0x6970667358 0x22 SLT KECCAK256 CODECOPY PUSH17 0x68DAF4CE198292D75C39AEB5B0A2B26973 PUSH19 0x39EDB7584A03FD01DD990FD864736F6C634300 ADDMOD MULMOD STOP CALLER BLOCKHASH JUMPI DUP8 STATICCALL SLT 0xA8 0x23 0xE0 CALLCODE 0xB7 PUSH4 0x1CC41B3B 0xA8 DUP3 DUP12 CALLER 0x21 0xCA DUP2 GT GT STATICCALL PUSH22 0xCD3AA3BB5ACEB10E2D527612073B26EECDFD717E6A32 0xC DELEGATECALL 0x4B 0x4A STATICCALL 0xC2 0xB0 PUSH20 0x2D9FCBE2B7FA0CF6A264697066735822122078DC DUP6 PUSH10 0xEA54B0896F870DC6175D DELEGATECALL SWAP7 PUSH13 0x37DCDB5AA90020E24FC5256072 AND CALLER PUSH5 0x736F6C6343 STOP ADDMOD MULMOD STOP CALLER SUB PUSH12 0x6384B5ECA791C62761152D0C PUSH26 0xBB0604C104A5FB6F4EB0703F3154BB3DB0F652222313E2845952 DUP14 SWAP3 SIGNEXTEND PUSH6 0x115C16C04F3E 0xFC DUP3 0xAA 0xED 0xC9 PUSH28 0xE59F3F377C0D3F000000000000000000000000000000000000000000 "},"methodIdentifiers":{"FIELD_SIZE()":"414a37ba","ROOT_HISTORY_SIZE()":"cd87a3b4","ZERO_VALUE()":"ec732959","acceptOwnership()":"79ba5097","checkUpkeep(bytes)":"6e04ff0d","clearMessages()":"df65850a","commitments(bytes32)":"839df945","currentRootIndex()":"90eeb02b","estimateCost((uint8,uint8,uint8,string,bytes,string[]),uint64,uint32,uint256)":"d4b39175","filledSubtrees(uint256)":"f178e47c","fulfillGasLimit()":"24b93e3e","generateRequest(string,bytes,string[])":"fe083012","getDONPublicKey()":"d328a91e","getLastRoot()":"ba70f757","getMessages()":"5ff6cbf3","handleOracleFulfillment(bytes32,bytes,bytes)":"0ca76175","hashLeftRight(bytes32,bytes32)":"38bf282e","hasher()":"ed33639f","insertIntoTree(bytes32,address)":"ea2637a5","isKnownRoot(bytes32)":"6d9833e3","isNullifierUsed(bytes32)":"22dc7b4c","lastUpkeepTimeStamp()":"089ea02e","latestError()":"fffeb84e","latestRequestId()":"1aa46f59","latestResponse()":"bef3a2f0","levels()":"4ecf518b","nextIndex()":"fc7e9c6f","nullifiers(bytes32)":"2997e86b","owner()":"8da5cb5b","performUpkeep(bytes)":"4585e33b","postMessageWithProof(string,bytes32,bytes32,(uint256[2],uint256[2][2],uint256[2]))":"218fc350","requestCBOR()":"688ecfd1","responseCounter()":"381fc4b5","roots(uint256)":"c2b40ae4","setRequest(uint64,uint32,uint256,bytes)":"eb197c77","subscriptionId()":"09c1ba2e","subscriptionManager()":"bf158fd2","transferOwnership(address)":"f2fde38b","updateInterval()":"fd2c80ae","upkeepCounter()":"a3d3c0d2","verifier()":"2b7ac3f3","zeros(uint256)":"e8295588"}}}}}