{"contracts/SnapshotV2.sol":{"SnapshotV2":{"abi":[{"inputs":[{"internalType":"address","name":"oracle","type":"address"},{"internalType":"contract IVerifier","name":"_verifier","type":"address"},{"internalType":"uint32","name":"_merkleTreeHeight","type":"uint32"},{"internalType":"address","name":"_hasher","type":"address"},{"internalType":"uint64","name":"_subscriptionId","type":"uint64"},{"internalType":"uint32","name":"_fulfillGasLimit","type":"uint32"}],"stateMutability":"nonpayable","type":"constructor"},{"inputs":[],"name":"EmptyArgs","type":"error"},{"inputs":[],"name":"EmptySecrets","type":"error"},{"inputs":[],"name":"EmptySource","type":"error"},{"inputs":[{"internalType":"string","name":"message","type":"string"}],"name":"MerkleTree__IsFull","type":"error"},{"inputs":[{"internalType":"string","name":"message","type":"string"}],"name":"MerkleTree__TreeLevelsOutOfRange","type":"error"},{"inputs":[],"name":"RequestIsAlreadyPending","type":"error"},{"inputs":[],"name":"RequestIsNotPending","type":"error"},{"inputs":[],"name":"SenderIsNotRegistry","type":"error"},{"inputs":[{"internalType":"string","name":"message","type":"string"}],"name":"SnapshotV2__CommitmentAlreadyUsed","type":"error"},{"inputs":[{"internalType":"string","name":"message","type":"string"}],"name":"SnapshotV2__InvalidProof","type":"error"},{"inputs":[{"internalType":"string","name":"message","type":"string"}],"name":"SnapshotV2__NullifierAlreadyUsed","type":"error"},{"inputs":[{"internalType":"string","name":"message","type":"string"}],"name":"SnapshotV2__RootNotKnown","type":"error"},{"inputs":[{"internalType":"string","name":"message","type":"string"}],"name":"SnapshotV2__TimeInterval","type":"error"},{"anonymous":false,"inputs":[{"indexed":false,"internalType":"bytes32","name":"commitment","type":"bytes32"},{"indexed":false,"internalType":"uint32","name":"insertedIndex","type":"uint32"}],"name":"Inserted","type":"event"},{"anonymous":false,"inputs":[{"indexed":true,"internalType":"bytes32","name":"requestId","type":"bytes32"},{"indexed":false,"internalType":"bytes","name":"result","type":"bytes"},{"indexed":false,"internalType":"bytes","name":"err","type":"bytes"}],"name":"OCRResponse","type":"event"},{"anonymous":false,"inputs":[{"indexed":true,"internalType":"address","name":"from","type":"address"},{"indexed":true,"internalType":"address","name":"to","type":"address"}],"name":"OwnershipTransferRequested","type":"event"},{"anonymous":false,"inputs":[{"indexed":true,"internalType":"address","name":"from","type":"address"},{"indexed":true,"internalType":"address","name":"to","type":"address"}],"name":"OwnershipTransferred","type":"event"},{"anonymous":false,"inputs":[{"indexed":true,"internalType":"bytes32","name":"id","type":"bytes32"}],"name":"RequestFulfilled","type":"event"},{"anonymous":false,"inputs":[{"indexed":true,"internalType":"bytes32","name":"id","type":"bytes32"}],"name":"RequestSent","type":"event"},{"anonymous":false,"inputs":[{"indexed":false,"internalType":"string","name":"message","type":"string"},{"indexed":false,"internalType":"bytes32","name":"nullifierHash","type":"bytes32"}],"name":"messagePosted","type":"event"},{"anonymous":false,"inputs":[],"name":"messagesCleared","type":"event"},{"inputs":[],"name":"FIELD_SIZE","outputs":[{"internalType":"uint256","name":"","type":"uint256"}],"stateMutability":"view","type":"function"},{"inputs":[],"name":"ROOT_HISTORY_SIZE","outputs":[{"internalType":"uint32","name":"","type":"uint32"}],"stateMutability":"view","type":"function"},{"inputs":[],"name":"ZERO_VALUE","outputs":[{"internalType":"uint256","name":"","type":"uint256"}],"stateMutability":"view","type":"function"},{"inputs":[],"name":"acceptOwnership","outputs":[],"stateMutability":"nonpayable","type":"function"},{"inputs":[{"internalType":"string","name":"_name","type":"string"}],"name":"addName","outputs":[],"stateMutability":"nonpayable","type":"function"},{"inputs":[{"internalType":"bytes","name":"","type":"bytes"}],"name":"checkUpkeep","outputs":[{"internalType":"bool","name":"upkeepNeeded","type":"bool"},{"internalType":"bytes","name":"","type":"bytes"}],"stateMutability":"view","type":"function"},{"inputs":[],"name":"clearMessages","outputs":[],"stateMutability":"nonpayable","type":"function"},{"inputs":[{"internalType":"bytes32","name":"","type":"bytes32"}],"name":"commitments","outputs":[{"internalType":"bool","name":"","type":"bool"}],"stateMutability":"view","type":"function"},{"inputs":[],"name":"currentRootIndex","outputs":[{"internalType":"uint32","name":"","type":"uint32"}],"stateMutability":"view","type":"function"},{"inputs":[{"components":[{"internalType":"enum Functions.Location","name":"codeLocation","type":"uint8"},{"internalType":"enum Functions.Location","name":"secretsLocation","type":"uint8"},{"internalType":"enum Functions.CodeLanguage","name":"language","type":"uint8"},{"internalType":"string","name":"source","type":"string"},{"internalType":"bytes","name":"secrets","type":"bytes"},{"internalType":"string[]","name":"args","type":"string[]"}],"internalType":"struct Functions.Request","name":"req","type":"tuple"},{"internalType":"uint64","name":"subscriptionId","type":"uint64"},{"internalType":"uint32","name":"gasLimit","type":"uint32"},{"internalType":"uint256","name":"gasPrice","type":"uint256"}],"name":"estimateCost","outputs":[{"internalType":"uint96","name":"","type":"uint96"}],"stateMutability":"view","type":"function"},{"inputs":[{"internalType":"uint256","name":"","type":"uint256"}],"name":"filledSubtrees","outputs":[{"internalType":"bytes32","name":"","type":"bytes32"}],"stateMutability":"view","type":"function"},{"inputs":[],"name":"fulfillGasLimit","outputs":[{"internalType":"uint32","name":"","type":"uint32"}],"stateMutability":"view","type":"function"},{"inputs":[{"internalType":"string","name":"source","type":"string"},{"internalType":"bytes","name":"secrets","type":"bytes"},{"internalType":"string[]","name":"args","type":"string[]"}],"name":"generateRequest","outputs":[{"internalType":"bytes","name":"","type":"bytes"}],"stateMutability":"pure","type":"function"},{"inputs":[],"name":"getDONPublicKey","outputs":[{"internalType":"bytes","name":"","type":"bytes"}],"stateMutability":"view","type":"function"},{"inputs":[],"name":"getLastRoot","outputs":[{"internalType":"bytes32","name":"","type":"bytes32"}],"stateMutability":"view","type":"function"},{"inputs":[{"internalType":"string","name":"name","type":"string"}],"name":"getMessages","outputs":[{"internalType":"string[]","name":"","type":"string[]"}],"stateMutability":"view","type":"function"},{"inputs":[{"internalType":"bytes32","name":"requestId","type":"bytes32"},{"internalType":"bytes","name":"response","type":"bytes"},{"internalType":"bytes","name":"err","type":"bytes"}],"name":"handleOracleFulfillment","outputs":[],"stateMutability":"nonpayable","type":"function"},{"inputs":[{"internalType":"bytes32","name":"_left","type":"bytes32"},{"internalType":"bytes32","name":"_right","type":"bytes32"}],"name":"hashLeftRight","outputs":[{"internalType":"bytes32","name":"","type":"bytes32"}],"stateMutability":"view","type":"function"},{"inputs":[],"name":"hasher","outputs":[{"internalType":"contract IHasher","name":"","type":"address"}],"stateMutability":"view","type":"function"},{"inputs":[{"internalType":"bytes32","name":"_commitment","type":"bytes32"}],"name":"insertIntoTree","outputs":[],"stateMutability":"nonpayable","type":"function"},{"inputs":[{"internalType":"bytes32","name":"_root","type":"bytes32"}],"name":"isKnownRoot","outputs":[{"internalType":"bool","name":"","type":"bool"}],"stateMutability":"view","type":"function"},{"inputs":[{"internalType":"bytes32","name":"_nullifier","type":"bytes32"}],"name":"isNullifierUsed","outputs":[{"internalType":"bool","name":"","type":"bool"}],"stateMutability":"view","type":"function"},{"inputs":[],"name":"lastUpkeepTimeStamp","outputs":[{"internalType":"uint256","name":"","type":"uint256"}],"stateMutability":"view","type":"function"},{"inputs":[],"name":"latestError","outputs":[{"internalType":"bytes","name":"","type":"bytes"}],"stateMutability":"view","type":"function"},{"inputs":[],"name":"latestRequestId","outputs":[{"internalType":"bytes32","name":"","type":"bytes32"}],"stateMutability":"view","type":"function"},{"inputs":[],"name":"latestResponse","outputs":[{"internalType":"bytes","name":"","type":"bytes"}],"stateMutability":"view","type":"function"},{"inputs":[],"name":"levels","outputs":[{"internalType":"uint32","name":"","type":"uint32"}],"stateMutability":"view","type":"function"},{"inputs":[{"internalType":"string","name":"","type":"string"},{"internalType":"uint256","name":"","type":"uint256"}],"name":"messages","outputs":[{"internalType":"string","name":"","type":"string"}],"stateMutability":"view","type":"function"},{"inputs":[{"internalType":"uint256","name":"","type":"uint256"}],"name":"names","outputs":[{"internalType":"string","name":"","type":"string"}],"stateMutability":"view","type":"function"},{"inputs":[],"name":"nextIndex","outputs":[{"internalType":"uint32","name":"","type":"uint32"}],"stateMutability":"view","type":"function"},{"inputs":[{"internalType":"bytes32","name":"","type":"bytes32"}],"name":"nullifiers","outputs":[{"internalType":"bool","name":"","type":"bool"}],"stateMutability":"view","type":"function"},{"inputs":[],"name":"owner","outputs":[{"internalType":"address","name":"","type":"address"}],"stateMutability":"view","type":"function"},{"inputs":[{"internalType":"bytes","name":"","type":"bytes"}],"name":"performUpkeep","outputs":[],"stateMutability":"nonpayable","type":"function"},{"inputs":[{"internalType":"string","name":"name","type":"string"},{"internalType":"string","name":"_message","type":"string"},{"internalType":"bytes32","name":"_nullifierHash","type":"bytes32"},{"internalType":"bytes32","name":"_root","type":"bytes32"},{"components":[{"internalType":"uint256[2]","name":"a","type":"uint256[2]"},{"internalType":"uint256[2][2]","name":"b","type":"uint256[2][2]"},{"internalType":"uint256[2]","name":"c","type":"uint256[2]"}],"internalType":"struct Proof","name":"_proof","type":"tuple"}],"name":"postMessageWithProof","outputs":[],"stateMutability":"nonpayable","type":"function"},{"inputs":[],"name":"requestCBOR","outputs":[{"internalType":"bytes","name":"","type":"bytes"}],"stateMutability":"view","type":"function"},{"inputs":[],"name":"responseCounter","outputs":[{"internalType":"uint256","name":"","type":"uint256"}],"stateMutability":"view","type":"function"},{"inputs":[{"internalType":"uint256","name":"","type":"uint256"}],"name":"roots","outputs":[{"internalType":"bytes32","name":"","type":"bytes32"}],"stateMutability":"view","type":"function"},{"inputs":[{"internalType":"address","name":"","type":"address"}],"name":"selectedAddresses","outputs":[{"internalType":"bool","name":"","type":"bool"}],"stateMutability":"view","type":"function"},{"inputs":[],"name":"subscriptionId","outputs":[{"internalType":"uint64","name":"","type":"uint64"}],"stateMutability":"view","type":"function"},{"inputs":[{"internalType":"address","name":"to","type":"address"}],"name":"transferOwnership","outputs":[],"stateMutability":"nonpayable","type":"function"},{"inputs":[],"name":"updateInterval","outputs":[{"internalType":"uint256","name":"","type":"uint256"}],"stateMutability":"view","type":"function"},{"inputs":[],"name":"upkeepCounter","outputs":[{"internalType":"uint256","name":"","type":"uint256"}],"stateMutability":"view","type":"function"},{"inputs":[],"name":"verifier","outputs":[{"internalType":"contract IVerifier","name":"","type":"address"}],"stateMutability":"view","type":"function"},{"inputs":[{"internalType":"uint256","name":"","type":"uint256"}],"name":"zeros","outputs":[{"internalType":"bytes32","name":"","type":"bytes32"}],"stateMutability":"view","type":"function"}],"evm":{"bytecode":{"linkReferences":{},"object":"60a0604052600780546001600160401b03191690553480156200002157600080fd5b5060405162003ae338038062003ae38339810160408190526200004491620006ff565b600080546001600160a01b0319166001600160a01b03881617815584908490339081906001600160a01b038216620000c35760405162461bcd60e51b815260206004820152601860248201527f43616e6e6f7420736574206f776e657220746f207a65726f000000000000000060448201526064015b60405180910390fd5b600280546001600160a01b0319166001600160a01b0384811691909117909155811615620000f657620000f6816200032c565b505050602063ffffffff831611156200016257604051632d5d403760e01b815260206004820152602660248201527f54726565206c6576656c732073686f756c64206265206265747765656e20302060448201526530b73210199960d11b6064820152608401620000ba565b600480546001600160a01b0319166001600160a01b03831617905563ffffffff82166080526006805460018181019092557f2fe54c60d3acabf3343a35b6eba15db4821b340f76e741e2249685ed4899af6c60008051602062003ac383398151915290910181905560058054808401825560009190915260008051602062003aa383398151915201819055905b8363ffffffff168163ffffffff1610156200026757620002108280620003d9565b60068054600181810190925560008051602062003ac38339815191520182905560058054918201815560005260008051602062003aa3833981519152018190559150806200025e8162000795565b915050620001ef565b50620002748180620003d9565b60085550506001606c55506040805160008082526020820190925290620002ac565b6060815260200190600190039081620002965790505b508051620002c391607a9160209091019062000566565b50607580546001600160a01b039096166001600160a01b031990961695909517909455606e805463ffffffff90951668010000000000000000026001600160601b03199095166001600160401b039092169190911793909317909255505042606f555062000852565b6001600160a01b038116331415620003875760405162461bcd60e51b815260206004820152601760248201527f43616e6e6f74207472616e7366657220746f2073656c660000000000000000006044820152606401620000ba565b600380546001600160a01b0319166001600160a01b03838116918217909255600254604051919216907fed8889f560326eb138920d842192f0eb3dd22b4f139c87a2c57538e05bae127890600090a350565b60007f30644e72e131a029b85045b68181585d2833e84879b9709143e1f593f000000183106200044c5760405162461bcd60e51b815260206004820181905260248201527f5f6c6566742073686f756c6420626520696e7369646520746865206669656c646044820152606401620000ba565b7f30644e72e131a029b85045b68181585d2833e84879b9709143e1f593f00000018210620004c75760405162461bcd60e51b815260206004820152602160248201527f5f72696768742073686f756c6420626520696e7369646520746865206669656c6044820152601960fa1b6064820152608401620000ba565b6040805180820182528481526020810184905260048054925163014cf2b360e51b815291926001600160a01b03169163299e5660916200050a91859101620007c8565b60206040518083038186803b1580156200052357600080fd5b505afa15801562000538573d6000803e3d6000fd5b505050506040513d601f19601f820116820180604052508101906200055e9190620007fb565b949350505050565b828054828255906000526020600020908101928215620005b8579160200282015b82811115620005b85782518051620005a7918491602090910190620005ca565b509160200191906001019062000587565b50620005c692915062000655565b5090565b828054620005d89062000815565b90600052602060002090601f016020900481019282620005fc576000855562000647565b82601f106200061757805160ff191683800117855562000647565b8280016001018555821562000647579182015b82811115620006475782518255916020019190600101906200062a565b50620005c692915062000676565b80821115620005c65760006200066c82826200068d565b5060010162000655565b5b80821115620005c6576000815560010162000677565b5080546200069b9062000815565b6000825580601f10620006ac575050565b601f016020900490600052602060002090810190620006cc919062000676565b50565b6001600160a01b0381168114620006cc57600080fd5b805163ffffffff81168114620006fa57600080fd5b919050565b60008060008060008060c087890312156200071957600080fd5b86516200072681620006cf565b60208801519096506200073981620006cf565b94506200074960408801620006e5565b935060608701516200075b81620006cf565b60808801519093506001600160401b03811681146200077957600080fd5b91506200078960a08801620006e5565b90509295509295509295565b600063ffffffff80831681811415620007be57634e487b7160e01b600052601160045260246000fd5b6001019392505050565b60408101818360005b6002811015620007f2578151835260209283019290910190600101620007d1565b50505092915050565b6000602082840312156200080e57600080fd5b5051919050565b600181811c908216806200082a57607f821691505b602082108114156200084c57634e487b7160e01b600052602260045260246000fd5b50919050565b60805161322062000883600039600081816104190152818161159f0152818161167f0152611af501526132206000f3fe608060405234801561001057600080fd5b50600436106102745760003560e01c80638da5cb5b11610151578063df9084eb116100c3578063f178e47c11610087578063f178e47c14610600578063f2fde38b14610613578063fc7e9c6f14610626578063fd2c80ae1461063e578063fe08301214610648578063fffeb84e1461065b57600080fd5b8063df9084eb14610570578063e3cf998f14610590578063e8295588146105b3578063ec732959146105c6578063ed33639f146105ed57600080fd5b8063c2b40ae411610115578063c2b40ae414610502578063c8c586ae14610515578063cd87a3b414610528578063d328a91e14610530578063d4b3917514610538578063df65850a1461056857600080fd5b80638da5cb5b146104c857806390eeb02b146104d9578063a3d3c0d2146104e9578063ba70f757146104f2578063bef3a2f0146104fa57600080fd5b8063414a37ba116101ea578063688ecfd1116101ae578063688ecfd11461044e5780636d9833e3146104565780636e04ff0d1461046957806379ba50971461048a578063839df945146104925780638d82496e146104b557600080fd5b8063414a37ba146103ba5780634585e33b146103e15780634622ab03146103f45780634ecf518b1461041457806359360b551461043b57600080fd5b806322dc7b4c1161023c57806322dc7b4c146102f157806324b93e3e146103245780632997e86b146103505780632b7ac3f314610373578063381fc4b51461039e57806338bf282e146103a757600080fd5b8063089ea02e1461027957806309c1ba2e146102955780630ca76175146102c057806311456b47146102d55780631aa46f59146102e8575b600080fd5b610282606f5481565b6040519081526020015b60405180910390f35b606e546102a8906001600160401b031681565b6040516001600160401b03909116815260200161028c565b6102d36102ce36600461249a565b610663565b005b6102d36102e3366004612506565b6106f0565b61028260725481565b6103146102ff36600461253a565b60009081526076602052604090205460ff1690565b604051901515815260200161028c565b606e5461033b90600160401b900463ffffffff1681565b60405163ffffffff909116815260200161028c565b61031461035e36600461253a565b60766020526000908152604090205460ff1681565b607554610386906001600160a01b031681565b6040516001600160a01b03909116815260200161028c565b61028260715481565b6102826103b5366004612553565b610737565b6102827f30644e72e131a029b85045b68181585d2833e84879b9709143e1f593f000000181565b6102d36103ef3660046125bd565b6108c1565b61040761040236600461253a565b610abd565b60405161028c9190612656565b61033b7f000000000000000000000000000000000000000000000000000000000000000081565b6102d36104493660046126b9565b610b69565b610407610d9d565b61031461046436600461253a565b610daa565b61047c610477366004612506565b610e28565b60405161028c9291906127cd565b6102d3610e46565b6103146104a036600461253a565b60776020526000908152604090205460ff1681565b6102d36104c336600461253a565b610ef4565b6002546001600160a01b0316610386565b60075461033b9063ffffffff1681565b61028260705481565b610282611031565b610407611057565b61028261051036600461253a565b611064565b6104076105233660046127e8565b61107b565b61033b606481565b6104076110c2565b61054b61054636600461291e565b611147565b6040516bffffffffffffffffffffffff909116815260200161028c565b6102d36111df565b61058361057e3660046125bd565b61127a565b60405161028c9190612a2f565b61031461059e366004612aa6565b60796020526000908152604090205460ff1681565b6102826105c136600461253a565b611374565b6102827f2fe54c60d3acabf3343a35b6eba15db4821b340f76e741e2249685ed4899af6c81565b600454610386906001600160a01b031681565b61028261060e36600461253a565b611395565b6102d3610621366004612aa6565b6113a5565b60075461033b90640100000000900463ffffffff1681565b61028262093a8081565b610407610656366004612ac3565b6113b6565b6104076114b0565b60008381526001602052604090205483906001600160a01b0316331461069c5760405163a0c5ec6360e01b815260040160405180910390fd5b60008181526001602052604080822080546001600160a01b03191690555182917f85e1543bf2f84fe80c6badbce3648c8539ad1df4d2b3d822938ca0538be727e691a26106ea8484846114bd565b50505050565b607a80546001810182556000919091528151610733917ff0440771a29e57e18c66727944770b82cc77924aef333c927ce6bdd2cdb3ae0301906020840190612205565b5050565b60007f30644e72e131a029b85045b68181585d2833e84879b9709143e1f593f000000183106107ad5760405162461bcd60e51b815260206004820181905260248201527f5f6c6566742073686f756c6420626520696e7369646520746865206669656c6460448201526064015b60405180910390fd5b7f30644e72e131a029b85045b68181585d2833e84879b9709143e1f593f000000182106108265760405162461bcd60e51b815260206004820152602160248201527f5f72696768742073686f756c6420626520696e7369646520746865206669656c6044820152601960fa1b60648201526084016107a4565b6040805180820182528481526020810184905260048054925163014cf2b360e51b815291926001600160a01b03169163299e56609161086791859101612b8b565b60206040518083038186803b15801561087f57600080fd5b505afa158015610893573d6000803e3d6000fd5b505050506040513d601f19601f820116820180604052508101906108b79190612bbc565b9150505b92915050565b60006108db60405180602001604052806000815250610e28565b5090508061092457604051632f0c8d4b60e21b8152602060048201526015602482015274151a5b59481a5b9d195c9d985b081b9bdd081b595d605a1b60448201526064016107a4565b42606f55607054610936906001612beb565b60705560008054606e54604051630a090ac160e21b81526001600160a01b03909216916328242b0491610988916001600160401b03821691606d91600160401b90910463ffffffff1690600401612c38565b602060405180830381600087803b1580156109a257600080fd5b505af11580156109b6573d6000803e3d6000fd5b505050506040513d601f19601f820116820180604052508101906109da9190612bbc565b905060008054906101000a90046001600160a01b03166001600160a01b0316635ab1bd536040518163ffffffff1660e01b815260040160206040518083038186803b158015610a2857600080fd5b505afa158015610a3c573d6000803e3d6000fd5b505050506040513d601f19601f82011682018060405250810190610a609190612cd9565b60008281526001602052604080822080546001600160a01b0319166001600160a01b039490941693909317909255905182917f1131472297a800fee664d1d89cfa8f7676ff07189ecc53f80bbb5f4969099db891a2607255505050565b607a8181548110610acd57600080fd5b906000526020600020016000915090508054610ae890612c03565b80601f0160208091040260200160405190810160405280929190818152602001828054610b1490612c03565b8015610b615780601f10610b3657610100808354040283529160200191610b61565b820191906000526020600020905b815481529060010190602001808311610b4457829003601f168201915b505050505081565b610b7161152c565b60008381526076602052604090205460ff1615610bca576040516337a51b3d60e21b8152602060048201526016602482015275139d5b1b1a599a595c88185b1c9958591e481d5cd95960521b60448201526064016107a4565b610bd382610daa565b610c115760405163a4305b1360e01b815260206004820152600e60248201526d2937b7ba103737ba1035b737bbb760911b60448201526064016107a4565b6040805180820182528381526020808201869052607554845191850151858501519451637ae4eb4f60e11b815293946001600160a01b039092169363f5c9d69e93610c63939092918790600401612d19565b602060405180830381600087803b158015610c7d57600080fd5b505af1158015610c91573d6000803e3d6000fd5b505050506040513d601f19601f82011682018060405250810190610cb59190612d80565b610cf2576040516309daa30960e21b815260206004820152600d60248201526c24b73b30b634b210383937b7b360991b60448201526064016107a4565b60008481526076602052604090819020805460ff1916600117905551607890610d1c908890612da2565b9081526040516020918190038201902080546001810182556000918252908290208751610d5193919092019190880190612205565b507f06b6c80bb5c4b26d73a7cf3586c1b2f17bd79f8f7fd3c3e14f9cd709265741208585604051610d83929190612dbe565b60405180910390a150610d966001606c55565b5050505050565b606d8054610ae890612c03565b600081610db957506000919050565b60075463ffffffff165b60088163ffffffff1660648110610ddc57610ddc612de0565b0154831415610dee5750600192915050565b63ffffffff8116610dfd575060645b80610e0781612df6565b60075490925063ffffffff808416911614159050610dc35750600092915050565b6000606062093a80606f5442610e3e9190612e16565b119150915091565b6003546001600160a01b03163314610e995760405162461bcd60e51b815260206004820152601660248201527526bab9ba10313290383937b837b9b2b21037bbb732b960511b60448201526064016107a4565b600280546001600160a01b0319808216339081179093556003805490911690556040516001600160a01b03909116919082907f8be0079c531659141344cd1fd0a4f28419497f9722a3daafe3b4186f6b6457e090600090a350565b610efc61152c565b3360008181526079602052604090205460ff16610f525760405162461bcd60e51b81526020600482015260146024820152731059191c995cdcc81b9bdd081cd95b1958dd195960621b60448201526064016107a4565b60008281526077602052604090205460ff1615610fb257604051632f40bf3560e01b815260206004820152601760248201527f436f6d6d69746d656e7420616c7265616479207573656400000000000000000060448201526064016107a4565b6000610fbd83611586565b60008481526077602052604090819020805460ff19166001179055519091507fb78452bc487dc90d6a0a567cf87858dae69e144c5f299a43ed6964629c219e2a9061101a908590849091825263ffffffff16602082015260400190565b60405180910390a1505061102e6001606c55565b50565b60075460009060089063ffffffff166064811061105057611050612de0565b0154905090565b60738054610ae890612c03565b6008816064811061107457600080fd5b0154905081565b815160208184018101805160788252928201918501919091209190528054829081106110a657600080fd5b90600052602060002001600091509150508054610ae890612c03565b6000805460408051636994548f60e11b815290516060936001600160a01b039093169263d328a91e9260048082019391829003018186803b15801561110657600080fd5b505afa15801561111a573d6000803e3d6000fd5b505050506040513d6000823e601f3d908101601f191682016040526111429190810190612e2d565b905090565b600080546001600160a01b031663d227d24585611163886117e8565b86866040518563ffffffff1660e01b81526004016111849493929190612e9a565b60206040518083038186803b15801561119c57600080fd5b505afa1580156111b0573d6000803e3d6000fd5b505050506040513d601f19601f820116820180604052508101906111d49190612ed5565b90505b949350505050565b607a5460005b81811015611245576078607a828154811061120257611202612de0565b906000526020600020016040516112199190612f03565b908152602001604051809103902060006112339190612289565b8061123d81612f75565b9150506111e5565b5061124e611a04565b6040517f84b7226822737d667aa57d064ceffa18dbf761c762c54d5b119bfbc3275bf18a90600090a150565b60606078838360405161128e929190612f90565b9081526020016040518091039020805480602002602001604051908101604052809291908181526020016000905b828210156113685783829060005260206000200180546112db90612c03565b80601f016020809104026020016040519081016040528092919081815260200182805461130790612c03565b80156113545780601f1061132957610100808354040283529160200191611354565b820191906000526020600020905b81548152906001019060200180831161133757829003601f168201915b5050505050815260200190600101906112bc565b50505050905092915050565b6006818154811061138457600080fd5b600091825260209091200154905081565b6005818154811061138457600080fd5b6113ad611bb8565b61102e81611c0d565b60606113f26040805160c08101909152806000815260200160008152602001600081526020016060815260200160608152602001606081525090565b6114396000808a8a8080601f01602080910402602001604051908101604052809392919081815260200183838082843760009201919091525087959493925050611cb89050565b84156114815761148186868080601f0160208091040260200160405190810160405280939291908181526020018383808284376000920191909152508593925050611d339050565b821561149b5761149b6114948486612fa0565b8290611d61565b6114a4816117e8565b98975050505050505050565b60748054610ae890612c03565b81516114d0906073906020850190612205565b5080516114e4906074906020840190612205565b50827f7bab0ec163b5c132c72b8146ac4d6e067e82ed58f8b131150aa71c92589115628383604051611517929190612fad565b60405180910390a26115276111df565b505050565b6002606c54141561157f5760405162461bcd60e51b815260206004820152601f60248201527f5265656e7472616e637947756172643a207265656e7472616e742063616c6c0060448201526064016107a4565b6002606c55565b600754600090640100000000900463ffffffff166115c57f000000000000000000000000000000000000000000000000000000000000000060026130b6565b8163ffffffff16106116325760405163d7e8473f60e01b815260206004820152602f60248201527f4d65726b6c6520747265652069732066756c6c2e204e6f206d6f7265206c656160448201526e199cc818d85b881899481859191959608a1b60648201526084016107a4565b6001600760048282829054906101000a900463ffffffff1661165491906130c8565b92506101000a81548163ffffffff021916908363ffffffff160217905550600083905060008060005b7f000000000000000000000000000000000000000000000000000000000000000063ffffffff168163ffffffff16101561176f576116bc600286613106565b63ffffffff1661171a5783925060068163ffffffff16815481106116e2576116e2612de0565b906000526020600020015491508360058263ffffffff168154811061170957611709612de0565b600091825260209091200155611744565b60058163ffffffff168154811061173357611733612de0565b906000526020600020015492508391505b61174e8383610737565b935061175b600286613129565b9450806117678161314c565b91505061167d565b506007546064906117879063ffffffff1660016130c8565b6117919190613106565b6007805463ffffffff191663ffffffff9290921691821790558390600890606481106117bf576117bf612de0565b01556007546117de90600190640100000000900463ffffffff16613170565b9695505050505050565b6060611807604051806040016040528060608152602001600081525090565b61181381610100611d88565b5060408051808201909152600c81526b31b7b232a637b1b0ba34b7b760a11b6020820152611842908290611ded565b825161186090600181111561185957611859613195565b8290611e04565b6040805180820190915260088152676c616e677561676560c01b602082015261188a908290611ded565b60408301516118a190801561185957611859613195565b604080518082019091526006815265736f7572636560d01b60208201526118c9908290611ded565b60608301516118d9908290611ded565b60a0830151511561196f576040805180820190915260048152636172677360e01b602082015261190a908290611ded565b61191381611e29565b60005b8360a0015151811015611965576119538460a00151828151811061193c5761193c612de0565b602002602001015183611ded90919063ffffffff16565b8061195d81612f75565b915050611916565b5061196f81611e34565b608083015151156119fd5760408051808201909152600f81526e39b2b1b932ba39a637b1b0ba34b7b760891b60208201526119ab908290611ded565b6119c48360200151600181111561185957611859613195565b6040805180820190915260078152667365637265747360c81b60208201526119ed908290611ded565b60808301516119fd908290611e3f565b5192915050565b611a10600560006122a7565b611a1c600660006122a7565b6040805160008152602081019182905251611a39916005916122c5565b506040805160008152602081019182905251611a57916006916122c5565b506007805467ffffffffffffffff191690556006805460018181019092557f2fe54c60d3acabf3343a35b6eba15db4821b340f76e741e2249685ed4899af6c7ff652222313e28459528d920b65115c16c04f3efc82aaedc97be59f3f377c0d3f9091018190556005805480840182556000919091527f036b6384b5eca791c62761152d0c79bb0604c104a5fb6f4eb0703f3154bb3db001819055905b7f000000000000000000000000000000000000000000000000000000000000000063ffffffff168163ffffffff161015611ba757611b318283610737565b6006805460018181019092557ff652222313e28459528d920b65115c16c04f3efc82aaedc97be59f3f377c0d3f018290556005805491820181556000527f036b6384b5eca791c62761152d0c79bb0604c104a5fb6f4eb0703f3154bb3db001819055915080611b9f8161314c565b915050611af3565b50611bb28182610737565b60085550565b6002546001600160a01b03163314611c0b5760405162461bcd60e51b815260206004820152601660248201527527b7363c9031b0b63630b1363290313c9037bbb732b960511b60448201526064016107a4565b565b6001600160a01b038116331415611c665760405162461bcd60e51b815260206004820152601760248201527f43616e6e6f74207472616e7366657220746f2073656c6600000000000000000060448201526064016107a4565b600380546001600160a01b0319166001600160a01b03838116918217909255600254604051919216907fed8889f560326eb138920d842192f0eb3dd22b4f139c87a2c57538e05bae127890600090a350565b8051611cd7576040516322ce3edd60e01b815260040160405180910390fd5b83836001811115611cea57611cea613195565b90816001811115611cfd57611cfd613195565b90525060408401828015611d1357611d13613195565b90818015611d2357611d23613195565b9052506060909301929092525050565b8051611d525760405163e889636f60e01b815260040160405180910390fd5b60016020830152608090910152565b8051611d805760405163fe936cb760e01b815260040160405180910390fd5b60a090910152565b604080518082019091526060815260006020820152611da86020836131ab565b15611dd057611db86020836131ab565b611dc3906020612e16565b611dcd9083612beb565b91505b506020828101829052604080518085526000815290920101905290565b611dfa8260038351611e48565b6115278282611f4f565b6001600160401b03811115611e1d576107338282611f7d565b61073382600083611e48565b61102e816004611fb4565b61102e816007611fb4565b611dfa82600283515b6017816001600160401b031611611e6c576106ea8360e0600585901b168317611fc5565b60ff816001600160401b031611611ea857611e92836018611fe0600586901b1617611fc5565b506106ea836001600160401b0383166001611fea565b61ffff816001600160401b031611611ee557611ecf836019611fe0600586901b1617611fc5565b506106ea836001600160401b0383166002611fea565b63ffffffff816001600160401b031611611f2457611f0e83601a611fe0600586901b1617611fc5565b506106ea836001600160401b0383166004611fea565b611f3983601b611fe0600586901b1617611fc5565b506106ea836001600160401b0383166008611fea565b604080518082019091526060815260006020820152611f7683846000015151848551612010565b9392505050565b611f888260c2611fc5565b506107338282604051602001611fa091815260200190565b604051602081830303815290604052611e3f565b61152782601f611fe0600585901b16175b604080518082019091526060815260006020820152611f7683846000015151846120fa565b6040805180820190915260608152600060208201526111d7848560000151518585612156565b604080518082019091526060815260006020820152825182111561203357600080fd5b60208501516120428386612beb565b11156120755761207585612065876020015187866120609190612beb565b6121d7565b6120709060026131bf565b6121ee565b6000808651805187602083010193508088870111156120945787860182525b505050602084015b602084106120d457805182526120b3602083612beb565b91506120c0602082612beb565b90506120cd602085612e16565b935061209c565b51815160001960208690036101000a019081169019919091161790525083949350505050565b6040805180820190915260608152600060208201528360200151831061212f5761212f848560200151600261207091906131bf565b83518051602085830101848153508085141561214c576001810182525b5093949350505050565b604080518082019091526060815260006020820152602085015161217a8584612beb565b111561218e5761218e856120658685612beb565b6000600161219e846101006131de565b6121a89190612e16565b90508551838682010185831982511617815250805184870111156121cc5783860181525b509495945050505050565b6000818311156121e85750816108bb565b50919050565b81516121fa8383611d88565b506106ea8382611f4f565b82805461221190612c03565b90600052602060002090601f0160209004810192826122335760008555612279565b82601f1061224c57805160ff1916838001178555612279565b82800160010185558215612279579182015b8281111561227957825182559160200191906001019061225e565b506122859291506122ff565b5090565b508054600082559060005260206000209081019061102e9190612314565b508054600082559060005260206000209081019061102e91906122ff565b828054828255906000526020600020908101928215612279579160200282018281111561227957825182559160200191906001019061225e565b5b808211156122855760008155600101612300565b808211156122855760006123288282612331565b50600101612314565b50805461233d90612c03565b6000825580601f1061234d575050565b601f01602090049060005260206000209081019061102e91906122ff565b634e487b7160e01b600052604160045260246000fd5b604051606081016001600160401b03811182821017156123a3576123a361236b565b60405290565b60405160c081016001600160401b03811182821017156123a3576123a361236b565b604080519081016001600160401b03811182821017156123a3576123a361236b565b604051601f8201601f191681016001600160401b03811182821017156124155761241561236b565b604052919050565b60006001600160401b038211156124365761243661236b565b50601f01601f191660200190565b600082601f83011261245557600080fd5b81356124686124638261241d565b6123ed565b81815284602083860101111561247d57600080fd5b816020850160208301376000918101602001919091529392505050565b6000806000606084860312156124af57600080fd5b8335925060208401356001600160401b03808211156124cd57600080fd5b6124d987838801612444565b935060408601359150808211156124ef57600080fd5b506124fc86828701612444565b9150509250925092565b60006020828403121561251857600080fd5b81356001600160401b0381111561252e57600080fd5b6108b784828501612444565b60006020828403121561254c57600080fd5b5035919050565b6000806040838503121561256657600080fd5b50508035926020909101359150565b60008083601f84011261258757600080fd5b5081356001600160401b0381111561259e57600080fd5b6020830191508360208285010111156125b657600080fd5b9250929050565b600080602083850312156125d057600080fd5b82356001600160401b038111156125e657600080fd5b6125f285828601612575565b90969095509350505050565b60005b83811015612619578181015183820152602001612601565b838111156106ea5750506000910152565b600081518084526126428160208601602086016125fe565b601f01601f19169290920160200192915050565b602081526000611f76602083018461262a565b600082601f83011261267a57600080fd5b6126826123cb565b80604084018581111561269457600080fd5b845b818110156126ae578035845260209384019301612696565b509095945050505050565b60008060008060008587036101808112156126d357600080fd5b86356001600160401b03808211156126ea57600080fd5b6126f68a838b01612444565b975060209150818901358181111561270d57600080fd5b6127198b828c01612444565b97505050604088810135955060608901359450610100607f198401121561273f57600080fd5b612747612381565b92506127568a60808b01612669565b83528960df8a011261276757600080fd5b61276f6123cb565b806101408b018c81111561278257600080fd5b60c08c015b818110156127a6576127998e82612669565b8452928501928401612787565b5081858701526127b68d82612669565b848701525050505050809150509295509295909350565b82151581526040602082015260006111d7604083018461262a565b600080604083850312156127fb57600080fd5b82356001600160401b0381111561281157600080fd5b61281d85828601612444565b95602094909401359450505050565b80356002811061283b57600080fd5b919050565b80356001811061283b57600080fd5b60006001600160401b03808411156128695761286961236b565b8360051b602061287a8183016123ed565b8681529350908401908084018783111561289357600080fd5b855b838110156128c7578035858111156128ad5760008081fd5b6128b98a828a01612444565b835250908201908201612895565b50505050509392505050565b600082601f8301126128e457600080fd5b611f768383356020850161284f565b80356001600160401b038116811461283b57600080fd5b803563ffffffff8116811461283b57600080fd5b6000806000806080858703121561293457600080fd5b84356001600160401b038082111561294b57600080fd5b9086019060c0828903121561295f57600080fd5b6129676123a9565b6129708361282c565b815261297e6020840161282c565b602082015261298f60408401612840565b60408201526060830135828111156129a657600080fd5b6129b28a828601612444565b6060830152506080830135828111156129ca57600080fd5b6129d68a828601612444565b60808301525060a0830135828111156129ee57600080fd5b6129fa8a8286016128d3565b60a0830152509550612a11915050602086016128f3565b9250612a1f6040860161290a565b9396929550929360600135925050565b6000602080830181845280855180835260408601915060408160051b870101925083870160005b82811015612a8457603f19888603018452612a7285835161262a565b94509285019290850190600101612a56565b5092979650505050505050565b6001600160a01b038116811461102e57600080fd5b600060208284031215612ab857600080fd5b8135611f7681612a91565b60008060008060008060608789031215612adc57600080fd5b86356001600160401b0380821115612af357600080fd5b612aff8a838b01612575565b90985096506020890135915080821115612b1857600080fd5b612b248a838b01612575565b90965094506040890135915080821115612b3d57600080fd5b818901915089601f830112612b5157600080fd5b813581811115612b6057600080fd5b8a60208260051b8501011115612b7557600080fd5b6020830194508093505050509295509295509295565b60408101818360005b6002811015612bb3578151835260209283019290910190600101612b94565b50505092915050565b600060208284031215612bce57600080fd5b5051919050565b634e487b7160e01b600052601160045260246000fd5b60008219821115612bfe57612bfe612bd5565b500190565b600181811c90821680612c1757607f821691505b602082108114156121e857634e487b7160e01b600052602260045260246000fd5b6001600160401b03841681526000602060608184015260008554612c5b81612c03565b8060608701526080600180841660008114612c7d5760018114612c9157612cbf565b60ff1985168984015260a089019550612cbf565b8a6000528660002060005b85811015612cb75781548b8201860152908301908801612c9c565b8a0184019650505b5050505063ffffffff861660408601525091506111d79050565b600060208284031215612ceb57600080fd5b8151611f7681612a91565b8060005b60028110156106ea578151845260209384019390910190600101612cfa565b6101408101612d288287612cf6565b60408083018660005b6002811015612d5857612d45838351612cf6565b9183019160209190910190600101612d31565b50505050612d6960c0830185612cf6565b612d77610100830184612cf6565b95945050505050565b600060208284031215612d9257600080fd5b81518015158114611f7657600080fd5b60008251612db48184602087016125fe565b9190910192915050565b604081526000612dd1604083018561262a565b90508260208301529392505050565b634e487b7160e01b600052603260045260246000fd5b600063ffffffff821680612e0c57612e0c612bd5565b6000190192915050565b600082821015612e2857612e28612bd5565b500390565b600060208284031215612e3f57600080fd5b81516001600160401b03811115612e5557600080fd5b8201601f81018413612e6657600080fd5b8051612e746124638261241d565b818152856020838501011115612e8957600080fd5b612d778260208301602086016125fe565b6001600160401b0385168152608060208201526000612ebc608083018661262a565b63ffffffff949094166040830152506060015292915050565b600060208284031215612ee757600080fd5b81516bffffffffffffffffffffffff81168114611f7657600080fd5b6000808354612f1181612c03565b60018281168015612f295760018114612f3a57612f69565b60ff19841687528287019450612f69565b8760005260208060002060005b85811015612f605781548a820152908401908201612f47565b50505082870194505b50929695505050505050565b6000600019821415612f8957612f89612bd5565b5060010190565b8183823760009101908152919050565b6000611f7636848461284f565b604081526000612fc0604083018561262a565b8281036020840152612d77818561262a565b600181815b8085111561300d578160001904821115612ff357612ff3612bd5565b8085161561300057918102915b93841c9390800290612fd7565b509250929050565b600082613024575060016108bb565b81613031575060006108bb565b816001811461304757600281146130515761306d565b60019150506108bb565b60ff84111561306257613062612bd5565b50506001821b6108bb565b5060208310610133831016604e8410600b8410161715613090575081810a6108bb565b61309a8383612fd2565b80600019048211156130ae576130ae612bd5565b029392505050565b6000611f7663ffffffff841683613015565b600063ffffffff8083168185168083038211156130e7576130e7612bd5565b01949350505050565b634e487b7160e01b600052601260045260246000fd5b600063ffffffff8084168061311d5761311d6130f0565b92169190910692915050565b600063ffffffff80841680613140576131406130f0565b92169190910492915050565b600063ffffffff8083168181141561316657613166612bd5565b6001019392505050565b600063ffffffff8381169083168181101561318d5761318d612bd5565b039392505050565b634e487b7160e01b600052602160045260246000fd5b6000826131ba576131ba6130f0565b500690565b60008160001904831182151516156131d9576131d9612bd5565b500290565b6000611f76838361301556fea2646970667358221220f351cb92ba833ee51ecd7cf438489f49d97e7fa08dc3bff7153337f9681ccef864736f6c63430008090033036b6384b5eca791c62761152d0c79bb0604c104a5fb6f4eb0703f3154bb3db0f652222313e28459528d920b65115c16c04f3efc82aaedc97be59f3f377c0d3f","opcodes":"PUSH1 0xA0 PUSH1 0x40 MSTORE PUSH1 0x7 DUP1 SLOAD PUSH1 0x1 PUSH1 0x1 PUSH1 0x40 SHL SUB NOT AND SWAP1 SSTORE CALLVALUE DUP1 ISZERO PUSH3 0x21 JUMPI PUSH1 0x0 DUP1 REVERT JUMPDEST POP PUSH1 0x40 MLOAD PUSH3 0x3AE3 CODESIZE SUB DUP1 PUSH3 0x3AE3 DUP4 CODECOPY DUP2 ADD PUSH1 0x40 DUP2 SWAP1 MSTORE PUSH3 0x44 SWAP2 PUSH3 0x6FF JUMP JUMPDEST PUSH1 0x0 DUP1 SLOAD PUSH1 0x1 PUSH1 0x1 PUSH1 0xA0 SHL SUB NOT AND PUSH1 0x1 PUSH1 0x1 PUSH1 0xA0 SHL SUB DUP9 AND OR DUP2 SSTORE DUP5 SWAP1 DUP5 SWAP1 CALLER SWAP1 DUP2 SWAP1 PUSH1 0x1 PUSH1 0x1 PUSH1 0xA0 SHL SUB DUP3 AND PUSH3 0xC3 JUMPI PUSH1 0x40 MLOAD PUSH3 0x461BCD PUSH1 0xE5 SHL DUP2 MSTORE PUSH1 0x20 PUSH1 0x4 DUP3 ADD MSTORE PUSH1 0x18 PUSH1 0x24 DUP3 ADD MSTORE PUSH32 0x43616E6E6F7420736574206F776E657220746F207A65726F0000000000000000 PUSH1 0x44 DUP3 ADD MSTORE PUSH1 0x64 ADD JUMPDEST PUSH1 0x40 MLOAD DUP1 SWAP2 SUB SWAP1 REVERT JUMPDEST PUSH1 0x2 DUP1 SLOAD PUSH1 0x1 PUSH1 0x1 PUSH1 0xA0 SHL SUB NOT AND PUSH1 0x1 PUSH1 0x1 PUSH1 0xA0 SHL SUB DUP5 DUP2 AND SWAP2 SWAP1 SWAP2 OR SWAP1 SWAP2 SSTORE DUP2 AND ISZERO PUSH3 0xF6 JUMPI PUSH3 0xF6 DUP2 PUSH3 0x32C JUMP JUMPDEST POP POP POP PUSH1 0x20 PUSH4 0xFFFFFFFF DUP4 AND GT ISZERO PUSH3 0x162 JUMPI PUSH1 0x40 MLOAD PUSH4 0x2D5D4037 PUSH1 0xE0 SHL DUP2 MSTORE PUSH1 0x20 PUSH1 0x4 DUP3 ADD MSTORE PUSH1 0x26 PUSH1 0x24 DUP3 ADD MSTORE PUSH32 0x54726565206C6576656C732073686F756C64206265206265747765656E203020 PUSH1 0x44 DUP3 ADD MSTORE PUSH6 0x30B732101999 PUSH1 0xD1 SHL PUSH1 0x64 DUP3 ADD MSTORE PUSH1 0x84 ADD PUSH3 0xBA JUMP JUMPDEST PUSH1 0x4 DUP1 SLOAD PUSH1 0x1 PUSH1 0x1 PUSH1 0xA0 SHL SUB NOT AND PUSH1 0x1 PUSH1 0x1 PUSH1 0xA0 SHL SUB DUP4 AND OR SWAP1 SSTORE PUSH4 0xFFFFFFFF DUP3 AND PUSH1 0x80 MSTORE PUSH1 0x6 DUP1 SLOAD PUSH1 0x1 DUP2 DUP2 ADD SWAP1 SWAP3 SSTORE PUSH32 0x2FE54C60D3ACABF3343A35B6EBA15DB4821B340F76E741E2249685ED4899AF6C PUSH1 0x0 DUP1 MLOAD PUSH1 0x20 PUSH3 0x3AC3 DUP4 CODECOPY DUP2 MLOAD SWAP2 MSTORE SWAP1 SWAP2 ADD DUP2 SWAP1 SSTORE PUSH1 0x5 DUP1 SLOAD DUP1 DUP5 ADD DUP3 SSTORE PUSH1 0x0 SWAP2 SWAP1 SWAP2 MSTORE PUSH1 0x0 DUP1 MLOAD PUSH1 0x20 PUSH3 0x3AA3 DUP4 CODECOPY DUP2 MLOAD SWAP2 MSTORE ADD DUP2 SWAP1 SSTORE SWAP1 JUMPDEST DUP4 PUSH4 0xFFFFFFFF AND DUP2 PUSH4 0xFFFFFFFF AND LT ISZERO PUSH3 0x267 JUMPI PUSH3 0x210 DUP3 DUP1 PUSH3 0x3D9 JUMP JUMPDEST PUSH1 0x6 DUP1 SLOAD PUSH1 0x1 DUP2 DUP2 ADD SWAP1 SWAP3 SSTORE PUSH1 0x0 DUP1 MLOAD PUSH1 0x20 PUSH3 0x3AC3 DUP4 CODECOPY DUP2 MLOAD SWAP2 MSTORE ADD DUP3 SWAP1 SSTORE PUSH1 0x5 DUP1 SLOAD SWAP2 DUP3 ADD DUP2 SSTORE PUSH1 0x0 MSTORE PUSH1 0x0 DUP1 MLOAD PUSH1 0x20 PUSH3 0x3AA3 DUP4 CODECOPY DUP2 MLOAD SWAP2 MSTORE ADD DUP2 SWAP1 SSTORE SWAP2 POP DUP1 PUSH3 0x25E DUP2 PUSH3 0x795 JUMP JUMPDEST SWAP2 POP POP PUSH3 0x1EF JUMP JUMPDEST POP PUSH3 0x274 DUP2 DUP1 PUSH3 0x3D9 JUMP JUMPDEST PUSH1 0x8 SSTORE POP POP PUSH1 0x1 PUSH1 0x6C SSTORE POP PUSH1 0x40 DUP1 MLOAD PUSH1 0x0 DUP1 DUP3 MSTORE PUSH1 0x20 DUP3 ADD SWAP1 SWAP3 MSTORE SWAP1 PUSH3 0x2AC JUMP JUMPDEST PUSH1 0x60 DUP2 MSTORE PUSH1 0x20 ADD SWAP1 PUSH1 0x1 SWAP1 SUB SWAP1 DUP2 PUSH3 0x296 JUMPI SWAP1 POP JUMPDEST POP DUP1 MLOAD PUSH3 0x2C3 SWAP2 PUSH1 0x7A SWAP2 PUSH1 0x20 SWAP1 SWAP2 ADD SWAP1 PUSH3 0x566 JUMP JUMPDEST POP PUSH1 0x75 DUP1 SLOAD PUSH1 0x1 PUSH1 0x1 PUSH1 0xA0 SHL SUB SWAP1 SWAP7 AND PUSH1 0x1 PUSH1 0x1 PUSH1 0xA0 SHL SUB NOT SWAP1 SWAP7 AND SWAP6 SWAP1 SWAP6 OR SWAP1 SWAP5 SSTORE PUSH1 0x6E DUP1 SLOAD PUSH4 0xFFFFFFFF SWAP1 SWAP6 AND PUSH9 0x10000000000000000 MUL PUSH1 0x1 PUSH1 0x1 PUSH1 0x60 SHL SUB NOT SWAP1 SWAP6 AND PUSH1 0x1 PUSH1 0x1 PUSH1 0x40 SHL SUB SWAP1 SWAP3 AND SWAP2 SWAP1 SWAP2 OR SWAP4 SWAP1 SWAP4 OR SWAP1 SWAP3 SSTORE POP POP TIMESTAMP PUSH1 0x6F SSTORE POP PUSH3 0x852 JUMP JUMPDEST PUSH1 0x1 PUSH1 0x1 PUSH1 0xA0 SHL SUB DUP2 AND CALLER EQ ISZERO PUSH3 0x387 JUMPI PUSH1 0x40 MLOAD PUSH3 0x461BCD PUSH1 0xE5 SHL DUP2 MSTORE PUSH1 0x20 PUSH1 0x4 DUP3 ADD MSTORE PUSH1 0x17 PUSH1 0x24 DUP3 ADD MSTORE PUSH32 0x43616E6E6F74207472616E7366657220746F2073656C66000000000000000000 PUSH1 0x44 DUP3 ADD MSTORE PUSH1 0x64 ADD PUSH3 0xBA JUMP JUMPDEST PUSH1 0x3 DUP1 SLOAD PUSH1 0x1 PUSH1 0x1 PUSH1 0xA0 SHL SUB NOT AND PUSH1 0x1 PUSH1 0x1 PUSH1 0xA0 SHL SUB DUP4 DUP2 AND SWAP2 DUP3 OR SWAP1 SWAP3 SSTORE PUSH1 0x2 SLOAD PUSH1 0x40 MLOAD SWAP2 SWAP3 AND SWAP1 PUSH32 0xED8889F560326EB138920D842192F0EB3DD22B4F139C87A2C57538E05BAE1278 SWAP1 PUSH1 0x0 SWAP1 LOG3 POP JUMP JUMPDEST PUSH1 0x0 PUSH32 0x30644E72E131A029B85045B68181585D2833E84879B9709143E1F593F0000001 DUP4 LT PUSH3 0x44C JUMPI PUSH1 0x40 MLOAD PUSH3 0x461BCD PUSH1 0xE5 SHL DUP2 MSTORE PUSH1 0x20 PUSH1 0x4 DUP3 ADD DUP2 SWAP1 MSTORE PUSH1 0x24 DUP3 ADD MSTORE PUSH32 0x5F6C6566742073686F756C6420626520696E7369646520746865206669656C64 PUSH1 0x44 DUP3 ADD MSTORE PUSH1 0x64 ADD PUSH3 0xBA JUMP JUMPDEST PUSH32 0x30644E72E131A029B85045B68181585D2833E84879B9709143E1F593F0000001 DUP3 LT PUSH3 0x4C7 JUMPI PUSH1 0x40 MLOAD PUSH3 0x461BCD PUSH1 0xE5 SHL DUP2 MSTORE PUSH1 0x20 PUSH1 0x4 DUP3 ADD MSTORE PUSH1 0x21 PUSH1 0x24 DUP3 ADD MSTORE PUSH32 0x5F72696768742073686F756C6420626520696E7369646520746865206669656C PUSH1 0x44 DUP3 ADD MSTORE PUSH1 0x19 PUSH1 0xFA SHL PUSH1 0x64 DUP3 ADD MSTORE PUSH1 0x84 ADD PUSH3 0xBA JUMP JUMPDEST PUSH1 0x40 DUP1 MLOAD DUP1 DUP3 ADD DUP3 MSTORE DUP5 DUP2 MSTORE PUSH1 0x20 DUP2 ADD DUP5 SWAP1 MSTORE PUSH1 0x4 DUP1 SLOAD SWAP3 MLOAD PUSH4 0x14CF2B3 PUSH1 0xE5 SHL DUP2 MSTORE SWAP2 SWAP3 PUSH1 0x1 PUSH1 0x1 PUSH1 0xA0 SHL SUB AND SWAP2 PUSH4 0x299E5660 SWAP2 PUSH3 0x50A SWAP2 DUP6 SWAP2 ADD PUSH3 0x7C8 JUMP JUMPDEST PUSH1 0x20 PUSH1 0x40 MLOAD DUP1 DUP4 SUB DUP2 DUP7 DUP1 EXTCODESIZE ISZERO DUP1 ISZERO PUSH3 0x523 JUMPI PUSH1 0x0 DUP1 REVERT JUMPDEST POP GAS STATICCALL ISZERO DUP1 ISZERO PUSH3 0x538 JUMPI RETURNDATASIZE PUSH1 0x0 DUP1 RETURNDATACOPY RETURNDATASIZE PUSH1 0x0 REVERT JUMPDEST POP POP POP POP PUSH1 0x40 MLOAD RETURNDATASIZE PUSH1 0x1F NOT PUSH1 0x1F DUP3 ADD AND DUP3 ADD DUP1 PUSH1 0x40 MSTORE POP DUP2 ADD SWAP1 PUSH3 0x55E SWAP2 SWAP1 PUSH3 0x7FB JUMP JUMPDEST SWAP5 SWAP4 POP POP POP POP JUMP JUMPDEST DUP3 DUP1 SLOAD DUP3 DUP3 SSTORE SWAP1 PUSH1 0x0 MSTORE PUSH1 0x20 PUSH1 0x0 KECCAK256 SWAP1 DUP2 ADD SWAP3 DUP3 ISZERO PUSH3 0x5B8 JUMPI SWAP2 PUSH1 0x20 MUL DUP3 ADD JUMPDEST DUP3 DUP2 GT ISZERO PUSH3 0x5B8 JUMPI DUP3 MLOAD DUP1 MLOAD PUSH3 0x5A7 SWAP2 DUP5 SWAP2 PUSH1 0x20 SWAP1 SWAP2 ADD SWAP1 PUSH3 0x5CA JUMP JUMPDEST POP SWAP2 PUSH1 0x20 ADD SWAP2 SWAP1 PUSH1 0x1 ADD SWAP1 PUSH3 0x587 JUMP JUMPDEST POP PUSH3 0x5C6 SWAP3 SWAP2 POP PUSH3 0x655 JUMP JUMPDEST POP SWAP1 JUMP JUMPDEST DUP3 DUP1 SLOAD PUSH3 0x5D8 SWAP1 PUSH3 0x815 JUMP JUMPDEST SWAP1 PUSH1 0x0 MSTORE PUSH1 0x20 PUSH1 0x0 KECCAK256 SWAP1 PUSH1 0x1F ADD PUSH1 0x20 SWAP1 DIV DUP2 ADD SWAP3 DUP3 PUSH3 0x5FC JUMPI PUSH1 0x0 DUP6 SSTORE PUSH3 0x647 JUMP JUMPDEST DUP3 PUSH1 0x1F LT PUSH3 0x617 JUMPI DUP1 MLOAD PUSH1 0xFF NOT AND DUP4 DUP1 ADD OR DUP6 SSTORE PUSH3 0x647 JUMP JUMPDEST DUP3 DUP1 ADD PUSH1 0x1 ADD DUP6 SSTORE DUP3 ISZERO PUSH3 0x647 JUMPI SWAP2 DUP3 ADD JUMPDEST DUP3 DUP2 GT ISZERO PUSH3 0x647 JUMPI DUP3 MLOAD DUP3 SSTORE SWAP2 PUSH1 0x20 ADD SWAP2 SWAP1 PUSH1 0x1 ADD SWAP1 PUSH3 0x62A JUMP JUMPDEST POP PUSH3 0x5C6 SWAP3 SWAP2 POP PUSH3 0x676 JUMP JUMPDEST DUP1 DUP3 GT ISZERO PUSH3 0x5C6 JUMPI PUSH1 0x0 PUSH3 0x66C DUP3 DUP3 PUSH3 0x68D JUMP JUMPDEST POP PUSH1 0x1 ADD PUSH3 0x655 JUMP JUMPDEST JUMPDEST DUP1 DUP3 GT ISZERO PUSH3 0x5C6 JUMPI PUSH1 0x0 DUP2 SSTORE PUSH1 0x1 ADD PUSH3 0x677 JUMP JUMPDEST POP DUP1 SLOAD PUSH3 0x69B SWAP1 PUSH3 0x815 JUMP JUMPDEST PUSH1 0x0 DUP3 SSTORE DUP1 PUSH1 0x1F LT PUSH3 0x6AC JUMPI POP POP JUMP JUMPDEST PUSH1 0x1F ADD PUSH1 0x20 SWAP1 DIV SWAP1 PUSH1 0x0 MSTORE PUSH1 0x20 PUSH1 0x0 KECCAK256 SWAP1 DUP2 ADD SWAP1 PUSH3 0x6CC SWAP2 SWAP1 PUSH3 0x676 JUMP JUMPDEST POP JUMP JUMPDEST PUSH1 0x1 PUSH1 0x1 PUSH1 0xA0 SHL SUB DUP2 AND DUP2 EQ PUSH3 0x6CC JUMPI PUSH1 0x0 DUP1 REVERT JUMPDEST DUP1 MLOAD PUSH4 0xFFFFFFFF DUP2 AND DUP2 EQ PUSH3 0x6FA JUMPI PUSH1 0x0 DUP1 REVERT JUMPDEST SWAP2 SWAP1 POP JUMP JUMPDEST PUSH1 0x0 DUP1 PUSH1 0x0 DUP1 PUSH1 0x0 DUP1 PUSH1 0xC0 DUP8 DUP10 SUB SLT ISZERO PUSH3 0x719 JUMPI PUSH1 0x0 DUP1 REVERT JUMPDEST DUP7 MLOAD PUSH3 0x726 DUP2 PUSH3 0x6CF JUMP JUMPDEST PUSH1 0x20 DUP9 ADD MLOAD SWAP1 SWAP7 POP PUSH3 0x739 DUP2 PUSH3 0x6CF JUMP JUMPDEST SWAP5 POP PUSH3 0x749 PUSH1 0x40 DUP9 ADD PUSH3 0x6E5 JUMP JUMPDEST SWAP4 POP PUSH1 0x60 DUP8 ADD MLOAD PUSH3 0x75B DUP2 PUSH3 0x6CF JUMP JUMPDEST PUSH1 0x80 DUP9 ADD MLOAD SWAP1 SWAP4 POP PUSH1 0x1 PUSH1 0x1 PUSH1 0x40 SHL SUB DUP2 AND DUP2 EQ PUSH3 0x779 JUMPI PUSH1 0x0 DUP1 REVERT JUMPDEST SWAP2 POP PUSH3 0x789 PUSH1 0xA0 DUP9 ADD PUSH3 0x6E5 JUMP JUMPDEST SWAP1 POP SWAP3 SWAP6 POP SWAP3 SWAP6 POP SWAP3 SWAP6 JUMP JUMPDEST PUSH1 0x0 PUSH4 0xFFFFFFFF DUP1 DUP4 AND DUP2 DUP2 EQ ISZERO PUSH3 0x7BE JUMPI PUSH4 0x4E487B71 PUSH1 0xE0 SHL PUSH1 0x0 MSTORE PUSH1 0x11 PUSH1 0x4 MSTORE PUSH1 0x24 PUSH1 0x0 REVERT JUMPDEST PUSH1 0x1 ADD SWAP4 SWAP3 POP POP POP JUMP JUMPDEST PUSH1 0x40 DUP2 ADD DUP2 DUP4 PUSH1 0x0 JUMPDEST PUSH1 0x2 DUP2 LT ISZERO PUSH3 0x7F2 JUMPI DUP2 MLOAD DUP4 MSTORE PUSH1 0x20 SWAP3 DUP4 ADD SWAP3 SWAP1 SWAP2 ADD SWAP1 PUSH1 0x1 ADD PUSH3 0x7D1 JUMP JUMPDEST POP POP POP SWAP3 SWAP2 POP POP JUMP JUMPDEST PUSH1 0x0 PUSH1 0x20 DUP3 DUP5 SUB SLT ISZERO PUSH3 0x80E JUMPI PUSH1 0x0 DUP1 REVERT JUMPDEST POP MLOAD SWAP2 SWAP1 POP JUMP JUMPDEST PUSH1 0x1 DUP2 DUP2 SHR SWAP1 DUP3 AND DUP1 PUSH3 0x82A JUMPI PUSH1 0x7F DUP3 AND SWAP2 POP JUMPDEST PUSH1 0x20 DUP3 LT DUP2 EQ ISZERO PUSH3 0x84C JUMPI PUSH4 0x4E487B71 PUSH1 0xE0 SHL PUSH1 0x0 MSTORE PUSH1 0x22 PUSH1 0x4 MSTORE PUSH1 0x24 PUSH1 0x0 REVERT JUMPDEST POP SWAP2 SWAP1 POP JUMP JUMPDEST PUSH1 0x80 MLOAD PUSH2 0x3220 PUSH3 0x883 PUSH1 0x0 CODECOPY PUSH1 0x0 DUP2 DUP2 PUSH2 0x419 ADD MSTORE DUP2 DUP2 PUSH2 0x159F ADD MSTORE DUP2 DUP2 PUSH2 0x167F ADD MSTORE PUSH2 0x1AF5 ADD MSTORE PUSH2 0x3220 PUSH1 0x0 RETURN INVALID PUSH1 0x80 PUSH1 0x40 MSTORE CALLVALUE DUP1 ISZERO PUSH2 0x10 JUMPI PUSH1 0x0 DUP1 REVERT JUMPDEST POP PUSH1 0x4 CALLDATASIZE LT PUSH2 0x274 JUMPI PUSH1 0x0 CALLDATALOAD PUSH1 0xE0 SHR DUP1 PUSH4 0x8DA5CB5B GT PUSH2 0x151 JUMPI DUP1 PUSH4 0xDF9084EB GT PUSH2 0xC3 JUMPI DUP1 PUSH4 0xF178E47C GT PUSH2 0x87 JUMPI DUP1 PUSH4 0xF178E47C EQ PUSH2 0x600 JUMPI DUP1 PUSH4 0xF2FDE38B EQ PUSH2 0x613 JUMPI DUP1 PUSH4 0xFC7E9C6F EQ PUSH2 0x626 JUMPI DUP1 PUSH4 0xFD2C80AE EQ PUSH2 0x63E JUMPI DUP1 PUSH4 0xFE083012 EQ PUSH2 0x648 JUMPI DUP1 PUSH4 0xFFFEB84E EQ PUSH2 0x65B JUMPI PUSH1 0x0 DUP1 REVERT JUMPDEST DUP1 PUSH4 0xDF9084EB EQ PUSH2 0x570 JUMPI DUP1 PUSH4 0xE3CF998F EQ PUSH2 0x590 JUMPI DUP1 PUSH4 0xE8295588 EQ PUSH2 0x5B3 JUMPI DUP1 PUSH4 0xEC732959 EQ PUSH2 0x5C6 JUMPI DUP1 PUSH4 0xED33639F EQ PUSH2 0x5ED JUMPI PUSH1 0x0 DUP1 REVERT JUMPDEST DUP1 PUSH4 0xC2B40AE4 GT PUSH2 0x115 JUMPI DUP1 PUSH4 0xC2B40AE4 EQ PUSH2 0x502 JUMPI DUP1 PUSH4 0xC8C586AE EQ PUSH2 0x515 JUMPI DUP1 PUSH4 0xCD87A3B4 EQ PUSH2 0x528 JUMPI DUP1 PUSH4 0xD328A91E EQ PUSH2 0x530 JUMPI DUP1 PUSH4 0xD4B39175 EQ PUSH2 0x538 JUMPI DUP1 PUSH4 0xDF65850A EQ PUSH2 0x568 JUMPI PUSH1 0x0 DUP1 REVERT JUMPDEST DUP1 PUSH4 0x8DA5CB5B EQ PUSH2 0x4C8 JUMPI DUP1 PUSH4 0x90EEB02B EQ PUSH2 0x4D9 JUMPI DUP1 PUSH4 0xA3D3C0D2 EQ PUSH2 0x4E9 JUMPI DUP1 PUSH4 0xBA70F757 EQ PUSH2 0x4F2 JUMPI DUP1 PUSH4 0xBEF3A2F0 EQ PUSH2 0x4FA JUMPI PUSH1 0x0 DUP1 REVERT JUMPDEST DUP1 PUSH4 0x414A37BA GT PUSH2 0x1EA JUMPI DUP1 PUSH4 0x688ECFD1 GT PUSH2 0x1AE JUMPI DUP1 PUSH4 0x688ECFD1 EQ PUSH2 0x44E JUMPI DUP1 PUSH4 0x6D9833E3 EQ PUSH2 0x456 JUMPI DUP1 PUSH4 0x6E04FF0D EQ PUSH2 0x469 JUMPI DUP1 PUSH4 0x79BA5097 EQ PUSH2 0x48A JUMPI DUP1 PUSH4 0x839DF945 EQ PUSH2 0x492 JUMPI DUP1 PUSH4 0x8D82496E EQ PUSH2 0x4B5 JUMPI PUSH1 0x0 DUP1 REVERT JUMPDEST DUP1 PUSH4 0x414A37BA EQ PUSH2 0x3BA JUMPI DUP1 PUSH4 0x4585E33B EQ PUSH2 0x3E1 JUMPI DUP1 PUSH4 0x4622AB03 EQ PUSH2 0x3F4 JUMPI DUP1 PUSH4 0x4ECF518B EQ PUSH2 0x414 JUMPI DUP1 PUSH4 0x59360B55 EQ PUSH2 0x43B JUMPI PUSH1 0x0 DUP1 REVERT JUMPDEST DUP1 PUSH4 0x22DC7B4C GT PUSH2 0x23C JUMPI DUP1 PUSH4 0x22DC7B4C EQ PUSH2 0x2F1 JUMPI DUP1 PUSH4 0x24B93E3E EQ PUSH2 0x324 JUMPI DUP1 PUSH4 0x2997E86B EQ PUSH2 0x350 JUMPI DUP1 PUSH4 0x2B7AC3F3 EQ PUSH2 0x373 JUMPI DUP1 PUSH4 0x381FC4B5 EQ PUSH2 0x39E JUMPI DUP1 PUSH4 0x38BF282E EQ PUSH2 0x3A7 JUMPI PUSH1 0x0 DUP1 REVERT JUMPDEST DUP1 PUSH4 0x89EA02E EQ PUSH2 0x279 JUMPI DUP1 PUSH4 0x9C1BA2E EQ PUSH2 0x295 JUMPI DUP1 PUSH4 0xCA76175 EQ PUSH2 0x2C0 JUMPI DUP1 PUSH4 0x11456B47 EQ PUSH2 0x2D5 JUMPI DUP1 PUSH4 0x1AA46F59 EQ PUSH2 0x2E8 JUMPI JUMPDEST PUSH1 0x0 DUP1 REVERT JUMPDEST PUSH2 0x282 PUSH1 0x6F SLOAD DUP2 JUMP JUMPDEST PUSH1 0x40 MLOAD SWAP1 DUP2 MSTORE PUSH1 0x20 ADD JUMPDEST PUSH1 0x40 MLOAD DUP1 SWAP2 SUB SWAP1 RETURN JUMPDEST PUSH1 0x6E SLOAD PUSH2 0x2A8 SWAP1 PUSH1 0x1 PUSH1 0x1 PUSH1 0x40 SHL SUB AND DUP2 JUMP JUMPDEST PUSH1 0x40 MLOAD PUSH1 0x1 PUSH1 0x1 PUSH1 0x40 SHL SUB SWAP1 SWAP2 AND DUP2 MSTORE PUSH1 0x20 ADD PUSH2 0x28C JUMP JUMPDEST PUSH2 0x2D3 PUSH2 0x2CE CALLDATASIZE PUSH1 0x4 PUSH2 0x249A JUMP JUMPDEST PUSH2 0x663 JUMP JUMPDEST STOP JUMPDEST PUSH2 0x2D3 PUSH2 0x2E3 CALLDATASIZE PUSH1 0x4 PUSH2 0x2506 JUMP JUMPDEST PUSH2 0x6F0 JUMP JUMPDEST PUSH2 0x282 PUSH1 0x72 SLOAD DUP2 JUMP JUMPDEST PUSH2 0x314 PUSH2 0x2FF CALLDATASIZE PUSH1 0x4 PUSH2 0x253A JUMP JUMPDEST PUSH1 0x0 SWAP1 DUP2 MSTORE PUSH1 0x76 PUSH1 0x20 MSTORE PUSH1 0x40 SWAP1 KECCAK256 SLOAD PUSH1 0xFF AND SWAP1 JUMP JUMPDEST PUSH1 0x40 MLOAD SWAP1 ISZERO ISZERO DUP2 MSTORE PUSH1 0x20 ADD PUSH2 0x28C JUMP JUMPDEST PUSH1 0x6E SLOAD PUSH2 0x33B SWAP1 PUSH1 0x1 PUSH1 0x40 SHL SWAP1 DIV PUSH4 0xFFFFFFFF AND DUP2 JUMP JUMPDEST PUSH1 0x40 MLOAD PUSH4 0xFFFFFFFF SWAP1 SWAP2 AND DUP2 MSTORE PUSH1 0x20 ADD PUSH2 0x28C JUMP JUMPDEST PUSH2 0x314 PUSH2 0x35E CALLDATASIZE PUSH1 0x4 PUSH2 0x253A JUMP JUMPDEST PUSH1 0x76 PUSH1 0x20 MSTORE PUSH1 0x0 SWAP1 DUP2 MSTORE PUSH1 0x40 SWAP1 KECCAK256 SLOAD PUSH1 0xFF AND DUP2 JUMP JUMPDEST PUSH1 0x75 SLOAD PUSH2 0x386 SWAP1 PUSH1 0x1 PUSH1 0x1 PUSH1 0xA0 SHL SUB AND DUP2 JUMP JUMPDEST PUSH1 0x40 MLOAD PUSH1 0x1 PUSH1 0x1 PUSH1 0xA0 SHL SUB SWAP1 SWAP2 AND DUP2 MSTORE PUSH1 0x20 ADD PUSH2 0x28C JUMP JUMPDEST PUSH2 0x282 PUSH1 0x71 SLOAD DUP2 JUMP JUMPDEST PUSH2 0x282 PUSH2 0x3B5 CALLDATASIZE PUSH1 0x4 PUSH2 0x2553 JUMP JUMPDEST PUSH2 0x737 JUMP JUMPDEST PUSH2 0x282 PUSH32 0x30644E72E131A029B85045B68181585D2833E84879B9709143E1F593F0000001 DUP2 JUMP JUMPDEST PUSH2 0x2D3 PUSH2 0x3EF CALLDATASIZE PUSH1 0x4 PUSH2 0x25BD JUMP JUMPDEST PUSH2 0x8C1 JUMP JUMPDEST PUSH2 0x407 PUSH2 0x402 CALLDATASIZE PUSH1 0x4 PUSH2 0x253A JUMP JUMPDEST PUSH2 0xABD JUMP JUMPDEST PUSH1 0x40 MLOAD PUSH2 0x28C SWAP2 SWAP1 PUSH2 0x2656 JUMP JUMPDEST PUSH2 0x33B PUSH32 0x0 DUP2 JUMP JUMPDEST PUSH2 0x2D3 PUSH2 0x449 CALLDATASIZE PUSH1 0x4 PUSH2 0x26B9 JUMP JUMPDEST PUSH2 0xB69 JUMP JUMPDEST PUSH2 0x407 PUSH2 0xD9D JUMP JUMPDEST PUSH2 0x314 PUSH2 0x464 CALLDATASIZE PUSH1 0x4 PUSH2 0x253A JUMP JUMPDEST PUSH2 0xDAA JUMP JUMPDEST PUSH2 0x47C PUSH2 0x477 CALLDATASIZE PUSH1 0x4 PUSH2 0x2506 JUMP JUMPDEST PUSH2 0xE28 JUMP JUMPDEST PUSH1 0x40 MLOAD PUSH2 0x28C SWAP3 SWAP2 SWAP1 PUSH2 0x27CD JUMP JUMPDEST PUSH2 0x2D3 PUSH2 0xE46 JUMP JUMPDEST PUSH2 0x314 PUSH2 0x4A0 CALLDATASIZE PUSH1 0x4 PUSH2 0x253A JUMP JUMPDEST PUSH1 0x77 PUSH1 0x20 MSTORE PUSH1 0x0 SWAP1 DUP2 MSTORE PUSH1 0x40 SWAP1 KECCAK256 SLOAD PUSH1 0xFF AND DUP2 JUMP JUMPDEST PUSH2 0x2D3 PUSH2 0x4C3 CALLDATASIZE PUSH1 0x4 PUSH2 0x253A JUMP JUMPDEST PUSH2 0xEF4 JUMP JUMPDEST PUSH1 0x2 SLOAD PUSH1 0x1 PUSH1 0x1 PUSH1 0xA0 SHL SUB AND PUSH2 0x386 JUMP JUMPDEST PUSH1 0x7 SLOAD PUSH2 0x33B SWAP1 PUSH4 0xFFFFFFFF AND DUP2 JUMP JUMPDEST PUSH2 0x282 PUSH1 0x70 SLOAD DUP2 JUMP JUMPDEST PUSH2 0x282 PUSH2 0x1031 JUMP JUMPDEST PUSH2 0x407 PUSH2 0x1057 JUMP JUMPDEST PUSH2 0x282 PUSH2 0x510 CALLDATASIZE PUSH1 0x4 PUSH2 0x253A JUMP JUMPDEST PUSH2 0x1064 JUMP JUMPDEST PUSH2 0x407 PUSH2 0x523 CALLDATASIZE PUSH1 0x4 PUSH2 0x27E8 JUMP JUMPDEST PUSH2 0x107B JUMP JUMPDEST PUSH2 0x33B PUSH1 0x64 DUP2 JUMP JUMPDEST PUSH2 0x407 PUSH2 0x10C2 JUMP JUMPDEST PUSH2 0x54B PUSH2 0x546 CALLDATASIZE PUSH1 0x4 PUSH2 0x291E JUMP JUMPDEST PUSH2 0x1147 JUMP JUMPDEST PUSH1 0x40 MLOAD PUSH12 0xFFFFFFFFFFFFFFFFFFFFFFFF SWAP1 SWAP2 AND DUP2 MSTORE PUSH1 0x20 ADD PUSH2 0x28C JUMP JUMPDEST PUSH2 0x2D3 PUSH2 0x11DF JUMP JUMPDEST PUSH2 0x583 PUSH2 0x57E CALLDATASIZE PUSH1 0x4 PUSH2 0x25BD JUMP JUMPDEST PUSH2 0x127A JUMP JUMPDEST PUSH1 0x40 MLOAD PUSH2 0x28C SWAP2 SWAP1 PUSH2 0x2A2F JUMP JUMPDEST PUSH2 0x314 PUSH2 0x59E CALLDATASIZE PUSH1 0x4 PUSH2 0x2AA6 JUMP JUMPDEST PUSH1 0x79 PUSH1 0x20 MSTORE PUSH1 0x0 SWAP1 DUP2 MSTORE PUSH1 0x40 SWAP1 KECCAK256 SLOAD PUSH1 0xFF AND DUP2 JUMP JUMPDEST PUSH2 0x282 PUSH2 0x5C1 CALLDATASIZE PUSH1 0x4 PUSH2 0x253A JUMP JUMPDEST PUSH2 0x1374 JUMP JUMPDEST PUSH2 0x282 PUSH32 0x2FE54C60D3ACABF3343A35B6EBA15DB4821B340F76E741E2249685ED4899AF6C DUP2 JUMP JUMPDEST PUSH1 0x4 SLOAD PUSH2 0x386 SWAP1 PUSH1 0x1 PUSH1 0x1 PUSH1 0xA0 SHL SUB AND DUP2 JUMP JUMPDEST PUSH2 0x282 PUSH2 0x60E CALLDATASIZE PUSH1 0x4 PUSH2 0x253A JUMP JUMPDEST PUSH2 0x1395 JUMP JUMPDEST PUSH2 0x2D3 PUSH2 0x621 CALLDATASIZE PUSH1 0x4 PUSH2 0x2AA6 JUMP JUMPDEST PUSH2 0x13A5 JUMP JUMPDEST PUSH1 0x7 SLOAD PUSH2 0x33B SWAP1 PUSH5 0x100000000 SWAP1 DIV PUSH4 0xFFFFFFFF AND DUP2 JUMP JUMPDEST PUSH2 0x282 PUSH3 0x93A80 DUP2 JUMP JUMPDEST PUSH2 0x407 PUSH2 0x656 CALLDATASIZE PUSH1 0x4 PUSH2 0x2AC3 JUMP JUMPDEST PUSH2 0x13B6 JUMP JUMPDEST PUSH2 0x407 PUSH2 0x14B0 JUMP JUMPDEST PUSH1 0x0 DUP4 DUP2 MSTORE PUSH1 0x1 PUSH1 0x20 MSTORE PUSH1 0x40 SWAP1 KECCAK256 SLOAD DUP4 SWAP1 PUSH1 0x1 PUSH1 0x1 PUSH1 0xA0 SHL SUB AND CALLER EQ PUSH2 0x69C JUMPI PUSH1 0x40 MLOAD PUSH4 0xA0C5EC63 PUSH1 0xE0 SHL DUP2 MSTORE PUSH1 0x4 ADD PUSH1 0x40 MLOAD DUP1 SWAP2 SUB SWAP1 REVERT JUMPDEST PUSH1 0x0 DUP2 DUP2 MSTORE PUSH1 0x1 PUSH1 0x20 MSTORE PUSH1 0x40 DUP1 DUP3 KECCAK256 DUP1 SLOAD PUSH1 0x1 PUSH1 0x1 PUSH1 0xA0 SHL SUB NOT AND SWAP1 SSTORE MLOAD DUP3 SWAP2 PUSH32 0x85E1543BF2F84FE80C6BADBCE3648C8539AD1DF4D2B3D822938CA0538BE727E6 SWAP2 LOG2 PUSH2 0x6EA DUP5 DUP5 DUP5 PUSH2 0x14BD JUMP JUMPDEST POP POP POP POP JUMP JUMPDEST PUSH1 0x7A DUP1 SLOAD PUSH1 0x1 DUP2 ADD DUP3 SSTORE PUSH1 0x0 SWAP2 SWAP1 SWAP2 MSTORE DUP2 MLOAD PUSH2 0x733 SWAP2 PUSH32 0xF0440771A29E57E18C66727944770B82CC77924AEF333C927CE6BDD2CDB3AE03 ADD SWAP1 PUSH1 0x20 DUP5 ADD SWAP1 PUSH2 0x2205 JUMP JUMPDEST POP POP JUMP JUMPDEST PUSH1 0x0 PUSH32 0x30644E72E131A029B85045B68181585D2833E84879B9709143E1F593F0000001 DUP4 LT PUSH2 0x7AD JUMPI PUSH1 0x40 MLOAD PUSH3 0x461BCD PUSH1 0xE5 SHL DUP2 MSTORE PUSH1 0x20 PUSH1 0x4 DUP3 ADD DUP2 SWAP1 MSTORE PUSH1 0x24 DUP3 ADD MSTORE PUSH32 0x5F6C6566742073686F756C6420626520696E7369646520746865206669656C64 PUSH1 0x44 DUP3 ADD MSTORE PUSH1 0x64 ADD JUMPDEST PUSH1 0x40 MLOAD DUP1 SWAP2 SUB SWAP1 REVERT JUMPDEST PUSH32 0x30644E72E131A029B85045B68181585D2833E84879B9709143E1F593F0000001 DUP3 LT PUSH2 0x826 JUMPI PUSH1 0x40 MLOAD PUSH3 0x461BCD PUSH1 0xE5 SHL DUP2 MSTORE PUSH1 0x20 PUSH1 0x4 DUP3 ADD MSTORE PUSH1 0x21 PUSH1 0x24 DUP3 ADD MSTORE PUSH32 0x5F72696768742073686F756C6420626520696E7369646520746865206669656C PUSH1 0x44 DUP3 ADD MSTORE PUSH1 0x19 PUSH1 0xFA SHL PUSH1 0x64 DUP3 ADD MSTORE PUSH1 0x84 ADD PUSH2 0x7A4 JUMP JUMPDEST PUSH1 0x40 DUP1 MLOAD DUP1 DUP3 ADD DUP3 MSTORE DUP5 DUP2 MSTORE PUSH1 0x20 DUP2 ADD DUP5 SWAP1 MSTORE PUSH1 0x4 DUP1 SLOAD SWAP3 MLOAD PUSH4 0x14CF2B3 PUSH1 0xE5 SHL DUP2 MSTORE SWAP2 SWAP3 PUSH1 0x1 PUSH1 0x1 PUSH1 0xA0 SHL SUB AND SWAP2 PUSH4 0x299E5660 SWAP2 PUSH2 0x867 SWAP2 DUP6 SWAP2 ADD PUSH2 0x2B8B JUMP JUMPDEST PUSH1 0x20 PUSH1 0x40 MLOAD DUP1 DUP4 SUB DUP2 DUP7 DUP1 EXTCODESIZE ISZERO DUP1 ISZERO PUSH2 0x87F JUMPI PUSH1 0x0 DUP1 REVERT JUMPDEST POP GAS STATICCALL ISZERO DUP1 ISZERO PUSH2 0x893 JUMPI RETURNDATASIZE PUSH1 0x0 DUP1 RETURNDATACOPY RETURNDATASIZE PUSH1 0x0 REVERT JUMPDEST POP POP POP POP PUSH1 0x40 MLOAD RETURNDATASIZE PUSH1 0x1F NOT PUSH1 0x1F DUP3 ADD AND DUP3 ADD DUP1 PUSH1 0x40 MSTORE POP DUP2 ADD SWAP1 PUSH2 0x8B7 SWAP2 SWAP1 PUSH2 0x2BBC JUMP JUMPDEST SWAP2 POP POP JUMPDEST SWAP3 SWAP2 POP POP JUMP JUMPDEST PUSH1 0x0 PUSH2 0x8DB PUSH1 0x40 MLOAD DUP1 PUSH1 0x20 ADD PUSH1 0x40 MSTORE DUP1 PUSH1 0x0 DUP2 MSTORE POP PUSH2 0xE28 JUMP JUMPDEST POP SWAP1 POP DUP1 PUSH2 0x924 JUMPI PUSH1 0x40 MLOAD PUSH4 0x2F0C8D4B PUSH1 0xE2 SHL DUP2 MSTORE PUSH1 0x20 PUSH1 0x4 DUP3 ADD MSTORE PUSH1 0x15 PUSH1 0x24 DUP3 ADD MSTORE PUSH21 0x151A5B59481A5B9D195C9D985B081B9BDD081B595D PUSH1 0x5A SHL PUSH1 0x44 DUP3 ADD MSTORE PUSH1 0x64 ADD PUSH2 0x7A4 JUMP JUMPDEST TIMESTAMP PUSH1 0x6F SSTORE PUSH1 0x70 SLOAD PUSH2 0x936 SWAP1 PUSH1 0x1 PUSH2 0x2BEB JUMP JUMPDEST PUSH1 0x70 SSTORE PUSH1 0x0 DUP1 SLOAD PUSH1 0x6E SLOAD PUSH1 0x40 MLOAD PUSH4 0xA090AC1 PUSH1 0xE2 SHL DUP2 MSTORE PUSH1 0x1 PUSH1 0x1 PUSH1 0xA0 SHL SUB SWAP1 SWAP3 AND SWAP2 PUSH4 0x28242B04 SWAP2 PUSH2 0x988 SWAP2 PUSH1 0x1 PUSH1 0x1 PUSH1 0x40 SHL SUB DUP3 AND SWAP2 PUSH1 0x6D SWAP2 PUSH1 0x1 PUSH1 0x40 SHL SWAP1 SWAP2 DIV PUSH4 0xFFFFFFFF AND SWAP1 PUSH1 0x4 ADD PUSH2 0x2C38 JUMP JUMPDEST PUSH1 0x20 PUSH1 0x40 MLOAD DUP1 DUP4 SUB DUP2 PUSH1 0x0 DUP8 DUP1 EXTCODESIZE ISZERO DUP1 ISZERO PUSH2 0x9A2 JUMPI PUSH1 0x0 DUP1 REVERT JUMPDEST POP GAS CALL ISZERO DUP1 ISZERO PUSH2 0x9B6 JUMPI RETURNDATASIZE PUSH1 0x0 DUP1 RETURNDATACOPY RETURNDATASIZE PUSH1 0x0 REVERT JUMPDEST POP POP POP POP PUSH1 0x40 MLOAD RETURNDATASIZE PUSH1 0x1F NOT PUSH1 0x1F DUP3 ADD AND DUP3 ADD DUP1 PUSH1 0x40 MSTORE POP DUP2 ADD SWAP1 PUSH2 0x9DA SWAP2 SWAP1 PUSH2 0x2BBC JUMP JUMPDEST SWAP1 POP PUSH1 0x0 DUP1 SLOAD SWAP1 PUSH2 0x100 EXP SWAP1 DIV PUSH1 0x1 PUSH1 0x1 PUSH1 0xA0 SHL SUB AND PUSH1 0x1 PUSH1 0x1 PUSH1 0xA0 SHL SUB AND PUSH4 0x5AB1BD53 PUSH1 0x40 MLOAD DUP2 PUSH4 0xFFFFFFFF AND PUSH1 0xE0 SHL DUP2 MSTORE PUSH1 0x4 ADD PUSH1 0x20 PUSH1 0x40 MLOAD DUP1 DUP4 SUB DUP2 DUP7 DUP1 EXTCODESIZE ISZERO DUP1 ISZERO PUSH2 0xA28 JUMPI PUSH1 0x0 DUP1 REVERT JUMPDEST POP GAS STATICCALL ISZERO DUP1 ISZERO PUSH2 0xA3C JUMPI RETURNDATASIZE PUSH1 0x0 DUP1 RETURNDATACOPY RETURNDATASIZE PUSH1 0x0 REVERT JUMPDEST POP POP POP POP PUSH1 0x40 MLOAD RETURNDATASIZE PUSH1 0x1F NOT PUSH1 0x1F DUP3 ADD AND DUP3 ADD DUP1 PUSH1 0x40 MSTORE POP DUP2 ADD SWAP1 PUSH2 0xA60 SWAP2 SWAP1 PUSH2 0x2CD9 JUMP JUMPDEST PUSH1 0x0 DUP3 DUP2 MSTORE PUSH1 0x1 PUSH1 0x20 MSTORE PUSH1 0x40 DUP1 DUP3 KECCAK256 DUP1 SLOAD PUSH1 0x1 PUSH1 0x1 PUSH1 0xA0 SHL SUB NOT AND PUSH1 0x1 PUSH1 0x1 PUSH1 0xA0 SHL SUB SWAP5 SWAP1 SWAP5 AND SWAP4 SWAP1 SWAP4 OR SWAP1 SWAP3 SSTORE SWAP1 MLOAD DUP3 SWAP2 PUSH32 0x1131472297A800FEE664D1D89CFA8F7676FF07189ECC53F80BBB5F4969099DB8 SWAP2 LOG2 PUSH1 0x72 SSTORE POP POP POP JUMP JUMPDEST PUSH1 0x7A DUP2 DUP2 SLOAD DUP2 LT PUSH2 0xACD JUMPI PUSH1 0x0 DUP1 REVERT JUMPDEST SWAP1 PUSH1 0x0 MSTORE PUSH1 0x20 PUSH1 0x0 KECCAK256 ADD PUSH1 0x0 SWAP2 POP SWAP1 POP DUP1 SLOAD PUSH2 0xAE8 SWAP1 PUSH2 0x2C03 JUMP JUMPDEST DUP1 PUSH1 0x1F ADD PUSH1 0x20 DUP1 SWAP2 DIV MUL PUSH1 0x20 ADD PUSH1 0x40 MLOAD SWAP1 DUP2 ADD PUSH1 0x40 MSTORE DUP1 SWAP3 SWAP2 SWAP1 DUP2 DUP2 MSTORE PUSH1 0x20 ADD DUP3 DUP1 SLOAD PUSH2 0xB14 SWAP1 PUSH2 0x2C03 JUMP JUMPDEST DUP1 ISZERO PUSH2 0xB61 JUMPI DUP1 PUSH1 0x1F LT PUSH2 0xB36 JUMPI PUSH2 0x100 DUP1 DUP4 SLOAD DIV MUL DUP4 MSTORE SWAP2 PUSH1 0x20 ADD SWAP2 PUSH2 0xB61 JUMP JUMPDEST DUP3 ADD SWAP2 SWAP1 PUSH1 0x0 MSTORE PUSH1 0x20 PUSH1 0x0 KECCAK256 SWAP1 JUMPDEST DUP2 SLOAD DUP2 MSTORE SWAP1 PUSH1 0x1 ADD SWAP1 PUSH1 0x20 ADD DUP1 DUP4 GT PUSH2 0xB44 JUMPI DUP3 SWAP1 SUB PUSH1 0x1F AND DUP3 ADD SWAP2 JUMPDEST POP POP POP POP POP DUP2 JUMP JUMPDEST PUSH2 0xB71 PUSH2 0x152C JUMP JUMPDEST PUSH1 0x0 DUP4 DUP2 MSTORE PUSH1 0x76 PUSH1 0x20 MSTORE PUSH1 0x40 SWAP1 KECCAK256 SLOAD PUSH1 0xFF AND ISZERO PUSH2 0xBCA JUMPI PUSH1 0x40 MLOAD PUSH4 0x37A51B3D PUSH1 0xE2 SHL DUP2 MSTORE PUSH1 0x20 PUSH1 0x4 DUP3 ADD MSTORE PUSH1 0x16 PUSH1 0x24 DUP3 ADD MSTORE PUSH22 0x139D5B1B1A599A595C88185B1C9958591E481D5CD959 PUSH1 0x52 SHL PUSH1 0x44 DUP3 ADD MSTORE PUSH1 0x64 ADD PUSH2 0x7A4 JUMP JUMPDEST PUSH2 0xBD3 DUP3 PUSH2 0xDAA JUMP JUMPDEST PUSH2 0xC11 JUMPI PUSH1 0x40 MLOAD PUSH4 0xA4305B13 PUSH1 0xE0 SHL DUP2 MSTORE PUSH1 0x20 PUSH1 0x4 DUP3 ADD MSTORE PUSH1 0xE PUSH1 0x24 DUP3 ADD MSTORE PUSH14 0x2937B7BA103737BA1035B737BBB7 PUSH1 0x91 SHL PUSH1 0x44 DUP3 ADD MSTORE PUSH1 0x64 ADD PUSH2 0x7A4 JUMP JUMPDEST PUSH1 0x40 DUP1 MLOAD DUP1 DUP3 ADD DUP3 MSTORE DUP4 DUP2 MSTORE PUSH1 0x20 DUP1 DUP3 ADD DUP7 SWAP1 MSTORE PUSH1 0x75 SLOAD DUP5 MLOAD SWAP2 DUP6 ADD MLOAD DUP6 DUP6 ADD MLOAD SWAP5 MLOAD PUSH4 0x7AE4EB4F PUSH1 0xE1 SHL DUP2 MSTORE SWAP4 SWAP5 PUSH1 0x1 PUSH1 0x1 PUSH1 0xA0 SHL SUB SWAP1 SWAP3 AND SWAP4 PUSH4 0xF5C9D69E SWAP4 PUSH2 0xC63 SWAP4 SWAP1 SWAP3 SWAP2 DUP8 SWAP1 PUSH1 0x4 ADD PUSH2 0x2D19 JUMP JUMPDEST PUSH1 0x20 PUSH1 0x40 MLOAD DUP1 DUP4 SUB DUP2 PUSH1 0x0 DUP8 DUP1 EXTCODESIZE ISZERO DUP1 ISZERO PUSH2 0xC7D JUMPI PUSH1 0x0 DUP1 REVERT JUMPDEST POP GAS CALL ISZERO DUP1 ISZERO PUSH2 0xC91 JUMPI RETURNDATASIZE PUSH1 0x0 DUP1 RETURNDATACOPY RETURNDATASIZE PUSH1 0x0 REVERT JUMPDEST POP POP POP POP PUSH1 0x40 MLOAD RETURNDATASIZE PUSH1 0x1F NOT PUSH1 0x1F DUP3 ADD AND DUP3 ADD DUP1 PUSH1 0x40 MSTORE POP DUP2 ADD SWAP1 PUSH2 0xCB5 SWAP2 SWAP1 PUSH2 0x2D80 JUMP JUMPDEST PUSH2 0xCF2 JUMPI PUSH1 0x40 MLOAD PUSH4 0x9DAA309 PUSH1 0xE2 SHL DUP2 MSTORE PUSH1 0x20 PUSH1 0x4 DUP3 ADD MSTORE PUSH1 0xD PUSH1 0x24 DUP3 ADD MSTORE PUSH13 0x24B73B30B634B210383937B7B3 PUSH1 0x99 SHL PUSH1 0x44 DUP3 ADD MSTORE PUSH1 0x64 ADD PUSH2 0x7A4 JUMP JUMPDEST PUSH1 0x0 DUP5 DUP2 MSTORE PUSH1 0x76 PUSH1 0x20 MSTORE PUSH1 0x40 SWAP1 DUP2 SWAP1 KECCAK256 DUP1 SLOAD PUSH1 0xFF NOT AND PUSH1 0x1 OR SWAP1 SSTORE MLOAD PUSH1 0x78 SWAP1 PUSH2 0xD1C SWAP1 DUP9 SWAP1 PUSH2 0x2DA2 JUMP JUMPDEST SWAP1 DUP2 MSTORE PUSH1 0x40 MLOAD PUSH1 0x20 SWAP2 DUP2 SWAP1 SUB DUP3 ADD SWAP1 KECCAK256 DUP1 SLOAD PUSH1 0x1 DUP2 ADD DUP3 SSTORE PUSH1 0x0 SWAP2 DUP3 MSTORE SWAP1 DUP3 SWAP1 KECCAK256 DUP8 MLOAD PUSH2 0xD51 SWAP4 SWAP2 SWAP1 SWAP3 ADD SWAP2 SWAP1 DUP9 ADD SWAP1 PUSH2 0x2205 JUMP JUMPDEST POP PUSH32 0x6B6C80BB5C4B26D73A7CF3586C1B2F17BD79F8F7FD3C3E14F9CD70926574120 DUP6 DUP6 PUSH1 0x40 MLOAD PUSH2 0xD83 SWAP3 SWAP2 SWAP1 PUSH2 0x2DBE JUMP JUMPDEST PUSH1 0x40 MLOAD DUP1 SWAP2 SUB SWAP1 LOG1 POP PUSH2 0xD96 PUSH1 0x1 PUSH1 0x6C SSTORE JUMP JUMPDEST POP POP POP POP POP JUMP JUMPDEST PUSH1 0x6D DUP1 SLOAD PUSH2 0xAE8 SWAP1 PUSH2 0x2C03 JUMP JUMPDEST PUSH1 0x0 DUP2 PUSH2 0xDB9 JUMPI POP PUSH1 0x0 SWAP2 SWAP1 POP JUMP JUMPDEST PUSH1 0x7 SLOAD PUSH4 0xFFFFFFFF AND JUMPDEST PUSH1 0x8 DUP2 PUSH4 0xFFFFFFFF AND PUSH1 0x64 DUP2 LT PUSH2 0xDDC JUMPI PUSH2 0xDDC PUSH2 0x2DE0 JUMP JUMPDEST ADD SLOAD DUP4 EQ ISZERO PUSH2 0xDEE JUMPI POP PUSH1 0x1 SWAP3 SWAP2 POP POP JUMP JUMPDEST PUSH4 0xFFFFFFFF DUP2 AND PUSH2 0xDFD JUMPI POP PUSH1 0x64 JUMPDEST DUP1 PUSH2 0xE07 DUP2 PUSH2 0x2DF6 JUMP JUMPDEST PUSH1 0x7 SLOAD SWAP1 SWAP3 POP PUSH4 0xFFFFFFFF DUP1 DUP5 AND SWAP2 AND EQ ISZERO SWAP1 POP PUSH2 0xDC3 JUMPI POP PUSH1 0x0 SWAP3 SWAP2 POP POP JUMP JUMPDEST PUSH1 0x0 PUSH1 0x60 PUSH3 0x93A80 PUSH1 0x6F SLOAD TIMESTAMP PUSH2 0xE3E SWAP2 SWAP1 PUSH2 0x2E16 JUMP JUMPDEST GT SWAP2 POP SWAP2 POP SWAP2 JUMP JUMPDEST PUSH1 0x3 SLOAD PUSH1 0x1 PUSH1 0x1 PUSH1 0xA0 SHL SUB AND CALLER EQ PUSH2 0xE99 JUMPI PUSH1 0x40 MLOAD PUSH3 0x461BCD PUSH1 0xE5 SHL DUP2 MSTORE PUSH1 0x20 PUSH1 0x4 DUP3 ADD MSTORE PUSH1 0x16 PUSH1 0x24 DUP3 ADD MSTORE PUSH22 0x26BAB9BA10313290383937B837B9B2B21037BBB732B9 PUSH1 0x51 SHL PUSH1 0x44 DUP3 ADD MSTORE PUSH1 0x64 ADD PUSH2 0x7A4 JUMP JUMPDEST PUSH1 0x2 DUP1 SLOAD PUSH1 0x1 PUSH1 0x1 PUSH1 0xA0 SHL SUB NOT DUP1 DUP3 AND CALLER SWAP1 DUP2 OR SWAP1 SWAP4 SSTORE PUSH1 0x3 DUP1 SLOAD SWAP1 SWAP2 AND SWAP1 SSTORE PUSH1 0x40 MLOAD PUSH1 0x1 PUSH1 0x1 PUSH1 0xA0 SHL SUB SWAP1 SWAP2 AND SWAP2 SWAP1 DUP3 SWAP1 PUSH32 0x8BE0079C531659141344CD1FD0A4F28419497F9722A3DAAFE3B4186F6B6457E0 SWAP1 PUSH1 0x0 SWAP1 LOG3 POP JUMP JUMPDEST PUSH2 0xEFC PUSH2 0x152C JUMP JUMPDEST CALLER PUSH1 0x0 DUP2 DUP2 MSTORE PUSH1 0x79 PUSH1 0x20 MSTORE PUSH1 0x40 SWAP1 KECCAK256 SLOAD PUSH1 0xFF AND PUSH2 0xF52 JUMPI PUSH1 0x40 MLOAD PUSH3 0x461BCD PUSH1 0xE5 SHL DUP2 MSTORE PUSH1 0x20 PUSH1 0x4 DUP3 ADD MSTORE PUSH1 0x14 PUSH1 0x24 DUP3 ADD MSTORE PUSH20 0x1059191C995CDCC81B9BDD081CD95B1958DD1959 PUSH1 0x62 SHL PUSH1 0x44 DUP3 ADD MSTORE PUSH1 0x64 ADD PUSH2 0x7A4 JUMP JUMPDEST PUSH1 0x0 DUP3 DUP2 MSTORE PUSH1 0x77 PUSH1 0x20 MSTORE PUSH1 0x40 SWAP1 KECCAK256 SLOAD PUSH1 0xFF AND ISZERO PUSH2 0xFB2 JUMPI PUSH1 0x40 MLOAD PUSH4 0x2F40BF35 PUSH1 0xE0 SHL DUP2 MSTORE PUSH1 0x20 PUSH1 0x4 DUP3 ADD MSTORE PUSH1 0x17 PUSH1 0x24 DUP3 ADD MSTORE PUSH32 0x436F6D6D69746D656E7420616C72656164792075736564000000000000000000 PUSH1 0x44 DUP3 ADD MSTORE PUSH1 0x64 ADD PUSH2 0x7A4 JUMP JUMPDEST PUSH1 0x0 PUSH2 0xFBD DUP4 PUSH2 0x1586 JUMP JUMPDEST PUSH1 0x0 DUP5 DUP2 MSTORE PUSH1 0x77 PUSH1 0x20 MSTORE PUSH1 0x40 SWAP1 DUP2 SWAP1 KECCAK256 DUP1 SLOAD PUSH1 0xFF NOT AND PUSH1 0x1 OR SWAP1 SSTORE MLOAD SWAP1 SWAP2 POP PUSH32 0xB78452BC487DC90D6A0A567CF87858DAE69E144C5F299A43ED6964629C219E2A SWAP1 PUSH2 0x101A SWAP1 DUP6 SWAP1 DUP5 SWAP1 SWAP2 DUP3 MSTORE PUSH4 0xFFFFFFFF AND PUSH1 0x20 DUP3 ADD MSTORE PUSH1 0x40 ADD SWAP1 JUMP JUMPDEST PUSH1 0x40 MLOAD DUP1 SWAP2 SUB SWAP1 LOG1 POP POP PUSH2 0x102E PUSH1 0x1 PUSH1 0x6C SSTORE JUMP JUMPDEST POP JUMP JUMPDEST PUSH1 0x7 SLOAD PUSH1 0x0 SWAP1 PUSH1 0x8 SWAP1 PUSH4 0xFFFFFFFF AND PUSH1 0x64 DUP2 LT PUSH2 0x1050 JUMPI PUSH2 0x1050 PUSH2 0x2DE0 JUMP JUMPDEST ADD SLOAD SWAP1 POP SWAP1 JUMP JUMPDEST PUSH1 0x73 DUP1 SLOAD PUSH2 0xAE8 SWAP1 PUSH2 0x2C03 JUMP JUMPDEST PUSH1 0x8 DUP2 PUSH1 0x64 DUP2 LT PUSH2 0x1074 JUMPI PUSH1 0x0 DUP1 REVERT JUMPDEST ADD SLOAD SWAP1 POP DUP2 JUMP JUMPDEST DUP2 MLOAD PUSH1 0x20 DUP2 DUP5 ADD DUP2 ADD DUP1 MLOAD PUSH1 0x78 DUP3 MSTORE SWAP3 DUP3 ADD SWAP2 DUP6 ADD SWAP2 SWAP1 SWAP2 KECCAK256 SWAP2 SWAP1 MSTORE DUP1 SLOAD DUP3 SWAP1 DUP2 LT PUSH2 0x10A6 JUMPI PUSH1 0x0 DUP1 REVERT JUMPDEST SWAP1 PUSH1 0x0 MSTORE PUSH1 0x20 PUSH1 0x0 KECCAK256 ADD PUSH1 0x0 SWAP2 POP SWAP2 POP POP DUP1 SLOAD PUSH2 0xAE8 SWAP1 PUSH2 0x2C03 JUMP JUMPDEST PUSH1 0x0 DUP1 SLOAD PUSH1 0x40 DUP1 MLOAD PUSH4 0x6994548F PUSH1 0xE1 SHL DUP2 MSTORE SWAP1 MLOAD PUSH1 0x60 SWAP4 PUSH1 0x1 PUSH1 0x1 PUSH1 0xA0 SHL SUB SWAP1 SWAP4 AND SWAP3 PUSH4 0xD328A91E SWAP3 PUSH1 0x4 DUP1 DUP3 ADD SWAP4 SWAP2 DUP3 SWAP1 SUB ADD DUP2 DUP7 DUP1 EXTCODESIZE ISZERO DUP1 ISZERO PUSH2 0x1106 JUMPI PUSH1 0x0 DUP1 REVERT JUMPDEST POP GAS STATICCALL ISZERO DUP1 ISZERO PUSH2 0x111A JUMPI RETURNDATASIZE PUSH1 0x0 DUP1 RETURNDATACOPY RETURNDATASIZE PUSH1 0x0 REVERT JUMPDEST POP POP POP POP PUSH1 0x40 MLOAD RETURNDATASIZE PUSH1 0x0 DUP3 RETURNDATACOPY PUSH1 0x1F RETURNDATASIZE SWAP1 DUP2 ADD PUSH1 0x1F NOT AND DUP3 ADD PUSH1 0x40 MSTORE PUSH2 0x1142 SWAP2 SWAP1 DUP2 ADD SWAP1 PUSH2 0x2E2D JUMP JUMPDEST SWAP1 POP SWAP1 JUMP JUMPDEST PUSH1 0x0 DUP1 SLOAD PUSH1 0x1 PUSH1 0x1 PUSH1 0xA0 SHL SUB AND PUSH4 0xD227D245 DUP6 PUSH2 0x1163 DUP9 PUSH2 0x17E8 JUMP JUMPDEST DUP7 DUP7 PUSH1 0x40 MLOAD DUP6 PUSH4 0xFFFFFFFF AND PUSH1 0xE0 SHL DUP2 MSTORE PUSH1 0x4 ADD PUSH2 0x1184 SWAP5 SWAP4 SWAP3 SWAP2 SWAP1 PUSH2 0x2E9A JUMP JUMPDEST PUSH1 0x20 PUSH1 0x40 MLOAD DUP1 DUP4 SUB DUP2 DUP7 DUP1 EXTCODESIZE ISZERO DUP1 ISZERO PUSH2 0x119C JUMPI PUSH1 0x0 DUP1 REVERT JUMPDEST POP GAS STATICCALL ISZERO DUP1 ISZERO PUSH2 0x11B0 JUMPI RETURNDATASIZE PUSH1 0x0 DUP1 RETURNDATACOPY RETURNDATASIZE PUSH1 0x0 REVERT JUMPDEST POP POP POP POP PUSH1 0x40 MLOAD RETURNDATASIZE PUSH1 0x1F NOT PUSH1 0x1F DUP3 ADD AND DUP3 ADD DUP1 PUSH1 0x40 MSTORE POP DUP2 ADD SWAP1 PUSH2 0x11D4 SWAP2 SWAP1 PUSH2 0x2ED5 JUMP JUMPDEST SWAP1 POP JUMPDEST SWAP5 SWAP4 POP POP POP POP JUMP JUMPDEST PUSH1 0x7A SLOAD PUSH1 0x0 JUMPDEST DUP2 DUP2 LT ISZERO PUSH2 0x1245 JUMPI PUSH1 0x78 PUSH1 0x7A DUP3 DUP2 SLOAD DUP2 LT PUSH2 0x1202 JUMPI PUSH2 0x1202 PUSH2 0x2DE0 JUMP JUMPDEST SWAP1 PUSH1 0x0 MSTORE PUSH1 0x20 PUSH1 0x0 KECCAK256 ADD PUSH1 0x40 MLOAD PUSH2 0x1219 SWAP2 SWAP1 PUSH2 0x2F03 JUMP JUMPDEST SWAP1 DUP2 MSTORE PUSH1 0x20 ADD PUSH1 0x40 MLOAD DUP1 SWAP2 SUB SWAP1 KECCAK256 PUSH1 0x0 PUSH2 0x1233 SWAP2 SWAP1 PUSH2 0x2289 JUMP JUMPDEST DUP1 PUSH2 0x123D DUP2 PUSH2 0x2F75 JUMP JUMPDEST SWAP2 POP POP PUSH2 0x11E5 JUMP JUMPDEST POP PUSH2 0x124E PUSH2 0x1A04 JUMP JUMPDEST PUSH1 0x40 MLOAD PUSH32 0x84B7226822737D667AA57D064CEFFA18DBF761C762C54D5B119BFBC3275BF18A SWAP1 PUSH1 0x0 SWAP1 LOG1 POP JUMP JUMPDEST PUSH1 0x60 PUSH1 0x78 DUP4 DUP4 PUSH1 0x40 MLOAD PUSH2 0x128E SWAP3 SWAP2 SWAP1 PUSH2 0x2F90 JUMP JUMPDEST SWAP1 DUP2 MSTORE PUSH1 0x20 ADD PUSH1 0x40 MLOAD DUP1 SWAP2 SUB SWAP1 KECCAK256 DUP1 SLOAD DUP1 PUSH1 0x20 MUL PUSH1 0x20 ADD PUSH1 0x40 MLOAD SWAP1 DUP2 ADD PUSH1 0x40 MSTORE DUP1 SWAP3 SWAP2 SWAP1 DUP2 DUP2 MSTORE PUSH1 0x20 ADD PUSH1 0x0 SWAP1 JUMPDEST DUP3 DUP3 LT ISZERO PUSH2 0x1368 JUMPI DUP4 DUP3 SWAP1 PUSH1 0x0 MSTORE PUSH1 0x20 PUSH1 0x0 KECCAK256 ADD DUP1 SLOAD PUSH2 0x12DB SWAP1 PUSH2 0x2C03 JUMP JUMPDEST DUP1 PUSH1 0x1F ADD PUSH1 0x20 DUP1 SWAP2 DIV MUL PUSH1 0x20 ADD PUSH1 0x40 MLOAD SWAP1 DUP2 ADD PUSH1 0x40 MSTORE DUP1 SWAP3 SWAP2 SWAP1 DUP2 DUP2 MSTORE PUSH1 0x20 ADD DUP3 DUP1 SLOAD PUSH2 0x1307 SWAP1 PUSH2 0x2C03 JUMP JUMPDEST DUP1 ISZERO PUSH2 0x1354 JUMPI DUP1 PUSH1 0x1F LT PUSH2 0x1329 JUMPI PUSH2 0x100 DUP1 DUP4 SLOAD DIV MUL DUP4 MSTORE SWAP2 PUSH1 0x20 ADD SWAP2 PUSH2 0x1354 JUMP JUMPDEST DUP3 ADD SWAP2 SWAP1 PUSH1 0x0 MSTORE PUSH1 0x20 PUSH1 0x0 KECCAK256 SWAP1 JUMPDEST DUP2 SLOAD DUP2 MSTORE SWAP1 PUSH1 0x1 ADD SWAP1 PUSH1 0x20 ADD DUP1 DUP4 GT PUSH2 0x1337 JUMPI DUP3 SWAP1 SUB PUSH1 0x1F AND DUP3 ADD SWAP2 JUMPDEST POP POP POP POP POP DUP2 MSTORE PUSH1 0x20 ADD SWAP1 PUSH1 0x1 ADD SWAP1 PUSH2 0x12BC JUMP JUMPDEST POP POP POP POP SWAP1 POP SWAP3 SWAP2 POP POP JUMP JUMPDEST PUSH1 0x6 DUP2 DUP2 SLOAD DUP2 LT PUSH2 0x1384 JUMPI PUSH1 0x0 DUP1 REVERT JUMPDEST PUSH1 0x0 SWAP2 DUP3 MSTORE PUSH1 0x20 SWAP1 SWAP2 KECCAK256 ADD SLOAD SWAP1 POP DUP2 JUMP JUMPDEST PUSH1 0x5 DUP2 DUP2 SLOAD DUP2 LT PUSH2 0x1384 JUMPI PUSH1 0x0 DUP1 REVERT JUMPDEST PUSH2 0x13AD PUSH2 0x1BB8 JUMP JUMPDEST PUSH2 0x102E DUP2 PUSH2 0x1C0D JUMP JUMPDEST PUSH1 0x60 PUSH2 0x13F2 PUSH1 0x40 DUP1 MLOAD PUSH1 0xC0 DUP2 ADD SWAP1 SWAP2 MSTORE DUP1 PUSH1 0x0 DUP2 MSTORE PUSH1 0x20 ADD PUSH1 0x0 DUP2 MSTORE PUSH1 0x20 ADD PUSH1 0x0 DUP2 MSTORE PUSH1 0x20 ADD PUSH1 0x60 DUP2 MSTORE PUSH1 0x20 ADD PUSH1 0x60 DUP2 MSTORE PUSH1 0x20 ADD PUSH1 0x60 DUP2 MSTORE POP SWAP1 JUMP JUMPDEST PUSH2 0x1439 PUSH1 0x0 DUP1 DUP11 DUP11 DUP1 DUP1 PUSH1 0x1F ADD PUSH1 0x20 DUP1 SWAP2 DIV MUL PUSH1 0x20 ADD PUSH1 0x40 MLOAD SWAP1 DUP2 ADD PUSH1 0x40 MSTORE DUP1 SWAP4 SWAP3 SWAP2 SWAP1 DUP2 DUP2 MSTORE PUSH1 0x20 ADD DUP4 DUP4 DUP1 DUP3 DUP5 CALLDATACOPY PUSH1 0x0 SWAP3 ADD SWAP2 SWAP1 SWAP2 MSTORE POP DUP8 SWAP6 SWAP5 SWAP4 SWAP3 POP POP PUSH2 0x1CB8 SWAP1 POP JUMP JUMPDEST DUP5 ISZERO PUSH2 0x1481 JUMPI PUSH2 0x1481 DUP7 DUP7 DUP1 DUP1 PUSH1 0x1F ADD PUSH1 0x20 DUP1 SWAP2 DIV MUL PUSH1 0x20 ADD PUSH1 0x40 MLOAD SWAP1 DUP2 ADD PUSH1 0x40 MSTORE DUP1 SWAP4 SWAP3 SWAP2 SWAP1 DUP2 DUP2 MSTORE PUSH1 0x20 ADD DUP4 DUP4 DUP1 DUP3 DUP5 CALLDATACOPY PUSH1 0x0 SWAP3 ADD SWAP2 SWAP1 SWAP2 MSTORE POP DUP6 SWAP4 SWAP3 POP POP PUSH2 0x1D33 SWAP1 POP JUMP JUMPDEST DUP3 ISZERO PUSH2 0x149B JUMPI PUSH2 0x149B PUSH2 0x1494 DUP5 DUP7 PUSH2 0x2FA0 JUMP JUMPDEST DUP3 SWAP1 PUSH2 0x1D61 JUMP JUMPDEST PUSH2 0x14A4 DUP2 PUSH2 0x17E8 JUMP JUMPDEST SWAP9 SWAP8 POP POP POP POP POP POP POP POP JUMP JUMPDEST PUSH1 0x74 DUP1 SLOAD PUSH2 0xAE8 SWAP1 PUSH2 0x2C03 JUMP JUMPDEST DUP2 MLOAD PUSH2 0x14D0 SWAP1 PUSH1 0x73 SWAP1 PUSH1 0x20 DUP6 ADD SWAP1 PUSH2 0x2205 JUMP JUMPDEST POP DUP1 MLOAD PUSH2 0x14E4 SWAP1 PUSH1 0x74 SWAP1 PUSH1 0x20 DUP5 ADD SWAP1 PUSH2 0x2205 JUMP JUMPDEST POP DUP3 PUSH32 0x7BAB0EC163B5C132C72B8146AC4D6E067E82ED58F8B131150AA71C9258911562 DUP4 DUP4 PUSH1 0x40 MLOAD PUSH2 0x1517 SWAP3 SWAP2 SWAP1 PUSH2 0x2FAD JUMP JUMPDEST PUSH1 0x40 MLOAD DUP1 SWAP2 SUB SWAP1 LOG2 PUSH2 0x1527 PUSH2 0x11DF JUMP JUMPDEST POP POP POP JUMP JUMPDEST PUSH1 0x2 PUSH1 0x6C SLOAD EQ ISZERO PUSH2 0x157F JUMPI PUSH1 0x40 MLOAD PUSH3 0x461BCD PUSH1 0xE5 SHL DUP2 MSTORE PUSH1 0x20 PUSH1 0x4 DUP3 ADD MSTORE PUSH1 0x1F PUSH1 0x24 DUP3 ADD MSTORE PUSH32 0x5265656E7472616E637947756172643A207265656E7472616E742063616C6C00 PUSH1 0x44 DUP3 ADD MSTORE PUSH1 0x64 ADD PUSH2 0x7A4 JUMP JUMPDEST PUSH1 0x2 PUSH1 0x6C SSTORE JUMP JUMPDEST PUSH1 0x7 SLOAD PUSH1 0x0 SWAP1 PUSH5 0x100000000 SWAP1 DIV PUSH4 0xFFFFFFFF AND PUSH2 0x15C5 PUSH32 0x0 PUSH1 0x2 PUSH2 0x30B6 JUMP JUMPDEST DUP2 PUSH4 0xFFFFFFFF AND LT PUSH2 0x1632 JUMPI PUSH1 0x40 MLOAD PUSH4 0xD7E8473F PUSH1 0xE0 SHL DUP2 MSTORE PUSH1 0x20 PUSH1 0x4 DUP3 ADD MSTORE PUSH1 0x2F PUSH1 0x24 DUP3 ADD MSTORE PUSH32 0x4D65726B6C6520747265652069732066756C6C2E204E6F206D6F7265206C6561 PUSH1 0x44 DUP3 ADD MSTORE PUSH15 0x199CC818D85B881899481859191959 PUSH1 0x8A SHL PUSH1 0x64 DUP3 ADD MSTORE PUSH1 0x84 ADD PUSH2 0x7A4 JUMP JUMPDEST PUSH1 0x1 PUSH1 0x7 PUSH1 0x4 DUP3 DUP3 DUP3 SWAP1 SLOAD SWAP1 PUSH2 0x100 EXP SWAP1 DIV PUSH4 0xFFFFFFFF AND PUSH2 0x1654 SWAP2 SWAP1 PUSH2 0x30C8 JUMP JUMPDEST SWAP3 POP PUSH2 0x100 EXP DUP2 SLOAD DUP2 PUSH4 0xFFFFFFFF MUL NOT AND SWAP1 DUP4 PUSH4 0xFFFFFFFF AND MUL OR SWAP1 SSTORE POP PUSH1 0x0 DUP4 SWAP1 POP PUSH1 0x0 DUP1 PUSH1 0x0 JUMPDEST PUSH32 0x0 PUSH4 0xFFFFFFFF AND DUP2 PUSH4 0xFFFFFFFF AND LT ISZERO PUSH2 0x176F JUMPI PUSH2 0x16BC PUSH1 0x2 DUP7 PUSH2 0x3106 JUMP JUMPDEST PUSH4 0xFFFFFFFF AND PUSH2 0x171A JUMPI DUP4 SWAP3 POP PUSH1 0x6 DUP2 PUSH4 0xFFFFFFFF AND DUP2 SLOAD DUP2 LT PUSH2 0x16E2 JUMPI PUSH2 0x16E2 PUSH2 0x2DE0 JUMP JUMPDEST SWAP1 PUSH1 0x0 MSTORE PUSH1 0x20 PUSH1 0x0 KECCAK256 ADD SLOAD SWAP2 POP DUP4 PUSH1 0x5 DUP3 PUSH4 0xFFFFFFFF AND DUP2 SLOAD DUP2 LT PUSH2 0x1709 JUMPI PUSH2 0x1709 PUSH2 0x2DE0 JUMP JUMPDEST PUSH1 0x0 SWAP2 DUP3 MSTORE PUSH1 0x20 SWAP1 SWAP2 KECCAK256 ADD SSTORE PUSH2 0x1744 JUMP JUMPDEST PUSH1 0x5 DUP2 PUSH4 0xFFFFFFFF AND DUP2 SLOAD DUP2 LT PUSH2 0x1733 JUMPI PUSH2 0x1733 PUSH2 0x2DE0 JUMP JUMPDEST SWAP1 PUSH1 0x0 MSTORE PUSH1 0x20 PUSH1 0x0 KECCAK256 ADD SLOAD SWAP3 POP DUP4 SWAP2 POP JUMPDEST PUSH2 0x174E DUP4 DUP4 PUSH2 0x737 JUMP JUMPDEST SWAP4 POP PUSH2 0x175B PUSH1 0x2 DUP7 PUSH2 0x3129 JUMP JUMPDEST SWAP5 POP DUP1 PUSH2 0x1767 DUP2 PUSH2 0x314C JUMP JUMPDEST SWAP2 POP POP PUSH2 0x167D JUMP JUMPDEST POP PUSH1 0x7 SLOAD PUSH1 0x64 SWAP1 PUSH2 0x1787 SWAP1 PUSH4 0xFFFFFFFF AND PUSH1 0x1 PUSH2 0x30C8 JUMP JUMPDEST PUSH2 0x1791 SWAP2 SWAP1 PUSH2 0x3106 JUMP JUMPDEST PUSH1 0x7 DUP1 SLOAD PUSH4 0xFFFFFFFF NOT AND PUSH4 0xFFFFFFFF SWAP3 SWAP1 SWAP3 AND SWAP2 DUP3 OR SWAP1 SSTORE DUP4 SWAP1 PUSH1 0x8 SWAP1 PUSH1 0x64 DUP2 LT PUSH2 0x17BF JUMPI PUSH2 0x17BF PUSH2 0x2DE0 JUMP JUMPDEST ADD SSTORE PUSH1 0x7 SLOAD PUSH2 0x17DE SWAP1 PUSH1 0x1 SWAP1 PUSH5 0x100000000 SWAP1 DIV PUSH4 0xFFFFFFFF AND PUSH2 0x3170 JUMP JUMPDEST SWAP7 SWAP6 POP POP POP POP POP POP JUMP JUMPDEST PUSH1 0x60 PUSH2 0x1807 PUSH1 0x40 MLOAD DUP1 PUSH1 0x40 ADD PUSH1 0x40 MSTORE DUP1 PUSH1 0x60 DUP2 MSTORE PUSH1 0x20 ADD PUSH1 0x0 DUP2 MSTORE POP SWAP1 JUMP JUMPDEST PUSH2 0x1813 DUP2 PUSH2 0x100 PUSH2 0x1D88 JUMP JUMPDEST POP PUSH1 0x40 DUP1 MLOAD DUP1 DUP3 ADD SWAP1 SWAP2 MSTORE PUSH1 0xC DUP2 MSTORE PUSH12 0x31B7B232A637B1B0BA34B7B7 PUSH1 0xA1 SHL PUSH1 0x20 DUP3 ADD MSTORE PUSH2 0x1842 SWAP1 DUP3 SWAP1 PUSH2 0x1DED JUMP JUMPDEST DUP3 MLOAD PUSH2 0x1860 SWAP1 PUSH1 0x1 DUP2 GT ISZERO PUSH2 0x1859 JUMPI PUSH2 0x1859 PUSH2 0x3195 JUMP JUMPDEST DUP3 SWAP1 PUSH2 0x1E04 JUMP JUMPDEST PUSH1 0x40 DUP1 MLOAD DUP1 DUP3 ADD SWAP1 SWAP2 MSTORE PUSH1 0x8 DUP2 MSTORE PUSH8 0x6C616E6775616765 PUSH1 0xC0 SHL PUSH1 0x20 DUP3 ADD MSTORE PUSH2 0x188A SWAP1 DUP3 SWAP1 PUSH2 0x1DED JUMP JUMPDEST PUSH1 0x40 DUP4 ADD MLOAD PUSH2 0x18A1 SWAP1 DUP1 ISZERO PUSH2 0x1859 JUMPI PUSH2 0x1859 PUSH2 0x3195 JUMP JUMPDEST PUSH1 0x40 DUP1 MLOAD DUP1 DUP3 ADD SWAP1 SWAP2 MSTORE PUSH1 0x6 DUP2 MSTORE PUSH6 0x736F75726365 PUSH1 0xD0 SHL PUSH1 0x20 DUP3 ADD MSTORE PUSH2 0x18C9 SWAP1 DUP3 SWAP1 PUSH2 0x1DED JUMP JUMPDEST PUSH1 0x60 DUP4 ADD MLOAD PUSH2 0x18D9 SWAP1 DUP3 SWAP1 PUSH2 0x1DED JUMP JUMPDEST PUSH1 0xA0 DUP4 ADD MLOAD MLOAD ISZERO PUSH2 0x196F JUMPI PUSH1 0x40 DUP1 MLOAD DUP1 DUP3 ADD SWAP1 SWAP2 MSTORE PUSH1 0x4 DUP2 MSTORE PUSH4 0x61726773 PUSH1 0xE0 SHL PUSH1 0x20 DUP3 ADD MSTORE PUSH2 0x190A SWAP1 DUP3 SWAP1 PUSH2 0x1DED JUMP JUMPDEST PUSH2 0x1913 DUP2 PUSH2 0x1E29 JUMP JUMPDEST PUSH1 0x0 JUMPDEST DUP4 PUSH1 0xA0 ADD MLOAD MLOAD DUP2 LT ISZERO PUSH2 0x1965 JUMPI PUSH2 0x1953 DUP5 PUSH1 0xA0 ADD MLOAD DUP3 DUP2 MLOAD DUP2 LT PUSH2 0x193C JUMPI PUSH2 0x193C PUSH2 0x2DE0 JUMP JUMPDEST PUSH1 0x20 MUL PUSH1 0x20 ADD ADD MLOAD DUP4 PUSH2 0x1DED SWAP1 SWAP2 SWAP1 PUSH4 0xFFFFFFFF AND JUMP JUMPDEST DUP1 PUSH2 0x195D DUP2 PUSH2 0x2F75 JUMP JUMPDEST SWAP2 POP POP PUSH2 0x1916 JUMP JUMPDEST POP PUSH2 0x196F DUP2 PUSH2 0x1E34 JUMP JUMPDEST PUSH1 0x80 DUP4 ADD MLOAD MLOAD ISZERO PUSH2 0x19FD JUMPI PUSH1 0x40 DUP1 MLOAD DUP1 DUP3 ADD SWAP1 SWAP2 MSTORE PUSH1 0xF DUP2 MSTORE PUSH15 0x39B2B1B932BA39A637B1B0BA34B7B7 PUSH1 0x89 SHL PUSH1 0x20 DUP3 ADD MSTORE PUSH2 0x19AB SWAP1 DUP3 SWAP1 PUSH2 0x1DED JUMP JUMPDEST PUSH2 0x19C4 DUP4 PUSH1 0x20 ADD MLOAD PUSH1 0x1 DUP2 GT ISZERO PUSH2 0x1859 JUMPI PUSH2 0x1859 PUSH2 0x3195 JUMP JUMPDEST PUSH1 0x40 DUP1 MLOAD DUP1 DUP3 ADD SWAP1 SWAP2 MSTORE PUSH1 0x7 DUP2 MSTORE PUSH7 0x73656372657473 PUSH1 0xC8 SHL PUSH1 0x20 DUP3 ADD MSTORE PUSH2 0x19ED SWAP1 DUP3 SWAP1 PUSH2 0x1DED JUMP JUMPDEST PUSH1 0x80 DUP4 ADD MLOAD PUSH2 0x19FD SWAP1 DUP3 SWAP1 PUSH2 0x1E3F JUMP JUMPDEST MLOAD SWAP3 SWAP2 POP POP JUMP JUMPDEST PUSH2 0x1A10 PUSH1 0x5 PUSH1 0x0 PUSH2 0x22A7 JUMP JUMPDEST PUSH2 0x1A1C PUSH1 0x6 PUSH1 0x0 PUSH2 0x22A7 JUMP JUMPDEST PUSH1 0x40 DUP1 MLOAD PUSH1 0x0 DUP2 MSTORE PUSH1 0x20 DUP2 ADD SWAP2 DUP3 SWAP1 MSTORE MLOAD PUSH2 0x1A39 SWAP2 PUSH1 0x5 SWAP2 PUSH2 0x22C5 JUMP JUMPDEST POP PUSH1 0x40 DUP1 MLOAD PUSH1 0x0 DUP2 MSTORE PUSH1 0x20 DUP2 ADD SWAP2 DUP3 SWAP1 MSTORE MLOAD PUSH2 0x1A57 SWAP2 PUSH1 0x6 SWAP2 PUSH2 0x22C5 JUMP JUMPDEST POP PUSH1 0x7 DUP1 SLOAD PUSH8 0xFFFFFFFFFFFFFFFF NOT AND SWAP1 SSTORE PUSH1 0x6 DUP1 SLOAD PUSH1 0x1 DUP2 DUP2 ADD SWAP1 SWAP3 SSTORE PUSH32 0x2FE54C60D3ACABF3343A35B6EBA15DB4821B340F76E741E2249685ED4899AF6C PUSH32 0xF652222313E28459528D920B65115C16C04F3EFC82AAEDC97BE59F3F377C0D3F SWAP1 SWAP2 ADD DUP2 SWAP1 SSTORE PUSH1 0x5 DUP1 SLOAD DUP1 DUP5 ADD DUP3 SSTORE PUSH1 0x0 SWAP2 SWAP1 SWAP2 MSTORE PUSH32 0x36B6384B5ECA791C62761152D0C79BB0604C104A5FB6F4EB0703F3154BB3DB0 ADD DUP2 SWAP1 SSTORE SWAP1 JUMPDEST PUSH32 0x0 PUSH4 0xFFFFFFFF AND DUP2 PUSH4 0xFFFFFFFF AND LT ISZERO PUSH2 0x1BA7 JUMPI PUSH2 0x1B31 DUP3 DUP4 PUSH2 0x737 JUMP JUMPDEST PUSH1 0x6 DUP1 SLOAD PUSH1 0x1 DUP2 DUP2 ADD SWAP1 SWAP3 SSTORE PUSH32 0xF652222313E28459528D920B65115C16C04F3EFC82AAEDC97BE59F3F377C0D3F ADD DUP3 SWAP1 SSTORE PUSH1 0x5 DUP1 SLOAD SWAP2 DUP3 ADD DUP2 SSTORE PUSH1 0x0 MSTORE PUSH32 0x36B6384B5ECA791C62761152D0C79BB0604C104A5FB6F4EB0703F3154BB3DB0 ADD DUP2 SWAP1 SSTORE SWAP2 POP DUP1 PUSH2 0x1B9F DUP2 PUSH2 0x314C JUMP JUMPDEST SWAP2 POP POP PUSH2 0x1AF3 JUMP JUMPDEST POP PUSH2 0x1BB2 DUP2 DUP3 PUSH2 0x737 JUMP JUMPDEST PUSH1 0x8 SSTORE POP JUMP JUMPDEST PUSH1 0x2 SLOAD PUSH1 0x1 PUSH1 0x1 PUSH1 0xA0 SHL SUB AND CALLER EQ PUSH2 0x1C0B JUMPI PUSH1 0x40 MLOAD PUSH3 0x461BCD PUSH1 0xE5 SHL DUP2 MSTORE PUSH1 0x20 PUSH1 0x4 DUP3 ADD MSTORE PUSH1 0x16 PUSH1 0x24 DUP3 ADD MSTORE PUSH22 0x27B7363C9031B0B63630B1363290313C9037BBB732B9 PUSH1 0x51 SHL PUSH1 0x44 DUP3 ADD MSTORE PUSH1 0x64 ADD PUSH2 0x7A4 JUMP JUMPDEST JUMP JUMPDEST PUSH1 0x1 PUSH1 0x1 PUSH1 0xA0 SHL SUB DUP2 AND CALLER EQ ISZERO PUSH2 0x1C66 JUMPI PUSH1 0x40 MLOAD PUSH3 0x461BCD PUSH1 0xE5 SHL DUP2 MSTORE PUSH1 0x20 PUSH1 0x4 DUP3 ADD MSTORE PUSH1 0x17 PUSH1 0x24 DUP3 ADD MSTORE PUSH32 0x43616E6E6F74207472616E7366657220746F2073656C66000000000000000000 PUSH1 0x44 DUP3 ADD MSTORE PUSH1 0x64 ADD PUSH2 0x7A4 JUMP JUMPDEST PUSH1 0x3 DUP1 SLOAD PUSH1 0x1 PUSH1 0x1 PUSH1 0xA0 SHL SUB NOT AND PUSH1 0x1 PUSH1 0x1 PUSH1 0xA0 SHL SUB DUP4 DUP2 AND SWAP2 DUP3 OR SWAP1 SWAP3 SSTORE PUSH1 0x2 SLOAD PUSH1 0x40 MLOAD SWAP2 SWAP3 AND SWAP1 PUSH32 0xED8889F560326EB138920D842192F0EB3DD22B4F139C87A2C57538E05BAE1278 SWAP1 PUSH1 0x0 SWAP1 LOG3 POP JUMP JUMPDEST DUP1 MLOAD PUSH2 0x1CD7 JUMPI PUSH1 0x40 MLOAD PUSH4 0x22CE3EDD PUSH1 0xE0 SHL DUP2 MSTORE PUSH1 0x4 ADD PUSH1 0x40 MLOAD DUP1 SWAP2 SUB SWAP1 REVERT JUMPDEST DUP4 DUP4 PUSH1 0x1 DUP2 GT ISZERO PUSH2 0x1CEA JUMPI PUSH2 0x1CEA PUSH2 0x3195 JUMP JUMPDEST SWAP1 DUP2 PUSH1 0x1 DUP2 GT ISZERO PUSH2 0x1CFD JUMPI PUSH2 0x1CFD PUSH2 0x3195 JUMP JUMPDEST SWAP1 MSTORE POP PUSH1 0x40 DUP5 ADD DUP3 DUP1 ISZERO PUSH2 0x1D13 JUMPI PUSH2 0x1D13 PUSH2 0x3195 JUMP JUMPDEST SWAP1 DUP2 DUP1 ISZERO PUSH2 0x1D23 JUMPI PUSH2 0x1D23 PUSH2 0x3195 JUMP JUMPDEST SWAP1 MSTORE POP PUSH1 0x60 SWAP1 SWAP4 ADD SWAP3 SWAP1 SWAP3 MSTORE POP POP JUMP JUMPDEST DUP1 MLOAD PUSH2 0x1D52 JUMPI PUSH1 0x40 MLOAD PUSH4 0xE889636F PUSH1 0xE0 SHL DUP2 MSTORE PUSH1 0x4 ADD PUSH1 0x40 MLOAD DUP1 SWAP2 SUB SWAP1 REVERT JUMPDEST PUSH1 0x1 PUSH1 0x20 DUP4 ADD MSTORE PUSH1 0x80 SWAP1 SWAP2 ADD MSTORE JUMP JUMPDEST DUP1 MLOAD PUSH2 0x1D80 JUMPI PUSH1 0x40 MLOAD PUSH4 0xFE936CB7 PUSH1 0xE0 SHL DUP2 MSTORE PUSH1 0x4 ADD PUSH1 0x40 MLOAD DUP1 SWAP2 SUB SWAP1 REVERT JUMPDEST PUSH1 0xA0 SWAP1 SWAP2 ADD MSTORE JUMP JUMPDEST PUSH1 0x40 DUP1 MLOAD DUP1 DUP3 ADD SWAP1 SWAP2 MSTORE PUSH1 0x60 DUP2 MSTORE PUSH1 0x0 PUSH1 0x20 DUP3 ADD MSTORE PUSH2 0x1DA8 PUSH1 0x20 DUP4 PUSH2 0x31AB JUMP JUMPDEST ISZERO PUSH2 0x1DD0 JUMPI PUSH2 0x1DB8 PUSH1 0x20 DUP4 PUSH2 0x31AB JUMP JUMPDEST PUSH2 0x1DC3 SWAP1 PUSH1 0x20 PUSH2 0x2E16 JUMP JUMPDEST PUSH2 0x1DCD SWAP1 DUP4 PUSH2 0x2BEB JUMP JUMPDEST SWAP2 POP JUMPDEST POP PUSH1 0x20 DUP3 DUP2 ADD DUP3 SWAP1 MSTORE PUSH1 0x40 DUP1 MLOAD DUP1 DUP6 MSTORE PUSH1 0x0 DUP2 MSTORE SWAP1 SWAP3 ADD ADD SWAP1 MSTORE SWAP1 JUMP JUMPDEST PUSH2 0x1DFA DUP3 PUSH1 0x3 DUP4 MLOAD PUSH2 0x1E48 JUMP JUMPDEST PUSH2 0x1527 DUP3 DUP3 PUSH2 0x1F4F JUMP JUMPDEST PUSH1 0x1 PUSH1 0x1 PUSH1 0x40 SHL SUB DUP2 GT ISZERO PUSH2 0x1E1D JUMPI PUSH2 0x733 DUP3 DUP3 PUSH2 0x1F7D JUMP JUMPDEST PUSH2 0x733 DUP3 PUSH1 0x0 DUP4 PUSH2 0x1E48 JUMP JUMPDEST PUSH2 0x102E DUP2 PUSH1 0x4 PUSH2 0x1FB4 JUMP JUMPDEST PUSH2 0x102E DUP2 PUSH1 0x7 PUSH2 0x1FB4 JUMP JUMPDEST PUSH2 0x1DFA DUP3 PUSH1 0x2 DUP4 MLOAD JUMPDEST PUSH1 0x17 DUP2 PUSH1 0x1 PUSH1 0x1 PUSH1 0x40 SHL SUB AND GT PUSH2 0x1E6C JUMPI PUSH2 0x6EA DUP4 PUSH1 0xE0 PUSH1 0x5 DUP6 SWAP1 SHL AND DUP4 OR PUSH2 0x1FC5 JUMP JUMPDEST PUSH1 0xFF DUP2 PUSH1 0x1 PUSH1 0x1 PUSH1 0x40 SHL SUB AND GT PUSH2 0x1EA8 JUMPI PUSH2 0x1E92 DUP4 PUSH1 0x18 PUSH2 0x1FE0 PUSH1 0x5 DUP7 SWAP1 SHL AND OR PUSH2 0x1FC5 JUMP JUMPDEST POP PUSH2 0x6EA DUP4 PUSH1 0x1 PUSH1 0x1 PUSH1 0x40 SHL SUB DUP4 AND PUSH1 0x1 PUSH2 0x1FEA JUMP JUMPDEST PUSH2 0xFFFF DUP2 PUSH1 0x1 PUSH1 0x1 PUSH1 0x40 SHL SUB AND GT PUSH2 0x1EE5 JUMPI PUSH2 0x1ECF DUP4 PUSH1 0x19 PUSH2 0x1FE0 PUSH1 0x5 DUP7 SWAP1 SHL AND OR PUSH2 0x1FC5 JUMP JUMPDEST POP PUSH2 0x6EA DUP4 PUSH1 0x1 PUSH1 0x1 PUSH1 0x40 SHL SUB DUP4 AND PUSH1 0x2 PUSH2 0x1FEA JUMP JUMPDEST PUSH4 0xFFFFFFFF DUP2 PUSH1 0x1 PUSH1 0x1 PUSH1 0x40 SHL SUB AND GT PUSH2 0x1F24 JUMPI PUSH2 0x1F0E DUP4 PUSH1 0x1A PUSH2 0x1FE0 PUSH1 0x5 DUP7 SWAP1 SHL AND OR PUSH2 0x1FC5 JUMP JUMPDEST POP PUSH2 0x6EA DUP4 PUSH1 0x1 PUSH1 0x1 PUSH1 0x40 SHL SUB DUP4 AND PUSH1 0x4 PUSH2 0x1FEA JUMP JUMPDEST PUSH2 0x1F39 DUP4 PUSH1 0x1B PUSH2 0x1FE0 PUSH1 0x5 DUP7 SWAP1 SHL AND OR PUSH2 0x1FC5 JUMP JUMPDEST POP PUSH2 0x6EA DUP4 PUSH1 0x1 PUSH1 0x1 PUSH1 0x40 SHL SUB DUP4 AND PUSH1 0x8 PUSH2 0x1FEA JUMP JUMPDEST PUSH1 0x40 DUP1 MLOAD DUP1 DUP3 ADD SWAP1 SWAP2 MSTORE PUSH1 0x60 DUP2 MSTORE PUSH1 0x0 PUSH1 0x20 DUP3 ADD MSTORE PUSH2 0x1F76 DUP4 DUP5 PUSH1 0x0 ADD MLOAD MLOAD DUP5 DUP6 MLOAD PUSH2 0x2010 JUMP JUMPDEST SWAP4 SWAP3 POP POP POP JUMP JUMPDEST PUSH2 0x1F88 DUP3 PUSH1 0xC2 PUSH2 0x1FC5 JUMP JUMPDEST POP PUSH2 0x733 DUP3 DUP3 PUSH1 0x40 MLOAD PUSH1 0x20 ADD PUSH2 0x1FA0 SWAP2 DUP2 MSTORE PUSH1 0x20 ADD SWAP1 JUMP JUMPDEST PUSH1 0x40 MLOAD PUSH1 0x20 DUP2 DUP4 SUB SUB DUP2 MSTORE SWAP1 PUSH1 0x40 MSTORE PUSH2 0x1E3F JUMP JUMPDEST PUSH2 0x1527 DUP3 PUSH1 0x1F PUSH2 0x1FE0 PUSH1 0x5 DUP6 SWAP1 SHL AND OR JUMPDEST PUSH1 0x40 DUP1 MLOAD DUP1 DUP3 ADD SWAP1 SWAP2 MSTORE PUSH1 0x60 DUP2 MSTORE PUSH1 0x0 PUSH1 0x20 DUP3 ADD MSTORE PUSH2 0x1F76 DUP4 DUP5 PUSH1 0x0 ADD MLOAD MLOAD DUP5 PUSH2 0x20FA JUMP JUMPDEST PUSH1 0x40 DUP1 MLOAD DUP1 DUP3 ADD SWAP1 SWAP2 MSTORE PUSH1 0x60 DUP2 MSTORE PUSH1 0x0 PUSH1 0x20 DUP3 ADD MSTORE PUSH2 0x11D7 DUP5 DUP6 PUSH1 0x0 ADD MLOAD MLOAD DUP6 DUP6 PUSH2 0x2156 JUMP JUMPDEST PUSH1 0x40 DUP1 MLOAD DUP1 DUP3 ADD SWAP1 SWAP2 MSTORE PUSH1 0x60 DUP2 MSTORE PUSH1 0x0 PUSH1 0x20 DUP3 ADD MSTORE DUP3 MLOAD DUP3 GT ISZERO PUSH2 0x2033 JUMPI PUSH1 0x0 DUP1 REVERT JUMPDEST PUSH1 0x20 DUP6 ADD MLOAD PUSH2 0x2042 DUP4 DUP7 PUSH2 0x2BEB JUMP JUMPDEST GT ISZERO PUSH2 0x2075 JUMPI PUSH2 0x2075 DUP6 PUSH2 0x2065 DUP8 PUSH1 0x20 ADD MLOAD DUP8 DUP7 PUSH2 0x2060 SWAP2 SWAP1 PUSH2 0x2BEB JUMP JUMPDEST PUSH2 0x21D7 JUMP JUMPDEST PUSH2 0x2070 SWAP1 PUSH1 0x2 PUSH2 0x31BF JUMP JUMPDEST PUSH2 0x21EE JUMP JUMPDEST PUSH1 0x0 DUP1 DUP7 MLOAD DUP1 MLOAD DUP8 PUSH1 0x20 DUP4 ADD ADD SWAP4 POP DUP1 DUP9 DUP8 ADD GT ISZERO PUSH2 0x2094 JUMPI DUP8 DUP7 ADD DUP3 MSTORE JUMPDEST POP POP POP PUSH1 0x20 DUP5 ADD JUMPDEST PUSH1 0x20 DUP5 LT PUSH2 0x20D4 JUMPI DUP1 MLOAD DUP3 MSTORE PUSH2 0x20B3 PUSH1 0x20 DUP4 PUSH2 0x2BEB JUMP JUMPDEST SWAP2 POP PUSH2 0x20C0 PUSH1 0x20 DUP3 PUSH2 0x2BEB JUMP JUMPDEST SWAP1 POP PUSH2 0x20CD PUSH1 0x20 DUP6 PUSH2 0x2E16 JUMP JUMPDEST SWAP4 POP PUSH2 0x209C JUMP JUMPDEST MLOAD DUP2 MLOAD PUSH1 0x0 NOT PUSH1 0x20 DUP7 SWAP1 SUB PUSH2 0x100 EXP ADD SWAP1 DUP2 AND SWAP1 NOT SWAP2 SWAP1 SWAP2 AND OR SWAP1 MSTORE POP DUP4 SWAP5 SWAP4 POP POP POP POP JUMP JUMPDEST PUSH1 0x40 DUP1 MLOAD DUP1 DUP3 ADD SWAP1 SWAP2 MSTORE PUSH1 0x60 DUP2 MSTORE PUSH1 0x0 PUSH1 0x20 DUP3 ADD MSTORE DUP4 PUSH1 0x20 ADD MLOAD DUP4 LT PUSH2 0x212F JUMPI PUSH2 0x212F DUP5 DUP6 PUSH1 0x20 ADD MLOAD PUSH1 0x2 PUSH2 0x2070 SWAP2 SWAP1 PUSH2 0x31BF JUMP JUMPDEST DUP4 MLOAD DUP1 MLOAD PUSH1 0x20 DUP6 DUP4 ADD ADD DUP5 DUP2 MSTORE8 POP DUP1 DUP6 EQ ISZERO PUSH2 0x214C JUMPI PUSH1 0x1 DUP2 ADD DUP3 MSTORE JUMPDEST POP SWAP4 SWAP5 SWAP4 POP POP POP POP JUMP JUMPDEST PUSH1 0x40 DUP1 MLOAD DUP1 DUP3 ADD SWAP1 SWAP2 MSTORE PUSH1 0x60 DUP2 MSTORE PUSH1 0x0 PUSH1 0x20 DUP3 ADD MSTORE PUSH1 0x20 DUP6 ADD MLOAD PUSH2 0x217A DUP6 DUP5 PUSH2 0x2BEB JUMP JUMPDEST GT ISZERO PUSH2 0x218E JUMPI PUSH2 0x218E DUP6 PUSH2 0x2065 DUP7 DUP6 PUSH2 0x2BEB JUMP JUMPDEST PUSH1 0x0 PUSH1 0x1 PUSH2 0x219E DUP5 PUSH2 0x100 PUSH2 0x31DE JUMP JUMPDEST PUSH2 0x21A8 SWAP2 SWAP1 PUSH2 0x2E16 JUMP JUMPDEST SWAP1 POP DUP6 MLOAD DUP4 DUP7 DUP3 ADD ADD DUP6 DUP4 NOT DUP3 MLOAD AND OR DUP2 MSTORE POP DUP1 MLOAD DUP5 DUP8 ADD GT ISZERO PUSH2 0x21CC JUMPI DUP4 DUP7 ADD DUP2 MSTORE JUMPDEST POP SWAP5 SWAP6 SWAP5 POP POP POP POP POP JUMP JUMPDEST PUSH1 0x0 DUP2 DUP4 GT ISZERO PUSH2 0x21E8 JUMPI POP DUP2 PUSH2 0x8BB JUMP JUMPDEST POP SWAP2 SWAP1 POP JUMP JUMPDEST DUP2 MLOAD PUSH2 0x21FA DUP4 DUP4 PUSH2 0x1D88 JUMP JUMPDEST POP PUSH2 0x6EA DUP4 DUP3 PUSH2 0x1F4F JUMP JUMPDEST DUP3 DUP1 SLOAD PUSH2 0x2211 SWAP1 PUSH2 0x2C03 JUMP JUMPDEST SWAP1 PUSH1 0x0 MSTORE PUSH1 0x20 PUSH1 0x0 KECCAK256 SWAP1 PUSH1 0x1F ADD PUSH1 0x20 SWAP1 DIV DUP2 ADD SWAP3 DUP3 PUSH2 0x2233 JUMPI PUSH1 0x0 DUP6 SSTORE PUSH2 0x2279 JUMP JUMPDEST DUP3 PUSH1 0x1F LT PUSH2 0x224C JUMPI DUP1 MLOAD PUSH1 0xFF NOT AND DUP4 DUP1 ADD OR DUP6 SSTORE PUSH2 0x2279 JUMP JUMPDEST DUP3 DUP1 ADD PUSH1 0x1 ADD DUP6 SSTORE DUP3 ISZERO PUSH2 0x2279 JUMPI SWAP2 DUP3 ADD JUMPDEST DUP3 DUP2 GT ISZERO PUSH2 0x2279 JUMPI DUP3 MLOAD DUP3 SSTORE SWAP2 PUSH1 0x20 ADD SWAP2 SWAP1 PUSH1 0x1 ADD SWAP1 PUSH2 0x225E JUMP JUMPDEST POP PUSH2 0x2285 SWAP3 SWAP2 POP PUSH2 0x22FF JUMP JUMPDEST POP SWAP1 JUMP JUMPDEST POP DUP1 SLOAD PUSH1 0x0 DUP3 SSTORE SWAP1 PUSH1 0x0 MSTORE PUSH1 0x20 PUSH1 0x0 KECCAK256 SWAP1 DUP2 ADD SWAP1 PUSH2 0x102E SWAP2 SWAP1 PUSH2 0x2314 JUMP JUMPDEST POP DUP1 SLOAD PUSH1 0x0 DUP3 SSTORE SWAP1 PUSH1 0x0 MSTORE PUSH1 0x20 PUSH1 0x0 KECCAK256 SWAP1 DUP2 ADD SWAP1 PUSH2 0x102E SWAP2 SWAP1 PUSH2 0x22FF JUMP JUMPDEST DUP3 DUP1 SLOAD DUP3 DUP3 SSTORE SWAP1 PUSH1 0x0 MSTORE PUSH1 0x20 PUSH1 0x0 KECCAK256 SWAP1 DUP2 ADD SWAP3 DUP3 ISZERO PUSH2 0x2279 JUMPI SWAP2 PUSH1 0x20 MUL DUP3 ADD DUP3 DUP2 GT ISZERO PUSH2 0x2279 JUMPI DUP3 MLOAD DUP3 SSTORE SWAP2 PUSH1 0x20 ADD SWAP2 SWAP1 PUSH1 0x1 ADD SWAP1 PUSH2 0x225E JUMP JUMPDEST JUMPDEST DUP1 DUP3 GT ISZERO PUSH2 0x2285 JUMPI PUSH1 0x0 DUP2 SSTORE PUSH1 0x1 ADD PUSH2 0x2300 JUMP JUMPDEST DUP1 DUP3 GT ISZERO PUSH2 0x2285 JUMPI PUSH1 0x0 PUSH2 0x2328 DUP3 DUP3 PUSH2 0x2331 JUMP JUMPDEST POP PUSH1 0x1 ADD PUSH2 0x2314 JUMP JUMPDEST POP DUP1 SLOAD PUSH2 0x233D SWAP1 PUSH2 0x2C03 JUMP JUMPDEST PUSH1 0x0 DUP3 SSTORE DUP1 PUSH1 0x1F LT PUSH2 0x234D JUMPI POP POP JUMP JUMPDEST PUSH1 0x1F ADD PUSH1 0x20 SWAP1 DIV SWAP1 PUSH1 0x0 MSTORE PUSH1 0x20 PUSH1 0x0 KECCAK256 SWAP1 DUP2 ADD SWAP1 PUSH2 0x102E SWAP2 SWAP1 PUSH2 0x22FF JUMP JUMPDEST PUSH4 0x4E487B71 PUSH1 0xE0 SHL PUSH1 0x0 MSTORE PUSH1 0x41 PUSH1 0x4 MSTORE PUSH1 0x24 PUSH1 0x0 REVERT JUMPDEST PUSH1 0x40 MLOAD PUSH1 0x60 DUP2 ADD PUSH1 0x1 PUSH1 0x1 PUSH1 0x40 SHL SUB DUP2 GT DUP3 DUP3 LT OR ISZERO PUSH2 0x23A3 JUMPI PUSH2 0x23A3 PUSH2 0x236B JUMP JUMPDEST PUSH1 0x40 MSTORE SWAP1 JUMP JUMPDEST PUSH1 0x40 MLOAD PUSH1 0xC0 DUP2 ADD PUSH1 0x1 PUSH1 0x1 PUSH1 0x40 SHL SUB DUP2 GT DUP3 DUP3 LT OR ISZERO PUSH2 0x23A3 JUMPI PUSH2 0x23A3 PUSH2 0x236B JUMP JUMPDEST PUSH1 0x40 DUP1 MLOAD SWAP1 DUP2 ADD PUSH1 0x1 PUSH1 0x1 PUSH1 0x40 SHL SUB DUP2 GT DUP3 DUP3 LT OR ISZERO PUSH2 0x23A3 JUMPI PUSH2 0x23A3 PUSH2 0x236B JUMP JUMPDEST PUSH1 0x40 MLOAD PUSH1 0x1F DUP3 ADD PUSH1 0x1F NOT AND DUP2 ADD PUSH1 0x1 PUSH1 0x1 PUSH1 0x40 SHL SUB DUP2 GT DUP3 DUP3 LT OR ISZERO PUSH2 0x2415 JUMPI PUSH2 0x2415 PUSH2 0x236B JUMP JUMPDEST PUSH1 0x40 MSTORE SWAP2 SWAP1 POP JUMP JUMPDEST PUSH1 0x0 PUSH1 0x1 PUSH1 0x1 PUSH1 0x40 SHL SUB DUP3 GT ISZERO PUSH2 0x2436 JUMPI PUSH2 0x2436 PUSH2 0x236B JUMP JUMPDEST POP PUSH1 0x1F ADD PUSH1 0x1F NOT AND PUSH1 0x20 ADD SWAP1 JUMP JUMPDEST PUSH1 0x0 DUP3 PUSH1 0x1F DUP4 ADD SLT PUSH2 0x2455 JUMPI PUSH1 0x0 DUP1 REVERT JUMPDEST DUP2 CALLDATALOAD PUSH2 0x2468 PUSH2 0x2463 DUP3 PUSH2 0x241D JUMP JUMPDEST PUSH2 0x23ED JUMP JUMPDEST DUP2 DUP2 MSTORE DUP5 PUSH1 0x20 DUP4 DUP7 ADD ADD GT ISZERO PUSH2 0x247D JUMPI PUSH1 0x0 DUP1 REVERT JUMPDEST DUP2 PUSH1 0x20 DUP6 ADD PUSH1 0x20 DUP4 ADD CALLDATACOPY PUSH1 0x0 SWAP2 DUP2 ADD PUSH1 0x20 ADD SWAP2 SWAP1 SWAP2 MSTORE SWAP4 SWAP3 POP POP POP JUMP JUMPDEST PUSH1 0x0 DUP1 PUSH1 0x0 PUSH1 0x60 DUP5 DUP7 SUB SLT ISZERO PUSH2 0x24AF JUMPI PUSH1 0x0 DUP1 REVERT JUMPDEST DUP4 CALLDATALOAD SWAP3 POP PUSH1 0x20 DUP5 ADD CALLDATALOAD PUSH1 0x1 PUSH1 0x1 PUSH1 0x40 SHL SUB DUP1 DUP3 GT ISZERO PUSH2 0x24CD JUMPI PUSH1 0x0 DUP1 REVERT JUMPDEST PUSH2 0x24D9 DUP8 DUP4 DUP9 ADD PUSH2 0x2444 JUMP JUMPDEST SWAP4 POP PUSH1 0x40 DUP7 ADD CALLDATALOAD SWAP2 POP DUP1 DUP3 GT ISZERO PUSH2 0x24EF JUMPI PUSH1 0x0 DUP1 REVERT JUMPDEST POP PUSH2 0x24FC DUP7 DUP3 DUP8 ADD PUSH2 0x2444 JUMP JUMPDEST SWAP2 POP POP SWAP3 POP SWAP3 POP SWAP3 JUMP JUMPDEST PUSH1 0x0 PUSH1 0x20 DUP3 DUP5 SUB SLT ISZERO PUSH2 0x2518 JUMPI PUSH1 0x0 DUP1 REVERT JUMPDEST DUP2 CALLDATALOAD PUSH1 0x1 PUSH1 0x1 PUSH1 0x40 SHL SUB DUP2 GT ISZERO PUSH2 0x252E JUMPI PUSH1 0x0 DUP1 REVERT JUMPDEST PUSH2 0x8B7 DUP5 DUP3 DUP6 ADD PUSH2 0x2444 JUMP JUMPDEST PUSH1 0x0 PUSH1 0x20 DUP3 DUP5 SUB SLT ISZERO PUSH2 0x254C JUMPI PUSH1 0x0 DUP1 REVERT JUMPDEST POP CALLDATALOAD SWAP2 SWAP1 POP JUMP JUMPDEST PUSH1 0x0 DUP1 PUSH1 0x40 DUP4 DUP6 SUB SLT ISZERO PUSH2 0x2566 JUMPI PUSH1 0x0 DUP1 REVERT JUMPDEST POP POP DUP1 CALLDATALOAD SWAP3 PUSH1 0x20 SWAP1 SWAP2 ADD CALLDATALOAD SWAP2 POP JUMP JUMPDEST PUSH1 0x0 DUP1 DUP4 PUSH1 0x1F DUP5 ADD SLT PUSH2 0x2587 JUMPI PUSH1 0x0 DUP1 REVERT JUMPDEST POP DUP2 CALLDATALOAD PUSH1 0x1 PUSH1 0x1 PUSH1 0x40 SHL SUB DUP2 GT ISZERO PUSH2 0x259E JUMPI PUSH1 0x0 DUP1 REVERT JUMPDEST PUSH1 0x20 DUP4 ADD SWAP2 POP DUP4 PUSH1 0x20 DUP3 DUP6 ADD ADD GT ISZERO PUSH2 0x25B6 JUMPI PUSH1 0x0 DUP1 REVERT JUMPDEST SWAP3 POP SWAP3 SWAP1 POP JUMP JUMPDEST PUSH1 0x0 DUP1 PUSH1 0x20 DUP4 DUP6 SUB SLT ISZERO PUSH2 0x25D0 JUMPI PUSH1 0x0 DUP1 REVERT JUMPDEST DUP3 CALLDATALOAD PUSH1 0x1 PUSH1 0x1 PUSH1 0x40 SHL SUB DUP2 GT ISZERO PUSH2 0x25E6 JUMPI PUSH1 0x0 DUP1 REVERT JUMPDEST PUSH2 0x25F2 DUP6 DUP3 DUP7 ADD PUSH2 0x2575 JUMP JUMPDEST SWAP1 SWAP7 SWAP1 SWAP6 POP SWAP4 POP POP POP POP JUMP JUMPDEST PUSH1 0x0 JUMPDEST DUP4 DUP2 LT ISZERO PUSH2 0x2619 JUMPI DUP2 DUP2 ADD MLOAD DUP4 DUP3 ADD MSTORE PUSH1 0x20 ADD PUSH2 0x2601 JUMP JUMPDEST DUP4 DUP2 GT ISZERO PUSH2 0x6EA JUMPI POP POP PUSH1 0x0 SWAP2 ADD MSTORE JUMP JUMPDEST PUSH1 0x0 DUP2 MLOAD DUP1 DUP5 MSTORE PUSH2 0x2642 DUP2 PUSH1 0x20 DUP7 ADD PUSH1 0x20 DUP7 ADD PUSH2 0x25FE JUMP JUMPDEST PUSH1 0x1F ADD PUSH1 0x1F NOT AND SWAP3 SWAP1 SWAP3 ADD PUSH1 0x20 ADD SWAP3 SWAP2 POP POP JUMP JUMPDEST PUSH1 0x20 DUP2 MSTORE PUSH1 0x0 PUSH2 0x1F76 PUSH1 0x20 DUP4 ADD DUP5 PUSH2 0x262A JUMP JUMPDEST PUSH1 0x0 DUP3 PUSH1 0x1F DUP4 ADD SLT PUSH2 0x267A JUMPI PUSH1 0x0 DUP1 REVERT JUMPDEST PUSH2 0x2682 PUSH2 0x23CB JUMP JUMPDEST DUP1 PUSH1 0x40 DUP5 ADD DUP6 DUP2 GT ISZERO PUSH2 0x2694 JUMPI PUSH1 0x0 DUP1 REVERT JUMPDEST DUP5 JUMPDEST DUP2 DUP2 LT ISZERO PUSH2 0x26AE JUMPI DUP1 CALLDATALOAD DUP5 MSTORE PUSH1 0x20 SWAP4 DUP5 ADD SWAP4 ADD PUSH2 0x2696 JUMP JUMPDEST POP SWAP1 SWAP6 SWAP5 POP POP POP POP POP JUMP JUMPDEST PUSH1 0x0 DUP1 PUSH1 0x0 DUP1 PUSH1 0x0 DUP6 DUP8 SUB PUSH2 0x180 DUP2 SLT ISZERO PUSH2 0x26D3 JUMPI PUSH1 0x0 DUP1 REVERT JUMPDEST DUP7 CALLDATALOAD PUSH1 0x1 PUSH1 0x1 PUSH1 0x40 SHL SUB DUP1 DUP3 GT ISZERO PUSH2 0x26EA JUMPI PUSH1 0x0 DUP1 REVERT JUMPDEST PUSH2 0x26F6 DUP11 DUP4 DUP12 ADD PUSH2 0x2444 JUMP JUMPDEST SWAP8 POP PUSH1 0x20 SWAP2 POP DUP2 DUP10 ADD CALLDATALOAD DUP2 DUP2 GT ISZERO PUSH2 0x270D JUMPI PUSH1 0x0 DUP1 REVERT JUMPDEST PUSH2 0x2719 DUP12 DUP3 DUP13 ADD PUSH2 0x2444 JUMP JUMPDEST SWAP8 POP POP POP PUSH1 0x40 DUP9 DUP2 ADD CALLDATALOAD SWAP6 POP PUSH1 0x60 DUP10 ADD CALLDATALOAD SWAP5 POP PUSH2 0x100 PUSH1 0x7F NOT DUP5 ADD SLT ISZERO PUSH2 0x273F JUMPI PUSH1 0x0 DUP1 REVERT JUMPDEST PUSH2 0x2747 PUSH2 0x2381 JUMP JUMPDEST SWAP3 POP PUSH2 0x2756 DUP11 PUSH1 0x80 DUP12 ADD PUSH2 0x2669 JUMP JUMPDEST DUP4 MSTORE DUP10 PUSH1 0xDF DUP11 ADD SLT PUSH2 0x2767 JUMPI PUSH1 0x0 DUP1 REVERT JUMPDEST PUSH2 0x276F PUSH2 0x23CB JUMP JUMPDEST DUP1 PUSH2 0x140 DUP12 ADD DUP13 DUP2 GT ISZERO PUSH2 0x2782 JUMPI PUSH1 0x0 DUP1 REVERT JUMPDEST PUSH1 0xC0 DUP13 ADD JUMPDEST DUP2 DUP2 LT ISZERO PUSH2 0x27A6 JUMPI PUSH2 0x2799 DUP15 DUP3 PUSH2 0x2669 JUMP JUMPDEST DUP5 MSTORE SWAP3 DUP6 ADD SWAP3 DUP5 ADD PUSH2 0x2787 JUMP JUMPDEST POP DUP2 DUP6 DUP8 ADD MSTORE PUSH2 0x27B6 DUP14 DUP3 PUSH2 0x2669 JUMP JUMPDEST DUP5 DUP8 ADD MSTORE POP POP POP POP POP DUP1 SWAP2 POP POP SWAP3 SWAP6 POP SWAP3 SWAP6 SWAP1 SWAP4 POP JUMP JUMPDEST DUP3 ISZERO ISZERO DUP2 MSTORE PUSH1 0x40 PUSH1 0x20 DUP3 ADD MSTORE PUSH1 0x0 PUSH2 0x11D7 PUSH1 0x40 DUP4 ADD DUP5 PUSH2 0x262A JUMP JUMPDEST PUSH1 0x0 DUP1 PUSH1 0x40 DUP4 DUP6 SUB SLT ISZERO PUSH2 0x27FB JUMPI PUSH1 0x0 DUP1 REVERT JUMPDEST DUP3 CALLDATALOAD PUSH1 0x1 PUSH1 0x1 PUSH1 0x40 SHL SUB DUP2 GT ISZERO PUSH2 0x2811 JUMPI PUSH1 0x0 DUP1 REVERT JUMPDEST PUSH2 0x281D DUP6 DUP3 DUP7 ADD PUSH2 0x2444 JUMP JUMPDEST SWAP6 PUSH1 0x20 SWAP5 SWAP1 SWAP5 ADD CALLDATALOAD SWAP5 POP POP POP POP JUMP JUMPDEST DUP1 CALLDATALOAD PUSH1 0x2 DUP2 LT PUSH2 0x283B JUMPI PUSH1 0x0 DUP1 REVERT JUMPDEST SWAP2 SWAP1 POP JUMP JUMPDEST DUP1 CALLDATALOAD PUSH1 0x1 DUP2 LT PUSH2 0x283B JUMPI PUSH1 0x0 DUP1 REVERT JUMPDEST PUSH1 0x0 PUSH1 0x1 PUSH1 0x1 PUSH1 0x40 SHL SUB DUP1 DUP5 GT ISZERO PUSH2 0x2869 JUMPI PUSH2 0x2869 PUSH2 0x236B JUMP JUMPDEST DUP4 PUSH1 0x5 SHL PUSH1 0x20 PUSH2 0x287A DUP2 DUP4 ADD PUSH2 0x23ED JUMP JUMPDEST DUP7 DUP2 MSTORE SWAP4 POP SWAP1 DUP5 ADD SWAP1 DUP1 DUP5 ADD DUP8 DUP4 GT ISZERO PUSH2 0x2893 JUMPI PUSH1 0x0 DUP1 REVERT JUMPDEST DUP6 JUMPDEST DUP4 DUP2 LT ISZERO PUSH2 0x28C7 JUMPI DUP1 CALLDATALOAD DUP6 DUP2 GT ISZERO PUSH2 0x28AD JUMPI PUSH1 0x0 DUP1 DUP2 REVERT JUMPDEST PUSH2 0x28B9 DUP11 DUP3 DUP11 ADD PUSH2 0x2444 JUMP JUMPDEST DUP4 MSTORE POP SWAP1 DUP3 ADD SWAP1 DUP3 ADD PUSH2 0x2895 JUMP JUMPDEST POP POP POP POP POP SWAP4 SWAP3 POP POP POP JUMP JUMPDEST PUSH1 0x0 DUP3 PUSH1 0x1F DUP4 ADD SLT PUSH2 0x28E4 JUMPI PUSH1 0x0 DUP1 REVERT JUMPDEST PUSH2 0x1F76 DUP4 DUP4 CALLDATALOAD PUSH1 0x20 DUP6 ADD PUSH2 0x284F JUMP JUMPDEST DUP1 CALLDATALOAD PUSH1 0x1 PUSH1 0x1 PUSH1 0x40 SHL SUB DUP2 AND DUP2 EQ PUSH2 0x283B JUMPI PUSH1 0x0 DUP1 REVERT JUMPDEST DUP1 CALLDATALOAD PUSH4 0xFFFFFFFF DUP2 AND DUP2 EQ PUSH2 0x283B JUMPI PUSH1 0x0 DUP1 REVERT JUMPDEST PUSH1 0x0 DUP1 PUSH1 0x0 DUP1 PUSH1 0x80 DUP6 DUP8 SUB SLT ISZERO PUSH2 0x2934 JUMPI PUSH1 0x0 DUP1 REVERT JUMPDEST DUP5 CALLDATALOAD PUSH1 0x1 PUSH1 0x1 PUSH1 0x40 SHL SUB DUP1 DUP3 GT ISZERO PUSH2 0x294B JUMPI PUSH1 0x0 DUP1 REVERT JUMPDEST SWAP1 DUP7 ADD SWAP1 PUSH1 0xC0 DUP3 DUP10 SUB SLT ISZERO PUSH2 0x295F JUMPI PUSH1 0x0 DUP1 REVERT JUMPDEST PUSH2 0x2967 PUSH2 0x23A9 JUMP JUMPDEST PUSH2 0x2970 DUP4 PUSH2 0x282C JUMP JUMPDEST DUP2 MSTORE PUSH2 0x297E PUSH1 0x20 DUP5 ADD PUSH2 0x282C JUMP JUMPDEST PUSH1 0x20 DUP3 ADD MSTORE PUSH2 0x298F PUSH1 0x40 DUP5 ADD PUSH2 0x2840 JUMP JUMPDEST PUSH1 0x40 DUP3 ADD MSTORE PUSH1 0x60 DUP4 ADD CALLDATALOAD DUP3 DUP2 GT ISZERO PUSH2 0x29A6 JUMPI PUSH1 0x0 DUP1 REVERT JUMPDEST PUSH2 0x29B2 DUP11 DUP3 DUP7 ADD PUSH2 0x2444 JUMP JUMPDEST PUSH1 0x60 DUP4 ADD MSTORE POP PUSH1 0x80 DUP4 ADD CALLDATALOAD DUP3 DUP2 GT ISZERO PUSH2 0x29CA JUMPI PUSH1 0x0 DUP1 REVERT JUMPDEST PUSH2 0x29D6 DUP11 DUP3 DUP7 ADD PUSH2 0x2444 JUMP JUMPDEST PUSH1 0x80 DUP4 ADD MSTORE POP PUSH1 0xA0 DUP4 ADD CALLDATALOAD DUP3 DUP2 GT ISZERO PUSH2 0x29EE JUMPI PUSH1 0x0 DUP1 REVERT JUMPDEST PUSH2 0x29FA DUP11 DUP3 DUP7 ADD PUSH2 0x28D3 JUMP JUMPDEST PUSH1 0xA0 DUP4 ADD MSTORE POP SWAP6 POP PUSH2 0x2A11 SWAP2 POP POP PUSH1 0x20 DUP7 ADD PUSH2 0x28F3 JUMP JUMPDEST SWAP3 POP PUSH2 0x2A1F PUSH1 0x40 DUP7 ADD PUSH2 0x290A JUMP JUMPDEST SWAP4 SWAP7 SWAP3 SWAP6 POP SWAP3 SWAP4 PUSH1 0x60 ADD CALLDATALOAD SWAP3 POP POP JUMP JUMPDEST PUSH1 0x0 PUSH1 0x20 DUP1 DUP4 ADD DUP2 DUP5 MSTORE DUP1 DUP6 MLOAD DUP1 DUP4 MSTORE PUSH1 0x40 DUP7 ADD SWAP2 POP PUSH1 0x40 DUP2 PUSH1 0x5 SHL DUP8 ADD ADD SWAP3 POP DUP4 DUP8 ADD PUSH1 0x0 JUMPDEST DUP3 DUP2 LT ISZERO PUSH2 0x2A84 JUMPI PUSH1 0x3F NOT DUP9 DUP7 SUB ADD DUP5 MSTORE PUSH2 0x2A72 DUP6 DUP4 MLOAD PUSH2 0x262A JUMP JUMPDEST SWAP5 POP SWAP3 DUP6 ADD SWAP3 SWAP1 DUP6 ADD SWAP1 PUSH1 0x1 ADD PUSH2 0x2A56 JUMP JUMPDEST POP SWAP3 SWAP8 SWAP7 POP POP POP POP POP POP POP JUMP JUMPDEST PUSH1 0x1 PUSH1 0x1 PUSH1 0xA0 SHL SUB DUP2 AND DUP2 EQ PUSH2 0x102E JUMPI PUSH1 0x0 DUP1 REVERT JUMPDEST PUSH1 0x0 PUSH1 0x20 DUP3 DUP5 SUB SLT ISZERO PUSH2 0x2AB8 JUMPI PUSH1 0x0 DUP1 REVERT JUMPDEST DUP2 CALLDATALOAD PUSH2 0x1F76 DUP2 PUSH2 0x2A91 JUMP JUMPDEST PUSH1 0x0 DUP1 PUSH1 0x0 DUP1 PUSH1 0x0 DUP1 PUSH1 0x60 DUP8 DUP10 SUB SLT ISZERO PUSH2 0x2ADC JUMPI PUSH1 0x0 DUP1 REVERT JUMPDEST DUP7 CALLDATALOAD PUSH1 0x1 PUSH1 0x1 PUSH1 0x40 SHL SUB DUP1 DUP3 GT ISZERO PUSH2 0x2AF3 JUMPI PUSH1 0x0 DUP1 REVERT JUMPDEST PUSH2 0x2AFF DUP11 DUP4 DUP12 ADD PUSH2 0x2575 JUMP JUMPDEST SWAP1 SWAP9 POP SWAP7 POP PUSH1 0x20 DUP10 ADD CALLDATALOAD SWAP2 POP DUP1 DUP3 GT ISZERO PUSH2 0x2B18 JUMPI PUSH1 0x0 DUP1 REVERT JUMPDEST PUSH2 0x2B24 DUP11 DUP4 DUP12 ADD PUSH2 0x2575 JUMP JUMPDEST SWAP1 SWAP7 POP SWAP5 POP PUSH1 0x40 DUP10 ADD CALLDATALOAD SWAP2 POP DUP1 DUP3 GT ISZERO PUSH2 0x2B3D JUMPI PUSH1 0x0 DUP1 REVERT JUMPDEST DUP2 DUP10 ADD SWAP2 POP DUP10 PUSH1 0x1F DUP4 ADD SLT PUSH2 0x2B51 JUMPI PUSH1 0x0 DUP1 REVERT JUMPDEST DUP2 CALLDATALOAD DUP2 DUP2 GT ISZERO PUSH2 0x2B60 JUMPI PUSH1 0x0 DUP1 REVERT JUMPDEST DUP11 PUSH1 0x20 DUP3 PUSH1 0x5 SHL DUP6 ADD ADD GT ISZERO PUSH2 0x2B75 JUMPI PUSH1 0x0 DUP1 REVERT JUMPDEST PUSH1 0x20 DUP4 ADD SWAP5 POP DUP1 SWAP4 POP POP POP POP SWAP3 SWAP6 POP SWAP3 SWAP6 POP SWAP3 SWAP6 JUMP JUMPDEST PUSH1 0x40 DUP2 ADD DUP2 DUP4 PUSH1 0x0 JUMPDEST PUSH1 0x2 DUP2 LT ISZERO PUSH2 0x2BB3 JUMPI DUP2 MLOAD DUP4 MSTORE PUSH1 0x20 SWAP3 DUP4 ADD SWAP3 SWAP1 SWAP2 ADD SWAP1 PUSH1 0x1 ADD PUSH2 0x2B94 JUMP JUMPDEST POP POP POP SWAP3 SWAP2 POP POP JUMP JUMPDEST PUSH1 0x0 PUSH1 0x20 DUP3 DUP5 SUB SLT ISZERO PUSH2 0x2BCE JUMPI PUSH1 0x0 DUP1 REVERT JUMPDEST POP MLOAD SWAP2 SWAP1 POP JUMP JUMPDEST PUSH4 0x4E487B71 PUSH1 0xE0 SHL PUSH1 0x0 MSTORE PUSH1 0x11 PUSH1 0x4 MSTORE PUSH1 0x24 PUSH1 0x0 REVERT JUMPDEST PUSH1 0x0 DUP3 NOT DUP3 GT ISZERO PUSH2 0x2BFE JUMPI PUSH2 0x2BFE PUSH2 0x2BD5 JUMP JUMPDEST POP ADD SWAP1 JUMP JUMPDEST PUSH1 0x1 DUP2 DUP2 SHR SWAP1 DUP3 AND DUP1 PUSH2 0x2C17 JUMPI PUSH1 0x7F DUP3 AND SWAP2 POP JUMPDEST PUSH1 0x20 DUP3 LT DUP2 EQ ISZERO PUSH2 0x21E8 JUMPI PUSH4 0x4E487B71 PUSH1 0xE0 SHL PUSH1 0x0 MSTORE PUSH1 0x22 PUSH1 0x4 MSTORE PUSH1 0x24 PUSH1 0x0 REVERT JUMPDEST PUSH1 0x1 PUSH1 0x1 PUSH1 0x40 SHL SUB DUP5 AND DUP2 MSTORE PUSH1 0x0 PUSH1 0x20 PUSH1 0x60 DUP2 DUP5 ADD MSTORE PUSH1 0x0 DUP6 SLOAD PUSH2 0x2C5B DUP2 PUSH2 0x2C03 JUMP JUMPDEST DUP1 PUSH1 0x60 DUP8 ADD MSTORE PUSH1 0x80 PUSH1 0x1 DUP1 DUP5 AND PUSH1 0x0 DUP2 EQ PUSH2 0x2C7D JUMPI PUSH1 0x1 DUP2 EQ PUSH2 0x2C91 JUMPI PUSH2 0x2CBF JUMP JUMPDEST PUSH1 0xFF NOT DUP6 AND DUP10 DUP5 ADD MSTORE PUSH1 0xA0 DUP10 ADD SWAP6 POP PUSH2 0x2CBF JUMP JUMPDEST DUP11 PUSH1 0x0 MSTORE DUP7 PUSH1 0x0 KECCAK256 PUSH1 0x0 JUMPDEST DUP6 DUP2 LT ISZERO PUSH2 0x2CB7 JUMPI DUP2 SLOAD DUP12 DUP3 ADD DUP7 ADD MSTORE SWAP1 DUP4 ADD SWAP1 DUP9 ADD PUSH2 0x2C9C JUMP JUMPDEST DUP11 ADD DUP5 ADD SWAP7 POP POP JUMPDEST POP POP POP POP PUSH4 0xFFFFFFFF DUP7 AND PUSH1 0x40 DUP7 ADD MSTORE POP SWAP2 POP PUSH2 0x11D7 SWAP1 POP JUMP JUMPDEST PUSH1 0x0 PUSH1 0x20 DUP3 DUP5 SUB SLT ISZERO PUSH2 0x2CEB JUMPI PUSH1 0x0 DUP1 REVERT JUMPDEST DUP2 MLOAD PUSH2 0x1F76 DUP2 PUSH2 0x2A91 JUMP JUMPDEST DUP1 PUSH1 0x0 JUMPDEST PUSH1 0x2 DUP2 LT ISZERO PUSH2 0x6EA JUMPI DUP2 MLOAD DUP5 MSTORE PUSH1 0x20 SWAP4 DUP5 ADD SWAP4 SWAP1 SWAP2 ADD SWAP1 PUSH1 0x1 ADD PUSH2 0x2CFA JUMP JUMPDEST PUSH2 0x140 DUP2 ADD PUSH2 0x2D28 DUP3 DUP8 PUSH2 0x2CF6 JUMP JUMPDEST PUSH1 0x40 DUP1 DUP4 ADD DUP7 PUSH1 0x0 JUMPDEST PUSH1 0x2 DUP2 LT ISZERO PUSH2 0x2D58 JUMPI PUSH2 0x2D45 DUP4 DUP4 MLOAD PUSH2 0x2CF6 JUMP JUMPDEST SWAP2 DUP4 ADD SWAP2 PUSH1 0x20 SWAP2 SWAP1 SWAP2 ADD SWAP1 PUSH1 0x1 ADD PUSH2 0x2D31 JUMP JUMPDEST POP POP POP POP PUSH2 0x2D69 PUSH1 0xC0 DUP4 ADD DUP6 PUSH2 0x2CF6 JUMP JUMPDEST PUSH2 0x2D77 PUSH2 0x100 DUP4 ADD DUP5 PUSH2 0x2CF6 JUMP JUMPDEST SWAP6 SWAP5 POP POP POP POP POP JUMP JUMPDEST PUSH1 0x0 PUSH1 0x20 DUP3 DUP5 SUB SLT ISZERO PUSH2 0x2D92 JUMPI PUSH1 0x0 DUP1 REVERT JUMPDEST DUP2 MLOAD DUP1 ISZERO ISZERO DUP2 EQ PUSH2 0x1F76 JUMPI PUSH1 0x0 DUP1 REVERT JUMPDEST PUSH1 0x0 DUP3 MLOAD PUSH2 0x2DB4 DUP2 DUP5 PUSH1 0x20 DUP8 ADD PUSH2 0x25FE JUMP JUMPDEST SWAP2 SWAP1 SWAP2 ADD SWAP3 SWAP2 POP POP JUMP JUMPDEST PUSH1 0x40 DUP2 MSTORE PUSH1 0x0 PUSH2 0x2DD1 PUSH1 0x40 DUP4 ADD DUP6 PUSH2 0x262A JUMP JUMPDEST SWAP1 POP DUP3 PUSH1 0x20 DUP4 ADD MSTORE SWAP4 SWAP3 POP POP POP JUMP JUMPDEST PUSH4 0x4E487B71 PUSH1 0xE0 SHL PUSH1 0x0 MSTORE PUSH1 0x32 PUSH1 0x4 MSTORE PUSH1 0x24 PUSH1 0x0 REVERT JUMPDEST PUSH1 0x0 PUSH4 0xFFFFFFFF DUP3 AND DUP1 PUSH2 0x2E0C JUMPI PUSH2 0x2E0C PUSH2 0x2BD5 JUMP JUMPDEST PUSH1 0x0 NOT ADD SWAP3 SWAP2 POP POP JUMP JUMPDEST PUSH1 0x0 DUP3 DUP3 LT ISZERO PUSH2 0x2E28 JUMPI PUSH2 0x2E28 PUSH2 0x2BD5 JUMP JUMPDEST POP SUB SWAP1 JUMP JUMPDEST PUSH1 0x0 PUSH1 0x20 DUP3 DUP5 SUB SLT ISZERO PUSH2 0x2E3F JUMPI PUSH1 0x0 DUP1 REVERT JUMPDEST DUP2 MLOAD PUSH1 0x1 PUSH1 0x1 PUSH1 0x40 SHL SUB DUP2 GT ISZERO PUSH2 0x2E55 JUMPI PUSH1 0x0 DUP1 REVERT JUMPDEST DUP3 ADD PUSH1 0x1F DUP2 ADD DUP5 SGT PUSH2 0x2E66 JUMPI PUSH1 0x0 DUP1 REVERT JUMPDEST DUP1 MLOAD PUSH2 0x2E74 PUSH2 0x2463 DUP3 PUSH2 0x241D JUMP JUMPDEST DUP2 DUP2 MSTORE DUP6 PUSH1 0x20 DUP4 DUP6 ADD ADD GT ISZERO PUSH2 0x2E89 JUMPI PUSH1 0x0 DUP1 REVERT JUMPDEST PUSH2 0x2D77 DUP3 PUSH1 0x20 DUP4 ADD PUSH1 0x20 DUP7 ADD PUSH2 0x25FE JUMP JUMPDEST PUSH1 0x1 PUSH1 0x1 PUSH1 0x40 SHL SUB DUP6 AND DUP2 MSTORE PUSH1 0x80 PUSH1 0x20 DUP3 ADD MSTORE PUSH1 0x0 PUSH2 0x2EBC PUSH1 0x80 DUP4 ADD DUP7 PUSH2 0x262A JUMP JUMPDEST PUSH4 0xFFFFFFFF SWAP5 SWAP1 SWAP5 AND PUSH1 0x40 DUP4 ADD MSTORE POP PUSH1 0x60 ADD MSTORE SWAP3 SWAP2 POP POP JUMP JUMPDEST PUSH1 0x0 PUSH1 0x20 DUP3 DUP5 SUB SLT ISZERO PUSH2 0x2EE7 JUMPI PUSH1 0x0 DUP1 REVERT JUMPDEST DUP2 MLOAD PUSH12 0xFFFFFFFFFFFFFFFFFFFFFFFF DUP2 AND DUP2 EQ PUSH2 0x1F76 JUMPI PUSH1 0x0 DUP1 REVERT JUMPDEST PUSH1 0x0 DUP1 DUP4 SLOAD PUSH2 0x2F11 DUP2 PUSH2 0x2C03 JUMP JUMPDEST PUSH1 0x1 DUP3 DUP2 AND DUP1 ISZERO PUSH2 0x2F29 JUMPI PUSH1 0x1 DUP2 EQ PUSH2 0x2F3A JUMPI PUSH2 0x2F69 JUMP JUMPDEST PUSH1 0xFF NOT DUP5 AND DUP8 MSTORE DUP3 DUP8 ADD SWAP5 POP PUSH2 0x2F69 JUMP JUMPDEST DUP8 PUSH1 0x0 MSTORE PUSH1 0x20 DUP1 PUSH1 0x0 KECCAK256 PUSH1 0x0 JUMPDEST DUP6 DUP2 LT ISZERO PUSH2 0x2F60 JUMPI DUP2 SLOAD DUP11 DUP3 ADD MSTORE SWAP1 DUP5 ADD SWAP1 DUP3 ADD PUSH2 0x2F47 JUMP JUMPDEST POP POP POP DUP3 DUP8 ADD SWAP5 POP JUMPDEST POP SWAP3 SWAP7 SWAP6 POP POP POP POP POP POP JUMP JUMPDEST PUSH1 0x0 PUSH1 0x0 NOT DUP3 EQ ISZERO PUSH2 0x2F89 JUMPI PUSH2 0x2F89 PUSH2 0x2BD5 JUMP JUMPDEST POP PUSH1 0x1 ADD SWAP1 JUMP JUMPDEST DUP2 DUP4 DUP3 CALLDATACOPY PUSH1 0x0 SWAP2 ADD SWAP1 DUP2 MSTORE SWAP2 SWAP1 POP JUMP JUMPDEST PUSH1 0x0 PUSH2 0x1F76 CALLDATASIZE DUP5 DUP5 PUSH2 0x284F JUMP JUMPDEST PUSH1 0x40 DUP2 MSTORE PUSH1 0x0 PUSH2 0x2FC0 PUSH1 0x40 DUP4 ADD DUP6 PUSH2 0x262A JUMP JUMPDEST DUP3 DUP2 SUB PUSH1 0x20 DUP5 ADD MSTORE PUSH2 0x2D77 DUP2 DUP6 PUSH2 0x262A JUMP JUMPDEST PUSH1 0x1 DUP2 DUP2 JUMPDEST DUP1 DUP6 GT ISZERO PUSH2 0x300D JUMPI DUP2 PUSH1 0x0 NOT DIV DUP3 GT ISZERO PUSH2 0x2FF3 JUMPI PUSH2 0x2FF3 PUSH2 0x2BD5 JUMP JUMPDEST DUP1 DUP6 AND ISZERO PUSH2 0x3000 JUMPI SWAP2 DUP2 MUL SWAP2 JUMPDEST SWAP4 DUP5 SHR SWAP4 SWAP1 DUP1 MUL SWAP1 PUSH2 0x2FD7 JUMP JUMPDEST POP SWAP3 POP SWAP3 SWAP1 POP JUMP JUMPDEST PUSH1 0x0 DUP3 PUSH2 0x3024 JUMPI POP PUSH1 0x1 PUSH2 0x8BB JUMP JUMPDEST DUP2 PUSH2 0x3031 JUMPI POP PUSH1 0x0 PUSH2 0x8BB JUMP JUMPDEST DUP2 PUSH1 0x1 DUP2 EQ PUSH2 0x3047 JUMPI PUSH1 0x2 DUP2 EQ PUSH2 0x3051 JUMPI PUSH2 0x306D JUMP JUMPDEST PUSH1 0x1 SWAP2 POP POP PUSH2 0x8BB JUMP JUMPDEST PUSH1 0xFF DUP5 GT ISZERO PUSH2 0x3062 JUMPI PUSH2 0x3062 PUSH2 0x2BD5 JUMP JUMPDEST POP POP PUSH1 0x1 DUP3 SHL PUSH2 0x8BB JUMP JUMPDEST POP PUSH1 0x20 DUP4 LT PUSH2 0x133 DUP4 LT AND PUSH1 0x4E DUP5 LT PUSH1 0xB DUP5 LT AND OR ISZERO PUSH2 0x3090 JUMPI POP DUP2 DUP2 EXP PUSH2 0x8BB JUMP JUMPDEST PUSH2 0x309A DUP4 DUP4 PUSH2 0x2FD2 JUMP JUMPDEST DUP1 PUSH1 0x0 NOT DIV DUP3 GT ISZERO PUSH2 0x30AE JUMPI PUSH2 0x30AE PUSH2 0x2BD5 JUMP JUMPDEST MUL SWAP4 SWAP3 POP POP POP JUMP JUMPDEST PUSH1 0x0 PUSH2 0x1F76 PUSH4 0xFFFFFFFF DUP5 AND DUP4 PUSH2 0x3015 JUMP JUMPDEST PUSH1 0x0 PUSH4 0xFFFFFFFF DUP1 DUP4 AND DUP2 DUP6 AND DUP1 DUP4 SUB DUP3 GT ISZERO PUSH2 0x30E7 JUMPI PUSH2 0x30E7 PUSH2 0x2BD5 JUMP JUMPDEST ADD SWAP5 SWAP4 POP POP POP POP JUMP JUMPDEST PUSH4 0x4E487B71 PUSH1 0xE0 SHL PUSH1 0x0 MSTORE PUSH1 0x12 PUSH1 0x4 MSTORE PUSH1 0x24 PUSH1 0x0 REVERT JUMPDEST PUSH1 0x0 PUSH4 0xFFFFFFFF DUP1 DUP5 AND DUP1 PUSH2 0x311D JUMPI PUSH2 0x311D PUSH2 0x30F0 JUMP JUMPDEST SWAP3 AND SWAP2 SWAP1 SWAP2 MOD SWAP3 SWAP2 POP POP JUMP JUMPDEST PUSH1 0x0 PUSH4 0xFFFFFFFF DUP1 DUP5 AND DUP1 PUSH2 0x3140 JUMPI PUSH2 0x3140 PUSH2 0x30F0 JUMP JUMPDEST SWAP3 AND SWAP2 SWAP1 SWAP2 DIV SWAP3 SWAP2 POP POP JUMP JUMPDEST PUSH1 0x0 PUSH4 0xFFFFFFFF DUP1 DUP4 AND DUP2 DUP2 EQ ISZERO PUSH2 0x3166 JUMPI PUSH2 0x3166 PUSH2 0x2BD5 JUMP JUMPDEST PUSH1 0x1 ADD SWAP4 SWAP3 POP POP POP JUMP JUMPDEST PUSH1 0x0 PUSH4 0xFFFFFFFF DUP4 DUP2 AND SWAP1 DUP4 AND DUP2 DUP2 LT ISZERO PUSH2 0x318D JUMPI PUSH2 0x318D PUSH2 0x2BD5 JUMP JUMPDEST SUB SWAP4 SWAP3 POP POP POP JUMP JUMPDEST PUSH4 0x4E487B71 PUSH1 0xE0 SHL PUSH1 0x0 MSTORE PUSH1 0x21 PUSH1 0x4 MSTORE PUSH1 0x24 PUSH1 0x0 REVERT JUMPDEST PUSH1 0x0 DUP3 PUSH2 0x31BA JUMPI PUSH2 0x31BA PUSH2 0x30F0 JUMP JUMPDEST POP MOD SWAP1 JUMP JUMPDEST PUSH1 0x0 DUP2 PUSH1 0x0 NOT DIV DUP4 GT DUP3 ISZERO ISZERO AND ISZERO PUSH2 0x31D9 JUMPI PUSH2 0x31D9 PUSH2 0x2BD5 JUMP JUMPDEST POP MUL SWAP1 JUMP JUMPDEST PUSH1 0x0 PUSH2 0x1F76 DUP4 DUP4 PUSH2 0x3015 JUMP INVALID LOG2 PUSH5 0x6970667358 0x22 SLT KECCAK256 RETURN MLOAD 0xCB SWAP3 0xBA DUP4 RETURNDATACOPY 0xE5 0x1E 0xCD PUSH29 0xF438489F49D97E7FA08DC3BFF7153337F9681CCEF864736F6C63430008 MULMOD STOP CALLER SUB PUSH12 0x6384B5ECA791C62761152D0C PUSH26 0xBB0604C104A5FB6F4EB0703F3154BB3DB0F652222313E2845952 DUP14 SWAP3 SIGNEXTEND PUSH6 0x115C16C04F3E 0xFC DUP3 0xAA 0xED 0xC9 PUSH28 0xE59F3F377C0D3F000000000000000000000000000000000000000000 "},"methodIdentifiers":{"FIELD_SIZE()":"414a37ba","ROOT_HISTORY_SIZE()":"cd87a3b4","ZERO_VALUE()":"ec732959","acceptOwnership()":"79ba5097","addName(string)":"11456b47","checkUpkeep(bytes)":"6e04ff0d","clearMessages()":"df65850a","commitments(bytes32)":"839df945","currentRootIndex()":"90eeb02b","estimateCost((uint8,uint8,uint8,string,bytes,string[]),uint64,uint32,uint256)":"d4b39175","filledSubtrees(uint256)":"f178e47c","fulfillGasLimit()":"24b93e3e","generateRequest(string,bytes,string[])":"fe083012","getDONPublicKey()":"d328a91e","getLastRoot()":"ba70f757","getMessages(string)":"df9084eb","handleOracleFulfillment(bytes32,bytes,bytes)":"0ca76175","hashLeftRight(bytes32,bytes32)":"38bf282e","hasher()":"ed33639f","insertIntoTree(bytes32)":"8d82496e","isKnownRoot(bytes32)":"6d9833e3","isNullifierUsed(bytes32)":"22dc7b4c","lastUpkeepTimeStamp()":"089ea02e","latestError()":"fffeb84e","latestRequestId()":"1aa46f59","latestResponse()":"bef3a2f0","levels()":"4ecf518b","messages(string,uint256)":"c8c586ae","names(uint256)":"4622ab03","nextIndex()":"fc7e9c6f","nullifiers(bytes32)":"2997e86b","owner()":"8da5cb5b","performUpkeep(bytes)":"4585e33b","postMessageWithProof(string,string,bytes32,bytes32,(uint256[2],uint256[2][2],uint256[2]))":"59360b55","requestCBOR()":"688ecfd1","responseCounter()":"381fc4b5","roots(uint256)":"c2b40ae4","selectedAddresses(address)":"e3cf998f","subscriptionId()":"09c1ba2e","transferOwnership(address)":"f2fde38b","updateInterval()":"fd2c80ae","upkeepCounter()":"a3d3c0d2","verifier()":"2b7ac3f3","zeros(uint256)":"e8295588"}}}}}