{
  "_format": "hh-sol-artifact-1",
  "contractName": "Sentiment",
  "sourceName": "contracts/Sentiment.sol",
  "abi": [
    {
      "inputs": [
        {
          "internalType": "address",
          "name": "oracle",
          "type": "address"
        },
        {
          "internalType": "contract IVerifier",
          "name": "_verifier",
          "type": "address"
        },
        {
          "internalType": "uint32",
          "name": "_merkleTreeHeight",
          "type": "uint32"
        },
        {
          "internalType": "address",
          "name": "_hasher",
          "type": "address"
        },
        {
          "internalType": "uint64",
          "name": "_subscriptionId",
          "type": "uint64"
        },
        {
          "internalType": "uint32",
          "name": "_fulfillGasLimit",
          "type": "uint32"
        }
      ],
      "stateMutability": "nonpayable",
      "type": "constructor"
    },
    {
      "inputs": [],
      "name": "EmptyArgs",
      "type": "error"
    },
    {
      "inputs": [],
      "name": "EmptySecrets",
      "type": "error"
    },
    {
      "inputs": [],
      "name": "EmptySource",
      "type": "error"
    },
    {
      "inputs": [
        {
          "internalType": "string",
          "name": "message",
          "type": "string"
        }
      ],
      "name": "MerkleTree__IsFull",
      "type": "error"
    },
    {
      "inputs": [
        {
          "internalType": "string",
          "name": "message",
          "type": "string"
        }
      ],
      "name": "MerkleTree__TreeLevelsOutOfRange",
      "type": "error"
    },
    {
      "inputs": [],
      "name": "RequestIsAlreadyPending",
      "type": "error"
    },
    {
      "inputs": [],
      "name": "RequestIsNotPending",
      "type": "error"
    },
    {
      "inputs": [],
      "name": "SenderIsNotRegistry",
      "type": "error"
    },
    {
      "inputs": [
        {
          "internalType": "string",
          "name": "message",
          "type": "string"
        }
      ],
      "name": "Sentiment__CommitmentAlreadyUsed",
      "type": "error"
    },
    {
      "inputs": [
        {
          "internalType": "string",
          "name": "message",
          "type": "string"
        }
      ],
      "name": "Sentiment__InvalidProof",
      "type": "error"
    },
    {
      "inputs": [
        {
          "internalType": "string",
          "name": "message",
          "type": "string"
        }
      ],
      "name": "Sentiment__NotSelected",
      "type": "error"
    },
    {
      "inputs": [
        {
          "internalType": "string",
          "name": "message",
          "type": "string"
        }
      ],
      "name": "Sentiment__NullifierAlreadyUsed",
      "type": "error"
    },
    {
      "inputs": [
        {
          "internalType": "string",
          "name": "message",
          "type": "string"
        }
      ],
      "name": "Sentiment__RootNotKnown",
      "type": "error"
    },
    {
      "inputs": [
        {
          "internalType": "string",
          "name": "message",
          "type": "string"
        }
      ],
      "name": "Sentiment__TimeInterval",
      "type": "error"
    },
    {
      "anonymous": false,
      "inputs": [
        {
          "indexed": false,
          "internalType": "bytes32",
          "name": "commitment",
          "type": "bytes32"
        },
        {
          "indexed": false,
          "internalType": "uint32",
          "name": "insertedIndex",
          "type": "uint32"
        }
      ],
      "name": "Inserted",
      "type": "event"
    },
    {
      "anonymous": false,
      "inputs": [
        {
          "indexed": true,
          "internalType": "bytes32",
          "name": "requestId",
          "type": "bytes32"
        },
        {
          "indexed": false,
          "internalType": "bytes",
          "name": "result",
          "type": "bytes"
        },
        {
          "indexed": false,
          "internalType": "bytes",
          "name": "err",
          "type": "bytes"
        }
      ],
      "name": "OCRResponse",
      "type": "event"
    },
    {
      "anonymous": false,
      "inputs": [
        {
          "indexed": true,
          "internalType": "address",
          "name": "from",
          "type": "address"
        },
        {
          "indexed": true,
          "internalType": "address",
          "name": "to",
          "type": "address"
        }
      ],
      "name": "OwnershipTransferRequested",
      "type": "event"
    },
    {
      "anonymous": false,
      "inputs": [
        {
          "indexed": true,
          "internalType": "address",
          "name": "from",
          "type": "address"
        },
        {
          "indexed": true,
          "internalType": "address",
          "name": "to",
          "type": "address"
        }
      ],
      "name": "OwnershipTransferred",
      "type": "event"
    },
    {
      "anonymous": false,
      "inputs": [
        {
          "indexed": true,
          "internalType": "bytes32",
          "name": "id",
          "type": "bytes32"
        }
      ],
      "name": "RequestFulfilled",
      "type": "event"
    },
    {
      "anonymous": false,
      "inputs": [
        {
          "indexed": true,
          "internalType": "bytes32",
          "name": "id",
          "type": "bytes32"
        }
      ],
      "name": "RequestSent",
      "type": "event"
    },
    {
      "anonymous": false,
      "inputs": [
        {
          "indexed": false,
          "internalType": "string",
          "name": "message",
          "type": "string"
        },
        {
          "indexed": false,
          "internalType": "bytes32",
          "name": "nullifierHash",
          "type": "bytes32"
        }
      ],
      "name": "messagePosted",
      "type": "event"
    },
    {
      "anonymous": false,
      "inputs": [],
      "name": "messagesCleared",
      "type": "event"
    },
    {
      "inputs": [],
      "name": "FIELD_SIZE",
      "outputs": [
        {
          "internalType": "uint256",
          "name": "",
          "type": "uint256"
        }
      ],
      "stateMutability": "view",
      "type": "function"
    },
    {
      "inputs": [],
      "name": "ROOT_HISTORY_SIZE",
      "outputs": [
        {
          "internalType": "uint32",
          "name": "",
          "type": "uint32"
        }
      ],
      "stateMutability": "view",
      "type": "function"
    },
    {
      "inputs": [],
      "name": "ZERO_VALUE",
      "outputs": [
        {
          "internalType": "uint256",
          "name": "",
          "type": "uint256"
        }
      ],
      "stateMutability": "view",
      "type": "function"
    },
    {
      "inputs": [],
      "name": "acceptOwnership",
      "outputs": [],
      "stateMutability": "nonpayable",
      "type": "function"
    },
    {
      "inputs": [
        {
          "internalType": "string",
          "name": "_name",
          "type": "string"
        }
      ],
      "name": "addName",
      "outputs": [],
      "stateMutability": "nonpayable",
      "type": "function"
    },
    {
      "inputs": [
        {
          "internalType": "bytes",
          "name": "",
          "type": "bytes"
        }
      ],
      "name": "checkUpkeep",
      "outputs": [
        {
          "internalType": "bool",
          "name": "upkeepNeeded",
          "type": "bool"
        },
        {
          "internalType": "bytes",
          "name": "",
          "type": "bytes"
        }
      ],
      "stateMutability": "view",
      "type": "function"
    },
    {
      "inputs": [
        {
          "internalType": "bytes32",
          "name": "",
          "type": "bytes32"
        }
      ],
      "name": "commitments",
      "outputs": [
        {
          "internalType": "bool",
          "name": "",
          "type": "bool"
        }
      ],
      "stateMutability": "view",
      "type": "function"
    },
    {
      "inputs": [],
      "name": "currentRootIndex",
      "outputs": [
        {
          "internalType": "uint32",
          "name": "",
          "type": "uint32"
        }
      ],
      "stateMutability": "view",
      "type": "function"
    },
    {
      "inputs": [
        {
          "components": [
            {
              "internalType": "enum Functions.Location",
              "name": "codeLocation",
              "type": "uint8"
            },
            {
              "internalType": "enum Functions.Location",
              "name": "secretsLocation",
              "type": "uint8"
            },
            {
              "internalType": "enum Functions.CodeLanguage",
              "name": "language",
              "type": "uint8"
            },
            {
              "internalType": "string",
              "name": "source",
              "type": "string"
            },
            {
              "internalType": "bytes",
              "name": "secrets",
              "type": "bytes"
            },
            {
              "internalType": "string[]",
              "name": "args",
              "type": "string[]"
            }
          ],
          "internalType": "struct Functions.Request",
          "name": "req",
          "type": "tuple"
        },
        {
          "internalType": "uint64",
          "name": "subscriptionId",
          "type": "uint64"
        },
        {
          "internalType": "uint32",
          "name": "gasLimit",
          "type": "uint32"
        },
        {
          "internalType": "uint256",
          "name": "gasPrice",
          "type": "uint256"
        }
      ],
      "name": "estimateCost",
      "outputs": [
        {
          "internalType": "uint96",
          "name": "",
          "type": "uint96"
        }
      ],
      "stateMutability": "view",
      "type": "function"
    },
    {
      "inputs": [
        {
          "internalType": "uint256",
          "name": "",
          "type": "uint256"
        }
      ],
      "name": "filledSubtrees",
      "outputs": [
        {
          "internalType": "bytes32",
          "name": "",
          "type": "bytes32"
        }
      ],
      "stateMutability": "view",
      "type": "function"
    },
    {
      "inputs": [],
      "name": "fulfillGasLimit",
      "outputs": [
        {
          "internalType": "uint32",
          "name": "",
          "type": "uint32"
        }
      ],
      "stateMutability": "view",
      "type": "function"
    },
    {
      "inputs": [
        {
          "internalType": "string",
          "name": "source",
          "type": "string"
        },
        {
          "internalType": "bytes",
          "name": "secrets",
          "type": "bytes"
        },
        {
          "internalType": "string[]",
          "name": "args",
          "type": "string[]"
        }
      ],
      "name": "generateRequest",
      "outputs": [
        {
          "internalType": "bytes",
          "name": "",
          "type": "bytes"
        }
      ],
      "stateMutability": "pure",
      "type": "function"
    },
    {
      "inputs": [],
      "name": "getDONPublicKey",
      "outputs": [
        {
          "internalType": "bytes",
          "name": "",
          "type": "bytes"
        }
      ],
      "stateMutability": "view",
      "type": "function"
    },
    {
      "inputs": [],
      "name": "getLastRoot",
      "outputs": [
        {
          "internalType": "bytes32",
          "name": "",
          "type": "bytes32"
        }
      ],
      "stateMutability": "view",
      "type": "function"
    },
    {
      "inputs": [
        {
          "internalType": "string",
          "name": "name",
          "type": "string"
        }
      ],
      "name": "getMessages",
      "outputs": [
        {
          "internalType": "string[]",
          "name": "",
          "type": "string[]"
        }
      ],
      "stateMutability": "view",
      "type": "function"
    },
    {
      "inputs": [],
      "name": "getSelectedAddresses",
      "outputs": [
        {
          "internalType": "address[]",
          "name": "",
          "type": "address[]"
        }
      ],
      "stateMutability": "view",
      "type": "function"
    },
    {
      "inputs": [
        {
          "internalType": "bytes32",
          "name": "requestId",
          "type": "bytes32"
        },
        {
          "internalType": "bytes",
          "name": "response",
          "type": "bytes"
        },
        {
          "internalType": "bytes",
          "name": "err",
          "type": "bytes"
        }
      ],
      "name": "handleOracleFulfillment",
      "outputs": [],
      "stateMutability": "nonpayable",
      "type": "function"
    },
    {
      "inputs": [
        {
          "internalType": "bytes32",
          "name": "_left",
          "type": "bytes32"
        },
        {
          "internalType": "bytes32",
          "name": "_right",
          "type": "bytes32"
        }
      ],
      "name": "hashLeftRight",
      "outputs": [
        {
          "internalType": "bytes32",
          "name": "",
          "type": "bytes32"
        }
      ],
      "stateMutability": "view",
      "type": "function"
    },
    {
      "inputs": [],
      "name": "hasher",
      "outputs": [
        {
          "internalType": "contract IHasher",
          "name": "",
          "type": "address"
        }
      ],
      "stateMutability": "view",
      "type": "function"
    },
    {
      "inputs": [
        {
          "internalType": "bytes32",
          "name": "_commitment",
          "type": "bytes32"
        }
      ],
      "name": "insertIntoTree",
      "outputs": [],
      "stateMutability": "nonpayable",
      "type": "function"
    },
    {
      "inputs": [
        {
          "internalType": "bytes32",
          "name": "_root",
          "type": "bytes32"
        }
      ],
      "name": "isKnownRoot",
      "outputs": [
        {
          "internalType": "bool",
          "name": "",
          "type": "bool"
        }
      ],
      "stateMutability": "view",
      "type": "function"
    },
    {
      "inputs": [
        {
          "internalType": "bytes32",
          "name": "_nullifier",
          "type": "bytes32"
        }
      ],
      "name": "isNullifierUsed",
      "outputs": [
        {
          "internalType": "bool",
          "name": "",
          "type": "bool"
        }
      ],
      "stateMutability": "view",
      "type": "function"
    },
    {
      "inputs": [],
      "name": "lastUpkeepTimeStamp",
      "outputs": [
        {
          "internalType": "uint256",
          "name": "",
          "type": "uint256"
        }
      ],
      "stateMutability": "view",
      "type": "function"
    },
    {
      "inputs": [],
      "name": "latestError",
      "outputs": [
        {
          "internalType": "bytes",
          "name": "",
          "type": "bytes"
        }
      ],
      "stateMutability": "view",
      "type": "function"
    },
    {
      "inputs": [],
      "name": "latestRequestId",
      "outputs": [
        {
          "internalType": "bytes32",
          "name": "",
          "type": "bytes32"
        }
      ],
      "stateMutability": "view",
      "type": "function"
    },
    {
      "inputs": [],
      "name": "latestResponse",
      "outputs": [
        {
          "internalType": "bytes",
          "name": "",
          "type": "bytes"
        }
      ],
      "stateMutability": "view",
      "type": "function"
    },
    {
      "inputs": [],
      "name": "levels",
      "outputs": [
        {
          "internalType": "uint32",
          "name": "",
          "type": "uint32"
        }
      ],
      "stateMutability": "view",
      "type": "function"
    },
    {
      "inputs": [
        {
          "internalType": "string",
          "name": "",
          "type": "string"
        },
        {
          "internalType": "uint256",
          "name": "",
          "type": "uint256"
        }
      ],
      "name": "messages",
      "outputs": [
        {
          "internalType": "string",
          "name": "",
          "type": "string"
        }
      ],
      "stateMutability": "view",
      "type": "function"
    },
    {
      "inputs": [
        {
          "internalType": "uint256",
          "name": "",
          "type": "uint256"
        }
      ],
      "name": "names",
      "outputs": [
        {
          "internalType": "string",
          "name": "",
          "type": "string"
        }
      ],
      "stateMutability": "view",
      "type": "function"
    },
    {
      "inputs": [],
      "name": "nextIndex",
      "outputs": [
        {
          "internalType": "uint32",
          "name": "",
          "type": "uint32"
        }
      ],
      "stateMutability": "view",
      "type": "function"
    },
    {
      "inputs": [
        {
          "internalType": "bytes32",
          "name": "",
          "type": "bytes32"
        }
      ],
      "name": "nullifiers",
      "outputs": [
        {
          "internalType": "bool",
          "name": "",
          "type": "bool"
        }
      ],
      "stateMutability": "view",
      "type": "function"
    },
    {
      "inputs": [],
      "name": "owner",
      "outputs": [
        {
          "internalType": "address",
          "name": "",
          "type": "address"
        }
      ],
      "stateMutability": "view",
      "type": "function"
    },
    {
      "inputs": [
        {
          "internalType": "bytes",
          "name": "",
          "type": "bytes"
        }
      ],
      "name": "performUpkeep",
      "outputs": [],
      "stateMutability": "nonpayable",
      "type": "function"
    },
    {
      "inputs": [
        {
          "internalType": "string",
          "name": "name",
          "type": "string"
        },
        {
          "internalType": "string",
          "name": "_message",
          "type": "string"
        },
        {
          "internalType": "bytes32",
          "name": "_nullifierHash",
          "type": "bytes32"
        },
        {
          "internalType": "bytes32",
          "name": "_root",
          "type": "bytes32"
        },
        {
          "components": [
            {
              "internalType": "uint256[2]",
              "name": "a",
              "type": "uint256[2]"
            },
            {
              "internalType": "uint256[2][2]",
              "name": "b",
              "type": "uint256[2][2]"
            },
            {
              "internalType": "uint256[2]",
              "name": "c",
              "type": "uint256[2]"
            }
          ],
          "internalType": "struct Proof",
          "name": "_proof",
          "type": "tuple"
        }
      ],
      "name": "postMessageWithProof",
      "outputs": [],
      "stateMutability": "nonpayable",
      "type": "function"
    },
    {
      "inputs": [],
      "name": "requestCBOR",
      "outputs": [
        {
          "internalType": "bytes",
          "name": "",
          "type": "bytes"
        }
      ],
      "stateMutability": "view",
      "type": "function"
    },
    {
      "inputs": [],
      "name": "responseCounter",
      "outputs": [
        {
          "internalType": "uint256",
          "name": "",
          "type": "uint256"
        }
      ],
      "stateMutability": "view",
      "type": "function"
    },
    {
      "inputs": [
        {
          "internalType": "uint256",
          "name": "",
          "type": "uint256"
        }
      ],
      "name": "roots",
      "outputs": [
        {
          "internalType": "bytes32",
          "name": "",
          "type": "bytes32"
        }
      ],
      "stateMutability": "view",
      "type": "function"
    },
    {
      "inputs": [
        {
          "internalType": "address",
          "name": "",
          "type": "address"
        }
      ],
      "name": "selectedAddresses",
      "outputs": [
        {
          "internalType": "bool",
          "name": "",
          "type": "bool"
        }
      ],
      "stateMutability": "view",
      "type": "function"
    },
    {
      "inputs": [
        {
          "internalType": "uint256",
          "name": "",
          "type": "uint256"
        }
      ],
      "name": "selectedAddressesArray",
      "outputs": [
        {
          "internalType": "address",
          "name": "",
          "type": "address"
        }
      ],
      "stateMutability": "view",
      "type": "function"
    },
    {
      "inputs": [],
      "name": "subscriptionId",
      "outputs": [
        {
          "internalType": "uint64",
          "name": "",
          "type": "uint64"
        }
      ],
      "stateMutability": "view",
      "type": "function"
    },
    {
      "inputs": [
        {
          "internalType": "address",
          "name": "to",
          "type": "address"
        }
      ],
      "name": "transferOwnership",
      "outputs": [],
      "stateMutability": "nonpayable",
      "type": "function"
    },
    {
      "inputs": [],
      "name": "updateInterval",
      "outputs": [
        {
          "internalType": "uint256",
          "name": "",
          "type": "uint256"
        }
      ],
      "stateMutability": "view",
      "type": "function"
    },
    {
      "inputs": [],
      "name": "upkeepCounter",
      "outputs": [
        {
          "internalType": "uint256",
          "name": "",
          "type": "uint256"
        }
      ],
      "stateMutability": "view",
      "type": "function"
    },
    {
      "inputs": [],
      "name": "verifier",
      "outputs": [
        {
          "internalType": "contract IVerifier",
          "name": "",
          "type": "address"
        }
      ],
      "stateMutability": "view",
      "type": "function"
    },
    {
      "inputs": [
        {
          "internalType": "uint256",
          "name": "",
          "type": "uint256"
        }
      ],
      "name": "zeros",
      "outputs": [
        {
          "internalType": "bytes32",
          "name": "",
          "type": "bytes32"
        }
      ],
      "stateMutability": "view",
      "type": "function"
    }
  ],
  "bytecode": "0x60a0604052600780546001600160401b03191690553480156200002157600080fd5b5060405162003d3038038062003d308339810160408190526200004491620006ff565b600080546001600160a01b0319166001600160a01b03881617815584908490339081906001600160a01b038216620000c35760405162461bcd60e51b815260206004820152601860248201527f43616e6e6f7420736574206f776e657220746f207a65726f000000000000000060448201526064015b60405180910390fd5b600280546001600160a01b0319166001600160a01b0384811691909117909155811615620000f657620000f6816200032c565b505050602063ffffffff831611156200016257604051632d5d403760e01b815260206004820152602660248201527f54726565206c6576656c732073686f756c64206265206265747765656e20302060448201526530b73210199960d11b6064820152608401620000ba565b600480546001600160a01b0319166001600160a01b03831617905563ffffffff82166080526006805460018181019092557f2fe54c60d3acabf3343a35b6eba15db4821b340f76e741e2249685ed4899af6c60008051602062003d1083398151915290910181905560058054808401825560009190915260008051602062003cf083398151915201819055905b8363ffffffff168163ffffffff1610156200026757620002108280620003d9565b60068054600181810190925560008051602062003d108339815191520182905560058054918201815560005260008051602062003cf0833981519152018190559150806200025e8162000795565b915050620001ef565b50620002748180620003d9565b60085550506001606c55506040805160008082526020820190925290620002ac565b6060815260200190600190039081620002965790505b508051620002c391607a9160209091019062000566565b50607580546001600160a01b039096166001600160a01b031990961695909517909455606e805463ffffffff90951668010000000000000000026001600160601b03199095166001600160401b039092169190911793909317909255505042606f555062000852565b6001600160a01b038116331415620003875760405162461bcd60e51b815260206004820152601760248201527f43616e6e6f74207472616e7366657220746f2073656c660000000000000000006044820152606401620000ba565b600380546001600160a01b0319166001600160a01b03838116918217909255600254604051919216907fed8889f560326eb138920d842192f0eb3dd22b4f139c87a2c57538e05bae127890600090a350565b60007f30644e72e131a029b85045b68181585d2833e84879b9709143e1f593f000000183106200044c5760405162461bcd60e51b815260206004820181905260248201527f5f6c6566742073686f756c6420626520696e7369646520746865206669656c646044820152606401620000ba565b7f30644e72e131a029b85045b68181585d2833e84879b9709143e1f593f00000018210620004c75760405162461bcd60e51b815260206004820152602160248201527f5f72696768742073686f756c6420626520696e7369646520746865206669656c6044820152601960fa1b6064820152608401620000ba565b6040805180820182528481526020810184905260048054925163014cf2b360e51b815291926001600160a01b03169163299e5660916200050a91859101620007c8565b60206040518083038186803b1580156200052357600080fd5b505afa15801562000538573d6000803e3d6000fd5b505050506040513d601f19601f820116820180604052508101906200055e9190620007fb565b949350505050565b828054828255906000526020600020908101928215620005b8579160200282015b82811115620005b85782518051620005a7918491602090910190620005ca565b509160200191906001019062000587565b50620005c692915062000655565b5090565b828054620005d89062000815565b90600052602060002090601f016020900481019282620005fc576000855562000647565b82601f106200061757805160ff191683800117855562000647565b8280016001018555821562000647579182015b82811115620006475782518255916020019190600101906200062a565b50620005c692915062000676565b80821115620005c65760006200066c82826200068d565b5060010162000655565b5b80821115620005c6576000815560010162000677565b5080546200069b9062000815565b6000825580601f10620006ac575050565b601f016020900490600052602060002090810190620006cc919062000676565b50565b6001600160a01b0381168114620006cc57600080fd5b805163ffffffff81168114620006fa57600080fd5b919050565b60008060008060008060c087890312156200071957600080fd5b86516200072681620006cf565b60208801519096506200073981620006cf565b94506200074960408801620006e5565b935060608701516200075b81620006cf565b60808801519093506001600160401b03811681146200077957600080fd5b91506200078960a08801620006e5565b90509295509295509295565b600063ffffffff80831681811415620007be57634e487b7160e01b600052601160045260246000fd5b6001019392505050565b60408101818360005b6002811015620007f2578151835260209283019290910190600101620007d1565b50505092915050565b6000602082840312156200080e57600080fd5b5051919050565b600181811c908216806200082a57607f821691505b602082108114156200084c57634e487b7160e01b600052602260045260246000fd5b50919050565b60805161346d620008836000396000818161043701528181611745015281816118250152611e6b015261346d6000f3fe608060405234801561001057600080fd5b506004361061027f5760003560e01c80638d82496e1161015c578063d4b39175116100ce578063f178e47c11610087578063f178e47c1461062b578063f2fde38b1461063e578063fc7e9c6f14610651578063fd2c80ae14610669578063fe08301214610673578063fffeb84e1461068657600080fd5b8063d4b391751461056b578063df9084eb1461059b578063e3cf998f146105bb578063e8295588146105de578063ec732959146105f1578063ed33639f1461061857600080fd5b8063bef3a2f011610120578063bef3a2f014610518578063c2b40ae414610520578063c8c586ae14610533578063cd87a3b414610546578063ce92c1b11461054e578063d328a91e1461056357600080fd5b80638d82496e146104d35780638da5cb5b146104e657806390eeb02b146104f7578063a3d3c0d214610507578063ba70f7571461051057600080fd5b8063414a37ba116101f557806359360b55116101b957806359360b5514610459578063688ecfd11461046c5780636d9833e3146104745780636e04ff0d1461048757806379ba5097146104a8578063839df945146104b057600080fd5b8063414a37ba146103c557806344022c87146103ec5780634585e33b146103ff5780634622ab03146104125780634ecf518b1461043257600080fd5b806322dc7b4c1161024757806322dc7b4c146102fc57806324b93e3e1461032f5780632997e86b1461035b5780632b7ac3f31461037e578063381fc4b5146103a957806338bf282e146103b257600080fd5b8063089ea02e1461028457806309c1ba2e146102a05780630ca76175146102cb57806311456b47146102e05780631aa46f59146102f3575b600080fd5b61028d606f5481565b6040519081526020015b60405180910390f35b606e546102b3906001600160401b031681565b6040516001600160401b039091168152602001610297565b6102de6102d936600461269a565b61068e565b005b6102de6102ee366004612706565b61071b565b61028d60725481565b61031f61030a36600461273a565b60009081526076602052604090205460ff1690565b6040519015158152602001610297565b606e5461034690600160401b900463ffffffff1681565b60405163ffffffff9091168152602001610297565b61031f61036936600461273a565b60766020526000908152604090205460ff1681565b607554610391906001600160a01b031681565b6040516001600160a01b039091168152602001610297565b61028d60715481565b61028d6103c0366004612753565b610762565b61028d7f30644e72e131a029b85045b68181585d2833e84879b9709143e1f593f000000181565b6103916103fa36600461273a565b6108ec565b6102de61040d3660046127bd565b610916565b61042561042036600461273a565b610b1a565b6040516102979190612856565b6103467f000000000000000000000000000000000000000000000000000000000000000081565b6102de6104673660046128b9565b610bc6565b610425610dfa565b61031f61048236600461273a565b610e07565b61049a610495366004612706565b610e85565b6040516102979291906129cd565b6102de610ea3565b61031f6104be36600461273a565b60776020526000908152604090205460ff1681565b6102de6104e136600461273a565b610f51565b6002546001600160a01b0316610391565b6007546103469063ffffffff1681565b61028d60705481565b61028d611052565b610425611078565b61028d61052e36600461273a565b611085565b6104256105413660046129e8565b61109c565b610346606481565b6105566110e3565b6040516102979190612a2c565b610425611145565b61057e610579366004612b6b565b6111ca565b6040516bffffffffffffffffffffffff9091168152602001610297565b6105ae6105a93660046127bd565b611262565b6040516102979190612c7c565b61031f6105c9366004612cf3565b60796020526000908152604090205460ff1681565b61028d6105ec36600461273a565b61135c565b61028d7f2fe54c60d3acabf3343a35b6eba15db4821b340f76e741e2249685ed4899af6c81565b600454610391906001600160a01b031681565b61028d61063936600461273a565b61137d565b6102de61064c366004612cf3565b61138d565b60075461034690640100000000900463ffffffff1681565b61028d62093a8081565b610425610681366004612d10565b61139e565b610425611498565b60008381526001602052604090205483906001600160a01b031633146106c75760405163a0c5ec6360e01b815260040160405180910390fd5b60008181526001602052604080822080546001600160a01b03191690555182917f85e1543bf2f84fe80c6badbce3648c8539ad1df4d2b3d822938ca0538be727e691a26107158484846114a5565b50505050565b607a8054600181018255600091909152815161075e917ff0440771a29e57e18c66727944770b82cc77924aef333c927ce6bdd2cdb3ae03019060208401906123b0565b5050565b60007f30644e72e131a029b85045b68181585d2833e84879b9709143e1f593f000000183106107d85760405162461bcd60e51b815260206004820181905260248201527f5f6c6566742073686f756c6420626520696e7369646520746865206669656c6460448201526064015b60405180910390fd5b7f30644e72e131a029b85045b68181585d2833e84879b9709143e1f593f000000182106108515760405162461bcd60e51b815260206004820152602160248201527f5f72696768742073686f756c6420626520696e7369646520746865206669656c6044820152601960fa1b60648201526084016107cf565b6040805180820182528481526020810184905260048054925163014cf2b360e51b815291926001600160a01b03169163299e56609161089291859101612dd8565b60206040518083038186803b1580156108aa57600080fd5b505afa1580156108be573d6000803e3d6000fd5b505050506040513d601f19601f820116820180604052508101906108e29190612e09565b9150505b92915050565b607b81815481106108fc57600080fd5b6000918252602090912001546001600160a01b0316905081565b600061093060405180602001604052806000815250610e85565b5090508061097957604051630db8da5960e21b8152602060048201526015602482015274151a5b59481a5b9d195c9d985b081b9bdd081b595d605a1b60448201526064016107cf565b42606f5560705461098b906001612e38565b60705560008054606e54604051630a090ac160e21b81526001600160a01b03909216916328242b04916109dd916001600160401b03821691606d91600160401b90910463ffffffff1690600401612e85565b602060405180830381600087803b1580156109f757600080fd5b505af1158015610a0b573d6000803e3d6000fd5b505050506040513d601f19601f82011682018060405250810190610a2f9190612e09565b9050610a396115a0565b60008054906101000a90046001600160a01b03166001600160a01b0316635ab1bd536040518163ffffffff1660e01b815260040160206040518083038186803b158015610a8557600080fd5b505afa158015610a99573d6000803e3d6000fd5b505050506040513d601f19601f82011682018060405250810190610abd9190612f26565b60008281526001602052604080822080546001600160a01b0319166001600160a01b039490941693909317909255905182917f1131472297a800fee664d1d89cfa8f7676ff07189ecc53f80bbb5f4969099db891a2607255505050565b607a8181548110610b2a57600080fd5b906000526020600020016000915090508054610b4590612e50565b80601f0160208091040260200160405190810160405280929190818152602001828054610b7190612e50565b8015610bbe5780601f10610b9357610100808354040283529160200191610bbe565b820191906000526020600020905b815481529060010190602001808311610ba157829003601f168201915b505050505081565b610bce6116d2565b60008381526076602052604090205460ff1615610c2757604051633c564aa760e01b8152602060048201526016602482015275139d5b1b1a599a595c88185b1c9958591e481d5cd95960521b60448201526064016107cf565b610c3082610e07565b610c6e57604051632d3b008160e21b815260206004820152600e60248201526d2937b7ba103737ba1035b737bbb760911b60448201526064016107cf565b6040805180820182528381526020808201869052607554845191850151858501519451637ae4eb4f60e11b815293946001600160a01b039092169363f5c9d69e93610cc0939092918790600401612f66565b602060405180830381600087803b158015610cda57600080fd5b505af1158015610cee573d6000803e3d6000fd5b505050506040513d601f19601f82011682018060405250810190610d129190612fcd565b610d4f5760405163179f55d760e01b815260206004820152600d60248201526c24b73b30b634b210383937b7b360991b60448201526064016107cf565b60008481526076602052604090819020805460ff1916600117905551607890610d79908890612fef565b9081526040516020918190038201902080546001810182556000918252908290208751610dae939190920191908801906123b0565b507f06b6c80bb5c4b26d73a7cf3586c1b2f17bd79f8f7fd3c3e14f9cd709265741208585604051610de092919061300b565b60405180910390a150610df36001606c55565b5050505050565b606d8054610b4590612e50565b600081610e1657506000919050565b60075463ffffffff165b60088163ffffffff1660648110610e3957610e3961302d565b0154831415610e4b5750600192915050565b63ffffffff8116610e5a575060645b80610e6481613043565b60075490925063ffffffff808416911614159050610e205750600092915050565b6000606062093a80606f5442610e9b9190613063565b119150915091565b6003546001600160a01b03163314610ef65760405162461bcd60e51b815260206004820152601660248201527526bab9ba10313290383937b837b9b2b21037bbb732b960511b60448201526064016107cf565b600280546001600160a01b0319808216339081179093556003805490911690556040516001600160a01b03909116919082907f8be0079c531659141344cd1fd0a4f28419497f9722a3daafe3b4186f6b6457e090600090a350565b610f596116d2565b336000818152607960205260409020805460ff1916600117905560008281526077602052604090205460ff1615610fd35760405163323377d160e01b815260206004820152601760248201527f436f6d6d69746d656e7420616c7265616479207573656400000000000000000060448201526064016107cf565b6000610fde8361172c565b60008481526077602052604090819020805460ff19166001179055519091507fb78452bc487dc90d6a0a567cf87858dae69e144c5f299a43ed6964629c219e2a9061103b908590849091825263ffffffff16602082015260400190565b60405180910390a1505061104f6001606c55565b50565b60075460009060089063ffffffff16606481106110715761107161302d565b0154905090565b60738054610b4590612e50565b6008816064811061109557600080fd5b0154905081565b815160208184018101805160788252928201918501919091209190528054829081106110c757600080fd5b90600052602060002001600091509150508054610b4590612e50565b6060607b80548060200260200160405190810160405280929190818152602001828054801561113b57602002820191906000526020600020905b81546001600160a01b0316815260019091019060200180831161111d575b5050505050905090565b6000805460408051636994548f60e11b815290516060936001600160a01b039093169263d328a91e9260048082019391829003018186803b15801561118957600080fd5b505afa15801561119d573d6000803e3d6000fd5b505050506040513d6000823e601f3d908101601f191682016040526111c5919081019061307a565b905090565b600080546001600160a01b031663d227d245856111e68861198e565b86866040518563ffffffff1660e01b815260040161120794939291906130e7565b60206040518083038186803b15801561121f57600080fd5b505afa158015611233573d6000803e3d6000fd5b505050506040513d601f19601f820116820180604052508101906112579190613122565b90505b949350505050565b606060788383604051611276929190613150565b9081526020016040518091039020805480602002602001604051908101604052809291908181526020016000905b828210156113505783829060005260206000200180546112c390612e50565b80601f01602080910402602001604051908101604052809291908181526020018280546112ef90612e50565b801561133c5780601f106113115761010080835404028352916020019161133c565b820191906000526020600020905b81548152906001019060200180831161131f57829003601f168201915b5050505050815260200190600101906112a4565b50505050905092915050565b6006818154811061136c57600080fd5b600091825260209091200154905081565b6005818154811061136c57600080fd5b611395611baa565b61104f81611bff565b60606113da6040805160c08101909152806000815260200160008152602001600081526020016060815260200160608152602001606081525090565b6114216000808a8a8080601f01602080910402602001604051908101604052809392919081815260200183838082843760009201919091525087959493925050611caa9050565b84156114695761146986868080601f0160208091040260200160405190810160405280939291908181526020018383808284376000920191909152508593925050611d259050565b82156114835761148361147c8486613160565b8290611d53565b61148c8161198e565b98975050505050505050565b60748054610b4590612e50565b81516114b89060739060208501906123b0565b5080516114cc9060749060208401906123b0565b50827f7bab0ec163b5c132c72b8146ac4d6e067e82ed58f8b131150aa71c925891156283836040516114ff92919061316d565b60405180910390a260005b8251811015610715576000838060200190518101906115299190612f26565b6001600160a01b03166000818152607960205260408120805460ff19166001908117909155607b805491820181559091527f5569044719a1ec3b04d0afa9e7a5310c7c0473331d13dc9fafe143b2c4e8148a0180546001600160a01b0319169091179055508061159881613192565b91505061150a565b607a5460005b81811015611606576078607a82815481106115c3576115c361302d565b906000526020600020016040516115da91906131ad565b908152602001604051809103902060006115f49190612434565b806115fe81613192565b9150506115a6565b5060005b607b5481101561167357600060796000607b848154811061162d5761162d61302d565b6000918252602080832091909101546001600160a01b031683528201929092526040019020805460ff19169115159190911790558061166b81613192565b91505061160a565b50611680607b6000612452565b604080516000815260208101918290525161169d91607b91612470565b506116a6611d7a565b6040517f84b7226822737d667aa57d064ceffa18dbf761c762c54d5b119bfbc3275bf18a90600090a150565b6002606c5414156117255760405162461bcd60e51b815260206004820152601f60248201527f5265656e7472616e637947756172643a207265656e7472616e742063616c6c0060448201526064016107cf565b6002606c55565b600754600090640100000000900463ffffffff1661176b7f00000000000000000000000000000000000000000000000000000000000000006002613303565b8163ffffffff16106117d85760405163d7e8473f60e01b815260206004820152602f60248201527f4d65726b6c6520747265652069732066756c6c2e204e6f206d6f7265206c656160448201526e199cc818d85b881899481859191959608a1b60648201526084016107cf565b6001600760048282829054906101000a900463ffffffff166117fa9190613315565b92506101000a81548163ffffffff021916908363ffffffff160217905550600083905060008060005b7f000000000000000000000000000000000000000000000000000000000000000063ffffffff168163ffffffff16101561191557611862600286613353565b63ffffffff166118c05783925060068163ffffffff16815481106118885761188861302d565b906000526020600020015491508360058263ffffffff16815481106118af576118af61302d565b6000918252602090912001556118ea565b60058163ffffffff16815481106118d9576118d961302d565b906000526020600020015492508391505b6118f48383610762565b9350611901600286613376565b94508061190d81613399565b915050611823565b5060075460649061192d9063ffffffff166001613315565b6119379190613353565b6007805463ffffffff191663ffffffff9290921691821790558390600890606481106119655761196561302d565b015560075461198490600190640100000000900463ffffffff166133bd565b9695505050505050565b60606119ad604051806040016040528060608152602001600081525090565b6119b981610100611f2e565b5060408051808201909152600c81526b31b7b232a637b1b0ba34b7b760a11b60208201526119e8908290611f93565b8251611a069060018111156119ff576119ff6133e2565b8290611faf565b6040805180820190915260088152676c616e677561676560c01b6020820152611a30908290611f93565b6040830151611a479080156119ff576119ff6133e2565b604080518082019091526006815265736f7572636560d01b6020820152611a6f908290611f93565b6060830151611a7f908290611f93565b60a08301515115611b15576040805180820190915260048152636172677360e01b6020820152611ab0908290611f93565b611ab981611fd4565b60005b8360a0015151811015611b0b57611af98460a001518281518110611ae257611ae261302d565b602002602001015183611f9390919063ffffffff16565b80611b0381613192565b915050611abc565b50611b1581611fdf565b60808301515115611ba35760408051808201909152600f81526e39b2b1b932ba39a637b1b0ba34b7b760891b6020820152611b51908290611f93565b611b6a836020015160018111156119ff576119ff6133e2565b6040805180820190915260078152667365637265747360c81b6020820152611b93908290611f93565b6080830151611ba3908290611fea565b5192915050565b6002546001600160a01b03163314611bfd5760405162461bcd60e51b815260206004820152601660248201527527b7363c9031b0b63630b1363290313c9037bbb732b960511b60448201526064016107cf565b565b6001600160a01b038116331415611c585760405162461bcd60e51b815260206004820152601760248201527f43616e6e6f74207472616e7366657220746f2073656c6600000000000000000060448201526064016107cf565b600380546001600160a01b0319166001600160a01b03838116918217909255600254604051919216907fed8889f560326eb138920d842192f0eb3dd22b4f139c87a2c57538e05bae127890600090a350565b8051611cc9576040516322ce3edd60e01b815260040160405180910390fd5b83836001811115611cdc57611cdc6133e2565b90816001811115611cef57611cef6133e2565b90525060408401828015611d0557611d056133e2565b90818015611d1557611d156133e2565b9052506060909301929092525050565b8051611d445760405163e889636f60e01b815260040160405180910390fd5b60016020830152608090910152565b8051611d725760405163fe936cb760e01b815260040160405180910390fd5b60a090910152565b611d8660056000612452565b611d9260066000612452565b6040805160008152602081019182905251611daf916005916124c5565b506040805160008152602081019182905251611dcd916006916124c5565b506007805467ffffffffffffffff191690556006805460018181019092557f2fe54c60d3acabf3343a35b6eba15db4821b340f76e741e2249685ed4899af6c7ff652222313e28459528d920b65115c16c04f3efc82aaedc97be59f3f377c0d3f9091018190556005805480840182556000919091527f036b6384b5eca791c62761152d0c79bb0604c104a5fb6f4eb0703f3154bb3db001819055905b7f000000000000000000000000000000000000000000000000000000000000000063ffffffff168163ffffffff161015611f1d57611ea78283610762565b6006805460018181019092557ff652222313e28459528d920b65115c16c04f3efc82aaedc97be59f3f377c0d3f018290556005805491820181556000527f036b6384b5eca791c62761152d0c79bb0604c104a5fb6f4eb0703f3154bb3db001819055915080611f1581613399565b915050611e69565b50611f288182610762565b60085550565b604080518082019091526060815260006020820152611f4e6020836133f8565b15611f7657611f5e6020836133f8565b611f69906020613063565b611f739083612e38565b91505b506020828101829052604080518085526000815290920101905290565b611fa08260038351611ff3565b611faa82826120fa565b505050565b6001600160401b03811115611fc85761075e8282612128565b61075e82600083611ff3565b61104f81600461215f565b61104f81600761215f565b611fa082600283515b6017816001600160401b031611612017576107158360e0600585901b168317612170565b60ff816001600160401b0316116120535761203d836018611fe0600586901b1617612170565b50610715836001600160401b0383166001612195565b61ffff816001600160401b0316116120905761207a836019611fe0600586901b1617612170565b50610715836001600160401b0383166002612195565b63ffffffff816001600160401b0316116120cf576120b983601a611fe0600586901b1617612170565b50610715836001600160401b0383166004612195565b6120e483601b611fe0600586901b1617612170565b50610715836001600160401b0383166008612195565b604080518082019091526060815260006020820152612121838460000151518485516121bb565b9392505050565b6121338260c2612170565b5061075e828260405160200161214b91815260200190565b604051602081830303815290604052611fea565b611faa82601f611fe0600585901b16175b60408051808201909152606081526000602082015261212183846000015151846122a5565b60408051808201909152606081526000602082015261125a848560000151518585612301565b60408051808201909152606081526000602082015282518211156121de57600080fd5b60208501516121ed8386612e38565b111561222057612220856122108760200151878661220b9190612e38565b612382565b61221b90600261340c565b612399565b60008086518051876020830101935080888701111561223f5787860182525b505050602084015b6020841061227f578051825261225e602083612e38565b915061226b602082612e38565b9050612278602085613063565b9350612247565b51815160001960208690036101000a019081169019919091161790525083949350505050565b604080518082019091526060815260006020820152836020015183106122da576122da848560200151600261221b919061340c565b8351805160208583010184815350808514156122f7576001810182525b5093949350505050565b60408051808201909152606081526000602082015260208501516123258584612e38565b111561233957612339856122108685612e38565b600060016123498461010061342b565b6123539190613063565b90508551838682010185831982511617815250805184870111156123775783860181525b509495945050505050565b6000818311156123935750816108e6565b50919050565b81516123a58383611f2e565b5061071583826120fa565b8280546123bc90612e50565b90600052602060002090601f0160209004810192826123de5760008555612424565b82601f106123f757805160ff1916838001178555612424565b82800160010185558215612424579182015b82811115612424578251825591602001919060010190612409565b506124309291506124ff565b5090565b508054600082559060005260206000209081019061104f9190612514565b508054600082559060005260206000209081019061104f91906124ff565b828054828255906000526020600020908101928215612424579160200282015b8281111561242457825182546001600160a01b0319166001600160a01b03909116178255602090920191600190910190612490565b8280548282559060005260206000209081019282156124245791602002820182811115612424578251825591602001919060010190612409565b5b808211156124305760008155600101612500565b808211156124305760006125288282612531565b50600101612514565b50805461253d90612e50565b6000825580601f1061254d575050565b601f01602090049060005260206000209081019061104f91906124ff565b634e487b7160e01b600052604160045260246000fd5b604051606081016001600160401b03811182821017156125a3576125a361256b565b60405290565b60405160c081016001600160401b03811182821017156125a3576125a361256b565b604080519081016001600160401b03811182821017156125a3576125a361256b565b604051601f8201601f191681016001600160401b03811182821017156126155761261561256b565b604052919050565b60006001600160401b038211156126365761263661256b565b50601f01601f191660200190565b600082601f83011261265557600080fd5b81356126686126638261261d565b6125ed565b81815284602083860101111561267d57600080fd5b816020850160208301376000918101602001919091529392505050565b6000806000606084860312156126af57600080fd5b8335925060208401356001600160401b03808211156126cd57600080fd5b6126d987838801612644565b935060408601359150808211156126ef57600080fd5b506126fc86828701612644565b9150509250925092565b60006020828403121561271857600080fd5b81356001600160401b0381111561272e57600080fd5b6108e284828501612644565b60006020828403121561274c57600080fd5b5035919050565b6000806040838503121561276657600080fd5b50508035926020909101359150565b60008083601f84011261278757600080fd5b5081356001600160401b0381111561279e57600080fd5b6020830191508360208285010111156127b657600080fd5b9250929050565b600080602083850312156127d057600080fd5b82356001600160401b038111156127e657600080fd5b6127f285828601612775565b90969095509350505050565b60005b83811015612819578181015183820152602001612801565b838111156107155750506000910152565b600081518084526128428160208601602086016127fe565b601f01601f19169290920160200192915050565b602081526000612121602083018461282a565b600082601f83011261287a57600080fd5b6128826125cb565b80604084018581111561289457600080fd5b845b818110156128ae578035845260209384019301612896565b509095945050505050565b60008060008060008587036101808112156128d357600080fd5b86356001600160401b03808211156128ea57600080fd5b6128f68a838b01612644565b975060209150818901358181111561290d57600080fd5b6129198b828c01612644565b97505050604088810135955060608901359450610100607f198401121561293f57600080fd5b612947612581565b92506129568a60808b01612869565b83528960df8a011261296757600080fd5b61296f6125cb565b806101408b018c81111561298257600080fd5b60c08c015b818110156129a6576129998e82612869565b8452928501928401612987565b5081858701526129b68d82612869565b848701525050505050809150509295509295909350565b821515815260406020820152600061125a604083018461282a565b600080604083850312156129fb57600080fd5b82356001600160401b03811115612a1157600080fd5b612a1d85828601612644565b95602094909401359450505050565b6020808252825182820181905260009190848201906040850190845b81811015612a6d5783516001600160a01b031683529284019291840191600101612a48565b50909695505050505050565b803560028110612a8857600080fd5b919050565b803560018110612a8857600080fd5b60006001600160401b0380841115612ab657612ab661256b565b8360051b6020612ac78183016125ed565b86815293509084019080840187831115612ae057600080fd5b855b83811015612b1457803585811115612afa5760008081fd5b612b068a828a01612644565b835250908201908201612ae2565b50505050509392505050565b600082601f830112612b3157600080fd5b61212183833560208501612a9c565b80356001600160401b0381168114612a8857600080fd5b803563ffffffff81168114612a8857600080fd5b60008060008060808587031215612b8157600080fd5b84356001600160401b0380821115612b9857600080fd5b9086019060c08289031215612bac57600080fd5b612bb46125a9565b612bbd83612a79565b8152612bcb60208401612a79565b6020820152612bdc60408401612a8d565b6040820152606083013582811115612bf357600080fd5b612bff8a828601612644565b606083015250608083013582811115612c1757600080fd5b612c238a828601612644565b60808301525060a083013582811115612c3b57600080fd5b612c478a828601612b20565b60a0830152509550612c5e91505060208601612b40565b9250612c6c60408601612b57565b9396929550929360600135925050565b6000602080830181845280855180835260408601915060408160051b870101925083870160005b82811015612cd157603f19888603018452612cbf85835161282a565b94509285019290850190600101612ca3565b5092979650505050505050565b6001600160a01b038116811461104f57600080fd5b600060208284031215612d0557600080fd5b813561212181612cde565b60008060008060008060608789031215612d2957600080fd5b86356001600160401b0380821115612d4057600080fd5b612d4c8a838b01612775565b90985096506020890135915080821115612d6557600080fd5b612d718a838b01612775565b90965094506040890135915080821115612d8a57600080fd5b818901915089601f830112612d9e57600080fd5b813581811115612dad57600080fd5b8a60208260051b8501011115612dc257600080fd5b6020830194508093505050509295509295509295565b60408101818360005b6002811015612e00578151835260209283019290910190600101612de1565b50505092915050565b600060208284031215612e1b57600080fd5b5051919050565b634e487b7160e01b600052601160045260246000fd5b60008219821115612e4b57612e4b612e22565b500190565b600181811c90821680612e6457607f821691505b6020821081141561239357634e487b7160e01b600052602260045260246000fd5b6001600160401b03841681526000602060608184015260008554612ea881612e50565b8060608701526080600180841660008114612eca5760018114612ede57612f0c565b60ff1985168984015260a089019550612f0c565b8a6000528660002060005b85811015612f045781548b8201860152908301908801612ee9565b8a0184019650505b5050505063ffffffff8616604086015250915061125a9050565b600060208284031215612f3857600080fd5b815161212181612cde565b8060005b6002811015610715578151845260209384019390910190600101612f47565b6101408101612f758287612f43565b60408083018660005b6002811015612fa557612f92838351612f43565b9183019160209190910190600101612f7e565b50505050612fb660c0830185612f43565b612fc4610100830184612f43565b95945050505050565b600060208284031215612fdf57600080fd5b8151801515811461212157600080fd5b600082516130018184602087016127fe565b9190910192915050565b60408152600061301e604083018561282a565b90508260208301529392505050565b634e487b7160e01b600052603260045260246000fd5b600063ffffffff82168061305957613059612e22565b6000190192915050565b60008282101561307557613075612e22565b500390565b60006020828403121561308c57600080fd5b81516001600160401b038111156130a257600080fd5b8201601f810184136130b357600080fd5b80516130c16126638261261d565b8181528560208385010111156130d657600080fd5b612fc48260208301602086016127fe565b6001600160401b0385168152608060208201526000613109608083018661282a565b63ffffffff949094166040830152506060015292915050565b60006020828403121561313457600080fd5b81516bffffffffffffffffffffffff8116811461212157600080fd5b8183823760009101908152919050565b6000612121368484612a9c565b604081526000613180604083018561282a565b8281036020840152612fc4818561282a565b60006000198214156131a6576131a6612e22565b5060010190565b60008083546131bb81612e50565b600182811680156131d357600181146131e457613213565b60ff19841687528287019450613213565b8760005260208060002060005b8581101561320a5781548a8201529084019082016131f1565b50505082870194505b50929695505050505050565b600181815b8085111561325a57816000190482111561324057613240612e22565b8085161561324d57918102915b93841c9390800290613224565b509250929050565b600082613271575060016108e6565b8161327e575060006108e6565b8160018114613294576002811461329e576132ba565b60019150506108e6565b60ff8411156132af576132af612e22565b50506001821b6108e6565b5060208310610133831016604e8410600b84101617156132dd575081810a6108e6565b6132e7838361321f565b80600019048211156132fb576132fb612e22565b029392505050565b600061212163ffffffff841683613262565b600063ffffffff80831681851680830382111561333457613334612e22565b01949350505050565b634e487b7160e01b600052601260045260246000fd5b600063ffffffff8084168061336a5761336a61333d565b92169190910692915050565b600063ffffffff8084168061338d5761338d61333d565b92169190910492915050565b600063ffffffff808316818114156133b3576133b3612e22565b6001019392505050565b600063ffffffff838116908316818110156133da576133da612e22565b039392505050565b634e487b7160e01b600052602160045260246000fd5b6000826134075761340761333d565b500690565b600081600019048311821515161561342657613426612e22565b500290565b6000612121838361326256fea2646970667358221220afaa4e9979b29821e4d9e6603463455719848e75d3576a58a087b33810cbe28064736f6c63430008090033036b6384b5eca791c62761152d0c79bb0604c104a5fb6f4eb0703f3154bb3db0f652222313e28459528d920b65115c16c04f3efc82aaedc97be59f3f377c0d3f",
  "linkReferences": {},
  "deployedLinkReferences": {}
}