{
  "_format": "hh-sol-artifact-1",
  "contractName": "Verifier",
  "sourceName": "contracts/Verifier.sol",
  "abi": [
    {
      "inputs": [
        {
          "internalType": "uint256[2]",
          "name": "a",
          "type": "uint256[2]"
        },
        {
          "internalType": "uint256[2][2]",
          "name": "b",
          "type": "uint256[2][2]"
        },
        {
          "internalType": "uint256[2]",
          "name": "c",
          "type": "uint256[2]"
        },
        {
          "internalType": "uint256[2]",
          "name": "input",
          "type": "uint256[2]"
        }
      ],
      "name": "verifyProof",
      "outputs": [
        {
          "internalType": "bool",
          "name": "r",
          "type": "bool"
        }
      ],
      "stateMutability": "view",
      "type": "function"
    }
  ],
  "bytecode": "0x608060405234801561001057600080fd5b50611192806100206000396000f3fe608060405234801561001057600080fd5b506004361061002b5760003560e01c8063f5c9d69e14610030575b600080fd5b61004361003e366004611005565b610057565b604051901515815260200160405180910390f35b6000610061610e2e565b60408051808201825287518152602080890151818301529083528151608081018352875151818401908152885183015160608084019190915290825283518085018552898401805151825251840151818501528284015284830191909152825180840184528751815287830151818401528484015282516002808252918101845260009390928301908036833701905050905060005b600281101561014657848160028110610112576101126110a5565b6020020151828281518110610129576101296110a5565b60209081029190910101528061013e816110d1565b9150506100f7565b50610151818361016f565b61016057600192505050610167565b6000925050505b949350505050565b60007f30644e72e131a029b85045b68181585d2833e84879b9709143e1f593f00000018161019b610366565b9050806080015151855160016101b191906110ec565b146101f85760405162461bcd60e51b81526020600482015260126024820152711d995c9a599a595c8b5898590b5a5b9c1d5d60721b60448201526064015b60405180910390fd5b604080518082019091526000808252602082018190525b86518110156102e9578387828151811061022b5761022b6110a5565b6020026020010151106102805760405162461bcd60e51b815260206004820152601f60248201527f76657269666965722d6774652d736e61726b2d7363616c61722d6669656c640060448201526064016101ef565b6102d5826102d0856080015184600161029991906110ec565b815181106102a9576102a96110a5565b60200260200101518a85815181106102c3576102c36110a5565b6020026020010151610779565b610815565b9150806102e1816110d1565b91505061020f565b50610312818360800151600081518110610305576103056110a5565b6020026020010151610815565b905061034861032486600001516108ad565b8660200151846000015185602001518587604001518b60400151896060015161094c565b6103585760019350505050610360565b600093505050505b92915050565b61036e610e7f565b6040805180820182527f235e824ccf89445b0aefb6a19a07c9091fd221c5956411acac805e176d40709c81527f157e0b85c6e80729978aa9ea73a4ee077998ebfd80bf2212e64294a51994ae416020808301919091529083528151608080820184527f0ebcf87d421c3fed10564fbe6394da951e2798fb4bf447bf85c4767fa697969a8285019081527f09ff83e5d68a4f61e1030ec43a311bf3ca526258dd1d7551f5c764e37df891b6606080850191909152908352845180860186527f165c6cb201a7871735a1074b0d7d02a841407bb9379e83f39161634c1e705c5781527f1ed540fad5668a1c64673df127475cd07946d458bf1c309c36bca8d05ceaa408818601528385015285840192909252835180820185527f198e9393920d483a7260bfb731fb5d25f1aa493335a9e71297e485b7aef312c28186019081527f1800deef121f1e76426a00665e5c4479674322d4f75edadd46debd5cd992f6ed828501528152845180860186527f090689d0585ff075ec9e99ad690c3395bc4b313370b38ef355acdadcd122975b81527f12c85ea5db8c6deb4aab71808dcb408fe3d1e7690c43d37b4ce6cc0166fa7daa818601528185015285850152835180820185527f123501bb66389215afdb4d0e7758d6e7a83aca47f75f55b86ca1c0c957e0840d8186019081527f1a2a663dbf3a3a2522ba33f75a4101d4d0ff83541007067314302a786f4b0afd828501528152845180860186527f29272f895e07cd14dbf57a6e21fdcf316f3aa86ac12e1960c571dc35b783533d81527f296c8b3d192c94f8ceea293e9d4798fe75ce3c4fc6fee0f002d14346b7dfb5bb818601528185015291850191909152825160038082529181019093529082015b60408051808201909152600080825260208201528152602001906001900390816105ea57505060808201908152604080518082019091527f2b2168286a60719db6779123917b4bc7485f9489cf7f7ddfecd45c8e4d5fa09681527f1ae39a5f4bbf921c779968679de9d0925043e45feb42c2ac19e0a6e359cefd9a60208201529051805160009061067d5761067d6110a5565b602002602001018190525060405180604001604052807f2fd4c0874e6e123d2efa02616e541991495843da07667186cbba451bb192cf2e81526020017f294dc40a37d9820e2537f13ca3717147632be4ce500e9f09d336a70214f0193781525081608001516001815181106106f4576106f46110a5565b602002602001018190525060405180604001604052807f0c4bea01e57c61715f6d1a1d0c33c42c23528896baabe33947cf4e64600b71bf81526020017f1a027b95f3037d083ac8d253684e2b24cacca79c0fe3ab7ab49104a5203c2198815250816080015160028151811061076b5761076b6110a5565b602002602001018190525090565b6040805180820190915260008082526020820152610795610ed0565b835181526020808501519082015260408101839052600060608360808460076107d05a03fa90508080156107c8576107ca565bfe5b508061080d5760405162461bcd60e51b81526020600482015260126024820152711c185a5c9a5b99cb5b5d5b0b59985a5b195960721b60448201526064016101ef565b505092915050565b6040805180820190915260008082526020820152610831610eee565b8351815260208085015181830152835160408301528301516060808301919091526000908360c08460066107d05a03fa90508080156107c857508061080d5760405162461bcd60e51b81526020600482015260126024820152711c185a5c9a5b99cb5859190b59985a5b195960721b60448201526064016101ef565b604080518082019091526000808252602082015281517f30644e72e131a029b85045b68181585d97816a916871ca8d3c208c16d87cfd47901580156108f457506020830151155b156109145750506040805180820190915260008082526020820152919050565b6040518060400160405280846000015181526020018285602001516109399190611104565b6109439084611126565b90529392505050565b60408051600480825260a08201909252600091829190816020015b604080518082019091526000808252602082015281526020019060019003908161096757505060408051600480825260a0820190925291925060009190602082015b6109b1610f0c565b8152602001906001900390816109a95790505090508a826000815181106109da576109da6110a5565b602002602001018190525088826001815181106109f9576109f96110a5565b60200260200101819052508682600281518110610a1857610a186110a5565b60200260200101819052508482600381518110610a3757610a376110a5565b60200260200101819052508981600081518110610a5657610a566110a5565b60200260200101819052508781600181518110610a7557610a756110a5565b60200260200101819052508581600281518110610a9457610a946110a5565b60200260200101819052508381600381518110610ab357610ab36110a5565b6020026020010181905250610ac88282610ad7565b9b9a5050505050505050505050565b60008151835114610b235760405162461bcd60e51b81526020600482015260166024820152751c185a5c9a5b99cb5b195b99dd1a1ccb59985a5b195960521b60448201526064016101ef565b82516000610b3282600661113d565b905060008167ffffffffffffffff811115610b4f57610b4f610f68565b604051908082528060200260200182016040528015610b78578160200160208202803683370190505b50905060005b83811015610db357868181518110610b9857610b986110a5565b60200260200101516000015182826006610bb2919061113d565b610bbd9060006110ec565b81518110610bcd57610bcd6110a5565b602002602001018181525050868181518110610beb57610beb6110a5565b60200260200101516020015182826006610c05919061113d565b610c109060016110ec565b81518110610c2057610c206110a5565b602002602001018181525050858181518110610c3e57610c3e6110a5565b6020908102919091010151515182610c5783600661113d565b610c629060026110ec565b81518110610c7257610c726110a5565b602002602001018181525050858181518110610c9057610c906110a5565b60209081029190910181015151015182610cab83600661113d565b610cb69060036110ec565b81518110610cc657610cc66110a5565b602002602001018181525050858181518110610ce457610ce46110a5565b602002602001015160200151600060028110610d0257610d026110a5565b602002015182610d1383600661113d565b610d1e9060046110ec565b81518110610d2e57610d2e6110a5565b602002602001018181525050858181518110610d4c57610d4c6110a5565b602002602001015160200151600160028110610d6a57610d6a6110a5565b602002015182610d7b83600661113d565b610d869060056110ec565b81518110610d9657610d966110a5565b602090810291909101015280610dab816110d1565b915050610b7e565b50610dbc610f2c565b6000602082602086026020860160086107d05a03fa90508080156107c8575080610e205760405162461bcd60e51b81526020600482015260156024820152741c185a5c9a5b99cb5bdc18dbd9194b59985a5b1959605a1b60448201526064016101ef565b505115159695505050505050565b6040805160a081019091526000606082018181526080830191909152815260208101610e58610f0c565b8152602001610e7a604051806040016040528060008152602001600081525090565b905290565b6040805160e08101909152600060a0820181815260c0830191909152815260208101610ea9610f0c565b8152602001610eb6610f0c565b8152602001610ec3610f0c565b8152602001606081525090565b60405180606001604052806003906020820280368337509192915050565b60405180608001604052806004906020820280368337509192915050565b6040518060400160405280610f1f610f4a565b8152602001610e7a610f4a565b60405180602001604052806001906020820280368337509192915050565b60405180604001604052806002906020820280368337509192915050565b634e487b7160e01b600052604160045260246000fd5b6040805190810167ffffffffffffffff81118282101715610faf57634e487b7160e01b600052604160045260246000fd5b60405290565b600082601f830112610fc657600080fd5b610fce610f7e565b806040840185811115610fe057600080fd5b845b81811015610ffa578035845260209384019301610fe2565b509095945050505050565b600080600080610140858703121561101c57600080fd5b6110268686610fb5565b9350604086605f87011261103957600080fd5b611041610f7e565b8060c088018981111561105357600080fd5b8389015b81811015611078576110698b82610fb5565b84526020909301928401611057565b508196506110868a82610fb5565b95505050505061109a866101008701610fb5565b905092959194509250565b634e487b7160e01b600052603260045260246000fd5b634e487b7160e01b600052601160045260246000fd5b60006000198214156110e5576110e56110bb565b5060010190565b600082198211156110ff576110ff6110bb565b500190565b60008261112157634e487b7160e01b600052601260045260246000fd5b500690565b600082821015611138576111386110bb565b500390565b6000816000190483118215151615611157576111576110bb565b50029056fea26469706673582212202e822ea14b8aaf35400e89717aba1e9f9848a225052494219f2225eb29467daf64736f6c63430008090033",
  "linkReferences": {},
  "deployedLinkReferences": {}
}